{
	"data": {
		"bytecode": {
			"linkReferences": {},
			"object": "608060405234801561000f575f5ffd5b50604051612b0a380380612b0a833981810160405281019061003191906105b5565b335f73ffffffffffffffffffffffffffffffffffffffff168173ffffffffffffffffffffffffffffffffffffffff16036100a2575f6040517f1e4fbdf70000000000000000000000000000000000000000000000000000000081526004016100999190610602565b60405180910390fd5b6100b18161049660201b60201c565b50600180819055505f73ffffffffffffffffffffffffffffffffffffffff168273ffffffffffffffffffffffffffffffffffffffff1603610127576040517f08c379a000000000000000000000000000000000000000000000000000000000815260040161011e90610675565b60405180910390fd5b5f73ffffffffffffffffffffffffffffffffffffffff168173ffffffffffffffffffffffffffffffffffffffff1603610195576040517f08c379a000000000000000000000000000000000000000000000000000000000815260040161018c906106dd565b60405180910390fd5b8160055f6101000a81548173ffffffffffffffffffffffffffffffffffffffff021916908373ffffffffffffffffffffffffffffffffffffffff1602179055508060065f6101000a81548173ffffffffffffffffffffffffffffffffffffffff021916908373ffffffffffffffffffffffffffffffffffffffff16021790555060405180608001604052805f6002811115610233576102326106fb565b5b81526020015f81526020015f81526020016001151581525060025f5f6002811115610261576102606106fb565b5b6002811115610273576102726106fb565b5b81526020019081526020015f205f820151815f015f6101000a81548160ff021916908360028111156102a8576102a76106fb565b5b021790555060208201518160010155604082015181600201556060820151816003015f6101000a81548160ff021916908315150217905550905050604051806080016040528060016002811115610302576103016106fb565b5b8152602001621e8480815260200162278d0081526020016001151581525060025f60016002811115610337576103366106fb565b5b6002811115610349576103486106fb565b5b81526020019081526020015f205f820151815f015f6101000a81548160ff0219169083600281111561037e5761037d6106fb565b5b021790555060208201518160010155604082015181600201556060820151816003015f6101000a81548160ff02191690831515021790555090505060405180608001604052806002808111156103d7576103d66106fb565b5b81526020016301312d0081526020016301e1338081526020016001151581525060025f60028081111561040d5761040c6106fb565b5b600281111561041f5761041e6106fb565b5b81526020019081526020015f205f820151815f015f6101000a81548160ff02191690836002811115610454576104536106fb565b5b021790555060208201518160010155604082015181600201556060820151816003015f6101000a81548160ff0219169083151502179055509050505050610728565b5f5f5f9054906101000a900473ffffffffffffffffffffffffffffffffffffffff169050815f5f6101000a81548173ffffffffffffffffffffffffffffffffffffffff021916908373ffffffffffffffffffffffffffffffffffffffff1602179055508173ffffffffffffffffffffffffffffffffffffffff168173ffffffffffffffffffffffffffffffffffffffff167f8be0079c531659141344cd1fd0a4f28419497f9722a3daafe3b4186f6b6457e060405160405180910390a35050565b5f5ffd5b5f73ffffffffffffffffffffffffffffffffffffffff82169050919050565b5f6105848261055b565b9050919050565b6105948161057a565b811461059e575f5ffd5b50565b5f815190506105af8161058b565b92915050565b5f5f604083850312156105cb576105ca610557565b5b5f6105d8858286016105a1565b92505060206105e9858286016105a1565b9150509250929050565b6105fc8161057a565b82525050565b5f6020820190506106155f8301846105f3565b92915050565b5f82825260208201905092915050565b7f496e76616c6964205553444320616464726573730000000000000000000000005f82015250565b5f61065f60148361061b565b915061066a8261062b565b602082019050919050565b5f6020820190508181035f83015261068c81610653565b9050919050565b7f496e76616c6964207472656173757279206164647265737300000000000000005f82015250565b5f6106c760188361061b565b91506106d282610693565b602082019050919050565b5f6020820190508181035f8301526106f4816106bb565b9050919050565b7f4e487b71000000000000000000000000000000000000000000000000000000005f52602160045260245ffd5b6123d5806107355f395ff3fe608060405234801561000f575f5ffd5b5060043610610114575f3560e01c806377812b7f116100a0578063986930101161006f57806398693010146102ce578063c9563560146102ea578063f046395a1461031c578063f2fde38b1461034e578063fa5441611461036a57610114565b806377812b7f146102485780637ecf2128146102785780637f51bb1f146102945780638da5cb5b146102b057610114565b8063466a0146116100e7578063466a0146146101a157806360a31a88146101d157806361d027b3146102045780636c52df4e14610222578063715018a61461023e57610114565b80630cbebc241461011857806311eac8551461014b578063129debff1461016957806313af403514610185575b5f5ffd5b610132600480360381019061012d9190611933565b61039a565b6040516101429493929190611a03565b60405180910390f35b6101536104d4565b6040516101609190611aa1565b60405180910390f35b610183600480360381019061017e9190611933565b6104f9565b005b61019f600480360381019061019a9190611933565b610733565b005b6101bb60048036038101906101b69190611933565b6109ac565b6040516101c89190611aba565b60405180910390f35b6101eb60048036038101906101e69190611af6565b610aac565b6040516101fb9493929190611b21565b60405180910390f35b61020c610af0565b6040516102199190611b73565b60405180910390f35b61023c60048036038101906102379190611bb6565b610b15565b005b610246610d83565b005b610262600480360381019061025d9190611933565b610d96565b60405161026f9190611b73565b60405180910390f35b610292600480360381019061028d9190611c30565b610dc6565b005b6102ae60048036038101906102a99190611933565b610f49565b005b6102b8611045565b6040516102c59190611b73565b60405180910390f35b6102e860048036038101906102e39190611af6565b61106c565b005b61030460048036038101906102ff9190611af6565b61153d565b60405161031393929190611c94565b60405180910390f35b61033660048036038101906103319190611933565b611607565b60405161034593929190611cc9565b60405180910390f35b61036860048036038101906103639190611933565b611645565b005b610384600480360381019061037f9190611933565b6116c9565b6040516103919190611b73565b60405180910390f35b5f5f5f5f5f60035f8773ffffffffffffffffffffffffffffffffffffffff1673ffffffffffffffffffffffffffffffffffffffff1681526020019081526020015f206040518060600160405290815f82015f9054906101000a900460ff16600281111561040a5761040961195e565b5b600281111561041c5761041b61195e565b5b815260200160018201548152602001600282015f9054906101000a900460ff1615151515815250509050805f01519450806020015193505f5f60028111156104675761046661195e565b5b825f0151600281111561047d5761047c61195e565b5b1415801561048f575042826020015111155b9050801580156104c657505f60028111156104ad576104ac61195e565b5b825f015160028111156104c3576104c261195e565b5b14155b935080925050509193509193565b60055f9054906101000a900473ffffffffffffffffffffffffffffffffffffffff1681565b5f60035f8373ffffffffffffffffffffffffffffffffffffffff1673ffffffffffffffffffffffffffffffffffffffff1681526020019081526020015f2090505f600281111561054c5761054b61195e565b5b815f015f9054906101000a900460ff16600281111561056e5761056d61195e565b5b036105ae576040517f08c379a00000000000000000000000000000000000000000000000000000000081526004016105a590611d58565b60405180910390fd5b42816001015411156105f5576040517f08c379a00000000000000000000000000000000000000000000000000000000081526004016105ec90611dc0565b60405180910390fd5b806002015f9054906101000a900460ff16610645576040517f08c379a000000000000000000000000000000000000000000000000000000000815260040161063c90611e28565b60405180910390fd5b5f815f015f9054906101000a900460ff1690505f825f015f6101000a81548160ff0219169083600281111561067d5761067c61195e565b5b02179055505f826002015f6101000a81548160ff0219169083151502179055508273ffffffffffffffffffffffffffffffffffffffff167f6632ba0aeb36047dbdbbde4159a524bcbf81bb68773f0770c43dc7b8dc2be53d826040516106e39190611e46565b60405180910390a28273ffffffffffffffffffffffffffffffffffffffff167f1b9b72fde9da721e70e6aca3b0cf4cbe73e82765ef1f280157740376531bfdd860405160405180910390a2505050565b5f73ffffffffffffffffffffffffffffffffffffffff168173ffffffffffffffffffffffffffffffffffffffff16036107a1576040517f08c379a000000000000000000000000000000000000000000000000000000000815260040161079890611ea9565b60405180910390fd5b5f60028111156107b4576107b361195e565b5b60035f3373ffffffffffffffffffffffffffffffffffffffff1673ffffffffffffffffffffffffffffffffffffffff1681526020019081526020015f205f015f9054906101000a900460ff1660028111156108125761081161195e565b5b03610852576040517f08c379a000000000000000000000000000000000000000000000000000000000815260040161084990611f11565b60405180910390fd5b4260035f3373ffffffffffffffffffffffffffffffffffffffff1673ffffffffffffffffffffffffffffffffffffffff1681526020019081526020015f2060010154116108d4576040517f08c379a00000000000000000000000000000000000000000000000000000000081526004016108cb90611f79565b60405180910390fd5b8060045f3373ffffffffffffffffffffffffffffffffffffffff1673ffffffffffffffffffffffffffffffffffffffff1681526020019081526020015f205f6101000a81548173ffffffffffffffffffffffffffffffffffffffff021916908373ffffffffffffffffffffffffffffffffffffffff1602179055508073ffffffffffffffffffffffffffffffffffffffff163373ffffffffffffffffffffffffffffffffffffffff167f342827c97908e5e2f71151c08502a66d44b6f758e3ac2f1de95f02eb95f0a73560405160405180910390a350565b5f5f60035f8473ffffffffffffffffffffffffffffffffffffffff1673ffffffffffffffffffffffffffffffffffffffff1681526020019081526020015f206040518060600160405290815f82015f9054906101000a900460ff166002811115610a1957610a1861195e565b5b6002811115610a2b57610a2a61195e565b5b815260200160018201548152602001600282015f9054906101000a900460ff16151515158152505090505f6002811115610a6857610a6761195e565b5b815f01516002811115610a7e57610a7d61195e565b5b03610a8c575f915050610aa7565b4281602001511115610aa2576001915050610aa7565b5f9150505b919050565b6002602052805f5260405f205f91509050805f015f9054906101000a900460ff1690806001015490806002015490806003015f9054906101000a900460ff16905084565b60065f9054906101000a900473ffffffffffffffffffffffffffffffffffffffff1681565b610b1d61172e565b5f6002811115610b3057610b2f61195e565b5b826002811115610b4357610b4261195e565b5b03610b83576040517f08c379a0000000000000000000000000000000000000000000000000000000008152600401610b7a90611fe1565b60405180910390fd5b5f60035f8573ffffffffffffffffffffffffffffffffffffffff1673ffffffffffffffffffffffffffffffffffffffff1681526020019081526020015f2090505f8242610bd0919061202c565b905083825f015f6101000a81548160ff02191690836002811115610bf757610bf661195e565b5b02179055508082600101819055506001826002015f6101000a81548160ff0219169083151502179055505f73ffffffffffffffffffffffffffffffffffffffff1660045f8773ffffffffffffffffffffffffffffffffffffffff1673ffffffffffffffffffffffffffffffffffffffff1681526020019081526020015f205f9054906101000a900473ffffffffffffffffffffffffffffffffffffffff1673ffffffffffffffffffffffffffffffffffffffff1603610d2c578460045f8773ffffffffffffffffffffffffffffffffffffffff1673ffffffffffffffffffffffffffffffffffffffff1681526020019081526020015f205f6101000a81548173ffffffffffffffffffffffffffffffffffffffff021916908373ffffffffffffffffffffffffffffffffffffffff1602179055505b8473ffffffffffffffffffffffffffffffffffffffff167f2fbf8c1dd8d445f8a551e40588711473ae38ac73f4e51934877f7da74e1a509e8583604051610d7492919061205f565b60405180910390a25050505050565b610d8b61172e565b610d945f6117b5565b565b6004602052805f5260405f205f915054906101000a900473ffffffffffffffffffffffffffffffffffffffff1681565b610dce61172e565b5f6002811115610de157610de061195e565b5b846002811115610df457610df361195e565b5b141580610e0057505f83145b610e3f576040517f08c379a0000000000000000000000000000000000000000000000000000000008152600401610e36906120d0565b60405180910390fd5b8260025f866002811115610e5657610e5561195e565b5b6002811115610e6857610e6761195e565b5b81526020019081526020015f20600101819055508160025f866002811115610e9357610e9261195e565b5b6002811115610ea557610ea461195e565b5b81526020019081526020015f20600201819055508060025f866002811115610ed057610ecf61195e565b5b6002811115610ee257610ee161195e565b5b81526020019081526020015f206003015f6101000a81548160ff0219169083151502179055507f7f1d53317eaa3c7ba4a141735afa753a267faa0d47395a12ab844cd10b55d01d848484604051610f3b939291906120ee565b60405180910390a150505050565b610f5161172e565b5f73ffffffffffffffffffffffffffffffffffffffff168173ffffffffffffffffffffffffffffffffffffffff1603610fbf576040517f08c379a0000000000000000000000000000000000000000000000000000000008152600401610fb69061216d565b60405180910390fd5b8060065f6101000a81548173ffffffffffffffffffffffffffffffffffffffff021916908373ffffffffffffffffffffffffffffffffffffffff1602179055508073ffffffffffffffffffffffffffffffffffffffff167f7dae230f18360d76a040c81f050aa14eb9d6dc7901b20fc5d855e2a20fe814d160405160405180910390a250565b5f5f5f9054906101000a900473ffffffffffffffffffffffffffffffffffffffff16905090565b611074611876565b5f60028111156110875761108661195e565b5b81600281111561109a5761109961195e565b5b036110da576040517f08c379a00000000000000000000000000000000000000000000000000000000081526004016110d1906121d5565b60405180910390fd5b60025f8260028111156110f0576110ef61195e565b5b60028111156111025761110161195e565b5b81526020019081526020015f206003015f9054906101000a900460ff1661115e576040517f08c379a00000000000000000000000000000000000000000000000000000000081526004016111559061223d565b60405180910390fd5b5f60025f8360028111156111755761117461195e565b5b60028111156111875761118661195e565b5b81526020019081526020015f206040518060800160405290815f82015f9054906101000a900460ff1660028111156111c2576111c161195e565b5b60028111156111d4576111d361195e565b5b81526020016001820154815260200160028201548152602001600382015f9054906101000a900460ff16151515158152505090505f60035f3373ffffffffffffffffffffffffffffffffffffffff1673ffffffffffffffffffffffffffffffffffffffff1681526020019081526020015f20905060055f9054906101000a900473ffffffffffffffffffffffffffffffffffffffff1673ffffffffffffffffffffffffffffffffffffffff166323b872dd3360065f9054906101000a900473ffffffffffffffffffffffffffffffffffffffff1685602001516040518463ffffffff1660e01b81526004016112cb9392919061225b565b6020604051808303815f875af11580156112e7573d5f5f3e3d5ffd5b505050506040513d601f19601f8201168201806040525081019061130b91906122a4565b61134a576040517f08c379a000000000000000000000000000000000000000000000000000000000815260040161134190612319565b60405180910390fd5b5f4282600101541115611372578260400151826001015461136b919061202c565b9050611385565b826040015142611382919061202c565b90505b83825f015f6101000a81548160ff021916908360028111156113aa576113a961195e565b5b02179055508082600101819055506001826002015f6101000a81548160ff0219169083151502179055505f73ffffffffffffffffffffffffffffffffffffffff1660045f3373ffffffffffffffffffffffffffffffffffffffff1673ffffffffffffffffffffffffffffffffffffffff1681526020019081526020015f205f9054906101000a900473ffffffffffffffffffffffffffffffffffffffff1673ffffffffffffffffffffffffffffffffffffffff16036114df573360045f3373ffffffffffffffffffffffffffffffffffffffff1673ffffffffffffffffffffffffffffffffffffffff1681526020019081526020015f205f6101000a81548173ffffffffffffffffffffffffffffffffffffffff021916908373ffffffffffffffffffffffffffffffffffffffff1602179055505b3373ffffffffffffffffffffffffffffffffffffffff167f2fbf8c1dd8d445f8a551e40588711473ae38ac73f4e51934877f7da74e1a509e858360405161152792919061205f565b60405180910390a250505061153a6118c5565b50565b5f5f5f5f60025f8660028111156115575761155661195e565b5b60028111156115695761156861195e565b5b81526020019081526020015f206040518060800160405290815f82015f9054906101000a900460ff1660028111156115a4576115a361195e565b5b60028111156115b6576115b561195e565b5b81526020016001820154815260200160028201548152602001600382015f9054906101000a900460ff1615151515815250509050806020015181604001518260600151935093509350509193909250565b6003602052805f5260405f205f91509050805f015f9054906101000a900460ff1690806001015490806002015f9054906101000a900460ff16905083565b61164d61172e565b5f73ffffffffffffffffffffffffffffffffffffffff168173ffffffffffffffffffffffffffffffffffffffff16036116bd575f6040517f1e4fbdf70000000000000000000000000000000000000000000000000000000081526004016116b49190611b73565b60405180910390fd5b6116c6816117b5565b50565b5f60045f8373ffffffffffffffffffffffffffffffffffffffff1673ffffffffffffffffffffffffffffffffffffffff1681526020019081526020015f205f9054906101000a900473ffffffffffffffffffffffffffffffffffffffff169050919050565b6117366118ce565b73ffffffffffffffffffffffffffffffffffffffff16611754611045565b73ffffffffffffffffffffffffffffffffffffffff16146117b3576117776118ce565b6040517f118cdaa70000000000000000000000000000000000000000000000000000000081526004016117aa9190611b73565b60405180910390fd5b565b5f5f5f9054906101000a900473ffffffffffffffffffffffffffffffffffffffff169050815f5f6101000a81548173ffffffffffffffffffffffffffffffffffffffff021916908373ffffffffffffffffffffffffffffffffffffffff1602179055508173ffffffffffffffffffffffffffffffffffffffff168173ffffffffffffffffffffffffffffffffffffffff167f8be0079c531659141344cd1fd0a4f28419497f9722a3daafe3b4186f6b6457e060405160405180910390a35050565b6002600154036118bb576040517f08c379a00000000000000000000000000000000000000000000000000000000081526004016118b290612381565b60405180910390fd5b6002600181905550565b60018081905550565b5f33905090565b5f5ffd5b5f73ffffffffffffffffffffffffffffffffffffffff82169050919050565b5f611902826118d9565b9050919050565b611912816118f8565b811461191c575f5ffd5b50565b5f8135905061192d81611909565b92915050565b5f60208284031215611948576119476118d5565b5b5f6119558482850161191f565b91505092915050565b7f4e487b71000000000000000000000000000000000000000000000000000000005f52602160045260245ffd5b6003811061199c5761199b61195e565b5b50565b5f8190506119ac8261198b565b919050565b5f6119bb8261199f565b9050919050565b6119cb816119b1565b82525050565b5f819050919050565b6119e3816119d1565b82525050565b5f8115159050919050565b6119fd816119e9565b82525050565b5f608082019050611a165f8301876119c2565b611a2360208301866119da565b611a3060408301856119f4565b611a3d60608301846119f4565b95945050505050565b5f819050919050565b5f611a69611a64611a5f846118d9565b611a46565b6118d9565b9050919050565b5f611a7a82611a4f565b9050919050565b5f611a8b82611a70565b9050919050565b611a9b81611a81565b82525050565b5f602082019050611ab45f830184611a92565b92915050565b5f602082019050611acd5f8301846119f4565b92915050565b60038110611adf575f5ffd5b50565b5f81359050611af081611ad3565b92915050565b5f60208284031215611b0b57611b0a6118d5565b5b5f611b1884828501611ae2565b91505092915050565b5f608082019050611b345f8301876119c2565b611b4160208301866119da565b611b4e60408301856119da565b611b5b60608301846119f4565b95945050505050565b611b6d816118f8565b82525050565b5f602082019050611b865f830184611b64565b92915050565b611b95816119d1565b8114611b9f575f5ffd5b50565b5f81359050611bb081611b8c565b92915050565b5f5f5f60608486031215611bcd57611bcc6118d5565b5b5f611bda8682870161191f565b9350506020611beb86828701611ae2565b9250506040611bfc86828701611ba2565b9150509250925092565b611c0f816119e9565b8114611c19575f5ffd5b50565b5f81359050611c2a81611c06565b92915050565b5f5f5f5f60808587031215611c4857611c476118d5565b5b5f611c5587828801611ae2565b9450506020611c6687828801611ba2565b9350506040611c7787828801611ba2565b9250506060611c8887828801611c1c565b91505092959194509250565b5f606082019050611ca75f8301866119da565b611cb460208301856119da565b611cc160408301846119f4565b949350505050565b5f606082019050611cdc5f8301866119c2565b611ce960208301856119da565b611cf660408301846119f4565b949350505050565b5f82825260208201905092915050565b7f55736572206973206f6e206672656520706c616e0000000000000000000000005f82015250565b5f611d42601483611cfe565b9150611d4d82611d0e565b602082019050919050565b5f6020820190508181035f830152611d6f81611d36565b9050919050565b7f537562736372697074696f6e207374696c6c20616374697665000000000000005f82015250565b5f611daa601983611cfe565b9150611db582611d76565b602082019050919050565b5f6020820190508181035f830152611dd781611d9e565b9050919050565b7f41636365737320616c7265616479207265766f6b6564000000000000000000005f82015250565b5f611e12601683611cfe565b9150611e1d82611dde565b602082019050919050565b5f6020820190508181035f830152611e3f81611e06565b9050919050565b5f602082019050611e595f8301846119c2565b92915050565b7f496e76616c6964206f776e6572206164647265737300000000000000000000005f82015250565b5f611e93601583611cfe565b9150611e9e82611e5f565b602082019050919050565b5f6020820190508181035f830152611ec081611e87565b9050919050565b7f4f6e6c7920706169642075736572732063616e20736574206f776e65720000005f82015250565b5f611efb601d83611cfe565b9150611f0682611ec7565b602082019050919050565b5f6020820190508181035f830152611f2881611eef565b9050919050565b7f537562736372697074696f6e20657870697265640000000000000000000000005f82015250565b5f611f63601483611cfe565b9150611f6e82611f2f565b602082019050919050565b5f6020820190508181035f830152611f9081611f57565b9050919050565b7f43616e6e6f74206772616e74206672656520706c616e000000000000000000005f82015250565b5f611fcb601683611cfe565b9150611fd682611f97565b602082019050919050565b5f6020820190508181035f830152611ff881611fbf565b9050919050565b7f4e487b71000000000000000000000000000000000000000000000000000000005f52601160045260245ffd5b5f612036826119d1565b9150612041836119d1565b925082820190508082111561205957612058611fff565b5b92915050565b5f6040820190506120725f8301856119c2565b61207f60208301846119da565b9392505050565b7f4672656520706c616e206d7573742068617665203020707269636500000000005f82015250565b5f6120ba601b83611cfe565b91506120c582612086565b602082019050919050565b5f6020820190508181035f8301526120e7816120ae565b9050919050565b5f6060820190506121015f8301866119c2565b61210e60208301856119da565b61211b60408301846119da565b949350505050565b7f496e76616c6964207472656173757279206164647265737300000000000000005f82015250565b5f612157601883611cfe565b915061216282612123565b602082019050919050565b5f6020820190508181035f8301526121848161214b565b9050919050565b7f43616e6e6f74207075726368617365206672656520706c616e000000000000005f82015250565b5f6121bf601983611cfe565b91506121ca8261218b565b602082019050919050565b5f6020820190508181035f8301526121ec816121b3565b9050919050565b7f506c616e206e6f742061637469766500000000000000000000000000000000005f82015250565b5f612227600f83611cfe565b9150612232826121f3565b602082019050919050565b5f6020820190508181035f8301526122548161221b565b9050919050565b5f60608201905061226e5f830186611b64565b61227b6020830185611b64565b61228860408301846119da565b949350505050565b5f8151905061229e81611c06565b92915050565b5f602082840312156122b9576122b86118d5565b5b5f6122c684828501612290565b91505092915050565b7f5061796d656e74206661696c65640000000000000000000000000000000000005f82015250565b5f612303600e83611cfe565b915061230e826122cf565b602082019050919050565b5f6020820190508181035f830152612330816122f7565b9050919050565b7f5265656e7472616e637947756172643a207265656e7472616e742063616c6c005f82015250565b5f61236b601f83611cfe565b915061237682612337565b602082019050919050565b5f6020820190508181035f8301526123988161235f565b905091905056fea2646970667358221220b7e05628309fd17ca413144950dfbea31d97dca24adc5c3c0cb3eca352ddea1964736f6c634300081e0033",
			"opcodes": "PUSH1 0x80 PUSH1 0x40 MSTORE CALLVALUE DUP1 ISZERO PUSH2 0xF JUMPI PUSH0 PUSH0 REVERT JUMPDEST POP PUSH1 0x40 MLOAD PUSH2 0x2B0A CODESIZE SUB DUP1 PUSH2 0x2B0A DUP4 CODECOPY DUP2 DUP2 ADD PUSH1 0x40 MSTORE DUP2 ADD SWAP1 PUSH2 0x31 SWAP2 SWAP1 PUSH2 0x5B5 JUMP JUMPDEST CALLER PUSH0 PUSH20 0xFFFFFFFFFFFFFFFFFFFFFFFFFFFFFFFFFFFFFFFF AND DUP2 PUSH20 0xFFFFFFFFFFFFFFFFFFFFFFFFFFFFFFFFFFFFFFFF AND SUB PUSH2 0xA2 JUMPI PUSH0 PUSH1 0x40 MLOAD PUSH32 0x1E4FBDF700000000000000000000000000000000000000000000000000000000 DUP2 MSTORE PUSH1 0x4 ADD PUSH2 0x99 SWAP2 SWAP1 PUSH2 0x602 JUMP JUMPDEST PUSH1 0x40 MLOAD DUP1 SWAP2 SUB SWAP1 REVERT JUMPDEST PUSH2 0xB1 DUP2 PUSH2 0x496 PUSH1 0x20 SHL PUSH1 0x20 SHR JUMP JUMPDEST POP PUSH1 0x1 DUP1 DUP2 SWAP1 SSTORE POP PUSH0 PUSH20 0xFFFFFFFFFFFFFFFFFFFFFFFFFFFFFFFFFFFFFFFF AND DUP3 PUSH20 0xFFFFFFFFFFFFFFFFFFFFFFFFFFFFFFFFFFFFFFFF AND SUB PUSH2 0x127 JUMPI PUSH1 0x40 MLOAD PUSH32 0x8C379A000000000000000000000000000000000000000000000000000000000 DUP2 MSTORE PUSH1 0x4 ADD PUSH2 0x11E SWAP1 PUSH2 0x675 JUMP JUMPDEST PUSH1 0x40 MLOAD DUP1 SWAP2 SUB SWAP1 REVERT JUMPDEST PUSH0 PUSH20 0xFFFFFFFFFFFFFFFFFFFFFFFFFFFFFFFFFFFFFFFF AND DUP2 PUSH20 0xFFFFFFFFFFFFFFFFFFFFFFFFFFFFFFFFFFFFFFFF AND SUB PUSH2 0x195 JUMPI PUSH1 0x40 MLOAD PUSH32 0x8C379A000000000000000000000000000000000000000000000000000000000 DUP2 MSTORE PUSH1 0x4 ADD PUSH2 0x18C SWAP1 PUSH2 0x6DD JUMP JUMPDEST PUSH1 0x40 MLOAD DUP1 SWAP2 SUB SWAP1 REVERT JUMPDEST DUP2 PUSH1 0x5 PUSH0 PUSH2 0x100 EXP DUP2 SLOAD DUP2 PUSH20 0xFFFFFFFFFFFFFFFFFFFFFFFFFFFFFFFFFFFFFFFF MUL NOT AND SWAP1 DUP4 PUSH20 0xFFFFFFFFFFFFFFFFFFFFFFFFFFFFFFFFFFFFFFFF AND MUL OR SWAP1 SSTORE POP DUP1 PUSH1 0x6 PUSH0 PUSH2 0x100 EXP DUP2 SLOAD DUP2 PUSH20 0xFFFFFFFFFFFFFFFFFFFFFFFFFFFFFFFFFFFFFFFF MUL NOT AND SWAP1 DUP4 PUSH20 0xFFFFFFFFFFFFFFFFFFFFFFFFFFFFFFFFFFFFFFFF AND MUL OR SWAP1 SSTORE POP PUSH1 0x40 MLOAD DUP1 PUSH1 0x80 ADD PUSH1 0x40 MSTORE DUP1 PUSH0 PUSH1 0x2 DUP2 GT ISZERO PUSH2 0x233 JUMPI PUSH2 0x232 PUSH2 0x6FB JUMP JUMPDEST JUMPDEST DUP2 MSTORE PUSH1 0x20 ADD PUSH0 DUP2 MSTORE PUSH1 0x20 ADD PUSH0 DUP2 MSTORE PUSH1 0x20 ADD PUSH1 0x1 ISZERO ISZERO DUP2 MSTORE POP PUSH1 0x2 PUSH0 PUSH0 PUSH1 0x2 DUP2 GT ISZERO PUSH2 0x261 JUMPI PUSH2 0x260 PUSH2 0x6FB JUMP JUMPDEST JUMPDEST PUSH1 0x2 DUP2 GT ISZERO PUSH2 0x273 JUMPI PUSH2 0x272 PUSH2 0x6FB JUMP JUMPDEST JUMPDEST DUP2 MSTORE PUSH1 0x20 ADD SWAP1 DUP2 MSTORE PUSH1 0x20 ADD PUSH0 KECCAK256 PUSH0 DUP3 ADD MLOAD DUP2 PUSH0 ADD PUSH0 PUSH2 0x100 EXP DUP2 SLOAD DUP2 PUSH1 0xFF MUL NOT AND SWAP1 DUP4 PUSH1 0x2 DUP2 GT ISZERO PUSH2 0x2A8 JUMPI PUSH2 0x2A7 PUSH2 0x6FB JUMP JUMPDEST JUMPDEST MUL OR SWAP1 SSTORE POP PUSH1 0x20 DUP3 ADD MLOAD DUP2 PUSH1 0x1 ADD SSTORE PUSH1 0x40 DUP3 ADD MLOAD DUP2 PUSH1 0x2 ADD SSTORE PUSH1 0x60 DUP3 ADD MLOAD DUP2 PUSH1 0x3 ADD PUSH0 PUSH2 0x100 EXP DUP2 SLOAD DUP2 PUSH1 0xFF MUL NOT AND SWAP1 DUP4 ISZERO ISZERO MUL OR SWAP1 SSTORE POP SWAP1 POP POP PUSH1 0x40 MLOAD DUP1 PUSH1 0x80 ADD PUSH1 0x40 MSTORE DUP1 PUSH1 0x1 PUSH1 0x2 DUP2 GT ISZERO PUSH2 0x302 JUMPI PUSH2 0x301 PUSH2 0x6FB JUMP JUMPDEST JUMPDEST DUP2 MSTORE PUSH1 0x20 ADD PUSH3 0x1E8480 DUP2 MSTORE PUSH1 0x20 ADD PUSH3 0x278D00 DUP2 MSTORE PUSH1 0x20 ADD PUSH1 0x1 ISZERO ISZERO DUP2 MSTORE POP PUSH1 0x2 PUSH0 PUSH1 0x1 PUSH1 0x2 DUP2 GT ISZERO PUSH2 0x337 JUMPI PUSH2 0x336 PUSH2 0x6FB JUMP JUMPDEST JUMPDEST PUSH1 0x2 DUP2 GT ISZERO PUSH2 0x349 JUMPI PUSH2 0x348 PUSH2 0x6FB JUMP JUMPDEST JUMPDEST DUP2 MSTORE PUSH1 0x20 ADD SWAP1 DUP2 MSTORE PUSH1 0x20 ADD PUSH0 KECCAK256 PUSH0 DUP3 ADD MLOAD DUP2 PUSH0 ADD PUSH0 PUSH2 0x100 EXP DUP2 SLOAD DUP2 PUSH1 0xFF MUL NOT AND SWAP1 DUP4 PUSH1 0x2 DUP2 GT ISZERO PUSH2 0x37E JUMPI PUSH2 0x37D PUSH2 0x6FB JUMP JUMPDEST JUMPDEST MUL OR SWAP1 SSTORE POP PUSH1 0x20 DUP3 ADD MLOAD DUP2 PUSH1 0x1 ADD SSTORE PUSH1 0x40 DUP3 ADD MLOAD DUP2 PUSH1 0x2 ADD SSTORE PUSH1 0x60 DUP3 ADD MLOAD DUP2 PUSH1 0x3 ADD PUSH0 PUSH2 0x100 EXP DUP2 SLOAD DUP2 PUSH1 0xFF MUL NOT AND SWAP1 DUP4 ISZERO ISZERO MUL OR SWAP1 SSTORE POP SWAP1 POP POP PUSH1 0x40 MLOAD DUP1 PUSH1 0x80 ADD PUSH1 0x40 MSTORE DUP1 PUSH1 0x2 DUP1 DUP2 GT ISZERO PUSH2 0x3D7 JUMPI PUSH2 0x3D6 PUSH2 0x6FB JUMP JUMPDEST JUMPDEST DUP2 MSTORE PUSH1 0x20 ADD PUSH4 0x1312D00 DUP2 MSTORE PUSH1 0x20 ADD PUSH4 0x1E13380 DUP2 MSTORE PUSH1 0x20 ADD PUSH1 0x1 ISZERO ISZERO DUP2 MSTORE POP PUSH1 0x2 PUSH0 PUSH1 0x2 DUP1 DUP2 GT ISZERO PUSH2 0x40D JUMPI PUSH2 0x40C PUSH2 0x6FB JUMP JUMPDEST JUMPDEST PUSH1 0x2 DUP2 GT ISZERO PUSH2 0x41F JUMPI PUSH2 0x41E PUSH2 0x6FB JUMP JUMPDEST JUMPDEST DUP2 MSTORE PUSH1 0x20 ADD SWAP1 DUP2 MSTORE PUSH1 0x20 ADD PUSH0 KECCAK256 PUSH0 DUP3 ADD MLOAD DUP2 PUSH0 ADD PUSH0 PUSH2 0x100 EXP DUP2 SLOAD DUP2 PUSH1 0xFF MUL NOT AND SWAP1 DUP4 PUSH1 0x2 DUP2 GT ISZERO PUSH2 0x454 JUMPI PUSH2 0x453 PUSH2 0x6FB JUMP JUMPDEST JUMPDEST MUL OR SWAP1 SSTORE POP PUSH1 0x20 DUP3 ADD MLOAD DUP2 PUSH1 0x1 ADD SSTORE PUSH1 0x40 DUP3 ADD MLOAD DUP2 PUSH1 0x2 ADD SSTORE PUSH1 0x60 DUP3 ADD MLOAD DUP2 PUSH1 0x3 ADD PUSH0 PUSH2 0x100 EXP DUP2 SLOAD DUP2 PUSH1 0xFF MUL NOT AND SWAP1 DUP4 ISZERO ISZERO MUL OR SWAP1 SSTORE POP SWAP1 POP POP POP POP PUSH2 0x728 JUMP JUMPDEST PUSH0 PUSH0 PUSH0 SWAP1 SLOAD SWAP1 PUSH2 0x100 EXP SWAP1 DIV PUSH20 0xFFFFFFFFFFFFFFFFFFFFFFFFFFFFFFFFFFFFFFFF AND SWAP1 POP DUP2 PUSH0 PUSH0 PUSH2 0x100 EXP DUP2 SLOAD DUP2 PUSH20 0xFFFFFFFFFFFFFFFFFFFFFFFFFFFFFFFFFFFFFFFF MUL NOT AND SWAP1 DUP4 PUSH20 0xFFFFFFFFFFFFFFFFFFFFFFFFFFFFFFFFFFFFFFFF AND MUL OR SWAP1 SSTORE POP DUP2 PUSH20 0xFFFFFFFFFFFFFFFFFFFFFFFFFFFFFFFFFFFFFFFF AND DUP2 PUSH20 0xFFFFFFFFFFFFFFFFFFFFFFFFFFFFFFFFFFFFFFFF AND PUSH32 0x8BE0079C531659141344CD1FD0A4F28419497F9722A3DAAFE3B4186F6B6457E0 PUSH1 0x40 MLOAD PUSH1 0x40 MLOAD DUP1 SWAP2 SUB SWAP1 LOG3 POP POP JUMP JUMPDEST PUSH0 PUSH0 REVERT JUMPDEST PUSH0 PUSH20 0xFFFFFFFFFFFFFFFFFFFFFFFFFFFFFFFFFFFFFFFF DUP3 AND SWAP1 POP SWAP2 SWAP1 POP JUMP JUMPDEST PUSH0 PUSH2 0x584 DUP3 PUSH2 0x55B JUMP JUMPDEST SWAP1 POP SWAP2 SWAP1 POP JUMP JUMPDEST PUSH2 0x594 DUP2 PUSH2 0x57A JUMP JUMPDEST DUP2 EQ PUSH2 0x59E JUMPI PUSH0 PUSH0 REVERT JUMPDEST POP JUMP JUMPDEST PUSH0 DUP2 MLOAD SWAP1 POP PUSH2 0x5AF DUP2 PUSH2 0x58B JUMP JUMPDEST SWAP3 SWAP2 POP POP JUMP JUMPDEST PUSH0 PUSH0 PUSH1 0x40 DUP4 DUP6 SUB SLT ISZERO PUSH2 0x5CB JUMPI PUSH2 0x5CA PUSH2 0x557 JUMP JUMPDEST JUMPDEST PUSH0 PUSH2 0x5D8 DUP6 DUP3 DUP7 ADD PUSH2 0x5A1 JUMP JUMPDEST SWAP3 POP POP PUSH1 0x20 PUSH2 0x5E9 DUP6 DUP3 DUP7 ADD PUSH2 0x5A1 JUMP JUMPDEST SWAP2 POP POP SWAP3 POP SWAP3 SWAP1 POP JUMP JUMPDEST PUSH2 0x5FC DUP2 PUSH2 0x57A JUMP JUMPDEST DUP3 MSTORE POP POP JUMP JUMPDEST PUSH0 PUSH1 0x20 DUP3 ADD SWAP1 POP PUSH2 0x615 PUSH0 DUP4 ADD DUP5 PUSH2 0x5F3 JUMP JUMPDEST SWAP3 SWAP2 POP POP JUMP JUMPDEST PUSH0 DUP3 DUP3 MSTORE PUSH1 0x20 DUP3 ADD SWAP1 POP SWAP3 SWAP2 POP POP JUMP JUMPDEST PUSH32 0x496E76616C696420555344432061646472657373000000000000000000000000 PUSH0 DUP3 ADD MSTORE POP JUMP JUMPDEST PUSH0 PUSH2 0x65F PUSH1 0x14 DUP4 PUSH2 0x61B JUMP JUMPDEST SWAP2 POP PUSH2 0x66A DUP3 PUSH2 0x62B JUMP JUMPDEST PUSH1 0x20 DUP3 ADD SWAP1 POP SWAP2 SWAP1 POP JUMP JUMPDEST PUSH0 PUSH1 0x20 DUP3 ADD SWAP1 POP DUP2 DUP2 SUB PUSH0 DUP4 ADD MSTORE PUSH2 0x68C DUP2 PUSH2 0x653 JUMP JUMPDEST SWAP1 POP SWAP2 SWAP1 POP JUMP JUMPDEST PUSH32 0x496E76616C696420747265617375727920616464726573730000000000000000 PUSH0 DUP3 ADD MSTORE POP JUMP JUMPDEST PUSH0 PUSH2 0x6C7 PUSH1 0x18 DUP4 PUSH2 0x61B JUMP JUMPDEST SWAP2 POP PUSH2 0x6D2 DUP3 PUSH2 0x693 JUMP JUMPDEST PUSH1 0x20 DUP3 ADD SWAP1 POP SWAP2 SWAP1 POP JUMP JUMPDEST PUSH0 PUSH1 0x20 DUP3 ADD SWAP1 POP DUP2 DUP2 SUB PUSH0 DUP4 ADD MSTORE PUSH2 0x6F4 DUP2 PUSH2 0x6BB JUMP JUMPDEST SWAP1 POP SWAP2 SWAP1 POP JUMP JUMPDEST PUSH32 0x4E487B7100000000000000000000000000000000000000000000000000000000 PUSH0 MSTORE PUSH1 0x21 PUSH1 0x4 MSTORE PUSH1 0x24 PUSH0 REVERT JUMPDEST PUSH2 0x23D5 DUP1 PUSH2 0x735 PUSH0 CODECOPY PUSH0 RETURN INVALID PUSH1 0x80 PUSH1 0x40 MSTORE CALLVALUE DUP1 ISZERO PUSH2 0xF JUMPI PUSH0 PUSH0 REVERT JUMPDEST POP PUSH1 0x4 CALLDATASIZE LT PUSH2 0x114 JUMPI PUSH0 CALLDATALOAD PUSH1 0xE0 SHR DUP1 PUSH4 0x77812B7F GT PUSH2 0xA0 JUMPI DUP1 PUSH4 0x98693010 GT PUSH2 0x6F JUMPI DUP1 PUSH4 0x98693010 EQ PUSH2 0x2CE JUMPI DUP1 PUSH4 0xC9563560 EQ PUSH2 0x2EA JUMPI DUP1 PUSH4 0xF046395A EQ PUSH2 0x31C JUMPI DUP1 PUSH4 0xF2FDE38B EQ PUSH2 0x34E JUMPI DUP1 PUSH4 0xFA544161 EQ PUSH2 0x36A JUMPI PUSH2 0x114 JUMP JUMPDEST DUP1 PUSH4 0x77812B7F EQ PUSH2 0x248 JUMPI DUP1 PUSH4 0x7ECF2128 EQ PUSH2 0x278 JUMPI DUP1 PUSH4 0x7F51BB1F EQ PUSH2 0x294 JUMPI DUP1 PUSH4 0x8DA5CB5B EQ PUSH2 0x2B0 JUMPI PUSH2 0x114 JUMP JUMPDEST DUP1 PUSH4 0x466A0146 GT PUSH2 0xE7 JUMPI DUP1 PUSH4 0x466A0146 EQ PUSH2 0x1A1 JUMPI DUP1 PUSH4 0x60A31A88 EQ PUSH2 0x1D1 JUMPI DUP1 PUSH4 0x61D027B3 EQ PUSH2 0x204 JUMPI DUP1 PUSH4 0x6C52DF4E EQ PUSH2 0x222 JUMPI DUP1 PUSH4 0x715018A6 EQ PUSH2 0x23E JUMPI PUSH2 0x114 JUMP JUMPDEST DUP1 PUSH4 0xCBEBC24 EQ PUSH2 0x118 JUMPI DUP1 PUSH4 0x11EAC855 EQ PUSH2 0x14B JUMPI DUP1 PUSH4 0x129DEBFF EQ PUSH2 0x169 JUMPI DUP1 PUSH4 0x13AF4035 EQ PUSH2 0x185 JUMPI JUMPDEST PUSH0 PUSH0 REVERT JUMPDEST PUSH2 0x132 PUSH1 0x4 DUP1 CALLDATASIZE SUB DUP2 ADD SWAP1 PUSH2 0x12D SWAP2 SWAP1 PUSH2 0x1933 JUMP JUMPDEST PUSH2 0x39A JUMP JUMPDEST PUSH1 0x40 MLOAD PUSH2 0x142 SWAP5 SWAP4 SWAP3 SWAP2 SWAP1 PUSH2 0x1A03 JUMP JUMPDEST PUSH1 0x40 MLOAD DUP1 SWAP2 SUB SWAP1 RETURN JUMPDEST PUSH2 0x153 PUSH2 0x4D4 JUMP JUMPDEST PUSH1 0x40 MLOAD PUSH2 0x160 SWAP2 SWAP1 PUSH2 0x1AA1 JUMP JUMPDEST PUSH1 0x40 MLOAD DUP1 SWAP2 SUB SWAP1 RETURN JUMPDEST PUSH2 0x183 PUSH1 0x4 DUP1 CALLDATASIZE SUB DUP2 ADD SWAP1 PUSH2 0x17E SWAP2 SWAP1 PUSH2 0x1933 JUMP JUMPDEST PUSH2 0x4F9 JUMP JUMPDEST STOP JUMPDEST PUSH2 0x19F PUSH1 0x4 DUP1 CALLDATASIZE SUB DUP2 ADD SWAP1 PUSH2 0x19A SWAP2 SWAP1 PUSH2 0x1933 JUMP JUMPDEST PUSH2 0x733 JUMP JUMPDEST STOP JUMPDEST PUSH2 0x1BB PUSH1 0x4 DUP1 CALLDATASIZE SUB DUP2 ADD SWAP1 PUSH2 0x1B6 SWAP2 SWAP1 PUSH2 0x1933 JUMP JUMPDEST PUSH2 0x9AC JUMP JUMPDEST PUSH1 0x40 MLOAD PUSH2 0x1C8 SWAP2 SWAP1 PUSH2 0x1ABA JUMP JUMPDEST PUSH1 0x40 MLOAD DUP1 SWAP2 SUB SWAP1 RETURN JUMPDEST PUSH2 0x1EB PUSH1 0x4 DUP1 CALLDATASIZE SUB DUP2 ADD SWAP1 PUSH2 0x1E6 SWAP2 SWAP1 PUSH2 0x1AF6 JUMP JUMPDEST PUSH2 0xAAC JUMP JUMPDEST PUSH1 0x40 MLOAD PUSH2 0x1FB SWAP5 SWAP4 SWAP3 SWAP2 SWAP1 PUSH2 0x1B21 JUMP JUMPDEST PUSH1 0x40 MLOAD DUP1 SWAP2 SUB SWAP1 RETURN JUMPDEST PUSH2 0x20C PUSH2 0xAF0 JUMP JUMPDEST PUSH1 0x40 MLOAD PUSH2 0x219 SWAP2 SWAP1 PUSH2 0x1B73 JUMP JUMPDEST PUSH1 0x40 MLOAD DUP1 SWAP2 SUB SWAP1 RETURN JUMPDEST PUSH2 0x23C PUSH1 0x4 DUP1 CALLDATASIZE SUB DUP2 ADD SWAP1 PUSH2 0x237 SWAP2 SWAP1 PUSH2 0x1BB6 JUMP JUMPDEST PUSH2 0xB15 JUMP JUMPDEST STOP JUMPDEST PUSH2 0x246 PUSH2 0xD83 JUMP JUMPDEST STOP JUMPDEST PUSH2 0x262 PUSH1 0x4 DUP1 CALLDATASIZE SUB DUP2 ADD SWAP1 PUSH2 0x25D SWAP2 SWAP1 PUSH2 0x1933 JUMP JUMPDEST PUSH2 0xD96 JUMP JUMPDEST PUSH1 0x40 MLOAD PUSH2 0x26F SWAP2 SWAP1 PUSH2 0x1B73 JUMP JUMPDEST PUSH1 0x40 MLOAD DUP1 SWAP2 SUB SWAP1 RETURN JUMPDEST PUSH2 0x292 PUSH1 0x4 DUP1 CALLDATASIZE SUB DUP2 ADD SWAP1 PUSH2 0x28D SWAP2 SWAP1 PUSH2 0x1C30 JUMP JUMPDEST PUSH2 0xDC6 JUMP JUMPDEST STOP JUMPDEST PUSH2 0x2AE PUSH1 0x4 DUP1 CALLDATASIZE SUB DUP2 ADD SWAP1 PUSH2 0x2A9 SWAP2 SWAP1 PUSH2 0x1933 JUMP JUMPDEST PUSH2 0xF49 JUMP JUMPDEST STOP JUMPDEST PUSH2 0x2B8 PUSH2 0x1045 JUMP JUMPDEST PUSH1 0x40 MLOAD PUSH2 0x2C5 SWAP2 SWAP1 PUSH2 0x1B73 JUMP JUMPDEST PUSH1 0x40 MLOAD DUP1 SWAP2 SUB SWAP1 RETURN JUMPDEST PUSH2 0x2E8 PUSH1 0x4 DUP1 CALLDATASIZE SUB DUP2 ADD SWAP1 PUSH2 0x2E3 SWAP2 SWAP1 PUSH2 0x1AF6 JUMP JUMPDEST PUSH2 0x106C JUMP JUMPDEST STOP JUMPDEST PUSH2 0x304 PUSH1 0x4 DUP1 CALLDATASIZE SUB DUP2 ADD SWAP1 PUSH2 0x2FF SWAP2 SWAP1 PUSH2 0x1AF6 JUMP JUMPDEST PUSH2 0x153D JUMP JUMPDEST PUSH1 0x40 MLOAD PUSH2 0x313 SWAP4 SWAP3 SWAP2 SWAP1 PUSH2 0x1C94 JUMP JUMPDEST PUSH1 0x40 MLOAD DUP1 SWAP2 SUB SWAP1 RETURN JUMPDEST PUSH2 0x336 PUSH1 0x4 DUP1 CALLDATASIZE SUB DUP2 ADD SWAP1 PUSH2 0x331 SWAP2 SWAP1 PUSH2 0x1933 JUMP JUMPDEST PUSH2 0x1607 JUMP JUMPDEST PUSH1 0x40 MLOAD PUSH2 0x345 SWAP4 SWAP3 SWAP2 SWAP1 PUSH2 0x1CC9 JUMP JUMPDEST PUSH1 0x40 MLOAD DUP1 SWAP2 SUB SWAP1 RETURN JUMPDEST PUSH2 0x368 PUSH1 0x4 DUP1 CALLDATASIZE SUB DUP2 ADD SWAP1 PUSH2 0x363 SWAP2 SWAP1 PUSH2 0x1933 JUMP JUMPDEST PUSH2 0x1645 JUMP JUMPDEST STOP JUMPDEST PUSH2 0x384 PUSH1 0x4 DUP1 CALLDATASIZE SUB DUP2 ADD SWAP1 PUSH2 0x37F SWAP2 SWAP1 PUSH2 0x1933 JUMP JUMPDEST PUSH2 0x16C9 JUMP JUMPDEST PUSH1 0x40 MLOAD PUSH2 0x391 SWAP2 SWAP1 PUSH2 0x1B73 JUMP JUMPDEST PUSH1 0x40 MLOAD DUP1 SWAP2 SUB SWAP1 RETURN JUMPDEST PUSH0 PUSH0 PUSH0 PUSH0 PUSH0 PUSH1 0x3 PUSH0 DUP8 PUSH20 0xFFFFFFFFFFFFFFFFFFFFFFFFFFFFFFFFFFFFFFFF AND PUSH20 0xFFFFFFFFFFFFFFFFFFFFFFFFFFFFFFFFFFFFFFFF AND DUP2 MSTORE PUSH1 0x20 ADD SWAP1 DUP2 MSTORE PUSH1 0x20 ADD PUSH0 KECCAK256 PUSH1 0x40 MLOAD DUP1 PUSH1 0x60 ADD PUSH1 0x40 MSTORE SWAP1 DUP2 PUSH0 DUP3 ADD PUSH0 SWAP1 SLOAD SWAP1 PUSH2 0x100 EXP SWAP1 DIV PUSH1 0xFF AND PUSH1 0x2 DUP2 GT ISZERO PUSH2 0x40A JUMPI PUSH2 0x409 PUSH2 0x195E JUMP JUMPDEST JUMPDEST PUSH1 0x2 DUP2 GT ISZERO PUSH2 0x41C JUMPI PUSH2 0x41B PUSH2 0x195E JUMP JUMPDEST JUMPDEST DUP2 MSTORE PUSH1 0x20 ADD PUSH1 0x1 DUP3 ADD SLOAD DUP2 MSTORE PUSH1 0x20 ADD PUSH1 0x2 DUP3 ADD PUSH0 SWAP1 SLOAD SWAP1 PUSH2 0x100 EXP SWAP1 DIV PUSH1 0xFF AND ISZERO ISZERO ISZERO ISZERO DUP2 MSTORE POP POP SWAP1 POP DUP1 PUSH0 ADD MLOAD SWAP5 POP DUP1 PUSH1 0x20 ADD MLOAD SWAP4 POP PUSH0 PUSH0 PUSH1 0x2 DUP2 GT ISZERO PUSH2 0x467 JUMPI PUSH2 0x466 PUSH2 0x195E JUMP JUMPDEST JUMPDEST DUP3 PUSH0 ADD MLOAD PUSH1 0x2 DUP2 GT ISZERO PUSH2 0x47D JUMPI PUSH2 0x47C PUSH2 0x195E JUMP JUMPDEST JUMPDEST EQ ISZERO DUP1 ISZERO PUSH2 0x48F JUMPI POP TIMESTAMP DUP3 PUSH1 0x20 ADD MLOAD GT ISZERO JUMPDEST SWAP1 POP DUP1 ISZERO DUP1 ISZERO PUSH2 0x4C6 JUMPI POP PUSH0 PUSH1 0x2 DUP2 GT ISZERO PUSH2 0x4AD JUMPI PUSH2 0x4AC PUSH2 0x195E JUMP JUMPDEST JUMPDEST DUP3 PUSH0 ADD MLOAD PUSH1 0x2 DUP2 GT ISZERO PUSH2 0x4C3 JUMPI PUSH2 0x4C2 PUSH2 0x195E JUMP JUMPDEST JUMPDEST EQ ISZERO JUMPDEST SWAP4 POP DUP1 SWAP3 POP POP POP SWAP2 SWAP4 POP SWAP2 SWAP4 JUMP JUMPDEST PUSH1 0x5 PUSH0 SWAP1 SLOAD SWAP1 PUSH2 0x100 EXP SWAP1 DIV PUSH20 0xFFFFFFFFFFFFFFFFFFFFFFFFFFFFFFFFFFFFFFFF AND DUP2 JUMP JUMPDEST PUSH0 PUSH1 0x3 PUSH0 DUP4 PUSH20 0xFFFFFFFFFFFFFFFFFFFFFFFFFFFFFFFFFFFFFFFF AND PUSH20 0xFFFFFFFFFFFFFFFFFFFFFFFFFFFFFFFFFFFFFFFF AND DUP2 MSTORE PUSH1 0x20 ADD SWAP1 DUP2 MSTORE PUSH1 0x20 ADD PUSH0 KECCAK256 SWAP1 POP PUSH0 PUSH1 0x2 DUP2 GT ISZERO PUSH2 0x54C JUMPI PUSH2 0x54B PUSH2 0x195E JUMP JUMPDEST JUMPDEST DUP2 PUSH0 ADD PUSH0 SWAP1 SLOAD SWAP1 PUSH2 0x100 EXP SWAP1 DIV PUSH1 0xFF AND PUSH1 0x2 DUP2 GT ISZERO PUSH2 0x56E JUMPI PUSH2 0x56D PUSH2 0x195E JUMP JUMPDEST JUMPDEST SUB PUSH2 0x5AE JUMPI PUSH1 0x40 MLOAD PUSH32 0x8C379A000000000000000000000000000000000000000000000000000000000 DUP2 MSTORE PUSH1 0x4 ADD PUSH2 0x5A5 SWAP1 PUSH2 0x1D58 JUMP JUMPDEST PUSH1 0x40 MLOAD DUP1 SWAP2 SUB SWAP1 REVERT JUMPDEST TIMESTAMP DUP2 PUSH1 0x1 ADD SLOAD GT ISZERO PUSH2 0x5F5 JUMPI PUSH1 0x40 MLOAD PUSH32 0x8C379A000000000000000000000000000000000000000000000000000000000 DUP2 MSTORE PUSH1 0x4 ADD PUSH2 0x5EC SWAP1 PUSH2 0x1DC0 JUMP JUMPDEST PUSH1 0x40 MLOAD DUP1 SWAP2 SUB SWAP1 REVERT JUMPDEST DUP1 PUSH1 0x2 ADD PUSH0 SWAP1 SLOAD SWAP1 PUSH2 0x100 EXP SWAP1 DIV PUSH1 0xFF AND PUSH2 0x645 JUMPI PUSH1 0x40 MLOAD PUSH32 0x8C379A000000000000000000000000000000000000000000000000000000000 DUP2 MSTORE PUSH1 0x4 ADD PUSH2 0x63C SWAP1 PUSH2 0x1E28 JUMP JUMPDEST PUSH1 0x40 MLOAD DUP1 SWAP2 SUB SWAP1 REVERT JUMPDEST PUSH0 DUP2 PUSH0 ADD PUSH0 SWAP1 SLOAD SWAP1 PUSH2 0x100 EXP SWAP1 DIV PUSH1 0xFF AND SWAP1 POP PUSH0 DUP3 PUSH0 ADD PUSH0 PUSH2 0x100 EXP DUP2 SLOAD DUP2 PUSH1 0xFF MUL NOT AND SWAP1 DUP4 PUSH1 0x2 DUP2 GT ISZERO PUSH2 0x67D JUMPI PUSH2 0x67C PUSH2 0x195E JUMP JUMPDEST JUMPDEST MUL OR SWAP1 SSTORE POP PUSH0 DUP3 PUSH1 0x2 ADD PUSH0 PUSH2 0x100 EXP DUP2 SLOAD DUP2 PUSH1 0xFF MUL NOT AND SWAP1 DUP4 ISZERO ISZERO MUL OR SWAP1 SSTORE POP DUP3 PUSH20 0xFFFFFFFFFFFFFFFFFFFFFFFFFFFFFFFFFFFFFFFF AND PUSH32 0x6632BA0AEB36047DBDBBDE4159A524BCBF81BB68773F0770C43DC7B8DC2BE53D DUP3 PUSH1 0x40 MLOAD PUSH2 0x6E3 SWAP2 SWAP1 PUSH2 0x1E46 JUMP JUMPDEST PUSH1 0x40 MLOAD DUP1 SWAP2 SUB SWAP1 LOG2 DUP3 PUSH20 0xFFFFFFFFFFFFFFFFFFFFFFFFFFFFFFFFFFFFFFFF AND PUSH32 0x1B9B72FDE9DA721E70E6ACA3B0CF4CBE73E82765EF1F280157740376531BFDD8 PUSH1 0x40 MLOAD PUSH1 0x40 MLOAD DUP1 SWAP2 SUB SWAP1 LOG2 POP POP POP JUMP JUMPDEST PUSH0 PUSH20 0xFFFFFFFFFFFFFFFFFFFFFFFFFFFFFFFFFFFFFFFF AND DUP2 PUSH20 0xFFFFFFFFFFFFFFFFFFFFFFFFFFFFFFFFFFFFFFFF AND SUB PUSH2 0x7A1 JUMPI PUSH1 0x40 MLOAD PUSH32 0x8C379A000000000000000000000000000000000000000000000000000000000 DUP2 MSTORE PUSH1 0x4 ADD PUSH2 0x798 SWAP1 PUSH2 0x1EA9 JUMP JUMPDEST PUSH1 0x40 MLOAD DUP1 SWAP2 SUB SWAP1 REVERT JUMPDEST PUSH0 PUSH1 0x2 DUP2 GT ISZERO PUSH2 0x7B4 JUMPI PUSH2 0x7B3 PUSH2 0x195E JUMP JUMPDEST JUMPDEST PUSH1 0x3 PUSH0 CALLER PUSH20 0xFFFFFFFFFFFFFFFFFFFFFFFFFFFFFFFFFFFFFFFF AND PUSH20 0xFFFFFFFFFFFFFFFFFFFFFFFFFFFFFFFFFFFFFFFF AND DUP2 MSTORE PUSH1 0x20 ADD SWAP1 DUP2 MSTORE PUSH1 0x20 ADD PUSH0 KECCAK256 PUSH0 ADD PUSH0 SWAP1 SLOAD SWAP1 PUSH2 0x100 EXP SWAP1 DIV PUSH1 0xFF AND PUSH1 0x2 DUP2 GT ISZERO PUSH2 0x812 JUMPI PUSH2 0x811 PUSH2 0x195E JUMP JUMPDEST JUMPDEST SUB PUSH2 0x852 JUMPI PUSH1 0x40 MLOAD PUSH32 0x8C379A000000000000000000000000000000000000000000000000000000000 DUP2 MSTORE PUSH1 0x4 ADD PUSH2 0x849 SWAP1 PUSH2 0x1F11 JUMP JUMPDEST PUSH1 0x40 MLOAD DUP1 SWAP2 SUB SWAP1 REVERT JUMPDEST TIMESTAMP PUSH1 0x3 PUSH0 CALLER PUSH20 0xFFFFFFFFFFFFFFFFFFFFFFFFFFFFFFFFFFFFFFFF AND PUSH20 0xFFFFFFFFFFFFFFFFFFFFFFFFFFFFFFFFFFFFFFFF AND DUP2 MSTORE PUSH1 0x20 ADD SWAP1 DUP2 MSTORE PUSH1 0x20 ADD PUSH0 KECCAK256 PUSH1 0x1 ADD SLOAD GT PUSH2 0x8D4 JUMPI PUSH1 0x40 MLOAD PUSH32 0x8C379A000000000000000000000000000000000000000000000000000000000 DUP2 MSTORE PUSH1 0x4 ADD PUSH2 0x8CB SWAP1 PUSH2 0x1F79 JUMP JUMPDEST PUSH1 0x40 MLOAD DUP1 SWAP2 SUB SWAP1 REVERT JUMPDEST DUP1 PUSH1 0x4 PUSH0 CALLER PUSH20 0xFFFFFFFFFFFFFFFFFFFFFFFFFFFFFFFFFFFFFFFF AND PUSH20 0xFFFFFFFFFFFFFFFFFFFFFFFFFFFFFFFFFFFFFFFF AND DUP2 MSTORE PUSH1 0x20 ADD SWAP1 DUP2 MSTORE PUSH1 0x20 ADD PUSH0 KECCAK256 PUSH0 PUSH2 0x100 EXP DUP2 SLOAD DUP2 PUSH20 0xFFFFFFFFFFFFFFFFFFFFFFFFFFFFFFFFFFFFFFFF MUL NOT AND SWAP1 DUP4 PUSH20 0xFFFFFFFFFFFFFFFFFFFFFFFFFFFFFFFFFFFFFFFF AND MUL OR SWAP1 SSTORE POP DUP1 PUSH20 0xFFFFFFFFFFFFFFFFFFFFFFFFFFFFFFFFFFFFFFFF AND CALLER PUSH20 0xFFFFFFFFFFFFFFFFFFFFFFFFFFFFFFFFFFFFFFFF AND PUSH32 0x342827C97908E5E2F71151C08502A66D44B6F758E3AC2F1DE95F02EB95F0A735 PUSH1 0x40 MLOAD PUSH1 0x40 MLOAD DUP1 SWAP2 SUB SWAP1 LOG3 POP JUMP JUMPDEST PUSH0 PUSH0 PUSH1 0x3 PUSH0 DUP5 PUSH20 0xFFFFFFFFFFFFFFFFFFFFFFFFFFFFFFFFFFFFFFFF AND PUSH20 0xFFFFFFFFFFFFFFFFFFFFFFFFFFFFFFFFFFFFFFFF AND DUP2 MSTORE PUSH1 0x20 ADD SWAP1 DUP2 MSTORE PUSH1 0x20 ADD PUSH0 KECCAK256 PUSH1 0x40 MLOAD DUP1 PUSH1 0x60 ADD PUSH1 0x40 MSTORE SWAP1 DUP2 PUSH0 DUP3 ADD PUSH0 SWAP1 SLOAD SWAP1 PUSH2 0x100 EXP SWAP1 DIV PUSH1 0xFF AND PUSH1 0x2 DUP2 GT ISZERO PUSH2 0xA19 JUMPI PUSH2 0xA18 PUSH2 0x195E JUMP JUMPDEST JUMPDEST PUSH1 0x2 DUP2 GT ISZERO PUSH2 0xA2B JUMPI PUSH2 0xA2A PUSH2 0x195E JUMP JUMPDEST JUMPDEST DUP2 MSTORE PUSH1 0x20 ADD PUSH1 0x1 DUP3 ADD SLOAD DUP2 MSTORE PUSH1 0x20 ADD PUSH1 0x2 DUP3 ADD PUSH0 SWAP1 SLOAD SWAP1 PUSH2 0x100 EXP SWAP1 DIV PUSH1 0xFF AND ISZERO ISZERO ISZERO ISZERO DUP2 MSTORE POP POP SWAP1 POP PUSH0 PUSH1 0x2 DUP2 GT ISZERO PUSH2 0xA68 JUMPI PUSH2 0xA67 PUSH2 0x195E JUMP JUMPDEST JUMPDEST DUP2 PUSH0 ADD MLOAD PUSH1 0x2 DUP2 GT ISZERO PUSH2 0xA7E JUMPI PUSH2 0xA7D PUSH2 0x195E JUMP JUMPDEST JUMPDEST SUB PUSH2 0xA8C JUMPI PUSH0 SWAP2 POP POP PUSH2 0xAA7 JUMP JUMPDEST TIMESTAMP DUP2 PUSH1 0x20 ADD MLOAD GT ISZERO PUSH2 0xAA2 JUMPI PUSH1 0x1 SWAP2 POP POP PUSH2 0xAA7 JUMP JUMPDEST PUSH0 SWAP2 POP POP JUMPDEST SWAP2 SWAP1 POP JUMP JUMPDEST PUSH1 0x2 PUSH1 0x20 MSTORE DUP1 PUSH0 MSTORE PUSH1 0x40 PUSH0 KECCAK256 PUSH0 SWAP2 POP SWAP1 POP DUP1 PUSH0 ADD PUSH0 SWAP1 SLOAD SWAP1 PUSH2 0x100 EXP SWAP1 DIV PUSH1 0xFF AND SWAP1 DUP1 PUSH1 0x1 ADD SLOAD SWAP1 DUP1 PUSH1 0x2 ADD SLOAD SWAP1 DUP1 PUSH1 0x3 ADD PUSH0 SWAP1 SLOAD SWAP1 PUSH2 0x100 EXP SWAP1 DIV PUSH1 0xFF AND SWAP1 POP DUP5 JUMP JUMPDEST PUSH1 0x6 PUSH0 SWAP1 SLOAD SWAP1 PUSH2 0x100 EXP SWAP1 DIV PUSH20 0xFFFFFFFFFFFFFFFFFFFFFFFFFFFFFFFFFFFFFFFF AND DUP2 JUMP JUMPDEST PUSH2 0xB1D PUSH2 0x172E JUMP JUMPDEST PUSH0 PUSH1 0x2 DUP2 GT ISZERO PUSH2 0xB30 JUMPI PUSH2 0xB2F PUSH2 0x195E JUMP JUMPDEST JUMPDEST DUP3 PUSH1 0x2 DUP2 GT ISZERO PUSH2 0xB43 JUMPI PUSH2 0xB42 PUSH2 0x195E JUMP JUMPDEST JUMPDEST SUB PUSH2 0xB83 JUMPI PUSH1 0x40 MLOAD PUSH32 0x8C379A000000000000000000000000000000000000000000000000000000000 DUP2 MSTORE PUSH1 0x4 ADD PUSH2 0xB7A SWAP1 PUSH2 0x1FE1 JUMP JUMPDEST PUSH1 0x40 MLOAD DUP1 SWAP2 SUB SWAP1 REVERT JUMPDEST PUSH0 PUSH1 0x3 PUSH0 DUP6 PUSH20 0xFFFFFFFFFFFFFFFFFFFFFFFFFFFFFFFFFFFFFFFF AND PUSH20 0xFFFFFFFFFFFFFFFFFFFFFFFFFFFFFFFFFFFFFFFF AND DUP2 MSTORE PUSH1 0x20 ADD SWAP1 DUP2 MSTORE PUSH1 0x20 ADD PUSH0 KECCAK256 SWAP1 POP PUSH0 DUP3 TIMESTAMP PUSH2 0xBD0 SWAP2 SWAP1 PUSH2 0x202C JUMP JUMPDEST SWAP1 POP DUP4 DUP3 PUSH0 ADD PUSH0 PUSH2 0x100 EXP DUP2 SLOAD DUP2 PUSH1 0xFF MUL NOT AND SWAP1 DUP4 PUSH1 0x2 DUP2 GT ISZERO PUSH2 0xBF7 JUMPI PUSH2 0xBF6 PUSH2 0x195E JUMP JUMPDEST JUMPDEST MUL OR SWAP1 SSTORE POP DUP1 DUP3 PUSH1 0x1 ADD DUP2 SWAP1 SSTORE POP PUSH1 0x1 DUP3 PUSH1 0x2 ADD PUSH0 PUSH2 0x100 EXP DUP2 SLOAD DUP2 PUSH1 0xFF MUL NOT AND SWAP1 DUP4 ISZERO ISZERO MUL OR SWAP1 SSTORE POP PUSH0 PUSH20 0xFFFFFFFFFFFFFFFFFFFFFFFFFFFFFFFFFFFFFFFF AND PUSH1 0x4 PUSH0 DUP8 PUSH20 0xFFFFFFFFFFFFFFFFFFFFFFFFFFFFFFFFFFFFFFFF AND PUSH20 0xFFFFFFFFFFFFFFFFFFFFFFFFFFFFFFFFFFFFFFFF AND DUP2 MSTORE PUSH1 0x20 ADD SWAP1 DUP2 MSTORE PUSH1 0x20 ADD PUSH0 KECCAK256 PUSH0 SWAP1 SLOAD SWAP1 PUSH2 0x100 EXP SWAP1 DIV PUSH20 0xFFFFFFFFFFFFFFFFFFFFFFFFFFFFFFFFFFFFFFFF AND PUSH20 0xFFFFFFFFFFFFFFFFFFFFFFFFFFFFFFFFFFFFFFFF AND SUB PUSH2 0xD2C JUMPI DUP5 PUSH1 0x4 PUSH0 DUP8 PUSH20 0xFFFFFFFFFFFFFFFFFFFFFFFFFFFFFFFFFFFFFFFF AND PUSH20 0xFFFFFFFFFFFFFFFFFFFFFFFFFFFFFFFFFFFFFFFF AND DUP2 MSTORE PUSH1 0x20 ADD SWAP1 DUP2 MSTORE PUSH1 0x20 ADD PUSH0 KECCAK256 PUSH0 PUSH2 0x100 EXP DUP2 SLOAD DUP2 PUSH20 0xFFFFFFFFFFFFFFFFFFFFFFFFFFFFFFFFFFFFFFFF MUL NOT AND SWAP1 DUP4 PUSH20 0xFFFFFFFFFFFFFFFFFFFFFFFFFFFFFFFFFFFFFFFF AND MUL OR SWAP1 SSTORE POP JUMPDEST DUP5 PUSH20 0xFFFFFFFFFFFFFFFFFFFFFFFFFFFFFFFFFFFFFFFF AND PUSH32 0x2FBF8C1DD8D445F8A551E40588711473AE38AC73F4E51934877F7DA74E1A509E DUP6 DUP4 PUSH1 0x40 MLOAD PUSH2 0xD74 SWAP3 SWAP2 SWAP1 PUSH2 0x205F JUMP JUMPDEST PUSH1 0x40 MLOAD DUP1 SWAP2 SUB SWAP1 LOG2 POP POP POP POP POP JUMP JUMPDEST PUSH2 0xD8B PUSH2 0x172E JUMP JUMPDEST PUSH2 0xD94 PUSH0 PUSH2 0x17B5 JUMP JUMPDEST JUMP JUMPDEST PUSH1 0x4 PUSH1 0x20 MSTORE DUP1 PUSH0 MSTORE PUSH1 0x40 PUSH0 KECCAK256 PUSH0 SWAP2 POP SLOAD SWAP1 PUSH2 0x100 EXP SWAP1 DIV PUSH20 0xFFFFFFFFFFFFFFFFFFFFFFFFFFFFFFFFFFFFFFFF AND DUP2 JUMP JUMPDEST PUSH2 0xDCE PUSH2 0x172E JUMP JUMPDEST PUSH0 PUSH1 0x2 DUP2 GT ISZERO PUSH2 0xDE1 JUMPI PUSH2 0xDE0 PUSH2 0x195E JUMP JUMPDEST JUMPDEST DUP5 PUSH1 0x2 DUP2 GT ISZERO PUSH2 0xDF4 JUMPI PUSH2 0xDF3 PUSH2 0x195E JUMP JUMPDEST JUMPDEST EQ ISZERO DUP1 PUSH2 0xE00 JUMPI POP PUSH0 DUP4 EQ JUMPDEST PUSH2 0xE3F JUMPI PUSH1 0x40 MLOAD PUSH32 0x8C379A000000000000000000000000000000000000000000000000000000000 DUP2 MSTORE PUSH1 0x4 ADD PUSH2 0xE36 SWAP1 PUSH2 0x20D0 JUMP JUMPDEST PUSH1 0x40 MLOAD DUP1 SWAP2 SUB SWAP1 REVERT JUMPDEST DUP3 PUSH1 0x2 PUSH0 DUP7 PUSH1 0x2 DUP2 GT ISZERO PUSH2 0xE56 JUMPI PUSH2 0xE55 PUSH2 0x195E JUMP JUMPDEST JUMPDEST PUSH1 0x2 DUP2 GT ISZERO PUSH2 0xE68 JUMPI PUSH2 0xE67 PUSH2 0x195E JUMP JUMPDEST JUMPDEST DUP2 MSTORE PUSH1 0x20 ADD SWAP1 DUP2 MSTORE PUSH1 0x20 ADD PUSH0 KECCAK256 PUSH1 0x1 ADD DUP2 SWAP1 SSTORE POP DUP2 PUSH1 0x2 PUSH0 DUP7 PUSH1 0x2 DUP2 GT ISZERO PUSH2 0xE93 JUMPI PUSH2 0xE92 PUSH2 0x195E JUMP JUMPDEST JUMPDEST PUSH1 0x2 DUP2 GT ISZERO PUSH2 0xEA5 JUMPI PUSH2 0xEA4 PUSH2 0x195E JUMP JUMPDEST JUMPDEST DUP2 MSTORE PUSH1 0x20 ADD SWAP1 DUP2 MSTORE PUSH1 0x20 ADD PUSH0 KECCAK256 PUSH1 0x2 ADD DUP2 SWAP1 SSTORE POP DUP1 PUSH1 0x2 PUSH0 DUP7 PUSH1 0x2 DUP2 GT ISZERO PUSH2 0xED0 JUMPI PUSH2 0xECF PUSH2 0x195E JUMP JUMPDEST JUMPDEST PUSH1 0x2 DUP2 GT ISZERO PUSH2 0xEE2 JUMPI PUSH2 0xEE1 PUSH2 0x195E JUMP JUMPDEST JUMPDEST DUP2 MSTORE PUSH1 0x20 ADD SWAP1 DUP2 MSTORE PUSH1 0x20 ADD PUSH0 KECCAK256 PUSH1 0x3 ADD PUSH0 PUSH2 0x100 EXP DUP2 SLOAD DUP2 PUSH1 0xFF MUL NOT AND SWAP1 DUP4 ISZERO ISZERO MUL OR SWAP1 SSTORE POP PUSH32 0x7F1D53317EAA3C7BA4A141735AFA753A267FAA0D47395A12AB844CD10B55D01D DUP5 DUP5 DUP5 PUSH1 0x40 MLOAD PUSH2 0xF3B SWAP4 SWAP3 SWAP2 SWAP1 PUSH2 0x20EE JUMP JUMPDEST PUSH1 0x40 MLOAD DUP1 SWAP2 SUB SWAP1 LOG1 POP POP POP POP JUMP JUMPDEST PUSH2 0xF51 PUSH2 0x172E JUMP JUMPDEST PUSH0 PUSH20 0xFFFFFFFFFFFFFFFFFFFFFFFFFFFFFFFFFFFFFFFF AND DUP2 PUSH20 0xFFFFFFFFFFFFFFFFFFFFFFFFFFFFFFFFFFFFFFFF AND SUB PUSH2 0xFBF JUMPI PUSH1 0x40 MLOAD PUSH32 0x8C379A000000000000000000000000000000000000000000000000000000000 DUP2 MSTORE PUSH1 0x4 ADD PUSH2 0xFB6 SWAP1 PUSH2 0x216D JUMP JUMPDEST PUSH1 0x40 MLOAD DUP1 SWAP2 SUB SWAP1 REVERT JUMPDEST DUP1 PUSH1 0x6 PUSH0 PUSH2 0x100 EXP DUP2 SLOAD DUP2 PUSH20 0xFFFFFFFFFFFFFFFFFFFFFFFFFFFFFFFFFFFFFFFF MUL NOT AND SWAP1 DUP4 PUSH20 0xFFFFFFFFFFFFFFFFFFFFFFFFFFFFFFFFFFFFFFFF AND MUL OR SWAP1 SSTORE POP DUP1 PUSH20 0xFFFFFFFFFFFFFFFFFFFFFFFFFFFFFFFFFFFFFFFF AND PUSH32 0x7DAE230F18360D76A040C81F050AA14EB9D6DC7901B20FC5D855E2A20FE814D1 PUSH1 0x40 MLOAD PUSH1 0x40 MLOAD DUP1 SWAP2 SUB SWAP1 LOG2 POP JUMP JUMPDEST PUSH0 PUSH0 PUSH0 SWAP1 SLOAD SWAP1 PUSH2 0x100 EXP SWAP1 DIV PUSH20 0xFFFFFFFFFFFFFFFFFFFFFFFFFFFFFFFFFFFFFFFF AND SWAP1 POP SWAP1 JUMP JUMPDEST PUSH2 0x1074 PUSH2 0x1876 JUMP JUMPDEST PUSH0 PUSH1 0x2 DUP2 GT ISZERO PUSH2 0x1087 JUMPI PUSH2 0x1086 PUSH2 0x195E JUMP JUMPDEST JUMPDEST DUP2 PUSH1 0x2 DUP2 GT ISZERO PUSH2 0x109A JUMPI PUSH2 0x1099 PUSH2 0x195E JUMP JUMPDEST JUMPDEST SUB PUSH2 0x10DA JUMPI PUSH1 0x40 MLOAD PUSH32 0x8C379A000000000000000000000000000000000000000000000000000000000 DUP2 MSTORE PUSH1 0x4 ADD PUSH2 0x10D1 SWAP1 PUSH2 0x21D5 JUMP JUMPDEST PUSH1 0x40 MLOAD DUP1 SWAP2 SUB SWAP1 REVERT JUMPDEST PUSH1 0x2 PUSH0 DUP3 PUSH1 0x2 DUP2 GT ISZERO PUSH2 0x10F0 JUMPI PUSH2 0x10EF PUSH2 0x195E JUMP JUMPDEST JUMPDEST PUSH1 0x2 DUP2 GT ISZERO PUSH2 0x1102 JUMPI PUSH2 0x1101 PUSH2 0x195E JUMP JUMPDEST JUMPDEST DUP2 MSTORE PUSH1 0x20 ADD SWAP1 DUP2 MSTORE PUSH1 0x20 ADD PUSH0 KECCAK256 PUSH1 0x3 ADD PUSH0 SWAP1 SLOAD SWAP1 PUSH2 0x100 EXP SWAP1 DIV PUSH1 0xFF AND PUSH2 0x115E JUMPI PUSH1 0x40 MLOAD PUSH32 0x8C379A000000000000000000000000000000000000000000000000000000000 DUP2 MSTORE PUSH1 0x4 ADD PUSH2 0x1155 SWAP1 PUSH2 0x223D JUMP JUMPDEST PUSH1 0x40 MLOAD DUP1 SWAP2 SUB SWAP1 REVERT JUMPDEST PUSH0 PUSH1 0x2 PUSH0 DUP4 PUSH1 0x2 DUP2 GT ISZERO PUSH2 0x1175 JUMPI PUSH2 0x1174 PUSH2 0x195E JUMP JUMPDEST JUMPDEST PUSH1 0x2 DUP2 GT ISZERO PUSH2 0x1187 JUMPI PUSH2 0x1186 PUSH2 0x195E JUMP JUMPDEST JUMPDEST DUP2 MSTORE PUSH1 0x20 ADD SWAP1 DUP2 MSTORE PUSH1 0x20 ADD PUSH0 KECCAK256 PUSH1 0x40 MLOAD DUP1 PUSH1 0x80 ADD PUSH1 0x40 MSTORE SWAP1 DUP2 PUSH0 DUP3 ADD PUSH0 SWAP1 SLOAD SWAP1 PUSH2 0x100 EXP SWAP1 DIV PUSH1 0xFF AND PUSH1 0x2 DUP2 GT ISZERO PUSH2 0x11C2 JUMPI PUSH2 0x11C1 PUSH2 0x195E JUMP JUMPDEST JUMPDEST PUSH1 0x2 DUP2 GT ISZERO PUSH2 0x11D4 JUMPI PUSH2 0x11D3 PUSH2 0x195E JUMP JUMPDEST JUMPDEST DUP2 MSTORE PUSH1 0x20 ADD PUSH1 0x1 DUP3 ADD SLOAD DUP2 MSTORE PUSH1 0x20 ADD PUSH1 0x2 DUP3 ADD SLOAD DUP2 MSTORE PUSH1 0x20 ADD PUSH1 0x3 DUP3 ADD PUSH0 SWAP1 SLOAD SWAP1 PUSH2 0x100 EXP SWAP1 DIV PUSH1 0xFF AND ISZERO ISZERO ISZERO ISZERO DUP2 MSTORE POP POP SWAP1 POP PUSH0 PUSH1 0x3 PUSH0 CALLER PUSH20 0xFFFFFFFFFFFFFFFFFFFFFFFFFFFFFFFFFFFFFFFF AND PUSH20 0xFFFFFFFFFFFFFFFFFFFFFFFFFFFFFFFFFFFFFFFF AND DUP2 MSTORE PUSH1 0x20 ADD SWAP1 DUP2 MSTORE PUSH1 0x20 ADD PUSH0 KECCAK256 SWAP1 POP PUSH1 0x5 PUSH0 SWAP1 SLOAD SWAP1 PUSH2 0x100 EXP SWAP1 DIV PUSH20 0xFFFFFFFFFFFFFFFFFFFFFFFFFFFFFFFFFFFFFFFF AND PUSH20 0xFFFFFFFFFFFFFFFFFFFFFFFFFFFFFFFFFFFFFFFF AND PUSH4 0x23B872DD CALLER PUSH1 0x6 PUSH0 SWAP1 SLOAD SWAP1 PUSH2 0x100 EXP SWAP1 DIV PUSH20 0xFFFFFFFFFFFFFFFFFFFFFFFFFFFFFFFFFFFFFFFF AND DUP6 PUSH1 0x20 ADD MLOAD PUSH1 0x40 MLOAD DUP5 PUSH4 0xFFFFFFFF AND PUSH1 0xE0 SHL DUP2 MSTORE PUSH1 0x4 ADD PUSH2 0x12CB SWAP4 SWAP3 SWAP2 SWAP1 PUSH2 0x225B JUMP JUMPDEST PUSH1 0x20 PUSH1 0x40 MLOAD DUP1 DUP4 SUB DUP2 PUSH0 DUP8 GAS CALL ISZERO DUP1 ISZERO PUSH2 0x12E7 JUMPI RETURNDATASIZE PUSH0 PUSH0 RETURNDATACOPY RETURNDATASIZE PUSH0 REVERT JUMPDEST POP POP POP POP PUSH1 0x40 MLOAD RETURNDATASIZE PUSH1 0x1F NOT PUSH1 0x1F DUP3 ADD AND DUP3 ADD DUP1 PUSH1 0x40 MSTORE POP DUP2 ADD SWAP1 PUSH2 0x130B SWAP2 SWAP1 PUSH2 0x22A4 JUMP JUMPDEST PUSH2 0x134A JUMPI PUSH1 0x40 MLOAD PUSH32 0x8C379A000000000000000000000000000000000000000000000000000000000 DUP2 MSTORE PUSH1 0x4 ADD PUSH2 0x1341 SWAP1 PUSH2 0x2319 JUMP JUMPDEST PUSH1 0x40 MLOAD DUP1 SWAP2 SUB SWAP1 REVERT JUMPDEST PUSH0 TIMESTAMP DUP3 PUSH1 0x1 ADD SLOAD GT ISZERO PUSH2 0x1372 JUMPI DUP3 PUSH1 0x40 ADD MLOAD DUP3 PUSH1 0x1 ADD SLOAD PUSH2 0x136B SWAP2 SWAP1 PUSH2 0x202C JUMP JUMPDEST SWAP1 POP PUSH2 0x1385 JUMP JUMPDEST DUP3 PUSH1 0x40 ADD MLOAD TIMESTAMP PUSH2 0x1382 SWAP2 SWAP1 PUSH2 0x202C JUMP JUMPDEST SWAP1 POP JUMPDEST DUP4 DUP3 PUSH0 ADD PUSH0 PUSH2 0x100 EXP DUP2 SLOAD DUP2 PUSH1 0xFF MUL NOT AND SWAP1 DUP4 PUSH1 0x2 DUP2 GT ISZERO PUSH2 0x13AA JUMPI PUSH2 0x13A9 PUSH2 0x195E JUMP JUMPDEST JUMPDEST MUL OR SWAP1 SSTORE POP DUP1 DUP3 PUSH1 0x1 ADD DUP2 SWAP1 SSTORE POP PUSH1 0x1 DUP3 PUSH1 0x2 ADD PUSH0 PUSH2 0x100 EXP DUP2 SLOAD DUP2 PUSH1 0xFF MUL NOT AND SWAP1 DUP4 ISZERO ISZERO MUL OR SWAP1 SSTORE POP PUSH0 PUSH20 0xFFFFFFFFFFFFFFFFFFFFFFFFFFFFFFFFFFFFFFFF AND PUSH1 0x4 PUSH0 CALLER PUSH20 0xFFFFFFFFFFFFFFFFFFFFFFFFFFFFFFFFFFFFFFFF AND PUSH20 0xFFFFFFFFFFFFFFFFFFFFFFFFFFFFFFFFFFFFFFFF AND DUP2 MSTORE PUSH1 0x20 ADD SWAP1 DUP2 MSTORE PUSH1 0x20 ADD PUSH0 KECCAK256 PUSH0 SWAP1 SLOAD SWAP1 PUSH2 0x100 EXP SWAP1 DIV PUSH20 0xFFFFFFFFFFFFFFFFFFFFFFFFFFFFFFFFFFFFFFFF AND PUSH20 0xFFFFFFFFFFFFFFFFFFFFFFFFFFFFFFFFFFFFFFFF AND SUB PUSH2 0x14DF JUMPI CALLER PUSH1 0x4 PUSH0 CALLER PUSH20 0xFFFFFFFFFFFFFFFFFFFFFFFFFFFFFFFFFFFFFFFF AND PUSH20 0xFFFFFFFFFFFFFFFFFFFFFFFFFFFFFFFFFFFFFFFF AND DUP2 MSTORE PUSH1 0x20 ADD SWAP1 DUP2 MSTORE PUSH1 0x20 ADD PUSH0 KECCAK256 PUSH0 PUSH2 0x100 EXP DUP2 SLOAD DUP2 PUSH20 0xFFFFFFFFFFFFFFFFFFFFFFFFFFFFFFFFFFFFFFFF MUL NOT AND SWAP1 DUP4 PUSH20 0xFFFFFFFFFFFFFFFFFFFFFFFFFFFFFFFFFFFFFFFF AND MUL OR SWAP1 SSTORE POP JUMPDEST CALLER PUSH20 0xFFFFFFFFFFFFFFFFFFFFFFFFFFFFFFFFFFFFFFFF AND PUSH32 0x2FBF8C1DD8D445F8A551E40588711473AE38AC73F4E51934877F7DA74E1A509E DUP6 DUP4 PUSH1 0x40 MLOAD PUSH2 0x1527 SWAP3 SWAP2 SWAP1 PUSH2 0x205F JUMP JUMPDEST PUSH1 0x40 MLOAD DUP1 SWAP2 SUB SWAP1 LOG2 POP POP POP PUSH2 0x153A PUSH2 0x18C5 JUMP JUMPDEST POP JUMP JUMPDEST PUSH0 PUSH0 PUSH0 PUSH0 PUSH1 0x2 PUSH0 DUP7 PUSH1 0x2 DUP2 GT ISZERO PUSH2 0x1557 JUMPI PUSH2 0x1556 PUSH2 0x195E JUMP JUMPDEST JUMPDEST PUSH1 0x2 DUP2 GT ISZERO PUSH2 0x1569 JUMPI PUSH2 0x1568 PUSH2 0x195E JUMP JUMPDEST JUMPDEST DUP2 MSTORE PUSH1 0x20 ADD SWAP1 DUP2 MSTORE PUSH1 0x20 ADD PUSH0 KECCAK256 PUSH1 0x40 MLOAD DUP1 PUSH1 0x80 ADD PUSH1 0x40 MSTORE SWAP1 DUP2 PUSH0 DUP3 ADD PUSH0 SWAP1 SLOAD SWAP1 PUSH2 0x100 EXP SWAP1 DIV PUSH1 0xFF AND PUSH1 0x2 DUP2 GT ISZERO PUSH2 0x15A4 JUMPI PUSH2 0x15A3 PUSH2 0x195E JUMP JUMPDEST JUMPDEST PUSH1 0x2 DUP2 GT ISZERO PUSH2 0x15B6 JUMPI PUSH2 0x15B5 PUSH2 0x195E JUMP JUMPDEST JUMPDEST DUP2 MSTORE PUSH1 0x20 ADD PUSH1 0x1 DUP3 ADD SLOAD DUP2 MSTORE PUSH1 0x20 ADD PUSH1 0x2 DUP3 ADD SLOAD DUP2 MSTORE PUSH1 0x20 ADD PUSH1 0x3 DUP3 ADD PUSH0 SWAP1 SLOAD SWAP1 PUSH2 0x100 EXP SWAP1 DIV PUSH1 0xFF AND ISZERO ISZERO ISZERO ISZERO DUP2 MSTORE POP POP SWAP1 POP DUP1 PUSH1 0x20 ADD MLOAD DUP2 PUSH1 0x40 ADD MLOAD DUP3 PUSH1 0x60 ADD MLOAD SWAP4 POP SWAP4 POP SWAP4 POP POP SWAP2 SWAP4 SWAP1 SWAP3 POP JUMP JUMPDEST PUSH1 0x3 PUSH1 0x20 MSTORE DUP1 PUSH0 MSTORE PUSH1 0x40 PUSH0 KECCAK256 PUSH0 SWAP2 POP SWAP1 POP DUP1 PUSH0 ADD PUSH0 SWAP1 SLOAD SWAP1 PUSH2 0x100 EXP SWAP1 DIV PUSH1 0xFF AND SWAP1 DUP1 PUSH1 0x1 ADD SLOAD SWAP1 DUP1 PUSH1 0x2 ADD PUSH0 SWAP1 SLOAD SWAP1 PUSH2 0x100 EXP SWAP1 DIV PUSH1 0xFF AND SWAP1 POP DUP4 JUMP JUMPDEST PUSH2 0x164D PUSH2 0x172E JUMP JUMPDEST PUSH0 PUSH20 0xFFFFFFFFFFFFFFFFFFFFFFFFFFFFFFFFFFFFFFFF AND DUP2 PUSH20 0xFFFFFFFFFFFFFFFFFFFFFFFFFFFFFFFFFFFFFFFF AND SUB PUSH2 0x16BD JUMPI PUSH0 PUSH1 0x40 MLOAD PUSH32 0x1E4FBDF700000000000000000000000000000000000000000000000000000000 DUP2 MSTORE PUSH1 0x4 ADD PUSH2 0x16B4 SWAP2 SWAP1 PUSH2 0x1B73 JUMP JUMPDEST PUSH1 0x40 MLOAD DUP1 SWAP2 SUB SWAP1 REVERT JUMPDEST PUSH2 0x16C6 DUP2 PUSH2 0x17B5 JUMP JUMPDEST POP JUMP JUMPDEST PUSH0 PUSH1 0x4 PUSH0 DUP4 PUSH20 0xFFFFFFFFFFFFFFFFFFFFFFFFFFFFFFFFFFFFFFFF AND PUSH20 0xFFFFFFFFFFFFFFFFFFFFFFFFFFFFFFFFFFFFFFFF AND DUP2 MSTORE PUSH1 0x20 ADD SWAP1 DUP2 MSTORE PUSH1 0x20 ADD PUSH0 KECCAK256 PUSH0 SWAP1 SLOAD SWAP1 PUSH2 0x100 EXP SWAP1 DIV PUSH20 0xFFFFFFFFFFFFFFFFFFFFFFFFFFFFFFFFFFFFFFFF AND SWAP1 POP SWAP2 SWAP1 POP JUMP JUMPDEST PUSH2 0x1736 PUSH2 0x18CE JUMP JUMPDEST PUSH20 0xFFFFFFFFFFFFFFFFFFFFFFFFFFFFFFFFFFFFFFFF AND PUSH2 0x1754 PUSH2 0x1045 JUMP JUMPDEST PUSH20 0xFFFFFFFFFFFFFFFFFFFFFFFFFFFFFFFFFFFFFFFF AND EQ PUSH2 0x17B3 JUMPI PUSH2 0x1777 PUSH2 0x18CE JUMP JUMPDEST PUSH1 0x40 MLOAD PUSH32 0x118CDAA700000000000000000000000000000000000000000000000000000000 DUP2 MSTORE PUSH1 0x4 ADD PUSH2 0x17AA SWAP2 SWAP1 PUSH2 0x1B73 JUMP JUMPDEST PUSH1 0x40 MLOAD DUP1 SWAP2 SUB SWAP1 REVERT JUMPDEST JUMP JUMPDEST PUSH0 PUSH0 PUSH0 SWAP1 SLOAD SWAP1 PUSH2 0x100 EXP SWAP1 DIV PUSH20 0xFFFFFFFFFFFFFFFFFFFFFFFFFFFFFFFFFFFFFFFF AND SWAP1 POP DUP2 PUSH0 PUSH0 PUSH2 0x100 EXP DUP2 SLOAD DUP2 PUSH20 0xFFFFFFFFFFFFFFFFFFFFFFFFFFFFFFFFFFFFFFFF MUL NOT AND SWAP1 DUP4 PUSH20 0xFFFFFFFFFFFFFFFFFFFFFFFFFFFFFFFFFFFFFFFF AND MUL OR SWAP1 SSTORE POP DUP2 PUSH20 0xFFFFFFFFFFFFFFFFFFFFFFFFFFFFFFFFFFFFFFFF AND DUP2 PUSH20 0xFFFFFFFFFFFFFFFFFFFFFFFFFFFFFFFFFFFFFFFF AND PUSH32 0x8BE0079C531659141344CD1FD0A4F28419497F9722A3DAAFE3B4186F6B6457E0 PUSH1 0x40 MLOAD PUSH1 0x40 MLOAD DUP1 SWAP2 SUB SWAP1 LOG3 POP POP JUMP JUMPDEST PUSH1 0x2 PUSH1 0x1 SLOAD SUB PUSH2 0x18BB JUMPI PUSH1 0x40 MLOAD PUSH32 0x8C379A000000000000000000000000000000000000000000000000000000000 DUP2 MSTORE PUSH1 0x4 ADD PUSH2 0x18B2 SWAP1 PUSH2 0x2381 JUMP JUMPDEST PUSH1 0x40 MLOAD DUP1 SWAP2 SUB SWAP1 REVERT JUMPDEST PUSH1 0x2 PUSH1 0x1 DUP2 SWAP1 SSTORE POP JUMP JUMPDEST PUSH1 0x1 DUP1 DUP2 SWAP1 SSTORE POP JUMP JUMPDEST PUSH0 CALLER SWAP1 POP SWAP1 JUMP JUMPDEST PUSH0 PUSH0 REVERT JUMPDEST PUSH0 PUSH20 0xFFFFFFFFFFFFFFFFFFFFFFFFFFFFFFFFFFFFFFFF DUP3 AND SWAP1 POP SWAP2 SWAP1 POP JUMP JUMPDEST PUSH0 PUSH2 0x1902 DUP3 PUSH2 0x18D9 JUMP JUMPDEST SWAP1 POP SWAP2 SWAP1 POP JUMP JUMPDEST PUSH2 0x1912 DUP2 PUSH2 0x18F8 JUMP JUMPDEST DUP2 EQ PUSH2 0x191C JUMPI PUSH0 PUSH0 REVERT JUMPDEST POP JUMP JUMPDEST PUSH0 DUP2 CALLDATALOAD SWAP1 POP PUSH2 0x192D DUP2 PUSH2 0x1909 JUMP JUMPDEST SWAP3 SWAP2 POP POP JUMP JUMPDEST PUSH0 PUSH1 0x20 DUP3 DUP5 SUB SLT ISZERO PUSH2 0x1948 JUMPI PUSH2 0x1947 PUSH2 0x18D5 JUMP JUMPDEST JUMPDEST PUSH0 PUSH2 0x1955 DUP5 DUP3 DUP6 ADD PUSH2 0x191F JUMP JUMPDEST SWAP2 POP POP SWAP3 SWAP2 POP POP JUMP JUMPDEST PUSH32 0x4E487B7100000000000000000000000000000000000000000000000000000000 PUSH0 MSTORE PUSH1 0x21 PUSH1 0x4 MSTORE PUSH1 0x24 PUSH0 REVERT JUMPDEST PUSH1 0x3 DUP2 LT PUSH2 0x199C JUMPI PUSH2 0x199B PUSH2 0x195E JUMP JUMPDEST JUMPDEST POP JUMP JUMPDEST PUSH0 DUP2 SWAP1 POP PUSH2 0x19AC DUP3 PUSH2 0x198B JUMP JUMPDEST SWAP2 SWAP1 POP JUMP JUMPDEST PUSH0 PUSH2 0x19BB DUP3 PUSH2 0x199F JUMP JUMPDEST SWAP1 POP SWAP2 SWAP1 POP JUMP JUMPDEST PUSH2 0x19CB DUP2 PUSH2 0x19B1 JUMP JUMPDEST DUP3 MSTORE POP POP JUMP JUMPDEST PUSH0 DUP2 SWAP1 POP SWAP2 SWAP1 POP JUMP JUMPDEST PUSH2 0x19E3 DUP2 PUSH2 0x19D1 JUMP JUMPDEST DUP3 MSTORE POP POP JUMP JUMPDEST PUSH0 DUP2 ISZERO ISZERO SWAP1 POP SWAP2 SWAP1 POP JUMP JUMPDEST PUSH2 0x19FD DUP2 PUSH2 0x19E9 JUMP JUMPDEST DUP3 MSTORE POP POP JUMP JUMPDEST PUSH0 PUSH1 0x80 DUP3 ADD SWAP1 POP PUSH2 0x1A16 PUSH0 DUP4 ADD DUP8 PUSH2 0x19C2 JUMP JUMPDEST PUSH2 0x1A23 PUSH1 0x20 DUP4 ADD DUP7 PUSH2 0x19DA JUMP JUMPDEST PUSH2 0x1A30 PUSH1 0x40 DUP4 ADD DUP6 PUSH2 0x19F4 JUMP JUMPDEST PUSH2 0x1A3D PUSH1 0x60 DUP4 ADD DUP5 PUSH2 0x19F4 JUMP JUMPDEST SWAP6 SWAP5 POP POP POP POP POP JUMP JUMPDEST PUSH0 DUP2 SWAP1 POP SWAP2 SWAP1 POP JUMP JUMPDEST PUSH0 PUSH2 0x1A69 PUSH2 0x1A64 PUSH2 0x1A5F DUP5 PUSH2 0x18D9 JUMP JUMPDEST PUSH2 0x1A46 JUMP JUMPDEST PUSH2 0x18D9 JUMP JUMPDEST SWAP1 POP SWAP2 SWAP1 POP JUMP JUMPDEST PUSH0 PUSH2 0x1A7A DUP3 PUSH2 0x1A4F JUMP JUMPDEST SWAP1 POP SWAP2 SWAP1 POP JUMP JUMPDEST PUSH0 PUSH2 0x1A8B DUP3 PUSH2 0x1A70 JUMP JUMPDEST SWAP1 POP SWAP2 SWAP1 POP JUMP JUMPDEST PUSH2 0x1A9B DUP2 PUSH2 0x1A81 JUMP JUMPDEST DUP3 MSTORE POP POP JUMP JUMPDEST PUSH0 PUSH1 0x20 DUP3 ADD SWAP1 POP PUSH2 0x1AB4 PUSH0 DUP4 ADD DUP5 PUSH2 0x1A92 JUMP JUMPDEST SWAP3 SWAP2 POP POP JUMP JUMPDEST PUSH0 PUSH1 0x20 DUP3 ADD SWAP1 POP PUSH2 0x1ACD PUSH0 DUP4 ADD DUP5 PUSH2 0x19F4 JUMP JUMPDEST SWAP3 SWAP2 POP POP JUMP JUMPDEST PUSH1 0x3 DUP2 LT PUSH2 0x1ADF JUMPI PUSH0 PUSH0 REVERT JUMPDEST POP JUMP JUMPDEST PUSH0 DUP2 CALLDATALOAD SWAP1 POP PUSH2 0x1AF0 DUP2 PUSH2 0x1AD3 JUMP JUMPDEST SWAP3 SWAP2 POP POP JUMP JUMPDEST PUSH0 PUSH1 0x20 DUP3 DUP5 SUB SLT ISZERO PUSH2 0x1B0B JUMPI PUSH2 0x1B0A PUSH2 0x18D5 JUMP JUMPDEST JUMPDEST PUSH0 PUSH2 0x1B18 DUP5 DUP3 DUP6 ADD PUSH2 0x1AE2 JUMP JUMPDEST SWAP2 POP POP SWAP3 SWAP2 POP POP JUMP JUMPDEST PUSH0 PUSH1 0x80 DUP3 ADD SWAP1 POP PUSH2 0x1B34 PUSH0 DUP4 ADD DUP8 PUSH2 0x19C2 JUMP JUMPDEST PUSH2 0x1B41 PUSH1 0x20 DUP4 ADD DUP7 PUSH2 0x19DA JUMP JUMPDEST PUSH2 0x1B4E PUSH1 0x40 DUP4 ADD DUP6 PUSH2 0x19DA JUMP JUMPDEST PUSH2 0x1B5B PUSH1 0x60 DUP4 ADD DUP5 PUSH2 0x19F4 JUMP JUMPDEST SWAP6 SWAP5 POP POP POP POP POP JUMP JUMPDEST PUSH2 0x1B6D DUP2 PUSH2 0x18F8 JUMP JUMPDEST DUP3 MSTORE POP POP JUMP JUMPDEST PUSH0 PUSH1 0x20 DUP3 ADD SWAP1 POP PUSH2 0x1B86 PUSH0 DUP4 ADD DUP5 PUSH2 0x1B64 JUMP JUMPDEST SWAP3 SWAP2 POP POP JUMP JUMPDEST PUSH2 0x1B95 DUP2 PUSH2 0x19D1 JUMP JUMPDEST DUP2 EQ PUSH2 0x1B9F JUMPI PUSH0 PUSH0 REVERT JUMPDEST POP JUMP JUMPDEST PUSH0 DUP2 CALLDATALOAD SWAP1 POP PUSH2 0x1BB0 DUP2 PUSH2 0x1B8C JUMP JUMPDEST SWAP3 SWAP2 POP POP JUMP JUMPDEST PUSH0 PUSH0 PUSH0 PUSH1 0x60 DUP5 DUP7 SUB SLT ISZERO PUSH2 0x1BCD JUMPI PUSH2 0x1BCC PUSH2 0x18D5 JUMP JUMPDEST JUMPDEST PUSH0 PUSH2 0x1BDA DUP7 DUP3 DUP8 ADD PUSH2 0x191F JUMP JUMPDEST SWAP4 POP POP PUSH1 0x20 PUSH2 0x1BEB DUP7 DUP3 DUP8 ADD PUSH2 0x1AE2 JUMP JUMPDEST SWAP3 POP POP PUSH1 0x40 PUSH2 0x1BFC DUP7 DUP3 DUP8 ADD PUSH2 0x1BA2 JUMP JUMPDEST SWAP2 POP POP SWAP3 POP SWAP3 POP SWAP3 JUMP JUMPDEST PUSH2 0x1C0F DUP2 PUSH2 0x19E9 JUMP JUMPDEST DUP2 EQ PUSH2 0x1C19 JUMPI PUSH0 PUSH0 REVERT JUMPDEST POP JUMP JUMPDEST PUSH0 DUP2 CALLDATALOAD SWAP1 POP PUSH2 0x1C2A DUP2 PUSH2 0x1C06 JUMP JUMPDEST SWAP3 SWAP2 POP POP JUMP JUMPDEST PUSH0 PUSH0 PUSH0 PUSH0 PUSH1 0x80 DUP6 DUP8 SUB SLT ISZERO PUSH2 0x1C48 JUMPI PUSH2 0x1C47 PUSH2 0x18D5 JUMP JUMPDEST JUMPDEST PUSH0 PUSH2 0x1C55 DUP8 DUP3 DUP9 ADD PUSH2 0x1AE2 JUMP JUMPDEST SWAP5 POP POP PUSH1 0x20 PUSH2 0x1C66 DUP8 DUP3 DUP9 ADD PUSH2 0x1BA2 JUMP JUMPDEST SWAP4 POP POP PUSH1 0x40 PUSH2 0x1C77 DUP8 DUP3 DUP9 ADD PUSH2 0x1BA2 JUMP JUMPDEST SWAP3 POP POP PUSH1 0x60 PUSH2 0x1C88 DUP8 DUP3 DUP9 ADD PUSH2 0x1C1C JUMP JUMPDEST SWAP2 POP POP SWAP3 SWAP6 SWAP2 SWAP5 POP SWAP3 POP JUMP JUMPDEST PUSH0 PUSH1 0x60 DUP3 ADD SWAP1 POP PUSH2 0x1CA7 PUSH0 DUP4 ADD DUP7 PUSH2 0x19DA JUMP JUMPDEST PUSH2 0x1CB4 PUSH1 0x20 DUP4 ADD DUP6 PUSH2 0x19DA JUMP JUMPDEST PUSH2 0x1CC1 PUSH1 0x40 DUP4 ADD DUP5 PUSH2 0x19F4 JUMP JUMPDEST SWAP5 SWAP4 POP POP POP POP JUMP JUMPDEST PUSH0 PUSH1 0x60 DUP3 ADD SWAP1 POP PUSH2 0x1CDC PUSH0 DUP4 ADD DUP7 PUSH2 0x19C2 JUMP JUMPDEST PUSH2 0x1CE9 PUSH1 0x20 DUP4 ADD DUP6 PUSH2 0x19DA JUMP JUMPDEST PUSH2 0x1CF6 PUSH1 0x40 DUP4 ADD DUP5 PUSH2 0x19F4 JUMP JUMPDEST SWAP5 SWAP4 POP POP POP POP JUMP JUMPDEST PUSH0 DUP3 DUP3 MSTORE PUSH1 0x20 DUP3 ADD SWAP1 POP SWAP3 SWAP2 POP POP JUMP JUMPDEST PUSH32 0x55736572206973206F6E206672656520706C616E000000000000000000000000 PUSH0 DUP3 ADD MSTORE POP JUMP JUMPDEST PUSH0 PUSH2 0x1D42 PUSH1 0x14 DUP4 PUSH2 0x1CFE JUMP JUMPDEST SWAP2 POP PUSH2 0x1D4D DUP3 PUSH2 0x1D0E JUMP JUMPDEST PUSH1 0x20 DUP3 ADD SWAP1 POP SWAP2 SWAP1 POP JUMP JUMPDEST PUSH0 PUSH1 0x20 DUP3 ADD SWAP1 POP DUP2 DUP2 SUB PUSH0 DUP4 ADD MSTORE PUSH2 0x1D6F DUP2 PUSH2 0x1D36 JUMP JUMPDEST SWAP1 POP SWAP2 SWAP1 POP JUMP JUMPDEST PUSH32 0x537562736372697074696F6E207374696C6C2061637469766500000000000000 PUSH0 DUP3 ADD MSTORE POP JUMP JUMPDEST PUSH0 PUSH2 0x1DAA PUSH1 0x19 DUP4 PUSH2 0x1CFE JUMP JUMPDEST SWAP2 POP PUSH2 0x1DB5 DUP3 PUSH2 0x1D76 JUMP JUMPDEST PUSH1 0x20 DUP3 ADD SWAP1 POP SWAP2 SWAP1 POP JUMP JUMPDEST PUSH0 PUSH1 0x20 DUP3 ADD SWAP1 POP DUP2 DUP2 SUB PUSH0 DUP4 ADD MSTORE PUSH2 0x1DD7 DUP2 PUSH2 0x1D9E JUMP JUMPDEST SWAP1 POP SWAP2 SWAP1 POP JUMP JUMPDEST PUSH32 0x41636365737320616C7265616479207265766F6B656400000000000000000000 PUSH0 DUP3 ADD MSTORE POP JUMP JUMPDEST PUSH0 PUSH2 0x1E12 PUSH1 0x16 DUP4 PUSH2 0x1CFE JUMP JUMPDEST SWAP2 POP PUSH2 0x1E1D DUP3 PUSH2 0x1DDE JUMP JUMPDEST PUSH1 0x20 DUP3 ADD SWAP1 POP SWAP2 SWAP1 POP JUMP JUMPDEST PUSH0 PUSH1 0x20 DUP3 ADD SWAP1 POP DUP2 DUP2 SUB PUSH0 DUP4 ADD MSTORE PUSH2 0x1E3F DUP2 PUSH2 0x1E06 JUMP JUMPDEST SWAP1 POP SWAP2 SWAP1 POP JUMP JUMPDEST PUSH0 PUSH1 0x20 DUP3 ADD SWAP1 POP PUSH2 0x1E59 PUSH0 DUP4 ADD DUP5 PUSH2 0x19C2 JUMP JUMPDEST SWAP3 SWAP2 POP POP JUMP JUMPDEST PUSH32 0x496E76616C6964206F776E657220616464726573730000000000000000000000 PUSH0 DUP3 ADD MSTORE POP JUMP JUMPDEST PUSH0 PUSH2 0x1E93 PUSH1 0x15 DUP4 PUSH2 0x1CFE JUMP JUMPDEST SWAP2 POP PUSH2 0x1E9E DUP3 PUSH2 0x1E5F JUMP JUMPDEST PUSH1 0x20 DUP3 ADD SWAP1 POP SWAP2 SWAP1 POP JUMP JUMPDEST PUSH0 PUSH1 0x20 DUP3 ADD SWAP1 POP DUP2 DUP2 SUB PUSH0 DUP4 ADD MSTORE PUSH2 0x1EC0 DUP2 PUSH2 0x1E87 JUMP JUMPDEST SWAP1 POP SWAP2 SWAP1 POP JUMP JUMPDEST PUSH32 0x4F6E6C7920706169642075736572732063616E20736574206F776E6572000000 PUSH0 DUP3 ADD MSTORE POP JUMP JUMPDEST PUSH0 PUSH2 0x1EFB PUSH1 0x1D DUP4 PUSH2 0x1CFE JUMP JUMPDEST SWAP2 POP PUSH2 0x1F06 DUP3 PUSH2 0x1EC7 JUMP JUMPDEST PUSH1 0x20 DUP3 ADD SWAP1 POP SWAP2 SWAP1 POP JUMP JUMPDEST PUSH0 PUSH1 0x20 DUP3 ADD SWAP1 POP DUP2 DUP2 SUB PUSH0 DUP4 ADD MSTORE PUSH2 0x1F28 DUP2 PUSH2 0x1EEF JUMP JUMPDEST SWAP1 POP SWAP2 SWAP1 POP JUMP JUMPDEST PUSH32 0x537562736372697074696F6E2065787069726564000000000000000000000000 PUSH0 DUP3 ADD MSTORE POP JUMP JUMPDEST PUSH0 PUSH2 0x1F63 PUSH1 0x14 DUP4 PUSH2 0x1CFE JUMP JUMPDEST SWAP2 POP PUSH2 0x1F6E DUP3 PUSH2 0x1F2F JUMP JUMPDEST PUSH1 0x20 DUP3 ADD SWAP1 POP SWAP2 SWAP1 POP JUMP JUMPDEST PUSH0 PUSH1 0x20 DUP3 ADD SWAP1 POP DUP2 DUP2 SUB PUSH0 DUP4 ADD MSTORE PUSH2 0x1F90 DUP2 PUSH2 0x1F57 JUMP JUMPDEST SWAP1 POP SWAP2 SWAP1 POP JUMP JUMPDEST PUSH32 0x43616E6E6F74206772616E74206672656520706C616E00000000000000000000 PUSH0 DUP3 ADD MSTORE POP JUMP JUMPDEST PUSH0 PUSH2 0x1FCB PUSH1 0x16 DUP4 PUSH2 0x1CFE JUMP JUMPDEST SWAP2 POP PUSH2 0x1FD6 DUP3 PUSH2 0x1F97 JUMP JUMPDEST PUSH1 0x20 DUP3 ADD SWAP1 POP SWAP2 SWAP1 POP JUMP JUMPDEST PUSH0 PUSH1 0x20 DUP3 ADD SWAP1 POP DUP2 DUP2 SUB PUSH0 DUP4 ADD MSTORE PUSH2 0x1FF8 DUP2 PUSH2 0x1FBF JUMP JUMPDEST SWAP1 POP SWAP2 SWAP1 POP JUMP JUMPDEST PUSH32 0x4E487B7100000000000000000000000000000000000000000000000000000000 PUSH0 MSTORE PUSH1 0x11 PUSH1 0x4 MSTORE PUSH1 0x24 PUSH0 REVERT JUMPDEST PUSH0 PUSH2 0x2036 DUP3 PUSH2 0x19D1 JUMP JUMPDEST SWAP2 POP PUSH2 0x2041 DUP4 PUSH2 0x19D1 JUMP JUMPDEST SWAP3 POP DUP3 DUP3 ADD SWAP1 POP DUP1 DUP3 GT ISZERO PUSH2 0x2059 JUMPI PUSH2 0x2058 PUSH2 0x1FFF JUMP JUMPDEST JUMPDEST SWAP3 SWAP2 POP POP JUMP JUMPDEST PUSH0 PUSH1 0x40 DUP3 ADD SWAP1 POP PUSH2 0x2072 PUSH0 DUP4 ADD DUP6 PUSH2 0x19C2 JUMP JUMPDEST PUSH2 0x207F PUSH1 0x20 DUP4 ADD DUP5 PUSH2 0x19DA JUMP JUMPDEST SWAP4 SWAP3 POP POP POP JUMP JUMPDEST PUSH32 0x4672656520706C616E206D757374206861766520302070726963650000000000 PUSH0 DUP3 ADD MSTORE POP JUMP JUMPDEST PUSH0 PUSH2 0x20BA PUSH1 0x1B DUP4 PUSH2 0x1CFE JUMP JUMPDEST SWAP2 POP PUSH2 0x20C5 DUP3 PUSH2 0x2086 JUMP JUMPDEST PUSH1 0x20 DUP3 ADD SWAP1 POP SWAP2 SWAP1 POP JUMP JUMPDEST PUSH0 PUSH1 0x20 DUP3 ADD SWAP1 POP DUP2 DUP2 SUB PUSH0 DUP4 ADD MSTORE PUSH2 0x20E7 DUP2 PUSH2 0x20AE JUMP JUMPDEST SWAP1 POP SWAP2 SWAP1 POP JUMP JUMPDEST PUSH0 PUSH1 0x60 DUP3 ADD SWAP1 POP PUSH2 0x2101 PUSH0 DUP4 ADD DUP7 PUSH2 0x19C2 JUMP JUMPDEST PUSH2 0x210E PUSH1 0x20 DUP4 ADD DUP6 PUSH2 0x19DA JUMP JUMPDEST PUSH2 0x211B PUSH1 0x40 DUP4 ADD DUP5 PUSH2 0x19DA JUMP JUMPDEST SWAP5 SWAP4 POP POP POP POP JUMP JUMPDEST PUSH32 0x496E76616C696420747265617375727920616464726573730000000000000000 PUSH0 DUP3 ADD MSTORE POP JUMP JUMPDEST PUSH0 PUSH2 0x2157 PUSH1 0x18 DUP4 PUSH2 0x1CFE JUMP JUMPDEST SWAP2 POP PUSH2 0x2162 DUP3 PUSH2 0x2123 JUMP JUMPDEST PUSH1 0x20 DUP3 ADD SWAP1 POP SWAP2 SWAP1 POP JUMP JUMPDEST PUSH0 PUSH1 0x20 DUP3 ADD SWAP1 POP DUP2 DUP2 SUB PUSH0 DUP4 ADD MSTORE PUSH2 0x2184 DUP2 PUSH2 0x214B JUMP JUMPDEST SWAP1 POP SWAP2 SWAP1 POP JUMP JUMPDEST PUSH32 0x43616E6E6F74207075726368617365206672656520706C616E00000000000000 PUSH0 DUP3 ADD MSTORE POP JUMP JUMPDEST PUSH0 PUSH2 0x21BF PUSH1 0x19 DUP4 PUSH2 0x1CFE JUMP JUMPDEST SWAP2 POP PUSH2 0x21CA DUP3 PUSH2 0x218B JUMP JUMPDEST PUSH1 0x20 DUP3 ADD SWAP1 POP SWAP2 SWAP1 POP JUMP JUMPDEST PUSH0 PUSH1 0x20 DUP3 ADD SWAP1 POP DUP2 DUP2 SUB PUSH0 DUP4 ADD MSTORE PUSH2 0x21EC DUP2 PUSH2 0x21B3 JUMP JUMPDEST SWAP1 POP SWAP2 SWAP1 POP JUMP JUMPDEST PUSH32 0x506C616E206E6F74206163746976650000000000000000000000000000000000 PUSH0 DUP3 ADD MSTORE POP JUMP JUMPDEST PUSH0 PUSH2 0x2227 PUSH1 0xF DUP4 PUSH2 0x1CFE JUMP JUMPDEST SWAP2 POP PUSH2 0x2232 DUP3 PUSH2 0x21F3 JUMP JUMPDEST PUSH1 0x20 DUP3 ADD SWAP1 POP SWAP2 SWAP1 POP JUMP JUMPDEST PUSH0 PUSH1 0x20 DUP3 ADD SWAP1 POP DUP2 DUP2 SUB PUSH0 DUP4 ADD MSTORE PUSH2 0x2254 DUP2 PUSH2 0x221B JUMP JUMPDEST SWAP1 POP SWAP2 SWAP1 POP JUMP JUMPDEST PUSH0 PUSH1 0x60 DUP3 ADD SWAP1 POP PUSH2 0x226E PUSH0 DUP4 ADD DUP7 PUSH2 0x1B64 JUMP JUMPDEST PUSH2 0x227B PUSH1 0x20 DUP4 ADD DUP6 PUSH2 0x1B64 JUMP JUMPDEST PUSH2 0x2288 PUSH1 0x40 DUP4 ADD DUP5 PUSH2 0x19DA JUMP JUMPDEST SWAP5 SWAP4 POP POP POP POP JUMP JUMPDEST PUSH0 DUP2 MLOAD SWAP1 POP PUSH2 0x229E DUP2 PUSH2 0x1C06 JUMP JUMPDEST SWAP3 SWAP2 POP POP JUMP JUMPDEST PUSH0 PUSH1 0x20 DUP3 DUP5 SUB SLT ISZERO PUSH2 0x22B9 JUMPI PUSH2 0x22B8 PUSH2 0x18D5 JUMP JUMPDEST JUMPDEST PUSH0 PUSH2 0x22C6 DUP5 DUP3 DUP6 ADD PUSH2 0x2290 JUMP JUMPDEST SWAP2 POP POP SWAP3 SWAP2 POP POP JUMP JUMPDEST PUSH32 0x5061796D656E74206661696C6564000000000000000000000000000000000000 PUSH0 DUP3 ADD MSTORE POP JUMP JUMPDEST PUSH0 PUSH2 0x2303 PUSH1 0xE DUP4 PUSH2 0x1CFE JUMP JUMPDEST SWAP2 POP PUSH2 0x230E DUP3 PUSH2 0x22CF JUMP JUMPDEST PUSH1 0x20 DUP3 ADD SWAP1 POP SWAP2 SWAP1 POP JUMP JUMPDEST PUSH0 PUSH1 0x20 DUP3 ADD SWAP1 POP DUP2 DUP2 SUB PUSH0 DUP4 ADD MSTORE PUSH2 0x2330 DUP2 PUSH2 0x22F7 JUMP JUMPDEST SWAP1 POP SWAP2 SWAP1 POP JUMP JUMPDEST PUSH32 0x5265656E7472616E637947756172643A207265656E7472616E742063616C6C00 PUSH0 DUP3 ADD MSTORE POP JUMP JUMPDEST PUSH0 PUSH2 0x236B PUSH1 0x1F DUP4 PUSH2 0x1CFE JUMP JUMPDEST SWAP2 POP PUSH2 0x2376 DUP3 PUSH2 0x2337 JUMP JUMPDEST PUSH1 0x20 DUP3 ADD SWAP1 POP SWAP2 SWAP1 POP JUMP JUMPDEST PUSH0 PUSH1 0x20 DUP3 ADD SWAP1 POP DUP2 DUP2 SUB PUSH0 DUP4 ADD MSTORE PUSH2 0x2398 DUP2 PUSH2 0x235F JUMP JUMPDEST SWAP1 POP SWAP2 SWAP1 POP JUMP INVALID LOG2 PUSH5 0x6970667358 0x22 SLT KECCAK256 0xB7 RJUMP 0x5628 ADDRESS SWAP16 DATALOADN 0x7CA4 SGT EQ BLOBHASH POP 0xDF 0xBE LOG3 SAR SWAP8 0xDC LOG2 BLOBBASEFEE 0xDC TLOAD EXTCODECOPY 0xC 0xB3 EOFCREATE 0xA3 MSTORE 0xDD 0xEA NOT PUSH5 0x736F6C6343 STOP ADDMOD 0x1E STOP CALLER "
		},
		"gasEstimates": {
			"creation": {
				"codeDepositCost": "1834600",
				"executionCost": "infinite",
				"totalCost": "infinite"
			},
			"external": {
				"checkAccess(address)": "7427",
				"getOwner(address)": "infinite",
				"getPlanDetails(uint8)": "infinite",
				"getSubscription(address)": "infinite",
				"grantAccess(address,uint8,uint256)": "infinite",
				"owner()": "2603",
				"plans(uint8)": "infinite",
				"purchasePlan(uint8)": "infinite",
				"renounceOwnership()": "infinite",
				"revokeExpiredAccess(address)": "60660",
				"setOwner(address)": "30986",
				"subscriptions(address)": "7473",
				"transferOwnership(address)": "infinite",
				"treasury()": "2575",
				"updatePlan(uint8,uint256,uint256,bool)": "infinite",
				"updateTreasury(address)": "infinite",
				"usdcToken()": "infinite",
				"userOwners(address)": "infinite"
			}
		},
		"methodIdentifiers": {
			"checkAccess(address)": "466a0146",
			"getOwner(address)": "fa544161",
			"getPlanDetails(uint8)": "c9563560",
			"getSubscription(address)": "0cbebc24",
			"grantAccess(address,uint8,uint256)": "6c52df4e",
			"owner()": "8da5cb5b",
			"plans(uint8)": "60a31a88",
			"purchasePlan(uint8)": "98693010",
			"renounceOwnership()": "715018a6",
			"revokeExpiredAccess(address)": "129debff",
			"setOwner(address)": "13af4035",
			"subscriptions(address)": "f046395a",
			"transferOwnership(address)": "f2fde38b",
			"treasury()": "61d027b3",
			"updatePlan(uint8,uint256,uint256,bool)": "7ecf2128",
			"updateTreasury(address)": "7f51bb1f",
			"usdcToken()": "11eac855",
			"userOwners(address)": "77812b7f"
		}
	},
	"abi": [
		{
			"inputs": [
				{
					"internalType": "address",
					"name": "_usdcToken",
					"type": "address"
				},
				{
					"internalType": "address",
					"name": "_treasury",
					"type": "address"
				}
			],
			"stateMutability": "nonpayable",
			"type": "constructor"
		},
		{
			"inputs": [
				{
					"internalType": "address",
					"name": "owner",
					"type": "address"
				}
			],
			"name": "OwnableInvalidOwner",
			"type": "error"
		},
		{
			"inputs": [
				{
					"internalType": "address",
					"name": "account",
					"type": "address"
				}
			],
			"name": "OwnableUnauthorizedAccount",
			"type": "error"
		},
		{
			"anonymous": false,
			"inputs": [
				{
					"indexed": true,
					"internalType": "address",
					"name": "user",
					"type": "address"
				}
			],
			"name": "AccessRevoked",
			"type": "event"
		},
		{
			"anonymous": false,
			"inputs": [
				{
					"indexed": true,
					"internalType": "address",
					"name": "user",
					"type": "address"
				},
				{
					"indexed": true,
					"internalType": "address",
					"name": "owner",
					"type": "address"
				}
			],
			"name": "OwnerSet",
			"type": "event"
		},
		{
			"anonymous": false,
			"inputs": [
				{
					"indexed": true,
					"internalType": "address",
					"name": "previousOwner",
					"type": "address"
				},
				{
					"indexed": true,
					"internalType": "address",
					"name": "newOwner",
					"type": "address"
				}
			],
			"name": "OwnershipTransferred",
			"type": "event"
		},
		{
			"anonymous": false,
			"inputs": [
				{
					"indexed": true,
					"internalType": "address",
					"name": "user",
					"type": "address"
				},
				{
					"indexed": false,
					"internalType": "enum SubscriptionPlan.PlanType",
					"name": "previousPlan",
					"type": "uint8"
				}
			],
			"name": "PlanExpired",
			"type": "event"
		},
		{
			"anonymous": false,
			"inputs": [
				{
					"indexed": true,
					"internalType": "address",
					"name": "user",
					"type": "address"
				},
				{
					"indexed": false,
					"internalType": "enum SubscriptionPlan.PlanType",
					"name": "planType",
					"type": "uint8"
				},
				{
					"indexed": false,
					"internalType": "uint256",
					"name": "expiryTimestamp",
					"type": "uint256"
				}
			],
			"name": "PlanPurchased",
			"type": "event"
		},
		{
			"anonymous": false,
			"inputs": [
				{
					"indexed": false,
					"internalType": "enum SubscriptionPlan.PlanType",
					"name": "planType",
					"type": "uint8"
				},
				{
					"indexed": false,
					"internalType": "uint256",
					"name": "price",
					"type": "uint256"
				},
				{
					"indexed": false,
					"internalType": "uint256",
					"name": "duration",
					"type": "uint256"
				}
			],
			"name": "PlanUpdated",
			"type": "event"
		},
		{
			"anonymous": false,
			"inputs": [
				{
					"indexed": true,
					"internalType": "address",
					"name": "newTreasury",
					"type": "address"
				}
			],
			"name": "TreasuryUpdated",
			"type": "event"
		},
		{
			"inputs": [
				{
					"internalType": "address",
					"name": "user",
					"type": "address"
				}
			],
			"name": "checkAccess",
			"outputs": [
				{
					"internalType": "bool",
					"name": "",
					"type": "bool"
				}
			],
			"stateMutability": "view",
			"type": "function"
		},
		{
			"inputs": [
				{
					"internalType": "address",
					"name": "user",
					"type": "address"
				}
			],
			"name": "getOwner",
			"outputs": [
				{
					"internalType": "address",
					"name": "",
					"type": "address"
				}
			],
			"stateMutability": "view",
			"type": "function"
		},
		{
			"inputs": [
				{
					"internalType": "enum SubscriptionPlan.PlanType",
					"name": "planType",
					"type": "uint8"
				}
			],
			"name": "getPlanDetails",
			"outputs": [
				{
					"internalType": "uint256",
					"name": "price",
					"type": "uint256"
				},
				{
					"internalType": "uint256",
					"name": "duration",
					"type": "uint256"
				},
				{
					"internalType": "bool",
					"name": "isActive",
					"type": "bool"
				}
			],
			"stateMutability": "view",
			"type": "function"
		},
		{
			"inputs": [
				{
					"internalType": "address",
					"name": "user",
					"type": "address"
				}
			],
			"name": "getSubscription",
			"outputs": [
				{
					"internalType": "enum SubscriptionPlan.PlanType",
					"name": "planType",
					"type": "uint8"
				},
				{
					"internalType": "uint256",
					"name": "expiryTimestamp",
					"type": "uint256"
				},
				{
					"internalType": "bool",
					"name": "hasAccess",
					"type": "bool"
				},
				{
					"internalType": "bool",
					"name": "isExpired",
					"type": "bool"
				}
			],
			"stateMutability": "view",
			"type": "function"
		},
		{
			"inputs": [
				{
					"internalType": "address",
					"name": "user",
					"type": "address"
				},
				{
					"internalType": "enum SubscriptionPlan.PlanType",
					"name": "planType",
					"type": "uint8"
				},
				{
					"internalType": "uint256",
					"name": "duration",
					"type": "uint256"
				}
			],
			"name": "grantAccess",
			"outputs": [],
			"stateMutability": "nonpayable",
			"type": "function"
		},
		{
			"inputs": [],
			"name": "owner",
			"outputs": [
				{
					"internalType": "address",
					"name": "",
					"type": "address"
				}
			],
			"stateMutability": "view",
			"type": "function"
		},
		{
			"inputs": [
				{
					"internalType": "enum SubscriptionPlan.PlanType",
					"name": "",
					"type": "uint8"
				}
			],
			"name": "plans",
			"outputs": [
				{
					"internalType": "enum SubscriptionPlan.PlanType",
					"name": "planType",
					"type": "uint8"
				},
				{
					"internalType": "uint256",
					"name": "price",
					"type": "uint256"
				},
				{
					"internalType": "uint256",
					"name": "duration",
					"type": "uint256"
				},
				{
					"internalType": "bool",
					"name": "isActive",
					"type": "bool"
				}
			],
			"stateMutability": "view",
			"type": "function"
		},
		{
			"inputs": [
				{
					"internalType": "enum SubscriptionPlan.PlanType",
					"name": "planType",
					"type": "uint8"
				}
			],
			"name": "purchasePlan",
			"outputs": [],
			"stateMutability": "nonpayable",
			"type": "function"
		},
		{
			"inputs": [],
			"name": "renounceOwnership",
			"outputs": [],
			"stateMutability": "nonpayable",
			"type": "function"
		},
		{
			"inputs": [
				{
					"internalType": "address",
					"name": "user",
					"type": "address"
				}
			],
			"name": "revokeExpiredAccess",
			"outputs": [],
			"stateMutability": "nonpayable",
			"type": "function"
		},
		{
			"inputs": [
				{
					"internalType": "address",
					"name": "owner",
					"type": "address"
				}
			],
			"name": "setOwner",
			"outputs": [],
			"stateMutability": "nonpayable",
			"type": "function"
		},
		{
			"inputs": [
				{
					"internalType": "address",
					"name": "",
					"type": "address"
				}
			],
			"name": "subscriptions",
			"outputs": [
				{
					"internalType": "enum SubscriptionPlan.PlanType",
					"name": "planType",
					"type": "uint8"
				},
				{
					"internalType": "uint256",
					"name": "expiryTimestamp",
					"type": "uint256"
				},
				{
					"internalType": "bool",
					"name": "hasAccess",
					"type": "bool"
				}
			],
			"stateMutability": "view",
			"type": "function"
		},
		{
			"inputs": [
				{
					"internalType": "address",
					"name": "newOwner",
					"type": "address"
				}
			],
			"name": "transferOwnership",
			"outputs": [],
			"stateMutability": "nonpayable",
			"type": "function"
		},
		{
			"inputs": [],
			"name": "treasury",
			"outputs": [
				{
					"internalType": "address",
					"name": "",
					"type": "address"
				}
			],
			"stateMutability": "view",
			"type": "function"
		},
		{
			"inputs": [
				{
					"internalType": "enum SubscriptionPlan.PlanType",
					"name": "planType",
					"type": "uint8"
				},
				{
					"internalType": "uint256",
					"name": "price",
					"type": "uint256"
				},
				{
					"internalType": "uint256",
					"name": "duration",
					"type": "uint256"
				},
				{
					"internalType": "bool",
					"name": "isActive",
					"type": "bool"
				}
			],
			"name": "updatePlan",
			"outputs": [],
			"stateMutability": "nonpayable",
			"type": "function"
		},
		{
			"inputs": [
				{
					"internalType": "address",
					"name": "newTreasury",
					"type": "address"
				}
			],
			"name": "updateTreasury",
			"outputs": [],
			"stateMutability": "nonpayable",
			"type": "function"
		},
		{
			"inputs": [],
			"name": "usdcToken",
			"outputs": [
				{
					"internalType": "contract IERC20",
					"name": "",
					"type": "address"
				}
			],
			"stateMutability": "view",
			"type": "function"
		},
		{
			"inputs": [
				{
					"internalType": "address",
					"name": "",
					"type": "address"
				}
			],
			"name": "userOwners",
			"outputs": [
				{
					"internalType": "address",
					"name": "",
					"type": "address"
				}
			],
			"stateMutability": "view",
			"type": "function"
		}
	]
}