{
	"upgrade.sol": {
		"SubscriptionPlan": {
			"abi": [
				{
					"inputs": [
						{
							"internalType": "address",
							"name": "_usdcToken",
							"type": "address"
						},
						{
							"internalType": "address",
							"name": "_treasury",
							"type": "address"
						}
					],
					"stateMutability": "nonpayable",
					"type": "constructor"
				},
				{
					"inputs": [
						{
							"internalType": "address",
							"name": "owner",
							"type": "address"
						}
					],
					"name": "OwnableInvalidOwner",
					"type": "error"
				},
				{
					"inputs": [
						{
							"internalType": "address",
							"name": "account",
							"type": "address"
						}
					],
					"name": "OwnableUnauthorizedAccount",
					"type": "error"
				},
				{
					"anonymous": false,
					"inputs": [
						{
							"indexed": true,
							"internalType": "address",
							"name": "user",
							"type": "address"
						}
					],
					"name": "AccessRevoked",
					"type": "event"
				},
				{
					"anonymous": false,
					"inputs": [
						{
							"indexed": true,
							"internalType": "address",
							"name": "user",
							"type": "address"
						},
						{
							"indexed": true,
							"internalType": "address",
							"name": "owner",
							"type": "address"
						}
					],
					"name": "OwnerSet",
					"type": "event"
				},
				{
					"anonymous": false,
					"inputs": [
						{
							"indexed": true,
							"internalType": "address",
							"name": "previousOwner",
							"type": "address"
						},
						{
							"indexed": true,
							"internalType": "address",
							"name": "newOwner",
							"type": "address"
						}
					],
					"name": "OwnershipTransferred",
					"type": "event"
				},
				{
					"anonymous": false,
					"inputs": [
						{
							"indexed": true,
							"internalType": "address",
							"name": "user",
							"type": "address"
						},
						{
							"indexed": false,
							"internalType": "enum SubscriptionPlan.PlanType",
							"name": "previousPlan",
							"type": "uint8"
						}
					],
					"name": "PlanExpired",
					"type": "event"
				},
				{
					"anonymous": false,
					"inputs": [
						{
							"indexed": true,
							"internalType": "address",
							"name": "user",
							"type": "address"
						},
						{
							"indexed": false,
							"internalType": "enum SubscriptionPlan.PlanType",
							"name": "planType",
							"type": "uint8"
						},
						{
							"indexed": false,
							"internalType": "uint256",
							"name": "expiryTimestamp",
							"type": "uint256"
						}
					],
					"name": "PlanPurchased",
					"type": "event"
				},
				{
					"anonymous": false,
					"inputs": [
						{
							"indexed": false,
							"internalType": "enum SubscriptionPlan.PlanType",
							"name": "planType",
							"type": "uint8"
						},
						{
							"indexed": false,
							"internalType": "uint256",
							"name": "price",
							"type": "uint256"
						},
						{
							"indexed": false,
							"internalType": "uint256",
							"name": "duration",
							"type": "uint256"
						}
					],
					"name": "PlanUpdated",
					"type": "event"
				},
				{
					"anonymous": false,
					"inputs": [
						{
							"indexed": true,
							"internalType": "address",
							"name": "newTreasury",
							"type": "address"
						}
					],
					"name": "TreasuryUpdated",
					"type": "event"
				},
				{
					"inputs": [
						{
							"internalType": "address",
							"name": "user",
							"type": "address"
						}
					],
					"name": "checkAccess",
					"outputs": [
						{
							"internalType": "bool",
							"name": "",
							"type": "bool"
						}
					],
					"stateMutability": "view",
					"type": "function"
				},
				{
					"inputs": [
						{
							"internalType": "address",
							"name": "user",
							"type": "address"
						}
					],
					"name": "getOwner",
					"outputs": [
						{
							"internalType": "address",
							"name": "",
							"type": "address"
						}
					],
					"stateMutability": "view",
					"type": "function"
				},
				{
					"inputs": [
						{
							"internalType": "enum SubscriptionPlan.PlanType",
							"name": "planType",
							"type": "uint8"
						}
					],
					"name": "getPlanDetails",
					"outputs": [
						{
							"internalType": "uint256",
							"name": "price",
							"type": "uint256"
						},
						{
							"internalType": "uint256",
							"name": "duration",
							"type": "uint256"
						},
						{
							"internalType": "bool",
							"name": "isActive",
							"type": "bool"
						}
					],
					"stateMutability": "view",
					"type": "function"
				},
				{
					"inputs": [
						{
							"internalType": "address",
							"name": "user",
							"type": "address"
						}
					],
					"name": "getSubscription",
					"outputs": [
						{
							"internalType": "enum SubscriptionPlan.PlanType",
							"name": "planType",
							"type": "uint8"
						},
						{
							"internalType": "uint256",
							"name": "expiryTimestamp",
							"type": "uint256"
						},
						{
							"internalType": "bool",
							"name": "hasAccess",
							"type": "bool"
						},
						{
							"internalType": "bool",
							"name": "isExpired",
							"type": "bool"
						}
					],
					"stateMutability": "view",
					"type": "function"
				},
				{
					"inputs": [
						{
							"internalType": "address",
							"name": "user",
							"type": "address"
						},
						{
							"internalType": "enum SubscriptionPlan.PlanType",
							"name": "planType",
							"type": "uint8"
						},
						{
							"internalType": "uint256",
							"name": "duration",
							"type": "uint256"
						}
					],
					"name": "grantAccess",
					"outputs": [],
					"stateMutability": "nonpayable",
					"type": "function"
				},
				{
					"inputs": [],
					"name": "owner",
					"outputs": [
						{
							"internalType": "address",
							"name": "",
							"type": "address"
						}
					],
					"stateMutability": "view",
					"type": "function"
				},
				{
					"inputs": [
						{
							"internalType": "enum SubscriptionPlan.PlanType",
							"name": "",
							"type": "uint8"
						}
					],
					"name": "plans",
					"outputs": [
						{
							"internalType": "enum SubscriptionPlan.PlanType",
							"name": "planType",
							"type": "uint8"
						},
						{
							"internalType": "uint256",
							"name": "price",
							"type": "uint256"
						},
						{
							"internalType": "uint256",
							"name": "duration",
							"type": "uint256"
						},
						{
							"internalType": "bool",
							"name": "isActive",
							"type": "bool"
						}
					],
					"stateMutability": "view",
					"type": "function"
				},
				{
					"inputs": [
						{
							"internalType": "enum SubscriptionPlan.PlanType",
							"name": "planType",
							"type": "uint8"
						}
					],
					"name": "purchasePlan",
					"outputs": [],
					"stateMutability": "nonpayable",
					"type": "function"
				},
				{
					"inputs": [],
					"name": "renounceOwnership",
					"outputs": [],
					"stateMutability": "nonpayable",
					"type": "function"
				},
				{
					"inputs": [
						{
							"internalType": "address",
							"name": "user",
							"type": "address"
						}
					],
					"name": "revokeExpiredAccess",
					"outputs": [],
					"stateMutability": "nonpayable",
					"type": "function"
				},
				{
					"inputs": [
						{
							"internalType": "address",
							"name": "owner",
							"type": "address"
						}
					],
					"name": "setOwner",
					"outputs": [],
					"stateMutability": "nonpayable",
					"type": "function"
				},
				{
					"inputs": [
						{
							"internalType": "address",
							"name": "",
							"type": "address"
						}
					],
					"name": "subscriptions",
					"outputs": [
						{
							"internalType": "enum SubscriptionPlan.PlanType",
							"name": "planType",
							"type": "uint8"
						},
						{
							"internalType": "uint256",
							"name": "expiryTimestamp",
							"type": "uint256"
						},
						{
							"internalType": "bool",
							"name": "hasAccess",
							"type": "bool"
						}
					],
					"stateMutability": "view",
					"type": "function"
				},
				{
					"inputs": [
						{
							"internalType": "address",
							"name": "newOwner",
							"type": "address"
						}
					],
					"name": "transferOwnership",
					"outputs": [],
					"stateMutability": "nonpayable",
					"type": "function"
				},
				{
					"inputs": [],
					"name": "treasury",
					"outputs": [
						{
							"internalType": "address",
							"name": "",
							"type": "address"
						}
					],
					"stateMutability": "view",
					"type": "function"
				},
				{
					"inputs": [
						{
							"internalType": "enum SubscriptionPlan.PlanType",
							"name": "planType",
							"type": "uint8"
						},
						{
							"internalType": "uint256",
							"name": "price",
							"type": "uint256"
						},
						{
							"internalType": "uint256",
							"name": "duration",
							"type": "uint256"
						},
						{
							"internalType": "bool",
							"name": "isActive",
							"type": "bool"
						}
					],
					"name": "updatePlan",
					"outputs": [],
					"stateMutability": "nonpayable",
					"type": "function"
				},
				{
					"inputs": [
						{
							"internalType": "address",
							"name": "newTreasury",
							"type": "address"
						}
					],
					"name": "updateTreasury",
					"outputs": [],
					"stateMutability": "nonpayable",
					"type": "function"
				},
				{
					"inputs": [],
					"name": "usdcToken",
					"outputs": [
						{
							"internalType": "contract IERC20",
							"name": "",
							"type": "address"
						}
					],
					"stateMutability": "view",
					"type": "function"
				},
				{
					"inputs": [
						{
							"internalType": "address",
							"name": "",
							"type": "address"
						}
					],
					"name": "userOwners",
					"outputs": [
						{
							"internalType": "address",
							"name": "",
							"type": "address"
						}
					],
					"stateMutability": "view",
					"type": "function"
				}
			],
			"devdoc": {
				"details": "Manages user subscriptions with Free, Monthly, and Yearly plans",
				"errors": {
					"OwnableInvalidOwner(address)": [
						{
							"details": "The owner is not a valid owner account. (eg. `address(0)`)"
						}
					],
					"OwnableUnauthorizedAccount(address)": [
						{
							"details": "The caller account is not authorized to perform an operation."
						}
					]
				},
				"kind": "dev",
				"methods": {
					"checkAccess(address)": {
						"details": "Check if user has access to DCA features",
						"params": {
							"user": "Address of the user to check"
						},
						"returns": {
							"_0": "hasAccess Whether user has active subscription"
						}
					},
					"constructor": {
						"details": "Constructor initializes plan prices and durations",
						"params": {
							"_treasury": "Address to receive subscription payments",
							"_usdcToken": "Address of USDC token contract"
						}
					},
					"getOwner(address)": {
						"details": "Get owner of a user's subscription",
						"params": {
							"user": "Address of the user"
						},
						"returns": {
							"_0": "owner Address of the owner"
						}
					},
					"getPlanDetails(uint8)": {
						"details": "Get plan details",
						"params": {
							"planType": "Type of plan"
						},
						"returns": {
							"duration": "Duration of the plan",
							"isActive": "Whether plan is active",
							"price": "Price of the plan"
						}
					},
					"getSubscription(address)": {
						"details": "Get user subscription details",
						"params": {
							"user": "Address of the user"
						},
						"returns": {
							"expiryTimestamp": "When the subscription expires",
							"hasAccess": "Current access status",
							"isExpired": "Whether the subscription has expired",
							"planType": "Current plan type"
						}
					},
					"grantAccess(address,uint8,uint256)": {
						"details": "Grant premium access to a user (only owner, for testing/promotions)",
						"params": {
							"duration": "Duration of access",
							"planType": "Plan type to grant",
							"user": "Address of the user"
						}
					},
					"owner()": {
						"details": "Returns the address of the current owner."
					},
					"purchasePlan(uint8)": {
						"details": "Purchase a subscription plan",
						"params": {
							"planType": "The type of plan to purchase (MONTHLY or YEARLY)"
						}
					},
					"renounceOwnership()": {
						"details": "Leaves the contract without owner. It will not be possible to call `onlyOwner` functions. Can only be called by the current owner. NOTE: Renouncing ownership will leave the contract without an owner, thereby disabling any functionality that is only available to the owner."
					},
					"revokeExpiredAccess(address)": {
						"details": "Revoke access for expired subscriptions (can be called by anyone)",
						"params": {
							"user": "Address of the user to check"
						}
					},
					"setOwner(address)": {
						"details": "Set owner for the calling user's subscription",
						"params": {
							"owner": "Address to set as owner"
						}
					},
					"transferOwnership(address)": {
						"details": "Transfers ownership of the contract to a new account (`newOwner`). Can only be called by the current owner."
					},
					"updatePlan(uint8,uint256,uint256,bool)": {
						"details": "Update plan details (only owner)",
						"params": {
							"duration": "New duration in seconds",
							"isActive": "Whether plan is active",
							"planType": "Type of plan to update",
							"price": "New price in USDC"
						}
					},
					"updateTreasury(address)": {
						"details": "Update treasury address (only owner)",
						"params": {
							"newTreasury": "New treasury address"
						}
					}
				},
				"title": "SubscriptionPlan",
				"version": 1
			},
			"evm": {
				"assembly": "    /* \"upgrade.sol\":434:10192  contract SubscriptionPlan is Ownable, ReentrancyGuard {... */\n  mstore(0x40, 0x80)\n    /* \"upgrade.sol\":1878:2969  constructor(address _usdcToken, address _treasury) Ownable(msg.sender) {... */\n  callvalue\n  dup1\n  iszero\n  tag_1\n  jumpi\n  revert(0x00, 0x00)\ntag_1:\n  pop\n  mload(0x40)\n  sub(codesize, bytecodeSize)\n  dup1\n  bytecodeSize\n  dup4\n  codecopy\n  dup2\n  dup2\n  add\n  0x40\n  mstore\n  dup2\n  add\n  swap1\n  tag_2\n  swap2\n  swap1\n  tag_3\n  jump\t// in\ntag_2:\n    /* \"upgrade.sol\":1937:1947  msg.sender */\n  caller\n    /* \"@openzeppelin/contracts/access/Ownable.sol\":1297:1298  0 */\n  0x00\n    /* \"@openzeppelin/contracts/access/Ownable.sol\":1273:1299  initialOwner == address(0) */\n  0xffffffffffffffffffffffffffffffffffffffff\n  and\n    /* \"@openzeppelin/contracts/access/Ownable.sol\":1273:1285  initialOwner */\n  dup2\n    /* \"@openzeppelin/contracts/access/Ownable.sol\":1273:1299  initialOwner == address(0) */\n  0xffffffffffffffffffffffffffffffffffffffff\n  and\n  sub\n    /* \"@openzeppelin/contracts/access/Ownable.sol\":1269:1364  if (initialOwner == address(0)) {... */\n  tag_8\n  jumpi\n    /* \"@openzeppelin/contracts/access/Ownable.sol\":1350:1351  0 */\n  0x00\n    /* \"@openzeppelin/contracts/access/Ownable.sol\":1322:1353  OwnableInvalidOwner(address(0)) */\n  mload(0x40)\n  0x1e4fbdf700000000000000000000000000000000000000000000000000000000\n  dup2\n  mstore\n  0x04\n  add\n  tag_9\n  swap2\n  swap1\n  tag_10\n  jump\t// in\ntag_9:\n  mload(0x40)\n  dup1\n  swap2\n  sub\n  swap1\n  revert\n    /* \"@openzeppelin/contracts/access/Ownable.sol\":1269:1364  if (initialOwner == address(0)) {... */\ntag_8:\n    /* \"@openzeppelin/contracts/access/Ownable.sol\":1373:1405  _transferOwnership(initialOwner) */\n  tag_11\n    /* \"@openzeppelin/contracts/access/Ownable.sol\":1392:1404  initialOwner */\n  dup2\n    /* \"@openzeppelin/contracts/access/Ownable.sol\":1373:1391  _transferOwnership */\n  shl(0x20, tag_12)\n    /* \"@openzeppelin/contracts/access/Ownable.sol\":1373:1405  _transferOwnership(initialOwner) */\n  0x20\n  shr\n  jump\t// in\ntag_11:\n    /* \"@openzeppelin/contracts/access/Ownable.sol\":1225:1412  constructor(address initialOwner) {... */\n  pop\n    /* \"@openzeppelin/contracts/security/ReentrancyGuard.sol\":1716:1717  1 */\n  0x01\n    /* \"@openzeppelin/contracts/security/ReentrancyGuard.sol\":1821:1828  _status */\n  dup1\n    /* \"@openzeppelin/contracts/security/ReentrancyGuard.sol\":1821:1843  _status = _NOT_ENTERED */\n  dup2\n  swap1\n  sstore\n  pop\n    /* \"upgrade.sol\":1990:1991  0 */\n  0x00\n    /* \"upgrade.sol\":1968:1992  _usdcToken != address(0) */\n  0xffffffffffffffffffffffffffffffffffffffff\n  and\n    /* \"upgrade.sol\":1968:1978  _usdcToken */\n  dup3\n    /* \"upgrade.sol\":1968:1992  _usdcToken != address(0) */\n  0xffffffffffffffffffffffffffffffffffffffff\n  and\n  sub\n    /* \"upgrade.sol\":1960:2017  require(_usdcToken != address(0), \"Invalid USDC address\") */\n  tag_15\n  jumpi\n  mload(0x40)\n  0x08c379a000000000000000000000000000000000000000000000000000000000\n  dup2\n  mstore\n  0x04\n  add\n  tag_16\n  swap1\n  tag_17\n  jump\t// in\ntag_16:\n  mload(0x40)\n  dup1\n  swap2\n  sub\n  swap1\n  revert\ntag_15:\n    /* \"upgrade.sol\":2057:2058  0 */\n  0x00\n    /* \"upgrade.sol\":2036:2059  _treasury != address(0) */\n  0xffffffffffffffffffffffffffffffffffffffff\n  and\n    /* \"upgrade.sol\":2036:2045  _treasury */\n  dup2\n    /* \"upgrade.sol\":2036:2059  _treasury != address(0) */\n  0xffffffffffffffffffffffffffffffffffffffff\n  and\n  sub\n    /* \"upgrade.sol\":2028:2088  require(_treasury != address(0), \"Invalid treasury address\") */\n  tag_18\n  jumpi\n  mload(0x40)\n  0x08c379a000000000000000000000000000000000000000000000000000000000\n  dup2\n  mstore\n  0x04\n  add\n  tag_19\n  swap1\n  tag_20\n  jump\t// in\ntag_19:\n  mload(0x40)\n  dup1\n  swap2\n  sub\n  swap1\n  revert\ntag_18:\n    /* \"upgrade.sol\":2128:2138  _usdcToken */\n  dup2\n    /* \"upgrade.sol\":2109:2118  usdcToken */\n  0x05\n  0x00\n    /* \"upgrade.sol\":2109:2139  usdcToken = IERC20(_usdcToken) */\n  0x0100\n  exp\n  dup2\n  sload\n  dup2\n  0xffffffffffffffffffffffffffffffffffffffff\n  mul\n  not\n  and\n  swap1\n  dup4\n  0xffffffffffffffffffffffffffffffffffffffff\n  and\n  mul\n  or\n  swap1\n  sstore\n  pop\n    /* \"upgrade.sol\":2161:2170  _treasury */\n  dup1\n    /* \"upgrade.sol\":2150:2158  treasury */\n  0x06\n  0x00\n    /* \"upgrade.sol\":2150:2170  treasury = _treasury */\n  0x0100\n  exp\n  dup2\n  sload\n  dup2\n  0xffffffffffffffffffffffffffffffffffffffff\n  mul\n  not\n  and\n  swap1\n  dup4\n  0xffffffffffffffffffffffffffffffffffffffff\n  and\n  mul\n  or\n  swap1\n  sstore\n  pop\n    /* \"upgrade.sol\":2308:2441  Plan({... */\n  mload(0x40)\n  dup1\n  0x80\n  add\n  0x40\n  mstore\n  dup1\n    /* \"upgrade.sol\":2338:2351  PlanType.FREE */\n  0x00\n    /* \"upgrade.sol\":2308:2441  Plan({... */\n  0x02\n  dup2\n  gt\n  iszero\n  tag_21\n  jumpi\n  tag_22\n  tag_23\n  jump\t// in\ntag_22:\ntag_21:\n  dup2\n  mstore\n  0x20\n  add\n    /* \"upgrade.sol\":2373:2374  0 */\n  0x00\n    /* \"upgrade.sol\":2308:2441  Plan({... */\n  dup2\n  mstore\n  0x20\n  add\n    /* \"upgrade.sol\":2399:2400  0 */\n  0x00\n    /* \"upgrade.sol\":2308:2441  Plan({... */\n  dup2\n  mstore\n  0x20\n  add\n    /* \"upgrade.sol\":2425:2429  true */\n  0x01\n    /* \"upgrade.sol\":2308:2441  Plan({... */\n  iszero\n  iszero\n  dup2\n  mstore\n  pop\n    /* \"upgrade.sol\":2285:2290  plans */\n  0x02\n    /* \"upgrade.sol\":2285:2305  plans[PlanType.FREE] */\n  0x00\n    /* \"upgrade.sol\":2291:2304  PlanType.FREE */\n  0x00\n    /* \"upgrade.sol\":2285:2305  plans[PlanType.FREE] */\n  0x02\n  dup2\n  gt\n  iszero\n  tag_24\n  jumpi\n  tag_25\n  tag_23\n  jump\t// in\ntag_25:\ntag_24:\n  0x02\n  dup2\n  gt\n  iszero\n  tag_26\n  jumpi\n  tag_27\n  tag_23\n  jump\t// in\ntag_27:\ntag_26:\n  dup2\n  mstore\n  0x20\n  add\n  swap1\n  dup2\n  mstore\n  0x20\n  add\n  0x00\n  keccak256\n    /* \"upgrade.sol\":2285:2441  plans[PlanType.FREE] = Plan({... */\n  0x00\n  dup3\n  add\n  mload\n  dup2\n  0x00\n  add\n  exp(0x0100, 0x00)\n  dup2\n  sload\n  dup2\n  0xff\n  mul\n  not\n  and\n  swap1\n  dup4\n  0x02\n  dup2\n  gt\n  iszero\n  tag_28\n  jumpi\n  tag_29\n  tag_23\n  jump\t// in\ntag_29:\ntag_28:\n  mul\n  or\n  swap1\n  sstore\n  pop\n  0x20\n  dup3\n  add\n  mload\n  dup2\n  0x01\n  add\n  sstore\n  0x40\n  dup3\n  add\n  mload\n  dup2\n  0x02\n  add\n  sstore\n  0x60\n  dup3\n  add\n  mload\n  dup2\n  0x03\n  add\n  exp(0x0100, 0x00)\n  dup2\n  sload\n  dup2\n  0xff\n  mul\n  not\n  and\n  swap1\n  dup4\n  iszero\n  iszero\n  mul\n  or\n  swap1\n  sstore\n  pop\n  swap1\n  pop\n  pop\n    /* \"upgrade.sol\":2524:2701  Plan({... */\n  mload(0x40)\n  dup1\n  0x80\n  add\n  0x40\n  mstore\n  dup1\n    /* \"upgrade.sol\":2554:2570  PlanType.MONTHLY */\n  0x01\n    /* \"upgrade.sol\":2524:2701  Plan({... */\n  0x02\n  dup2\n  gt\n  iszero\n  tag_30\n  jumpi\n  tag_31\n  tag_23\n  jump\t// in\ntag_31:\ntag_30:\n  dup2\n  mstore\n  0x20\n  add\n    /* \"upgrade.sol\":2592:2601  2 * 10**6 */\n  0x1e8480\n    /* \"upgrade.sol\":2524:2701  Plan({... */\n  dup2\n  mstore\n  0x20\n  add\n    /* \"upgrade.sol\":2653:2660  30 days */\n  0x278d00\n    /* \"upgrade.sol\":2524:2701  Plan({... */\n  dup2\n  mstore\n  0x20\n  add\n    /* \"upgrade.sol\":2685:2689  true */\n  0x01\n    /* \"upgrade.sol\":2524:2701  Plan({... */\n  iszero\n  iszero\n  dup2\n  mstore\n  pop\n    /* \"upgrade.sol\":2498:2503  plans */\n  0x02\n    /* \"upgrade.sol\":2498:2521  plans[PlanType.MONTHLY] */\n  0x00\n    /* \"upgrade.sol\":2504:2520  PlanType.MONTHLY */\n  0x01\n    /* \"upgrade.sol\":2498:2521  plans[PlanType.MONTHLY] */\n  0x02\n  dup2\n  gt\n  iszero\n  tag_32\n  jumpi\n  tag_33\n  tag_23\n  jump\t// in\ntag_33:\ntag_32:\n  0x02\n  dup2\n  gt\n  iszero\n  tag_34\n  jumpi\n  tag_35\n  tag_23\n  jump\t// in\ntag_35:\ntag_34:\n  dup2\n  mstore\n  0x20\n  add\n  swap1\n  dup2\n  mstore\n  0x20\n  add\n  0x00\n  keccak256\n    /* \"upgrade.sol\":2498:2701  plans[PlanType.MONTHLY] = Plan({... */\n  0x00\n  dup3\n  add\n  mload\n  dup2\n  0x00\n  add\n  exp(0x0100, 0x00)\n  dup2\n  sload\n  dup2\n  0xff\n  mul\n  not\n  and\n  swap1\n  dup4\n  0x02\n  dup2\n  gt\n  iszero\n  tag_36\n  jumpi\n  tag_37\n  tag_23\n  jump\t// in\ntag_37:\ntag_36:\n  mul\n  or\n  swap1\n  sstore\n  pop\n  0x20\n  dup3\n  add\n  mload\n  dup2\n  0x01\n  add\n  sstore\n  0x40\n  dup3\n  add\n  mload\n  dup2\n  0x02\n  add\n  sstore\n  0x60\n  dup3\n  add\n  mload\n  dup2\n  0x03\n  add\n  exp(0x0100, 0x00)\n  dup2\n  sload\n  dup2\n  0xff\n  mul\n  not\n  and\n  swap1\n  dup4\n  iszero\n  iszero\n  mul\n  or\n  swap1\n  sstore\n  pop\n  swap1\n  pop\n  pop\n    /* \"upgrade.sol\":2782:2961  Plan({... */\n  mload(0x40)\n  dup1\n  0x80\n  add\n  0x40\n  mstore\n  dup1\n    /* \"upgrade.sol\":2812:2827  PlanType.YEARLY */\n  0x02\n    /* \"upgrade.sol\":2782:2961  Plan({... */\n  dup1\n  dup2\n  gt\n  iszero\n  tag_38\n  jumpi\n  tag_39\n  tag_23\n  jump\t// in\ntag_39:\ntag_38:\n  dup2\n  mstore\n  0x20\n  add\n    /* \"upgrade.sol\":2849:2859  20 * 10**6 */\n  0x01312d00\n    /* \"upgrade.sol\":2782:2961  Plan({... */\n  dup2\n  mstore\n  0x20\n  add\n    /* \"upgrade.sol\":2912:2920  365 days */\n  0x01e13380\n    /* \"upgrade.sol\":2782:2961  Plan({... */\n  dup2\n  mstore\n  0x20\n  add\n    /* \"upgrade.sol\":2945:2949  true */\n  0x01\n    /* \"upgrade.sol\":2782:2961  Plan({... */\n  iszero\n  iszero\n  dup2\n  mstore\n  pop\n    /* \"upgrade.sol\":2757:2762  plans */\n  0x02\n    /* \"upgrade.sol\":2757:2779  plans[PlanType.YEARLY] */\n  0x00\n    /* \"upgrade.sol\":2763:2778  PlanType.YEARLY */\n  0x02\n    /* \"upgrade.sol\":2757:2779  plans[PlanType.YEARLY] */\n  dup1\n  dup2\n  gt\n  iszero\n  tag_40\n  jumpi\n  tag_41\n  tag_23\n  jump\t// in\ntag_41:\ntag_40:\n  0x02\n  dup2\n  gt\n  iszero\n  tag_42\n  jumpi\n  tag_43\n  tag_23\n  jump\t// in\ntag_43:\ntag_42:\n  dup2\n  mstore\n  0x20\n  add\n  swap1\n  dup2\n  mstore\n  0x20\n  add\n  0x00\n  keccak256\n    /* \"upgrade.sol\":2757:2961  plans[PlanType.YEARLY] = Plan({... */\n  0x00\n  dup3\n  add\n  mload\n  dup2\n  0x00\n  add\n  exp(0x0100, 0x00)\n  dup2\n  sload\n  dup2\n  0xff\n  mul\n  not\n  and\n  swap1\n  dup4\n  0x02\n  dup2\n  gt\n  iszero\n  tag_44\n  jumpi\n  tag_45\n  tag_23\n  jump\t// in\ntag_45:\ntag_44:\n  mul\n  or\n  swap1\n  sstore\n  pop\n  0x20\n  dup3\n  add\n  mload\n  dup2\n  0x01\n  add\n  sstore\n  0x40\n  dup3\n  add\n  mload\n  dup2\n  0x02\n  add\n  sstore\n  0x60\n  dup3\n  add\n  mload\n  dup2\n  0x03\n  add\n  exp(0x0100, 0x00)\n  dup2\n  sload\n  dup2\n  0xff\n  mul\n  not\n  and\n  swap1\n  dup4\n  iszero\n  iszero\n  mul\n  or\n  swap1\n  sstore\n  pop\n  swap1\n  pop\n  pop\n    /* \"upgrade.sol\":1878:2969  constructor(address _usdcToken, address _treasury) Ownable(msg.sender) {... */\n  pop\n  pop\n    /* \"upgrade.sol\":434:10192  contract SubscriptionPlan is Ownable, ReentrancyGuard {... */\n  jump(tag_46)\n    /* \"@openzeppelin/contracts/access/Ownable.sol\":2912:3099  function _transferOwnership(address newOwner) internal virtual {... */\ntag_12:\n    /* \"@openzeppelin/contracts/access/Ownable.sol\":2985:3001  address oldOwner */\n  0x00\n    /* \"@openzeppelin/contracts/access/Ownable.sol\":3004:3010  _owner */\n  0x00\n  0x00\n  swap1\n  sload\n  swap1\n  0x0100\n  exp\n  swap1\n  div\n  0xffffffffffffffffffffffffffffffffffffffff\n  and\n    /* \"@openzeppelin/contracts/access/Ownable.sol\":2985:3010  address oldOwner = _owner */\n  swap1\n  pop\n    /* \"@openzeppelin/contracts/access/Ownable.sol\":3029:3037  newOwner */\n  dup2\n    /* \"@openzeppelin/contracts/access/Ownable.sol\":3020:3026  _owner */\n  0x00\n  0x00\n    /* \"@openzeppelin/contracts/access/Ownable.sol\":3020:3037  _owner = newOwner */\n  0x0100\n  exp\n  dup2\n  sload\n  dup2\n  0xffffffffffffffffffffffffffffffffffffffff\n  mul\n  not\n  and\n  swap1\n  dup4\n  0xffffffffffffffffffffffffffffffffffffffff\n  and\n  mul\n  or\n  swap1\n  sstore\n  pop\n    /* \"@openzeppelin/contracts/access/Ownable.sol\":3083:3091  newOwner */\n  dup2\n    /* \"@openzeppelin/contracts/access/Ownable.sol\":3052:3092  OwnershipTransferred(oldOwner, newOwner) */\n  0xffffffffffffffffffffffffffffffffffffffff\n  and\n    /* \"@openzeppelin/contracts/access/Ownable.sol\":3073:3081  oldOwner */\n  dup2\n    /* \"@openzeppelin/contracts/access/Ownable.sol\":3052:3092  OwnershipTransferred(oldOwner, newOwner) */\n  0xffffffffffffffffffffffffffffffffffffffff\n  and\n  0x8be0079c531659141344cd1fd0a4f28419497f9722a3daafe3b4186f6b6457e0\n  mload(0x40)\n  mload(0x40)\n  dup1\n  swap2\n  sub\n  swap1\n  log3\n    /* \"@openzeppelin/contracts/access/Ownable.sol\":2975:3099  {... */\n  pop\n    /* \"@openzeppelin/contracts/access/Ownable.sol\":2912:3099  function _transferOwnership(address newOwner) internal virtual {... */\n  pop\n  jump\t// out\n    /* \"#utility.yul\":88:205   */\ntag_49:\n    /* \"#utility.yul\":197:198   */\n  0x00\n    /* \"#utility.yul\":194:195   */\n  0x00\n    /* \"#utility.yul\":187:199   */\n  revert\n    /* \"#utility.yul\":334:460   */\ntag_51:\n    /* \"#utility.yul\":371:378   */\n  0x00\n    /* \"#utility.yul\":411:453   */\n  0xffffffffffffffffffffffffffffffffffffffff\n    /* \"#utility.yul\":404:409   */\n  dup3\n    /* \"#utility.yul\":400:454   */\n  and\n    /* \"#utility.yul\":389:454   */\n  swap1\n  pop\n    /* \"#utility.yul\":334:460   */\n  swap2\n  swap1\n  pop\n  jump\t// out\n    /* \"#utility.yul\":466:562   */\ntag_52:\n    /* \"#utility.yul\":503:510   */\n  0x00\n    /* \"#utility.yul\":532:556   */\n  tag_67\n    /* \"#utility.yul\":550:555   */\n  dup3\n    /* \"#utility.yul\":532:556   */\n  tag_51\n  jump\t// in\ntag_67:\n    /* \"#utility.yul\":521:556   */\n  swap1\n  pop\n    /* \"#utility.yul\":466:562   */\n  swap2\n  swap1\n  pop\n  jump\t// out\n    /* \"#utility.yul\":568:690   */\ntag_53:\n    /* \"#utility.yul\":641:665   */\n  tag_69\n    /* \"#utility.yul\":659:664   */\n  dup2\n    /* \"#utility.yul\":641:665   */\n  tag_52\n  jump\t// in\ntag_69:\n    /* \"#utility.yul\":634:639   */\n  dup2\n    /* \"#utility.yul\":631:666   */\n  eq\n    /* \"#utility.yul\":621:684   */\n  tag_70\n  jumpi\n    /* \"#utility.yul\":680:681   */\n  0x00\n    /* \"#utility.yul\":677:678   */\n  0x00\n    /* \"#utility.yul\":670:682   */\n  revert\n    /* \"#utility.yul\":621:684   */\ntag_70:\n    /* \"#utility.yul\":568:690   */\n  pop\n  jump\t// out\n    /* \"#utility.yul\":696:839   */\ntag_54:\n    /* \"#utility.yul\":753:758   */\n  0x00\n    /* \"#utility.yul\":784:790   */\n  dup2\n    /* \"#utility.yul\":778:791   */\n  mload\n    /* \"#utility.yul\":769:791   */\n  swap1\n  pop\n    /* \"#utility.yul\":800:833   */\n  tag_72\n    /* \"#utility.yul\":827:832   */\n  dup2\n    /* \"#utility.yul\":800:833   */\n  tag_53\n  jump\t// in\ntag_72:\n    /* \"#utility.yul\":696:839   */\n  swap3\n  swap2\n  pop\n  pop\n  jump\t// out\n    /* \"#utility.yul\":845:1352   */\ntag_3:\n    /* \"#utility.yul\":924:930   */\n  0x00\n    /* \"#utility.yul\":932:938   */\n  0x00\n    /* \"#utility.yul\":981:983   */\n  0x40\n    /* \"#utility.yul\":969:978   */\n  dup4\n    /* \"#utility.yul\":960:967   */\n  dup6\n    /* \"#utility.yul\":956:979   */\n  sub\n    /* \"#utility.yul\":952:984   */\n  slt\n    /* \"#utility.yul\":949:1068   */\n  iszero\n  tag_74\n  jumpi\n    /* \"#utility.yul\":987:1066   */\n  tag_75\n  tag_49\n  jump\t// in\ntag_75:\n    /* \"#utility.yul\":949:1068   */\ntag_74:\n    /* \"#utility.yul\":1107:1108   */\n  0x00\n    /* \"#utility.yul\":1132:1196   */\n  tag_76\n    /* \"#utility.yul\":1188:1195   */\n  dup6\n    /* \"#utility.yul\":1179:1185   */\n  dup3\n    /* \"#utility.yul\":1168:1177   */\n  dup7\n    /* \"#utility.yul\":1164:1186   */\n  add\n    /* \"#utility.yul\":1132:1196   */\n  tag_54\n  jump\t// in\ntag_76:\n    /* \"#utility.yul\":1122:1196   */\n  swap3\n  pop\n    /* \"#utility.yul\":1078:1206   */\n  pop\n    /* \"#utility.yul\":1245:1247   */\n  0x20\n    /* \"#utility.yul\":1271:1335   */\n  tag_77\n    /* \"#utility.yul\":1327:1334   */\n  dup6\n    /* \"#utility.yul\":1318:1324   */\n  dup3\n    /* \"#utility.yul\":1307:1316   */\n  dup7\n    /* \"#utility.yul\":1303:1325   */\n  add\n    /* \"#utility.yul\":1271:1335   */\n  tag_54\n  jump\t// in\ntag_77:\n    /* \"#utility.yul\":1261:1335   */\n  swap2\n  pop\n    /* \"#utility.yul\":1216:1345   */\n  pop\n    /* \"#utility.yul\":845:1352   */\n  swap3\n  pop\n  swap3\n  swap1\n  pop\n  jump\t// out\n    /* \"#utility.yul\":1358:1476   */\ntag_55:\n    /* \"#utility.yul\":1445:1469   */\n  tag_79\n    /* \"#utility.yul\":1463:1468   */\n  dup2\n    /* \"#utility.yul\":1445:1469   */\n  tag_52\n  jump\t// in\ntag_79:\n    /* \"#utility.yul\":1440:1443   */\n  dup3\n    /* \"#utility.yul\":1433:1470   */\n  mstore\n    /* \"#utility.yul\":1358:1476   */\n  pop\n  pop\n  jump\t// out\n    /* \"#utility.yul\":1482:1704   */\ntag_10:\n    /* \"#utility.yul\":1575:1579   */\n  0x00\n    /* \"#utility.yul\":1613:1615   */\n  0x20\n    /* \"#utility.yul\":1602:1611   */\n  dup3\n    /* \"#utility.yul\":1598:1616   */\n  add\n    /* \"#utility.yul\":1590:1616   */\n  swap1\n  pop\n    /* \"#utility.yul\":1626:1697   */\n  tag_81\n    /* \"#utility.yul\":1694:1695   */\n  0x00\n    /* \"#utility.yul\":1683:1692   */\n  dup4\n    /* \"#utility.yul\":1679:1696   */\n  add\n    /* \"#utility.yul\":1670:1676   */\n  dup5\n    /* \"#utility.yul\":1626:1697   */\n  tag_55\n  jump\t// in\ntag_81:\n    /* \"#utility.yul\":1482:1704   */\n  swap3\n  swap2\n  pop\n  pop\n  jump\t// out\n    /* \"#utility.yul\":1710:1879   */\ntag_56:\n    /* \"#utility.yul\":1794:1805   */\n  0x00\n    /* \"#utility.yul\":1828:1834   */\n  dup3\n    /* \"#utility.yul\":1823:1826   */\n  dup3\n    /* \"#utility.yul\":1816:1835   */\n  mstore\n    /* \"#utility.yul\":1868:1872   */\n  0x20\n    /* \"#utility.yul\":1863:1866   */\n  dup3\n    /* \"#utility.yul\":1859:1873   */\n  add\n    /* \"#utility.yul\":1844:1873   */\n  swap1\n  pop\n    /* \"#utility.yul\":1710:1879   */\n  swap3\n  swap2\n  pop\n  pop\n  jump\t// out\n    /* \"#utility.yul\":1885:2055   */\ntag_57:\n    /* \"#utility.yul\":2025:2047   */\n  0x496e76616c696420555344432061646472657373000000000000000000000000\n    /* \"#utility.yul\":2021:2022   */\n  0x00\n    /* \"#utility.yul\":2013:2019   */\n  dup3\n    /* \"#utility.yul\":2009:2023   */\n  add\n    /* \"#utility.yul\":2002:2048   */\n  mstore\n    /* \"#utility.yul\":1885:2055   */\n  pop\n  jump\t// out\n    /* \"#utility.yul\":2061:2427   */\ntag_58:\n    /* \"#utility.yul\":2203:2206   */\n  0x00\n    /* \"#utility.yul\":2224:2291   */\n  tag_85\n    /* \"#utility.yul\":2288:2290   */\n  0x14\n    /* \"#utility.yul\":2283:2286   */\n  dup4\n    /* \"#utility.yul\":2224:2291   */\n  tag_56\n  jump\t// in\ntag_85:\n    /* \"#utility.yul\":2217:2291   */\n  swap2\n  pop\n    /* \"#utility.yul\":2300:2393   */\n  tag_86\n    /* \"#utility.yul\":2389:2392   */\n  dup3\n    /* \"#utility.yul\":2300:2393   */\n  tag_57\n  jump\t// in\ntag_86:\n    /* \"#utility.yul\":2418:2420   */\n  0x20\n    /* \"#utility.yul\":2413:2416   */\n  dup3\n    /* \"#utility.yul\":2409:2421   */\n  add\n    /* \"#utility.yul\":2402:2421   */\n  swap1\n  pop\n    /* \"#utility.yul\":2061:2427   */\n  swap2\n  swap1\n  pop\n  jump\t// out\n    /* \"#utility.yul\":2433:2852   */\ntag_17:\n    /* \"#utility.yul\":2599:2603   */\n  0x00\n    /* \"#utility.yul\":2637:2639   */\n  0x20\n    /* \"#utility.yul\":2626:2635   */\n  dup3\n    /* \"#utility.yul\":2622:2640   */\n  add\n    /* \"#utility.yul\":2614:2640   */\n  swap1\n  pop\n    /* \"#utility.yul\":2686:2695   */\n  dup2\n    /* \"#utility.yul\":2680:2684   */\n  dup2\n    /* \"#utility.yul\":2676:2696   */\n  sub\n    /* \"#utility.yul\":2672:2673   */\n  0x00\n    /* \"#utility.yul\":2661:2670   */\n  dup4\n    /* \"#utility.yul\":2657:2674   */\n  add\n    /* \"#utility.yul\":2650:2697   */\n  mstore\n    /* \"#utility.yul\":2714:2845   */\n  tag_88\n    /* \"#utility.yul\":2840:2844   */\n  dup2\n    /* \"#utility.yul\":2714:2845   */\n  tag_58\n  jump\t// in\ntag_88:\n    /* \"#utility.yul\":2706:2845   */\n  swap1\n  pop\n    /* \"#utility.yul\":2433:2852   */\n  swap2\n  swap1\n  pop\n  jump\t// out\n    /* \"#utility.yul\":2858:3032   */\ntag_59:\n    /* \"#utility.yul\":2998:3024   */\n  0x496e76616c696420747265617375727920616464726573730000000000000000\n    /* \"#utility.yul\":2994:2995   */\n  0x00\n    /* \"#utility.yul\":2986:2992   */\n  dup3\n    /* \"#utility.yul\":2982:2996   */\n  add\n    /* \"#utility.yul\":2975:3025   */\n  mstore\n    /* \"#utility.yul\":2858:3032   */\n  pop\n  jump\t// out\n    /* \"#utility.yul\":3038:3404   */\ntag_60:\n    /* \"#utility.yul\":3180:3183   */\n  0x00\n    /* \"#utility.yul\":3201:3268   */\n  tag_91\n    /* \"#utility.yul\":3265:3267   */\n  0x18\n    /* \"#utility.yul\":3260:3263   */\n  dup4\n    /* \"#utility.yul\":3201:3268   */\n  tag_56\n  jump\t// in\ntag_91:\n    /* \"#utility.yul\":3194:3268   */\n  swap2\n  pop\n    /* \"#utility.yul\":3277:3370   */\n  tag_92\n    /* \"#utility.yul\":3366:3369   */\n  dup3\n    /* \"#utility.yul\":3277:3370   */\n  tag_59\n  jump\t// in\ntag_92:\n    /* \"#utility.yul\":3395:3397   */\n  0x20\n    /* \"#utility.yul\":3390:3393   */\n  dup3\n    /* \"#utility.yul\":3386:3398   */\n  add\n    /* \"#utility.yul\":3379:3398   */\n  swap1\n  pop\n    /* \"#utility.yul\":3038:3404   */\n  swap2\n  swap1\n  pop\n  jump\t// out\n    /* \"#utility.yul\":3410:3829   */\ntag_20:\n    /* \"#utility.yul\":3576:3580   */\n  0x00\n    /* \"#utility.yul\":3614:3616   */\n  0x20\n    /* \"#utility.yul\":3603:3612   */\n  dup3\n    /* \"#utility.yul\":3599:3617   */\n  add\n    /* \"#utility.yul\":3591:3617   */\n  swap1\n  pop\n    /* \"#utility.yul\":3663:3672   */\n  dup2\n    /* \"#utility.yul\":3657:3661   */\n  dup2\n    /* \"#utility.yul\":3653:3673   */\n  sub\n    /* \"#utility.yul\":3649:3650   */\n  0x00\n    /* \"#utility.yul\":3638:3647   */\n  dup4\n    /* \"#utility.yul\":3634:3651   */\n  add\n    /* \"#utility.yul\":3627:3674   */\n  mstore\n    /* \"#utility.yul\":3691:3822   */\n  tag_94\n    /* \"#utility.yul\":3817:3821   */\n  dup2\n    /* \"#utility.yul\":3691:3822   */\n  tag_60\n  jump\t// in\ntag_94:\n    /* \"#utility.yul\":3683:3822   */\n  swap1\n  pop\n    /* \"#utility.yul\":3410:3829   */\n  swap2\n  swap1\n  pop\n  jump\t// out\n    /* \"#utility.yul\":3835:4015   */\ntag_23:\n    /* \"#utility.yul\":3883:3960   */\n  0x4e487b7100000000000000000000000000000000000000000000000000000000\n    /* \"#utility.yul\":3880:3881   */\n  0x00\n    /* \"#utility.yul\":3873:3961   */\n  mstore\n    /* \"#utility.yul\":3980:3984   */\n  0x21\n    /* \"#utility.yul\":3977:3978   */\n  0x04\n    /* \"#utility.yul\":3970:3985   */\n  mstore\n    /* \"#utility.yul\":4004:4008   */\n  0x24\n    /* \"#utility.yul\":4001:4002   */\n  0x00\n    /* \"#utility.yul\":3994:4009   */\n  revert\n    /* \"upgrade.sol\":434:10192  contract SubscriptionPlan is Ownable, ReentrancyGuard {... */\ntag_46:\n  dataSize(sub_0)\n  dup1\n  dataOffset(sub_0)\n  0x00\n  codecopy\n  0x00\n  return\nstop\n\nsub_0: assembly {\n        /* \"upgrade.sol\":434:10192  contract SubscriptionPlan is Ownable, ReentrancyGuard {... */\n      mstore(0x40, 0x80)\n      callvalue\n      dup1\n      iszero\n      tag_1\n      jumpi\n      revert(0x00, 0x00)\n    tag_1:\n      pop\n      jumpi(tag_2, lt(calldatasize, 0x04))\n      shr(0xe0, calldataload(0x00))\n      dup1\n      0x77812b7f\n      gt\n      tag_21\n      jumpi\n      dup1\n      0x98693010\n      gt\n      tag_22\n      jumpi\n      dup1\n      0x98693010\n      eq\n      tag_16\n      jumpi\n      dup1\n      0xc9563560\n      eq\n      tag_17\n      jumpi\n      dup1\n      0xf046395a\n      eq\n      tag_18\n      jumpi\n      dup1\n      0xf2fde38b\n      eq\n      tag_19\n      jumpi\n      dup1\n      0xfa544161\n      eq\n      tag_20\n      jumpi\n      jump(tag_2)\n    tag_22:\n      dup1\n      0x77812b7f\n      eq\n      tag_12\n      jumpi\n      dup1\n      0x7ecf2128\n      eq\n      tag_13\n      jumpi\n      dup1\n      0x7f51bb1f\n      eq\n      tag_14\n      jumpi\n      dup1\n      0x8da5cb5b\n      eq\n      tag_15\n      jumpi\n      jump(tag_2)\n    tag_21:\n      dup1\n      0x466a0146\n      gt\n      tag_23\n      jumpi\n      dup1\n      0x466a0146\n      eq\n      tag_7\n      jumpi\n      dup1\n      0x60a31a88\n      eq\n      tag_8\n      jumpi\n      dup1\n      0x61d027b3\n      eq\n      tag_9\n      jumpi\n      dup1\n      0x6c52df4e\n      eq\n      tag_10\n      jumpi\n      dup1\n      0x715018a6\n      eq\n      tag_11\n      jumpi\n      jump(tag_2)\n    tag_23:\n      dup1\n      0x0cbebc24\n      eq\n      tag_3\n      jumpi\n      dup1\n      0x11eac855\n      eq\n      tag_4\n      jumpi\n      dup1\n      0x129debff\n      eq\n      tag_5\n      jumpi\n      dup1\n      0x13af4035\n      eq\n      tag_6\n      jumpi\n    tag_2:\n      revert(0x00, 0x00)\n        /* \"upgrade.sol\":5425:6128  function getSubscription(address user) external view returns (... */\n    tag_3:\n      tag_24\n      0x04\n      dup1\n      calldatasize\n      sub\n      dup2\n      add\n      swap1\n      tag_25\n      swap2\n      swap1\n      tag_26\n      jump\t// in\n    tag_25:\n      tag_27\n      jump\t// in\n    tag_24:\n      mload(0x40)\n      tag_28\n      swap5\n      swap4\n      swap3\n      swap2\n      swap1\n      tag_29\n      jump\t// in\n    tag_28:\n      mload(0x40)\n      dup1\n      swap2\n      sub\n      swap1\n      return\n        /* \"upgrade.sol\":1179:1202  IERC20 public usdcToken */\n    tag_4:\n      tag_30\n      tag_31\n      jump\t// in\n    tag_30:\n      mload(0x40)\n      tag_32\n      swap2\n      swap1\n      tag_33\n      jump\t// in\n    tag_32:\n      mload(0x40)\n      dup1\n      swap2\n      sub\n      swap1\n      return\n        /* \"upgrade.sol\":6286:6921  function revokeExpiredAccess(address user) external {... */\n    tag_5:\n      tag_34\n      0x04\n      dup1\n      calldatasize\n      sub\n      dup2\n      add\n      swap1\n      tag_35\n      swap2\n      swap1\n      tag_26\n      jump\t// in\n    tag_35:\n      tag_36\n      jump\t// in\n    tag_34:\n      stop\n        /* \"upgrade.sol\":7055:7470  function setOwner(address owner) external {... */\n    tag_6:\n      tag_37\n      0x04\n      dup1\n      calldatasize\n      sub\n      dup2\n      add\n      swap1\n      tag_38\n      swap2\n      swap1\n      tag_26\n      jump\t// in\n    tag_38:\n      tag_39\n      jump\t// in\n    tag_37:\n      stop\n        /* \"upgrade.sol\":4641:5096  function checkAccess(address user) external view returns (bool) {... */\n    tag_7:\n      tag_40\n      0x04\n      dup1\n      calldatasize\n      sub\n      dup2\n      add\n      swap1\n      tag_41\n      swap2\n      swap1\n      tag_26\n      jump\t// in\n    tag_41:\n      tag_42\n      jump\t// in\n    tag_40:\n      mload(0x40)\n      tag_43\n      swap2\n      swap1\n      tag_44\n      jump\t// in\n    tag_43:\n      mload(0x40)\n      dup1\n      swap2\n      sub\n      swap1\n      return\n        /* \"upgrade.sol\":972:1010  mapping(PlanType => Plan) public plans */\n    tag_8:\n      tag_45\n      0x04\n      dup1\n      calldatasize\n      sub\n      dup2\n      add\n      swap1\n      tag_46\n      swap2\n      swap1\n      tag_47\n      jump\t// in\n    tag_46:\n      tag_48\n      jump\t// in\n    tag_45:\n      mload(0x40)\n      tag_49\n      swap5\n      swap4\n      swap3\n      swap2\n      swap1\n      tag_50\n      jump\t// in\n    tag_49:\n      mload(0x40)\n      dup1\n      swap2\n      sub\n      swap1\n      return\n        /* \"upgrade.sol\":1209:1232  address public treasury */\n    tag_9:\n      tag_51\n      tag_52\n      jump\t// in\n    tag_51:\n      mload(0x40)\n      tag_53\n      swap2\n      swap1\n      tag_54\n      jump\t// in\n    tag_53:\n      mload(0x40)\n      dup1\n      swap2\n      sub\n      swap1\n      return\n        /* \"upgrade.sol\":9064:9697  function grantAccess(... */\n    tag_10:\n      tag_55\n      0x04\n      dup1\n      calldatasize\n      sub\n      dup2\n      add\n      swap1\n      tag_56\n      swap2\n      swap1\n      tag_57\n      jump\t// in\n    tag_56:\n      tag_58\n      jump\t// in\n    tag_55:\n      stop\n        /* \"@openzeppelin/contracts/access/Ownable.sol\":2293:2394  function renounceOwnership() public virtual onlyOwner {... */\n    tag_11:\n      tag_59\n      tag_60\n      jump\t// in\n    tag_59:\n      stop\n        /* \"upgrade.sol\":1077:1122  mapping(address => address) public userOwners */\n    tag_12:\n      tag_61\n      0x04\n      dup1\n      calldatasize\n      sub\n      dup2\n      add\n      swap1\n      tag_62\n      swap2\n      swap1\n      tag_26\n      jump\t// in\n    tag_62:\n      tag_63\n      jump\t// in\n    tag_61:\n      mload(0x40)\n      tag_64\n      swap2\n      swap1\n      tag_54\n      jump\t// in\n    tag_64:\n      mload(0x40)\n      dup1\n      swap2\n      sub\n      swap1\n      return\n        /* \"upgrade.sol\":8024:8477  function updatePlan(... */\n    tag_13:\n      tag_65\n      0x04\n      dup1\n      calldatasize\n      sub\n      dup2\n      add\n      swap1\n      tag_66\n      swap2\n      swap1\n      tag_67\n      jump\t// in\n    tag_66:\n      tag_68\n      jump\t// in\n    tag_65:\n      stop\n        /* \"upgrade.sol\":8605:8827  function updateTreasury(address newTreasury) external onlyOwner {... */\n    tag_14:\n      tag_69\n      0x04\n      dup1\n      calldatasize\n      sub\n      dup2\n      add\n      swap1\n      tag_70\n      swap2\n      swap1\n      tag_26\n      jump\t// in\n    tag_70:\n      tag_71\n      jump\t// in\n    tag_69:\n      stop\n        /* \"@openzeppelin/contracts/access/Ownable.sol\":1638:1723  function owner() public view virtual returns (address) {... */\n    tag_15:\n      tag_72\n      tag_73\n      jump\t// in\n    tag_72:\n      mload(0x40)\n      tag_74\n      swap2\n      swap1\n      tag_54\n      jump\t// in\n    tag_74:\n      mload(0x40)\n      dup1\n      swap2\n      sub\n      swap1\n      return\n        /* \"upgrade.sol\":3114:4445  function purchasePlan(PlanType planType) external nonReentrant {... */\n    tag_16:\n      tag_75\n      0x04\n      dup1\n      calldatasize\n      sub\n      dup2\n      add\n      swap1\n      tag_76\n      swap2\n      swap1\n      tag_47\n      jump\t// in\n    tag_76:\n      tag_77\n      jump\t// in\n    tag_75:\n      stop\n        /* \"upgrade.sol\":9928:10189  function getPlanDetails(PlanType planType) external view returns (... */\n    tag_17:\n      tag_78\n      0x04\n      dup1\n      calldatasize\n      sub\n      dup2\n      add\n      swap1\n      tag_79\n      swap2\n      swap1\n      tag_47\n      jump\t// in\n    tag_79:\n      tag_80\n      jump\t// in\n    tag_78:\n      mload(0x40)\n      tag_81\n      swap4\n      swap3\n      swap2\n      swap1\n      tag_82\n      jump\t// in\n    tag_81:\n      mload(0x40)\n      dup1\n      swap2\n      sub\n      swap1\n      return\n        /* \"upgrade.sol\":1017:1070  mapping(address => Subscription) public subscriptions */\n    tag_18:\n      tag_83\n      0x04\n      dup1\n      calldatasize\n      sub\n      dup2\n      add\n      swap1\n      tag_84\n      swap2\n      swap1\n      tag_26\n      jump\t// in\n    tag_84:\n      tag_85\n      jump\t// in\n    tag_83:\n      mload(0x40)\n      tag_86\n      swap4\n      swap3\n      swap2\n      swap1\n      tag_87\n      jump\t// in\n    tag_86:\n      mload(0x40)\n      dup1\n      swap2\n      sub\n      swap1\n      return\n        /* \"@openzeppelin/contracts/access/Ownable.sol\":2543:2758  function transferOwnership(address newOwner) public virtual onlyOwner {... */\n    tag_19:\n      tag_88\n      0x04\n      dup1\n      calldatasize\n      sub\n      dup2\n      add\n      swap1\n      tag_89\n      swap2\n      swap1\n      tag_26\n      jump\t// in\n    tag_89:\n      tag_90\n      jump\t// in\n    tag_88:\n      stop\n        /* \"upgrade.sol\":7631:7737  function getOwner(address user) external view returns (address) {... */\n    tag_20:\n      tag_91\n      0x04\n      dup1\n      calldatasize\n      sub\n      dup2\n      add\n      swap1\n      tag_92\n      swap2\n      swap1\n      tag_26\n      jump\t// in\n    tag_92:\n      tag_93\n      jump\t// in\n    tag_91:\n      mload(0x40)\n      tag_94\n      swap2\n      swap1\n      tag_54\n      jump\t// in\n    tag_94:\n      mload(0x40)\n      dup1\n      swap2\n      sub\n      swap1\n      return\n        /* \"upgrade.sol\":5425:6128  function getSubscription(address user) external view returns (... */\n    tag_27:\n        /* \"upgrade.sol\":5497:5514  PlanType planType */\n      0x00\n        /* \"upgrade.sol\":5525:5548  uint256 expiryTimestamp */\n      0x00\n        /* \"upgrade.sol\":5559:5573  bool hasAccess */\n      0x00\n        /* \"upgrade.sol\":5584:5598  bool isExpired */\n      0x00\n        /* \"upgrade.sol\":5617:5644  Subscription memory userSub */\n      0x00\n        /* \"upgrade.sol\":5647:5660  subscriptions */\n      0x03\n        /* \"upgrade.sol\":5647:5666  subscriptions[user] */\n      0x00\n        /* \"upgrade.sol\":5661:5665  user */\n      dup8\n        /* \"upgrade.sol\":5647:5666  subscriptions[user] */\n      0xffffffffffffffffffffffffffffffffffffffff\n      and\n      0xffffffffffffffffffffffffffffffffffffffff\n      and\n      dup2\n      mstore\n      0x20\n      add\n      swap1\n      dup2\n      mstore\n      0x20\n      add\n      0x00\n      keccak256\n        /* \"upgrade.sol\":5617:5666  Subscription memory userSub = subscriptions[user] */\n      mload(0x40)\n      dup1\n      0x60\n      add\n      0x40\n      mstore\n      swap1\n      dup2\n      0x00\n      dup3\n      add\n      0x00\n      swap1\n      sload\n      swap1\n      0x0100\n      exp\n      swap1\n      div\n      0xff\n      and\n      0x02\n      dup2\n      gt\n      iszero\n      tag_96\n      jumpi\n      tag_97\n      tag_98\n      jump\t// in\n    tag_97:\n    tag_96:\n      0x02\n      dup2\n      gt\n      iszero\n      tag_99\n      jumpi\n      tag_100\n      tag_98\n      jump\t// in\n    tag_100:\n    tag_99:\n      dup2\n      mstore\n      0x20\n      add\n      0x01\n      dup3\n      add\n      sload\n      dup2\n      mstore\n      0x20\n      add\n      0x02\n      dup3\n      add\n      0x00\n      swap1\n      sload\n      swap1\n      0x0100\n      exp\n      swap1\n      div\n      0xff\n      and\n      iszero\n      iszero\n      iszero\n      iszero\n      dup2\n      mstore\n      pop\n      pop\n      swap1\n      pop\n        /* \"upgrade.sol\":5698:5705  userSub */\n      dup1\n        /* \"upgrade.sol\":5698:5714  userSub.planType */\n      0x00\n      add\n      mload\n        /* \"upgrade.sol\":5687:5714  planType = userSub.planType */\n      swap5\n      pop\n        /* \"upgrade.sol\":5743:5750  userSub */\n      dup1\n        /* \"upgrade.sol\":5743:5766  userSub.expiryTimestamp */\n      0x20\n      add\n      mload\n        /* \"upgrade.sol\":5725:5766  expiryTimestamp = userSub.expiryTimestamp */\n      swap4\n      pop\n        /* \"upgrade.sol\":5816:5828  bool expired */\n      0x00\n        /* \"upgrade.sol\":5851:5864  PlanType.FREE */\n      0x00\n        /* \"upgrade.sol\":5831:5864  userSub.planType != PlanType.FREE */\n      0x02\n      dup2\n      gt\n      iszero\n      tag_101\n      jumpi\n      tag_102\n      tag_98\n      jump\t// in\n    tag_102:\n    tag_101:\n        /* \"upgrade.sol\":5831:5838  userSub */\n      dup3\n        /* \"upgrade.sol\":5831:5847  userSub.planType */\n      0x00\n      add\n      mload\n        /* \"upgrade.sol\":5831:5864  userSub.planType != PlanType.FREE */\n      0x02\n      dup2\n      gt\n      iszero\n      tag_103\n      jumpi\n      tag_104\n      tag_98\n      jump\t// in\n    tag_104:\n    tag_103:\n      eq\n      iszero\n        /* \"upgrade.sol\":5831:5935  userSub.planType != PlanType.FREE && ... */\n      dup1\n      iszero\n      tag_105\n      jumpi\n      pop\n        /* \"upgrade.sol\":5920:5935  block.timestamp */\n      timestamp\n        /* \"upgrade.sol\":5893:5900  userSub */\n      dup3\n        /* \"upgrade.sol\":5893:5916  userSub.expiryTimestamp */\n      0x20\n      add\n      mload\n        /* \"upgrade.sol\":5893:5935  userSub.expiryTimestamp <= block.timestamp */\n      gt\n      iszero\n        /* \"upgrade.sol\":5831:5935  userSub.planType != PlanType.FREE && ... */\n    tag_105:\n        /* \"upgrade.sol\":5816:5935  bool expired = userSub.planType != PlanType.FREE && ... */\n      swap1\n      pop\n        /* \"upgrade.sol\":5969:5976  expired */\n      dup1\n        /* \"upgrade.sol\":5968:5976  !expired */\n      iszero\n        /* \"upgrade.sol\":5968:6013  !expired && userSub.planType != PlanType.FREE */\n      dup1\n      iszero\n      tag_106\n      jumpi\n      pop\n        /* \"upgrade.sol\":6000:6013  PlanType.FREE */\n      0x00\n        /* \"upgrade.sol\":5980:6013  userSub.planType != PlanType.FREE */\n      0x02\n      dup2\n      gt\n      iszero\n      tag_107\n      jumpi\n      tag_108\n      tag_98\n      jump\t// in\n    tag_108:\n    tag_107:\n        /* \"upgrade.sol\":5980:5987  userSub */\n      dup3\n        /* \"upgrade.sol\":5980:5996  userSub.planType */\n      0x00\n      add\n      mload\n        /* \"upgrade.sol\":5980:6013  userSub.planType != PlanType.FREE */\n      0x02\n      dup2\n      gt\n      iszero\n      tag_109\n      jumpi\n      tag_110\n      tag_98\n      jump\t// in\n    tag_110:\n    tag_109:\n      eq\n      iszero\n        /* \"upgrade.sol\":5968:6013  !expired && userSub.planType != PlanType.FREE */\n    tag_106:\n        /* \"upgrade.sol\":5956:6013  hasAccess = !expired && userSub.planType != PlanType.FREE */\n      swap4\n      pop\n        /* \"upgrade.sol\":6036:6043  expired */\n      dup1\n        /* \"upgrade.sol\":6024:6043  isExpired = expired */\n      swap3\n      pop\n        /* \"upgrade.sol\":6064:6120  return (planType, expiryTimestamp, hasAccess, isExpired) */\n      pop\n      pop\n        /* \"upgrade.sol\":5425:6128  function getSubscription(address user) external view returns (... */\n      swap2\n      swap4\n      pop\n      swap2\n      swap4\n      jump\t// out\n        /* \"upgrade.sol\":1179:1202  IERC20 public usdcToken */\n    tag_31:\n      0x05\n      0x00\n      swap1\n      sload\n      swap1\n      0x0100\n      exp\n      swap1\n      div\n      0xffffffffffffffffffffffffffffffffffffffff\n      and\n      dup2\n      jump\t// out\n        /* \"upgrade.sol\":6286:6921  function revokeExpiredAccess(address user) external {... */\n    tag_36:\n        /* \"upgrade.sol\":6349:6377  Subscription storage userSub */\n      0x00\n        /* \"upgrade.sol\":6380:6393  subscriptions */\n      0x03\n        /* \"upgrade.sol\":6380:6399  subscriptions[user] */\n      0x00\n        /* \"upgrade.sol\":6394:6398  user */\n      dup4\n        /* \"upgrade.sol\":6380:6399  subscriptions[user] */\n      0xffffffffffffffffffffffffffffffffffffffff\n      and\n      0xffffffffffffffffffffffffffffffffffffffff\n      and\n      dup2\n      mstore\n      0x20\n      add\n      swap1\n      dup2\n      mstore\n      0x20\n      add\n      0x00\n      keccak256\n        /* \"upgrade.sol\":6349:6399  Subscription storage userSub = subscriptions[user] */\n      swap1\n      pop\n        /* \"upgrade.sol\":6448:6461  PlanType.FREE */\n      0x00\n        /* \"upgrade.sol\":6428:6461  userSub.planType != PlanType.FREE */\n      0x02\n      dup2\n      gt\n      iszero\n      tag_112\n      jumpi\n      tag_113\n      tag_98\n      jump\t// in\n    tag_113:\n    tag_112:\n        /* \"upgrade.sol\":6428:6435  userSub */\n      dup2\n        /* \"upgrade.sol\":6428:6444  userSub.planType */\n      0x00\n      add\n      0x00\n      swap1\n      sload\n      swap1\n      0x0100\n      exp\n      swap1\n      div\n      0xff\n      and\n        /* \"upgrade.sol\":6428:6461  userSub.planType != PlanType.FREE */\n      0x02\n      dup2\n      gt\n      iszero\n      tag_114\n      jumpi\n      tag_115\n      tag_98\n      jump\t// in\n    tag_115:\n    tag_114:\n      sub\n        /* \"upgrade.sol\":6420:6486  require(userSub.planType != PlanType.FREE, \"User is on free plan\") */\n      tag_116\n      jumpi\n      mload(0x40)\n      0x08c379a000000000000000000000000000000000000000000000000000000000\n      dup2\n      mstore\n      0x04\n      add\n      tag_117\n      swap1\n      tag_118\n      jump\t// in\n    tag_117:\n      mload(0x40)\n      dup1\n      swap2\n      sub\n      swap1\n      revert\n    tag_116:\n        /* \"upgrade.sol\":6532:6547  block.timestamp */\n      timestamp\n        /* \"upgrade.sol\":6505:6512  userSub */\n      dup2\n        /* \"upgrade.sol\":6505:6528  userSub.expiryTimestamp */\n      0x01\n      add\n      sload\n        /* \"upgrade.sol\":6505:6547  userSub.expiryTimestamp <= block.timestamp */\n      gt\n      iszero\n        /* \"upgrade.sol\":6497:6577  require(userSub.expiryTimestamp <= block.timestamp, \"Subscription still active\") */\n      tag_119\n      jumpi\n      mload(0x40)\n      0x08c379a000000000000000000000000000000000000000000000000000000000\n      dup2\n      mstore\n      0x04\n      add\n      tag_120\n      swap1\n      tag_121\n      jump\t// in\n    tag_120:\n      mload(0x40)\n      dup1\n      swap2\n      sub\n      swap1\n      revert\n    tag_119:\n        /* \"upgrade.sol\":6596:6603  userSub */\n      dup1\n        /* \"upgrade.sol\":6596:6613  userSub.hasAccess */\n      0x02\n      add\n      0x00\n      swap1\n      sload\n      swap1\n      0x0100\n      exp\n      swap1\n      div\n      0xff\n      and\n        /* \"upgrade.sol\":6588:6640  require(userSub.hasAccess, \"Access already revoked\") */\n      tag_122\n      jumpi\n      mload(0x40)\n      0x08c379a000000000000000000000000000000000000000000000000000000000\n      dup2\n      mstore\n      0x04\n      add\n      tag_123\n      swap1\n      tag_124\n      jump\t// in\n    tag_123:\n      mload(0x40)\n      dup1\n      swap2\n      sub\n      swap1\n      revert\n    tag_122:\n        /* \"upgrade.sol\":6661:6682  PlanType previousPlan */\n      0x00\n        /* \"upgrade.sol\":6685:6692  userSub */\n      dup2\n        /* \"upgrade.sol\":6685:6701  userSub.planType */\n      0x00\n      add\n      0x00\n      swap1\n      sload\n      swap1\n      0x0100\n      exp\n      swap1\n      div\n      0xff\n      and\n        /* \"upgrade.sol\":6661:6701  PlanType previousPlan = userSub.planType */\n      swap1\n      pop\n        /* \"upgrade.sol\":6772:6785  PlanType.FREE */\n      0x00\n        /* \"upgrade.sol\":6753:6760  userSub */\n      dup3\n        /* \"upgrade.sol\":6753:6769  userSub.planType */\n      0x00\n      add\n      0x00\n        /* \"upgrade.sol\":6753:6785  userSub.planType = PlanType.FREE */\n      0x0100\n      exp\n      dup2\n      sload\n      dup2\n      0xff\n      mul\n      not\n      and\n      swap1\n      dup4\n      0x02\n      dup2\n      gt\n      iszero\n      tag_125\n      jumpi\n      tag_126\n      tag_98\n      jump\t// in\n    tag_126:\n    tag_125:\n      mul\n      or\n      swap1\n      sstore\n      pop\n        /* \"upgrade.sol\":6816:6821  false */\n      0x00\n        /* \"upgrade.sol\":6796:6803  userSub */\n      dup3\n        /* \"upgrade.sol\":6796:6813  userSub.hasAccess */\n      0x02\n      add\n      0x00\n        /* \"upgrade.sol\":6796:6821  userSub.hasAccess = false */\n      0x0100\n      exp\n      dup2\n      sload\n      dup2\n      0xff\n      mul\n      not\n      and\n      swap1\n      dup4\n      iszero\n      iszero\n      mul\n      or\n      swap1\n      sstore\n      pop\n        /* \"upgrade.sol\":6859:6863  user */\n      dup3\n        /* \"upgrade.sol\":6847:6878  PlanExpired(user, previousPlan) */\n      0xffffffffffffffffffffffffffffffffffffffff\n      and\n      0x6632ba0aeb36047dbdbbde4159a524bcbf81bb68773f0770c43dc7b8dc2be53d\n        /* \"upgrade.sol\":6865:6877  previousPlan */\n      dup3\n        /* \"upgrade.sol\":6847:6878  PlanExpired(user, previousPlan) */\n      mload(0x40)\n      tag_127\n      swap2\n      swap1\n      tag_128\n      jump\t// in\n    tag_127:\n      mload(0x40)\n      dup1\n      swap2\n      sub\n      swap1\n      log2\n        /* \"upgrade.sol\":6908:6912  user */\n      dup3\n        /* \"upgrade.sol\":6894:6913  AccessRevoked(user) */\n      0xffffffffffffffffffffffffffffffffffffffff\n      and\n      0x1b9b72fde9da721e70e6aca3b0cf4cbe73e82765ef1f280157740376531bfdd8\n      mload(0x40)\n      mload(0x40)\n      dup1\n      swap2\n      sub\n      swap1\n      log2\n        /* \"upgrade.sol\":6338:6921  {... */\n      pop\n      pop\n        /* \"upgrade.sol\":6286:6921  function revokeExpiredAccess(address user) external {... */\n      pop\n      jump\t// out\n        /* \"upgrade.sol\":7055:7470  function setOwner(address owner) external {... */\n    tag_39:\n        /* \"upgrade.sol\":7133:7134  0 */\n      0x00\n        /* \"upgrade.sol\":7116:7135  owner != address(0) */\n      0xffffffffffffffffffffffffffffffffffffffff\n      and\n        /* \"upgrade.sol\":7116:7121  owner */\n      dup2\n        /* \"upgrade.sol\":7116:7135  owner != address(0) */\n      0xffffffffffffffffffffffffffffffffffffffff\n      and\n      sub\n        /* \"upgrade.sol\":7108:7161  require(owner != address(0), \"Invalid owner address\") */\n      tag_130\n      jumpi\n      mload(0x40)\n      0x08c379a000000000000000000000000000000000000000000000000000000000\n      dup2\n      mstore\n      0x04\n      add\n      tag_131\n      swap1\n      tag_132\n      jump\t// in\n    tag_131:\n      mload(0x40)\n      dup1\n      swap2\n      sub\n      swap1\n      revert\n    tag_130:\n        /* \"upgrade.sol\":7218:7231  PlanType.FREE */\n      0x00\n        /* \"upgrade.sol\":7180:7231  subscriptions[msg.sender].planType != PlanType.FREE */\n      0x02\n      dup2\n      gt\n      iszero\n      tag_133\n      jumpi\n      tag_134\n      tag_98\n      jump\t// in\n    tag_134:\n    tag_133:\n        /* \"upgrade.sol\":7180:7193  subscriptions */\n      0x03\n        /* \"upgrade.sol\":7180:7205  subscriptions[msg.sender] */\n      0x00\n        /* \"upgrade.sol\":7194:7204  msg.sender */\n      caller\n        /* \"upgrade.sol\":7180:7205  subscriptions[msg.sender] */\n      0xffffffffffffffffffffffffffffffffffffffff\n      and\n      0xffffffffffffffffffffffffffffffffffffffff\n      and\n      dup2\n      mstore\n      0x20\n      add\n      swap1\n      dup2\n      mstore\n      0x20\n      add\n      0x00\n      keccak256\n        /* \"upgrade.sol\":7180:7214  subscriptions[msg.sender].planType */\n      0x00\n      add\n      0x00\n      swap1\n      sload\n      swap1\n      0x0100\n      exp\n      swap1\n      div\n      0xff\n      and\n        /* \"upgrade.sol\":7180:7231  subscriptions[msg.sender].planType != PlanType.FREE */\n      0x02\n      dup2\n      gt\n      iszero\n      tag_135\n      jumpi\n      tag_136\n      tag_98\n      jump\t// in\n    tag_136:\n    tag_135:\n      sub\n        /* \"upgrade.sol\":7172:7265  require(subscriptions[msg.sender].planType != PlanType.FREE, \"Only paid users can set owner\") */\n      tag_137\n      jumpi\n      mload(0x40)\n      0x08c379a000000000000000000000000000000000000000000000000000000000\n      dup2\n      mstore\n      0x04\n      add\n      tag_138\n      swap1\n      tag_139\n      jump\t// in\n    tag_138:\n      mload(0x40)\n      dup1\n      swap2\n      sub\n      swap1\n      revert\n    tag_137:\n        /* \"upgrade.sol\":7328:7343  block.timestamp */\n      timestamp\n        /* \"upgrade.sol\":7284:7297  subscriptions */\n      0x03\n        /* \"upgrade.sol\":7284:7309  subscriptions[msg.sender] */\n      0x00\n        /* \"upgrade.sol\":7298:7308  msg.sender */\n      caller\n        /* \"upgrade.sol\":7284:7309  subscriptions[msg.sender] */\n      0xffffffffffffffffffffffffffffffffffffffff\n      and\n      0xffffffffffffffffffffffffffffffffffffffff\n      and\n      dup2\n      mstore\n      0x20\n      add\n      swap1\n      dup2\n      mstore\n      0x20\n      add\n      0x00\n      keccak256\n        /* \"upgrade.sol\":7284:7325  subscriptions[msg.sender].expiryTimestamp */\n      0x01\n      add\n      sload\n        /* \"upgrade.sol\":7284:7343  subscriptions[msg.sender].expiryTimestamp > block.timestamp */\n      gt\n        /* \"upgrade.sol\":7276:7368  require(subscriptions[msg.sender].expiryTimestamp > block.timestamp, \"Subscription expired\") */\n      tag_140\n      jumpi\n      mload(0x40)\n      0x08c379a000000000000000000000000000000000000000000000000000000000\n      dup2\n      mstore\n      0x04\n      add\n      tag_141\n      swap1\n      tag_142\n      jump\t// in\n    tag_141:\n      mload(0x40)\n      dup1\n      swap2\n      sub\n      swap1\n      revert\n    tag_140:\n        /* \"upgrade.sol\":7414:7419  owner */\n      dup1\n        /* \"upgrade.sol\":7389:7399  userOwners */\n      0x04\n        /* \"upgrade.sol\":7389:7411  userOwners[msg.sender] */\n      0x00\n        /* \"upgrade.sol\":7400:7410  msg.sender */\n      caller\n        /* \"upgrade.sol\":7389:7411  userOwners[msg.sender] */\n      0xffffffffffffffffffffffffffffffffffffffff\n      and\n      0xffffffffffffffffffffffffffffffffffffffff\n      and\n      dup2\n      mstore\n      0x20\n      add\n      swap1\n      dup2\n      mstore\n      0x20\n      add\n      0x00\n      keccak256\n      0x00\n        /* \"upgrade.sol\":7389:7419  userOwners[msg.sender] = owner */\n      0x0100\n      exp\n      dup2\n      sload\n      dup2\n      0xffffffffffffffffffffffffffffffffffffffff\n      mul\n      not\n      and\n      swap1\n      dup4\n      0xffffffffffffffffffffffffffffffffffffffff\n      and\n      mul\n      or\n      swap1\n      sstore\n      pop\n        /* \"upgrade.sol\":7456:7461  owner */\n      dup1\n        /* \"upgrade.sol\":7435:7462  OwnerSet(msg.sender, owner) */\n      0xffffffffffffffffffffffffffffffffffffffff\n      and\n        /* \"upgrade.sol\":7444:7454  msg.sender */\n      caller\n        /* \"upgrade.sol\":7435:7462  OwnerSet(msg.sender, owner) */\n      0xffffffffffffffffffffffffffffffffffffffff\n      and\n      0x342827c97908e5e2f71151c08502a66d44b6f758e3ac2f1de95f02eb95f0a735\n      mload(0x40)\n      mload(0x40)\n      dup1\n      swap2\n      sub\n      swap1\n      log3\n        /* \"upgrade.sol\":7055:7470  function setOwner(address owner) external {... */\n      pop\n      jump\t// out\n        /* \"upgrade.sol\":4641:5096  function checkAccess(address user) external view returns (bool) {... */\n    tag_42:\n        /* \"upgrade.sol\":4699:4703  bool */\n      0x00\n        /* \"upgrade.sol\":4716:4743  Subscription memory userSub */\n      0x00\n        /* \"upgrade.sol\":4746:4759  subscriptions */\n      0x03\n        /* \"upgrade.sol\":4746:4765  subscriptions[user] */\n      0x00\n        /* \"upgrade.sol\":4760:4764  user */\n      dup5\n        /* \"upgrade.sol\":4746:4765  subscriptions[user] */\n      0xffffffffffffffffffffffffffffffffffffffff\n      and\n      0xffffffffffffffffffffffffffffffffffffffff\n      and\n      dup2\n      mstore\n      0x20\n      add\n      swap1\n      dup2\n      mstore\n      0x20\n      add\n      0x00\n      keccak256\n        /* \"upgrade.sol\":4716:4765  Subscription memory userSub = subscriptions[user] */\n      mload(0x40)\n      dup1\n      0x60\n      add\n      0x40\n      mstore\n      swap1\n      dup2\n      0x00\n      dup3\n      add\n      0x00\n      swap1\n      sload\n      swap1\n      0x0100\n      exp\n      swap1\n      div\n      0xff\n      and\n      0x02\n      dup2\n      gt\n      iszero\n      tag_144\n      jumpi\n      tag_145\n      tag_98\n      jump\t// in\n    tag_145:\n    tag_144:\n      0x02\n      dup2\n      gt\n      iszero\n      tag_146\n      jumpi\n      tag_147\n      tag_98\n      jump\t// in\n    tag_147:\n    tag_146:\n      dup2\n      mstore\n      0x20\n      add\n      0x01\n      dup3\n      add\n      sload\n      dup2\n      mstore\n      0x20\n      add\n      0x02\n      dup3\n      add\n      0x00\n      swap1\n      sload\n      swap1\n      0x0100\n      exp\n      swap1\n      div\n      0xff\n      and\n      iszero\n      iszero\n      iszero\n      iszero\n      dup2\n      mstore\n      pop\n      pop\n      swap1\n      pop\n        /* \"upgrade.sol\":4848:4861  PlanType.FREE */\n      0x00\n        /* \"upgrade.sol\":4828:4861  userSub.planType == PlanType.FREE */\n      0x02\n      dup2\n      gt\n      iszero\n      tag_148\n      jumpi\n      tag_149\n      tag_98\n      jump\t// in\n    tag_149:\n    tag_148:\n        /* \"upgrade.sol\":4828:4835  userSub */\n      dup2\n        /* \"upgrade.sol\":4828:4844  userSub.planType */\n      0x00\n      add\n      mload\n        /* \"upgrade.sol\":4828:4861  userSub.planType == PlanType.FREE */\n      0x02\n      dup2\n      gt\n      iszero\n      tag_150\n      jumpi\n      tag_151\n      tag_98\n      jump\t// in\n    tag_151:\n    tag_150:\n      sub\n        /* \"upgrade.sol\":4824:4902  if (userSub.planType == PlanType.FREE) {... */\n      tag_152\n      jumpi\n        /* \"upgrade.sol\":4885:4890  false */\n      0x00\n        /* \"upgrade.sol\":4878:4890  return false */\n      swap2\n      pop\n      pop\n      jump(tag_143)\n        /* \"upgrade.sol\":4824:4902  if (userSub.planType == PlanType.FREE) {... */\n    tag_152:\n        /* \"upgrade.sol\":5001:5016  block.timestamp */\n      timestamp\n        /* \"upgrade.sol\":4975:4982  userSub */\n      dup2\n        /* \"upgrade.sol\":4975:4998  userSub.expiryTimestamp */\n      0x20\n      add\n      mload\n        /* \"upgrade.sol\":4975:5016  userSub.expiryTimestamp > block.timestamp */\n      gt\n        /* \"upgrade.sol\":4971:5056  if (userSub.expiryTimestamp > block.timestamp) {... */\n      iszero\n      tag_153\n      jumpi\n        /* \"upgrade.sol\":5040:5044  true */\n      0x01\n        /* \"upgrade.sol\":5033:5044  return true */\n      swap2\n      pop\n      pop\n      jump(tag_143)\n        /* \"upgrade.sol\":4971:5056  if (userSub.expiryTimestamp > block.timestamp) {... */\n    tag_153:\n        /* \"upgrade.sol\":5083:5088  false */\n      0x00\n        /* \"upgrade.sol\":5076:5088  return false */\n      swap2\n      pop\n      pop\n        /* \"upgrade.sol\":4641:5096  function checkAccess(address user) external view returns (bool) {... */\n    tag_143:\n      swap2\n      swap1\n      pop\n      jump\t// out\n        /* \"upgrade.sol\":972:1010  mapping(PlanType => Plan) public plans */\n    tag_48:\n      mstore(0x20, 0x02)\n      dup1\n      0x00\n      mstore\n      keccak256(0x00, 0x40)\n      0x00\n      swap2\n      pop\n      swap1\n      pop\n      dup1\n      0x00\n      add\n      0x00\n      swap1\n      sload\n      swap1\n      0x0100\n      exp\n      swap1\n      div\n      0xff\n      and\n      swap1\n      dup1\n      0x01\n      add\n      sload\n      swap1\n      dup1\n      0x02\n      add\n      sload\n      swap1\n      dup1\n      0x03\n      add\n      0x00\n      swap1\n      sload\n      swap1\n      0x0100\n      exp\n      swap1\n      div\n      0xff\n      and\n      swap1\n      pop\n      dup5\n      jump\t// out\n        /* \"upgrade.sol\":1209:1232  address public treasury */\n    tag_52:\n      0x06\n      0x00\n      swap1\n      sload\n      swap1\n      0x0100\n      exp\n      swap1\n      div\n      0xffffffffffffffffffffffffffffffffffffffff\n      and\n      dup2\n      jump\t// out\n        /* \"upgrade.sol\":9064:9697  function grantAccess(... */\n    tag_58:\n        /* \"@openzeppelin/contracts/access/Ownable.sol\":1531:1544  _checkOwner() */\n      tag_155\n        /* \"@openzeppelin/contracts/access/Ownable.sol\":1531:1542  _checkOwner */\n      tag_156\n        /* \"@openzeppelin/contracts/access/Ownable.sol\":1531:1544  _checkOwner() */\n      jump\t// in\n    tag_155:\n        /* \"upgrade.sol\":9220:9233  PlanType.FREE */\n      0x00\n        /* \"upgrade.sol\":9208:9233  planType != PlanType.FREE */\n      0x02\n      dup2\n      gt\n      iszero\n      tag_158\n      jumpi\n      tag_159\n      tag_98\n      jump\t// in\n    tag_159:\n    tag_158:\n        /* \"upgrade.sol\":9208:9216  planType */\n      dup3\n        /* \"upgrade.sol\":9208:9233  planType != PlanType.FREE */\n      0x02\n      dup2\n      gt\n      iszero\n      tag_160\n      jumpi\n      tag_161\n      tag_98\n      jump\t// in\n    tag_161:\n    tag_160:\n      sub\n        /* \"upgrade.sol\":9200:9260  require(planType != PlanType.FREE, \"Cannot grant free plan\") */\n      tag_162\n      jumpi\n      mload(0x40)\n      0x08c379a000000000000000000000000000000000000000000000000000000000\n      dup2\n      mstore\n      0x04\n      add\n      tag_163\n      swap1\n      tag_164\n      jump\t// in\n    tag_163:\n      mload(0x40)\n      dup1\n      swap2\n      sub\n      swap1\n      revert\n    tag_162:\n        /* \"upgrade.sol\":9281:9309  Subscription storage userSub */\n      0x00\n        /* \"upgrade.sol\":9312:9325  subscriptions */\n      0x03\n        /* \"upgrade.sol\":9312:9331  subscriptions[user] */\n      0x00\n        /* \"upgrade.sol\":9326:9330  user */\n      dup6\n        /* \"upgrade.sol\":9312:9331  subscriptions[user] */\n      0xffffffffffffffffffffffffffffffffffffffff\n      and\n      0xffffffffffffffffffffffffffffffffffffffff\n      and\n      dup2\n      mstore\n      0x20\n      add\n      swap1\n      dup2\n      mstore\n      0x20\n      add\n      0x00\n      keccak256\n        /* \"upgrade.sol\":9281:9331  Subscription storage userSub = subscriptions[user] */\n      swap1\n      pop\n        /* \"upgrade.sol\":9352:9369  uint256 newExpiry */\n      0x00\n        /* \"upgrade.sol\":9390:9398  duration */\n      dup3\n        /* \"upgrade.sol\":9372:9387  block.timestamp */\n      timestamp\n        /* \"upgrade.sol\":9372:9398  block.timestamp + duration */\n      tag_165\n      swap2\n      swap1\n      tag_166\n      jump\t// in\n    tag_165:\n        /* \"upgrade.sol\":9352:9398  uint256 newExpiry = block.timestamp + duration */\n      swap1\n      pop\n        /* \"upgrade.sol\":9428:9436  planType */\n      dup4\n        /* \"upgrade.sol\":9409:9416  userSub */\n      dup3\n        /* \"upgrade.sol\":9409:9425  userSub.planType */\n      0x00\n      add\n      0x00\n        /* \"upgrade.sol\":9409:9436  userSub.planType = planType */\n      0x0100\n      exp\n      dup2\n      sload\n      dup2\n      0xff\n      mul\n      not\n      and\n      swap1\n      dup4\n      0x02\n      dup2\n      gt\n      iszero\n      tag_167\n      jumpi\n      tag_168\n      tag_98\n      jump\t// in\n    tag_168:\n    tag_167:\n      mul\n      or\n      swap1\n      sstore\n      pop\n        /* \"upgrade.sol\":9473:9482  newExpiry */\n      dup1\n        /* \"upgrade.sol\":9447:9454  userSub */\n      dup3\n        /* \"upgrade.sol\":9447:9470  userSub.expiryTimestamp */\n      0x01\n      add\n        /* \"upgrade.sol\":9447:9482  userSub.expiryTimestamp = newExpiry */\n      dup2\n      swap1\n      sstore\n      pop\n        /* \"upgrade.sol\":9513:9517  true */\n      0x01\n        /* \"upgrade.sol\":9493:9500  userSub */\n      dup3\n        /* \"upgrade.sol\":9493:9510  userSub.hasAccess */\n      0x02\n      add\n      0x00\n        /* \"upgrade.sol\":9493:9517  userSub.hasAccess = true */\n      0x0100\n      exp\n      dup2\n      sload\n      dup2\n      0xff\n      mul\n      not\n      and\n      swap1\n      dup4\n      iszero\n      iszero\n      mul\n      or\n      swap1\n      sstore\n      pop\n        /* \"upgrade.sol\":9570:9571  0 */\n      0x00\n        /* \"upgrade.sol\":9542:9572  userOwners[user] == address(0) */\n      0xffffffffffffffffffffffffffffffffffffffff\n      and\n        /* \"upgrade.sol\":9542:9552  userOwners */\n      0x04\n        /* \"upgrade.sol\":9542:9558  userOwners[user] */\n      0x00\n        /* \"upgrade.sol\":9553:9557  user */\n      dup8\n        /* \"upgrade.sol\":9542:9558  userOwners[user] */\n      0xffffffffffffffffffffffffffffffffffffffff\n      and\n      0xffffffffffffffffffffffffffffffffffffffff\n      and\n      dup2\n      mstore\n      0x20\n      add\n      swap1\n      dup2\n      mstore\n      0x20\n      add\n      0x00\n      keccak256\n      0x00\n      swap1\n      sload\n      swap1\n      0x0100\n      exp\n      swap1\n      div\n      0xffffffffffffffffffffffffffffffffffffffff\n      and\n        /* \"upgrade.sol\":9542:9572  userOwners[user] == address(0) */\n      0xffffffffffffffffffffffffffffffffffffffff\n      and\n      sub\n        /* \"upgrade.sol\":9538:9624  if (userOwners[user] == address(0)) {... */\n      tag_169\n      jumpi\n        /* \"upgrade.sol\":9608:9612  user */\n      dup5\n        /* \"upgrade.sol\":9589:9599  userOwners */\n      0x04\n        /* \"upgrade.sol\":9589:9605  userOwners[user] */\n      0x00\n        /* \"upgrade.sol\":9600:9604  user */\n      dup8\n        /* \"upgrade.sol\":9589:9605  userOwners[user] */\n      0xffffffffffffffffffffffffffffffffffffffff\n      and\n      0xffffffffffffffffffffffffffffffffffffffff\n      and\n      dup2\n      mstore\n      0x20\n      add\n      swap1\n      dup2\n      mstore\n      0x20\n      add\n      0x00\n      keccak256\n      0x00\n        /* \"upgrade.sol\":9589:9612  userOwners[user] = user */\n      0x0100\n      exp\n      dup2\n      sload\n      dup2\n      0xffffffffffffffffffffffffffffffffffffffff\n      mul\n      not\n      and\n      swap1\n      dup4\n      0xffffffffffffffffffffffffffffffffffffffff\n      and\n      mul\n      or\n      swap1\n      sstore\n      pop\n        /* \"upgrade.sol\":9538:9624  if (userOwners[user] == address(0)) {... */\n    tag_169:\n        /* \"upgrade.sol\":9663:9667  user */\n      dup5\n        /* \"upgrade.sol\":9649:9689  PlanPurchased(user, planType, newExpiry) */\n      0xffffffffffffffffffffffffffffffffffffffff\n      and\n      0x2fbf8c1dd8d445f8a551e40588711473ae38ac73f4e51934877f7da74e1a509e\n        /* \"upgrade.sol\":9669:9677  planType */\n      dup6\n        /* \"upgrade.sol\":9679:9688  newExpiry */\n      dup4\n        /* \"upgrade.sol\":9649:9689  PlanPurchased(user, planType, newExpiry) */\n      mload(0x40)\n      tag_170\n      swap3\n      swap2\n      swap1\n      tag_171\n      jump\t// in\n    tag_170:\n      mload(0x40)\n      dup1\n      swap2\n      sub\n      swap1\n      log2\n        /* \"upgrade.sol\":9189:9697  {... */\n      pop\n      pop\n        /* \"upgrade.sol\":9064:9697  function grantAccess(... */\n      pop\n      pop\n      pop\n      jump\t// out\n        /* \"@openzeppelin/contracts/access/Ownable.sol\":2293:2394  function renounceOwnership() public virtual onlyOwner {... */\n    tag_60:\n        /* \"@openzeppelin/contracts/access/Ownable.sol\":1531:1544  _checkOwner() */\n      tag_173\n        /* \"@openzeppelin/contracts/access/Ownable.sol\":1531:1542  _checkOwner */\n      tag_156\n        /* \"@openzeppelin/contracts/access/Ownable.sol\":1531:1544  _checkOwner() */\n      jump\t// in\n    tag_173:\n        /* \"@openzeppelin/contracts/access/Ownable.sol\":2357:2387  _transferOwnership(address(0)) */\n      tag_175\n        /* \"@openzeppelin/contracts/access/Ownable.sol\":2384:2385  0 */\n      0x00\n        /* \"@openzeppelin/contracts/access/Ownable.sol\":2357:2375  _transferOwnership */\n      tag_176\n        /* \"@openzeppelin/contracts/access/Ownable.sol\":2357:2387  _transferOwnership(address(0)) */\n      jump\t// in\n    tag_175:\n        /* \"@openzeppelin/contracts/access/Ownable.sol\":2293:2394  function renounceOwnership() public virtual onlyOwner {... */\n      jump\t// out\n        /* \"upgrade.sol\":1077:1122  mapping(address => address) public userOwners */\n    tag_63:\n      mstore(0x20, 0x04)\n      dup1\n      0x00\n      mstore\n      keccak256(0x00, 0x40)\n      0x00\n      swap2\n      pop\n      sload\n      swap1\n      0x0100\n      exp\n      swap1\n      div\n      0xffffffffffffffffffffffffffffffffffffffff\n      and\n      dup2\n      jump\t// out\n        /* \"upgrade.sol\":8024:8477  function updatePlan(... */\n    tag_68:\n        /* \"@openzeppelin/contracts/access/Ownable.sol\":1531:1544  _checkOwner() */\n      tag_178\n        /* \"@openzeppelin/contracts/access/Ownable.sol\":1531:1542  _checkOwner */\n      tag_156\n        /* \"@openzeppelin/contracts/access/Ownable.sol\":1531:1544  _checkOwner() */\n      jump\t// in\n    tag_178:\n        /* \"upgrade.sol\":8204:8217  PlanType.FREE */\n      0x00\n        /* \"upgrade.sol\":8192:8217  planType != PlanType.FREE */\n      0x02\n      dup2\n      gt\n      iszero\n      tag_180\n      jumpi\n      tag_181\n      tag_98\n      jump\t// in\n    tag_181:\n    tag_180:\n        /* \"upgrade.sol\":8192:8200  planType */\n      dup5\n        /* \"upgrade.sol\":8192:8217  planType != PlanType.FREE */\n      0x02\n      dup2\n      gt\n      iszero\n      tag_182\n      jumpi\n      tag_183\n      tag_98\n      jump\t// in\n    tag_183:\n    tag_182:\n      eq\n      iszero\n        /* \"upgrade.sol\":8192:8231  planType != PlanType.FREE || price == 0 */\n      dup1\n      tag_184\n      jumpi\n      pop\n        /* \"upgrade.sol\":8230:8231  0 */\n      0x00\n        /* \"upgrade.sol\":8221:8226  price */\n      dup4\n        /* \"upgrade.sol\":8221:8231  price == 0 */\n      eq\n        /* \"upgrade.sol\":8192:8231  planType != PlanType.FREE || price == 0 */\n    tag_184:\n        /* \"upgrade.sol\":8184:8263  require(planType != PlanType.FREE || price == 0, \"Free plan must have 0 price\") */\n      tag_185\n      jumpi\n      mload(0x40)\n      0x08c379a000000000000000000000000000000000000000000000000000000000\n      dup2\n      mstore\n      0x04\n      add\n      tag_186\n      swap1\n      tag_187\n      jump\t// in\n    tag_186:\n      mload(0x40)\n      dup1\n      swap2\n      sub\n      swap1\n      revert\n    tag_185:\n        /* \"upgrade.sol\":8308:8313  price */\n      dup3\n        /* \"upgrade.sol\":8284:8289  plans */\n      0x02\n        /* \"upgrade.sol\":8284:8299  plans[planType] */\n      0x00\n        /* \"upgrade.sol\":8290:8298  planType */\n      dup7\n        /* \"upgrade.sol\":8284:8299  plans[planType] */\n      0x02\n      dup2\n      gt\n      iszero\n      tag_188\n      jumpi\n      tag_189\n      tag_98\n      jump\t// in\n    tag_189:\n    tag_188:\n      0x02\n      dup2\n      gt\n      iszero\n      tag_190\n      jumpi\n      tag_191\n      tag_98\n      jump\t// in\n    tag_191:\n    tag_190:\n      dup2\n      mstore\n      0x20\n      add\n      swap1\n      dup2\n      mstore\n      0x20\n      add\n      0x00\n      keccak256\n        /* \"upgrade.sol\":8284:8305  plans[planType].price */\n      0x01\n      add\n        /* \"upgrade.sol\":8284:8313  plans[planType].price = price */\n      dup2\n      swap1\n      sstore\n      pop\n        /* \"upgrade.sol\":8351:8359  duration */\n      dup2\n        /* \"upgrade.sol\":8324:8329  plans */\n      0x02\n        /* \"upgrade.sol\":8324:8339  plans[planType] */\n      0x00\n        /* \"upgrade.sol\":8330:8338  planType */\n      dup7\n        /* \"upgrade.sol\":8324:8339  plans[planType] */\n      0x02\n      dup2\n      gt\n      iszero\n      tag_192\n      jumpi\n      tag_193\n      tag_98\n      jump\t// in\n    tag_193:\n    tag_192:\n      0x02\n      dup2\n      gt\n      iszero\n      tag_194\n      jumpi\n      tag_195\n      tag_98\n      jump\t// in\n    tag_195:\n    tag_194:\n      dup2\n      mstore\n      0x20\n      add\n      swap1\n      dup2\n      mstore\n      0x20\n      add\n      0x00\n      keccak256\n        /* \"upgrade.sol\":8324:8348  plans[planType].duration */\n      0x02\n      add\n        /* \"upgrade.sol\":8324:8359  plans[planType].duration = duration */\n      dup2\n      swap1\n      sstore\n      pop\n        /* \"upgrade.sol\":8397:8405  isActive */\n      dup1\n        /* \"upgrade.sol\":8370:8375  plans */\n      0x02\n        /* \"upgrade.sol\":8370:8385  plans[planType] */\n      0x00\n        /* \"upgrade.sol\":8376:8384  planType */\n      dup7\n        /* \"upgrade.sol\":8370:8385  plans[planType] */\n      0x02\n      dup2\n      gt\n      iszero\n      tag_196\n      jumpi\n      tag_197\n      tag_98\n      jump\t// in\n    tag_197:\n    tag_196:\n      0x02\n      dup2\n      gt\n      iszero\n      tag_198\n      jumpi\n      tag_199\n      tag_98\n      jump\t// in\n    tag_199:\n    tag_198:\n      dup2\n      mstore\n      0x20\n      add\n      swap1\n      dup2\n      mstore\n      0x20\n      add\n      0x00\n      keccak256\n        /* \"upgrade.sol\":8370:8394  plans[planType].isActive */\n      0x03\n      add\n      0x00\n        /* \"upgrade.sol\":8370:8405  plans[planType].isActive = isActive */\n      0x0100\n      exp\n      dup2\n      sload\n      dup2\n      0xff\n      mul\n      not\n      and\n      swap1\n      dup4\n      iszero\n      iszero\n      mul\n      or\n      swap1\n      sstore\n      pop\n        /* \"upgrade.sol\":8431:8469  PlanUpdated(planType, price, duration) */\n      0x7f1d53317eaa3c7ba4a141735afa753a267faa0d47395a12ab844cd10b55d01d\n        /* \"upgrade.sol\":8443:8451  planType */\n      dup5\n        /* \"upgrade.sol\":8453:8458  price */\n      dup5\n        /* \"upgrade.sol\":8460:8468  duration */\n      dup5\n        /* \"upgrade.sol\":8431:8469  PlanUpdated(planType, price, duration) */\n      mload(0x40)\n      tag_200\n      swap4\n      swap3\n      swap2\n      swap1\n      tag_201\n      jump\t// in\n    tag_200:\n      mload(0x40)\n      dup1\n      swap2\n      sub\n      swap1\n      log1\n        /* \"upgrade.sol\":8024:8477  function updatePlan(... */\n      pop\n      pop\n      pop\n      pop\n      jump\t// out\n        /* \"upgrade.sol\":8605:8827  function updateTreasury(address newTreasury) external onlyOwner {... */\n    tag_71:\n        /* \"@openzeppelin/contracts/access/Ownable.sol\":1531:1544  _checkOwner() */\n      tag_203\n        /* \"@openzeppelin/contracts/access/Ownable.sol\":1531:1542  _checkOwner */\n      tag_156\n        /* \"@openzeppelin/contracts/access/Ownable.sol\":1531:1544  _checkOwner() */\n      jump\t// in\n    tag_203:\n        /* \"upgrade.sol\":8711:8712  0 */\n      0x00\n        /* \"upgrade.sol\":8688:8713  newTreasury != address(0) */\n      0xffffffffffffffffffffffffffffffffffffffff\n      and\n        /* \"upgrade.sol\":8688:8699  newTreasury */\n      dup2\n        /* \"upgrade.sol\":8688:8713  newTreasury != address(0) */\n      0xffffffffffffffffffffffffffffffffffffffff\n      and\n      sub\n        /* \"upgrade.sol\":8680:8742  require(newTreasury != address(0), \"Invalid treasury address\") */\n      tag_205\n      jumpi\n      mload(0x40)\n      0x08c379a000000000000000000000000000000000000000000000000000000000\n      dup2\n      mstore\n      0x04\n      add\n      tag_206\n      swap1\n      tag_207\n      jump\t// in\n    tag_206:\n      mload(0x40)\n      dup1\n      swap2\n      sub\n      swap1\n      revert\n    tag_205:\n        /* \"upgrade.sol\":8764:8775  newTreasury */\n      dup1\n        /* \"upgrade.sol\":8753:8761  treasury */\n      0x06\n      0x00\n        /* \"upgrade.sol\":8753:8775  treasury = newTreasury */\n      0x0100\n      exp\n      dup2\n      sload\n      dup2\n      0xffffffffffffffffffffffffffffffffffffffff\n      mul\n      not\n      and\n      swap1\n      dup4\n      0xffffffffffffffffffffffffffffffffffffffff\n      and\n      mul\n      or\n      swap1\n      sstore\n      pop\n        /* \"upgrade.sol\":8807:8818  newTreasury */\n      dup1\n        /* \"upgrade.sol\":8791:8819  TreasuryUpdated(newTreasury) */\n      0xffffffffffffffffffffffffffffffffffffffff\n      and\n      0x7dae230f18360d76a040c81f050aa14eb9d6dc7901b20fc5d855e2a20fe814d1\n      mload(0x40)\n      mload(0x40)\n      dup1\n      swap2\n      sub\n      swap1\n      log2\n        /* \"upgrade.sol\":8605:8827  function updateTreasury(address newTreasury) external onlyOwner {... */\n      pop\n      jump\t// out\n        /* \"@openzeppelin/contracts/access/Ownable.sol\":1638:1723  function owner() public view virtual returns (address) {... */\n    tag_73:\n        /* \"@openzeppelin/contracts/access/Ownable.sol\":1684:1691  address */\n      0x00\n        /* \"@openzeppelin/contracts/access/Ownable.sol\":1710:1716  _owner */\n      0x00\n      0x00\n      swap1\n      sload\n      swap1\n      0x0100\n      exp\n      swap1\n      div\n      0xffffffffffffffffffffffffffffffffffffffff\n      and\n        /* \"@openzeppelin/contracts/access/Ownable.sol\":1703:1716  return _owner */\n      swap1\n      pop\n        /* \"@openzeppelin/contracts/access/Ownable.sol\":1638:1723  function owner() public view virtual returns (address) {... */\n      swap1\n      jump\t// out\n        /* \"upgrade.sol\":3114:4445  function purchasePlan(PlanType planType) external nonReentrant {... */\n    tag_77:\n        /* \"@openzeppelin/contracts/security/ReentrancyGuard.sol\":2261:2282  _nonReentrantBefore() */\n      tag_210\n        /* \"@openzeppelin/contracts/security/ReentrancyGuard.sol\":2261:2280  _nonReentrantBefore */\n      tag_211\n        /* \"@openzeppelin/contracts/security/ReentrancyGuard.sol\":2261:2282  _nonReentrantBefore() */\n      jump\t// in\n    tag_210:\n        /* \"upgrade.sol\":3208:3221  PlanType.FREE */\n      0x00\n        /* \"upgrade.sol\":3196:3221  planType != PlanType.FREE */\n      0x02\n      dup2\n      gt\n      iszero\n      tag_213\n      jumpi\n      tag_214\n      tag_98\n      jump\t// in\n    tag_214:\n    tag_213:\n        /* \"upgrade.sol\":3196:3204  planType */\n      dup2\n        /* \"upgrade.sol\":3196:3221  planType != PlanType.FREE */\n      0x02\n      dup2\n      gt\n      iszero\n      tag_215\n      jumpi\n      tag_216\n      tag_98\n      jump\t// in\n    tag_216:\n    tag_215:\n      sub\n        /* \"upgrade.sol\":3188:3251  require(planType != PlanType.FREE, \"Cannot purchase free plan\") */\n      tag_217\n      jumpi\n      mload(0x40)\n      0x08c379a000000000000000000000000000000000000000000000000000000000\n      dup2\n      mstore\n      0x04\n      add\n      tag_218\n      swap1\n      tag_219\n      jump\t// in\n    tag_218:\n      mload(0x40)\n      dup1\n      swap2\n      sub\n      swap1\n      revert\n    tag_217:\n        /* \"upgrade.sol\":3270:3275  plans */\n      0x02\n        /* \"upgrade.sol\":3270:3285  plans[planType] */\n      0x00\n        /* \"upgrade.sol\":3276:3284  planType */\n      dup3\n        /* \"upgrade.sol\":3270:3285  plans[planType] */\n      0x02\n      dup2\n      gt\n      iszero\n      tag_220\n      jumpi\n      tag_221\n      tag_98\n      jump\t// in\n    tag_221:\n    tag_220:\n      0x02\n      dup2\n      gt\n      iszero\n      tag_222\n      jumpi\n      tag_223\n      tag_98\n      jump\t// in\n    tag_223:\n    tag_222:\n      dup2\n      mstore\n      0x20\n      add\n      swap1\n      dup2\n      mstore\n      0x20\n      add\n      0x00\n      keccak256\n        /* \"upgrade.sol\":3270:3294  plans[planType].isActive */\n      0x03\n      add\n      0x00\n      swap1\n      sload\n      swap1\n      0x0100\n      exp\n      swap1\n      div\n      0xff\n      and\n        /* \"upgrade.sol\":3262:3314  require(plans[planType].isActive, \"Plan not active\") */\n      tag_224\n      jumpi\n      mload(0x40)\n      0x08c379a000000000000000000000000000000000000000000000000000000000\n      dup2\n      mstore\n      0x04\n      add\n      tag_225\n      swap1\n      tag_226\n      jump\t// in\n    tag_225:\n      mload(0x40)\n      dup1\n      swap2\n      sub\n      swap1\n      revert\n    tag_224:\n        /* \"upgrade.sol\":3335:3351  Plan memory plan */\n      0x00\n        /* \"upgrade.sol\":3354:3359  plans */\n      0x02\n        /* \"upgrade.sol\":3354:3369  plans[planType] */\n      0x00\n        /* \"upgrade.sol\":3360:3368  planType */\n      dup4\n        /* \"upgrade.sol\":3354:3369  plans[planType] */\n      0x02\n      dup2\n      gt\n      iszero\n      tag_227\n      jumpi\n      tag_228\n      tag_98\n      jump\t// in\n    tag_228:\n    tag_227:\n      0x02\n      dup2\n      gt\n      iszero\n      tag_229\n      jumpi\n      tag_230\n      tag_98\n      jump\t// in\n    tag_230:\n    tag_229:\n      dup2\n      mstore\n      0x20\n      add\n      swap1\n      dup2\n      mstore\n      0x20\n      add\n      0x00\n      keccak256\n        /* \"upgrade.sol\":3335:3369  Plan memory plan = plans[planType] */\n      mload(0x40)\n      dup1\n      0x80\n      add\n      0x40\n      mstore\n      swap1\n      dup2\n      0x00\n      dup3\n      add\n      0x00\n      swap1\n      sload\n      swap1\n      0x0100\n      exp\n      swap1\n      div\n      0xff\n      and\n      0x02\n      dup2\n      gt\n      iszero\n      tag_231\n      jumpi\n      tag_232\n      tag_98\n      jump\t// in\n    tag_232:\n    tag_231:\n      0x02\n      dup2\n      gt\n      iszero\n      tag_233\n      jumpi\n      tag_234\n      tag_98\n      jump\t// in\n    tag_234:\n    tag_233:\n      dup2\n      mstore\n      0x20\n      add\n      0x01\n      dup3\n      add\n      sload\n      dup2\n      mstore\n      0x20\n      add\n      0x02\n      dup3\n      add\n      sload\n      dup2\n      mstore\n      0x20\n      add\n      0x03\n      dup3\n      add\n      0x00\n      swap1\n      sload\n      swap1\n      0x0100\n      exp\n      swap1\n      div\n      0xff\n      and\n      iszero\n      iszero\n      iszero\n      iszero\n      dup2\n      mstore\n      pop\n      pop\n      swap1\n      pop\n        /* \"upgrade.sol\":3380:3408  Subscription storage userSub */\n      0x00\n        /* \"upgrade.sol\":3411:3424  subscriptions */\n      0x03\n        /* \"upgrade.sol\":3411:3436  subscriptions[msg.sender] */\n      0x00\n        /* \"upgrade.sol\":3425:3435  msg.sender */\n      caller\n        /* \"upgrade.sol\":3411:3436  subscriptions[msg.sender] */\n      0xffffffffffffffffffffffffffffffffffffffff\n      and\n      0xffffffffffffffffffffffffffffffffffffffff\n      and\n      dup2\n      mstore\n      0x20\n      add\n      swap1\n      dup2\n      mstore\n      0x20\n      add\n      0x00\n      keccak256\n        /* \"upgrade.sol\":3380:3436  Subscription storage userSub = subscriptions[msg.sender] */\n      swap1\n      pop\n        /* \"upgrade.sol\":3527:3536  usdcToken */\n      0x05\n      0x00\n      swap1\n      sload\n      swap1\n      0x0100\n      exp\n      swap1\n      div\n      0xffffffffffffffffffffffffffffffffffffffff\n      and\n        /* \"upgrade.sol\":3527:3549  usdcToken.transferFrom */\n      0xffffffffffffffffffffffffffffffffffffffff\n      and\n      0x23b872dd\n        /* \"upgrade.sol\":3550:3560  msg.sender */\n      caller\n        /* \"upgrade.sol\":3562:3570  treasury */\n      0x06\n      0x00\n      swap1\n      sload\n      swap1\n      0x0100\n      exp\n      swap1\n      div\n      0xffffffffffffffffffffffffffffffffffffffff\n      and\n        /* \"upgrade.sol\":3572:3576  plan */\n      dup6\n        /* \"upgrade.sol\":3572:3582  plan.price */\n      0x20\n      add\n      mload\n        /* \"upgrade.sol\":3527:3583  usdcToken.transferFrom(msg.sender, treasury, plan.price) */\n      mload(0x40)\n      dup5\n      0xffffffff\n      and\n      0xe0\n      shl\n      dup2\n      mstore\n      0x04\n      add\n      tag_235\n      swap4\n      swap3\n      swap2\n      swap1\n      tag_236\n      jump\t// in\n    tag_235:\n      0x20\n      mload(0x40)\n      dup1\n      dup4\n      sub\n      dup2\n      0x00\n      dup8\n      gas\n      call\n      iszero\n      dup1\n      iszero\n      tag_238\n      jumpi\n      returndatacopy(0x00, 0x00, returndatasize)\n      revert(0x00, returndatasize)\n    tag_238:\n      pop\n      pop\n      pop\n      pop\n      mload(0x40)\n      returndatasize\n      not(0x1f)\n      0x1f\n      dup3\n      add\n      and\n      dup3\n      add\n      dup1\n      0x40\n      mstore\n      pop\n      dup2\n      add\n      swap1\n      tag_239\n      swap2\n      swap1\n      tag_240\n      jump\t// in\n    tag_239:\n        /* \"upgrade.sol\":3505:3625  require(... */\n      tag_241\n      jumpi\n      mload(0x40)\n      0x08c379a000000000000000000000000000000000000000000000000000000000\n      dup2\n      mstore\n      0x04\n      add\n      tag_242\n      swap1\n      tag_243\n      jump\t// in\n    tag_242:\n      mload(0x40)\n      dup1\n      swap2\n      sub\n      swap1\n      revert\n    tag_241:\n        /* \"upgrade.sol\":3689:3706  uint256 newExpiry */\n      0x00\n        /* \"upgrade.sol\":3747:3762  block.timestamp */\n      timestamp\n        /* \"upgrade.sol\":3721:3728  userSub */\n      dup3\n        /* \"upgrade.sol\":3721:3744  userSub.expiryTimestamp */\n      0x01\n      add\n      sload\n        /* \"upgrade.sol\":3721:3762  userSub.expiryTimestamp > block.timestamp */\n      gt\n        /* \"upgrade.sol\":3717:4020  if (userSub.expiryTimestamp > block.timestamp) {... */\n      iszero\n      tag_244\n      jumpi\n        /* \"upgrade.sol\":3862:3866  plan */\n      dup3\n        /* \"upgrade.sol\":3862:3875  plan.duration */\n      0x40\n      add\n      mload\n        /* \"upgrade.sol\":3836:3843  userSub */\n      dup3\n        /* \"upgrade.sol\":3836:3859  userSub.expiryTimestamp */\n      0x01\n      add\n      sload\n        /* \"upgrade.sol\":3836:3875  userSub.expiryTimestamp + plan.duration */\n      tag_245\n      swap2\n      swap1\n      tag_166\n      jump\t// in\n    tag_245:\n        /* \"upgrade.sol\":3824:3875  newExpiry = userSub.expiryTimestamp + plan.duration */\n      swap1\n      pop\n        /* \"upgrade.sol\":3717:4020  if (userSub.expiryTimestamp > block.timestamp) {... */\n      jump(tag_246)\n    tag_244:\n        /* \"upgrade.sol\":3995:3999  plan */\n      dup3\n        /* \"upgrade.sol\":3995:4008  plan.duration */\n      0x40\n      add\n      mload\n        /* \"upgrade.sol\":3977:3992  block.timestamp */\n      timestamp\n        /* \"upgrade.sol\":3977:4008  block.timestamp + plan.duration */\n      tag_247\n      swap2\n      swap1\n      tag_166\n      jump\t// in\n    tag_247:\n        /* \"upgrade.sol\":3965:4008  newExpiry = block.timestamp + plan.duration */\n      swap1\n      pop\n        /* \"upgrade.sol\":3717:4020  if (userSub.expiryTimestamp > block.timestamp) {... */\n    tag_246:\n        /* \"upgrade.sol\":4096:4104  planType */\n      dup4\n        /* \"upgrade.sol\":4077:4084  userSub */\n      dup3\n        /* \"upgrade.sol\":4077:4093  userSub.planType */\n      0x00\n      add\n      0x00\n        /* \"upgrade.sol\":4077:4104  userSub.planType = planType */\n      0x0100\n      exp\n      dup2\n      sload\n      dup2\n      0xff\n      mul\n      not\n      and\n      swap1\n      dup4\n      0x02\n      dup2\n      gt\n      iszero\n      tag_248\n      jumpi\n      tag_249\n      tag_98\n      jump\t// in\n    tag_249:\n    tag_248:\n      mul\n      or\n      swap1\n      sstore\n      pop\n        /* \"upgrade.sol\":4141:4150  newExpiry */\n      dup1\n        /* \"upgrade.sol\":4115:4122  userSub */\n      dup3\n        /* \"upgrade.sol\":4115:4138  userSub.expiryTimestamp */\n      0x01\n      add\n        /* \"upgrade.sol\":4115:4150  userSub.expiryTimestamp = newExpiry */\n      dup2\n      swap1\n      sstore\n      pop\n        /* \"upgrade.sol\":4181:4185  true */\n      0x01\n        /* \"upgrade.sol\":4161:4168  userSub */\n      dup3\n        /* \"upgrade.sol\":4161:4178  userSub.hasAccess */\n      0x02\n      add\n      0x00\n        /* \"upgrade.sol\":4161:4185  userSub.hasAccess = true */\n      0x0100\n      exp\n      dup2\n      sload\n      dup2\n      0xff\n      mul\n      not\n      and\n      swap1\n      dup4\n      iszero\n      iszero\n      mul\n      or\n      swap1\n      sstore\n      pop\n        /* \"upgrade.sol\":4300:4301  0 */\n      0x00\n        /* \"upgrade.sol\":4266:4302  userOwners[msg.sender] == address(0) */\n      0xffffffffffffffffffffffffffffffffffffffff\n      and\n        /* \"upgrade.sol\":4266:4276  userOwners */\n      0x04\n        /* \"upgrade.sol\":4266:4288  userOwners[msg.sender] */\n      0x00\n        /* \"upgrade.sol\":4277:4287  msg.sender */\n      caller\n        /* \"upgrade.sol\":4266:4288  userOwners[msg.sender] */\n      0xffffffffffffffffffffffffffffffffffffffff\n      and\n      0xffffffffffffffffffffffffffffffffffffffff\n      and\n      dup2\n      mstore\n      0x20\n      add\n      swap1\n      dup2\n      mstore\n      0x20\n      add\n      0x00\n      keccak256\n      0x00\n      swap1\n      sload\n      swap1\n      0x0100\n      exp\n      swap1\n      div\n      0xffffffffffffffffffffffffffffffffffffffff\n      and\n        /* \"upgrade.sol\":4266:4302  userOwners[msg.sender] == address(0) */\n      0xffffffffffffffffffffffffffffffffffffffff\n      and\n      sub\n        /* \"upgrade.sol\":4262:4366  if (userOwners[msg.sender] == address(0)) {... */\n      tag_250\n      jumpi\n        /* \"upgrade.sol\":4344:4354  msg.sender */\n      caller\n        /* \"upgrade.sol\":4319:4329  userOwners */\n      0x04\n        /* \"upgrade.sol\":4319:4341  userOwners[msg.sender] */\n      0x00\n        /* \"upgrade.sol\":4330:4340  msg.sender */\n      caller\n        /* \"upgrade.sol\":4319:4341  userOwners[msg.sender] */\n      0xffffffffffffffffffffffffffffffffffffffff\n      and\n      0xffffffffffffffffffffffffffffffffffffffff\n      and\n      dup2\n      mstore\n      0x20\n      add\n      swap1\n      dup2\n      mstore\n      0x20\n      add\n      0x00\n      keccak256\n      0x00\n        /* \"upgrade.sol\":4319:4354  userOwners[msg.sender] = msg.sender */\n      0x0100\n      exp\n      dup2\n      sload\n      dup2\n      0xffffffffffffffffffffffffffffffffffffffff\n      mul\n      not\n      and\n      swap1\n      dup4\n      0xffffffffffffffffffffffffffffffffffffffff\n      and\n      mul\n      or\n      swap1\n      sstore\n      pop\n        /* \"upgrade.sol\":4262:4366  if (userOwners[msg.sender] == address(0)) {... */\n    tag_250:\n        /* \"upgrade.sol\":4405:4415  msg.sender */\n      caller\n        /* \"upgrade.sol\":4391:4437  PlanPurchased(msg.sender, planType, newExpiry) */\n      0xffffffffffffffffffffffffffffffffffffffff\n      and\n      0x2fbf8c1dd8d445f8a551e40588711473ae38ac73f4e51934877f7da74e1a509e\n        /* \"upgrade.sol\":4417:4425  planType */\n      dup6\n        /* \"upgrade.sol\":4427:4436  newExpiry */\n      dup4\n        /* \"upgrade.sol\":4391:4437  PlanPurchased(msg.sender, planType, newExpiry) */\n      mload(0x40)\n      tag_251\n      swap3\n      swap2\n      swap1\n      tag_171\n      jump\t// in\n    tag_251:\n      mload(0x40)\n      dup1\n      swap2\n      sub\n      swap1\n      log2\n        /* \"upgrade.sol\":3177:4445  {... */\n      pop\n      pop\n      pop\n        /* \"@openzeppelin/contracts/security/ReentrancyGuard.sol\":2303:2323  _nonReentrantAfter() */\n      tag_252\n        /* \"@openzeppelin/contracts/security/ReentrancyGuard.sol\":2303:2321  _nonReentrantAfter */\n      tag_253\n        /* \"@openzeppelin/contracts/security/ReentrancyGuard.sol\":2303:2323  _nonReentrantAfter() */\n      jump\t// in\n    tag_252:\n        /* \"upgrade.sol\":3114:4445  function purchasePlan(PlanType planType) external nonReentrant {... */\n      pop\n      jump\t// out\n        /* \"upgrade.sol\":9928:10189  function getPlanDetails(PlanType planType) external view returns (... */\n    tag_80:\n        /* \"upgrade.sol\":10004:10017  uint256 price */\n      0x00\n        /* \"upgrade.sol\":10028:10044  uint256 duration */\n      0x00\n        /* \"upgrade.sol\":10055:10068  bool isActive */\n      0x00\n        /* \"upgrade.sol\":10087:10103  Plan memory plan */\n      0x00\n        /* \"upgrade.sol\":10106:10111  plans */\n      0x02\n        /* \"upgrade.sol\":10106:10121  plans[planType] */\n      0x00\n        /* \"upgrade.sol\":10112:10120  planType */\n      dup7\n        /* \"upgrade.sol\":10106:10121  plans[planType] */\n      0x02\n      dup2\n      gt\n      iszero\n      tag_255\n      jumpi\n      tag_256\n      tag_98\n      jump\t// in\n    tag_256:\n    tag_255:\n      0x02\n      dup2\n      gt\n      iszero\n      tag_257\n      jumpi\n      tag_258\n      tag_98\n      jump\t// in\n    tag_258:\n    tag_257:\n      dup2\n      mstore\n      0x20\n      add\n      swap1\n      dup2\n      mstore\n      0x20\n      add\n      0x00\n      keccak256\n        /* \"upgrade.sol\":10087:10121  Plan memory plan = plans[planType] */\n      mload(0x40)\n      dup1\n      0x80\n      add\n      0x40\n      mstore\n      swap1\n      dup2\n      0x00\n      dup3\n      add\n      0x00\n      swap1\n      sload\n      swap1\n      0x0100\n      exp\n      swap1\n      div\n      0xff\n      and\n      0x02\n      dup2\n      gt\n      iszero\n      tag_259\n      jumpi\n      tag_260\n      tag_98\n      jump\t// in\n    tag_260:\n    tag_259:\n      0x02\n      dup2\n      gt\n      iszero\n      tag_261\n      jumpi\n      tag_262\n      tag_98\n      jump\t// in\n    tag_262:\n    tag_261:\n      dup2\n      mstore\n      0x20\n      add\n      0x01\n      dup3\n      add\n      sload\n      dup2\n      mstore\n      0x20\n      add\n      0x02\n      dup3\n      add\n      sload\n      dup2\n      mstore\n      0x20\n      add\n      0x03\n      dup3\n      add\n      0x00\n      swap1\n      sload\n      swap1\n      0x0100\n      exp\n      swap1\n      div\n      0xff\n      and\n      iszero\n      iszero\n      iszero\n      iszero\n      dup2\n      mstore\n      pop\n      pop\n      swap1\n      pop\n        /* \"upgrade.sol\":10140:10144  plan */\n      dup1\n        /* \"upgrade.sol\":10140:10150  plan.price */\n      0x20\n      add\n      mload\n        /* \"upgrade.sol\":10152:10156  plan */\n      dup2\n        /* \"upgrade.sol\":10152:10165  plan.duration */\n      0x40\n      add\n      mload\n        /* \"upgrade.sol\":10167:10171  plan */\n      dup3\n        /* \"upgrade.sol\":10167:10180  plan.isActive */\n      0x60\n      add\n      mload\n        /* \"upgrade.sol\":10132:10181  return (plan.price, plan.duration, plan.isActive) */\n      swap4\n      pop\n      swap4\n      pop\n      swap4\n      pop\n      pop\n        /* \"upgrade.sol\":9928:10189  function getPlanDetails(PlanType planType) external view returns (... */\n      swap2\n      swap4\n      swap1\n      swap3\n      pop\n      jump\t// out\n        /* \"upgrade.sol\":1017:1070  mapping(address => Subscription) public subscriptions */\n    tag_85:\n      mstore(0x20, 0x03)\n      dup1\n      0x00\n      mstore\n      keccak256(0x00, 0x40)\n      0x00\n      swap2\n      pop\n      swap1\n      pop\n      dup1\n      0x00\n      add\n      0x00\n      swap1\n      sload\n      swap1\n      0x0100\n      exp\n      swap1\n      div\n      0xff\n      and\n      swap1\n      dup1\n      0x01\n      add\n      sload\n      swap1\n      dup1\n      0x02\n      add\n      0x00\n      swap1\n      sload\n      swap1\n      0x0100\n      exp\n      swap1\n      div\n      0xff\n      and\n      swap1\n      pop\n      dup4\n      jump\t// out\n        /* \"@openzeppelin/contracts/access/Ownable.sol\":2543:2758  function transferOwnership(address newOwner) public virtual onlyOwner {... */\n    tag_90:\n        /* \"@openzeppelin/contracts/access/Ownable.sol\":1531:1544  _checkOwner() */\n      tag_264\n        /* \"@openzeppelin/contracts/access/Ownable.sol\":1531:1542  _checkOwner */\n      tag_156\n        /* \"@openzeppelin/contracts/access/Ownable.sol\":1531:1544  _checkOwner() */\n      jump\t// in\n    tag_264:\n        /* \"@openzeppelin/contracts/access/Ownable.sol\":2647:2648  0 */\n      0x00\n        /* \"@openzeppelin/contracts/access/Ownable.sol\":2627:2649  newOwner == address(0) */\n      0xffffffffffffffffffffffffffffffffffffffff\n      and\n        /* \"@openzeppelin/contracts/access/Ownable.sol\":2627:2635  newOwner */\n      dup2\n        /* \"@openzeppelin/contracts/access/Ownable.sol\":2627:2649  newOwner == address(0) */\n      0xffffffffffffffffffffffffffffffffffffffff\n      and\n      sub\n        /* \"@openzeppelin/contracts/access/Ownable.sol\":2623:2714  if (newOwner == address(0)) {... */\n      tag_266\n      jumpi\n        /* \"@openzeppelin/contracts/access/Ownable.sol\":2700:2701  0 */\n      0x00\n        /* \"@openzeppelin/contracts/access/Ownable.sol\":2672:2703  OwnableInvalidOwner(address(0)) */\n      mload(0x40)\n      0x1e4fbdf700000000000000000000000000000000000000000000000000000000\n      dup2\n      mstore\n      0x04\n      add\n      tag_267\n      swap2\n      swap1\n      tag_54\n      jump\t// in\n    tag_267:\n      mload(0x40)\n      dup1\n      swap2\n      sub\n      swap1\n      revert\n        /* \"@openzeppelin/contracts/access/Ownable.sol\":2623:2714  if (newOwner == address(0)) {... */\n    tag_266:\n        /* \"@openzeppelin/contracts/access/Ownable.sol\":2723:2751  _transferOwnership(newOwner) */\n      tag_268\n        /* \"@openzeppelin/contracts/access/Ownable.sol\":2742:2750  newOwner */\n      dup2\n        /* \"@openzeppelin/contracts/access/Ownable.sol\":2723:2741  _transferOwnership */\n      tag_176\n        /* \"@openzeppelin/contracts/access/Ownable.sol\":2723:2751  _transferOwnership(newOwner) */\n      jump\t// in\n    tag_268:\n        /* \"@openzeppelin/contracts/access/Ownable.sol\":2543:2758  function transferOwnership(address newOwner) public virtual onlyOwner {... */\n      pop\n      jump\t// out\n        /* \"upgrade.sol\":7631:7737  function getOwner(address user) external view returns (address) {... */\n    tag_93:\n        /* \"upgrade.sol\":7686:7693  address */\n      0x00\n        /* \"upgrade.sol\":7713:7723  userOwners */\n      0x04\n        /* \"upgrade.sol\":7713:7729  userOwners[user] */\n      0x00\n        /* \"upgrade.sol\":7724:7728  user */\n      dup4\n        /* \"upgrade.sol\":7713:7729  userOwners[user] */\n      0xffffffffffffffffffffffffffffffffffffffff\n      and\n      0xffffffffffffffffffffffffffffffffffffffff\n      and\n      dup2\n      mstore\n      0x20\n      add\n      swap1\n      dup2\n      mstore\n      0x20\n      add\n      0x00\n      keccak256\n      0x00\n      swap1\n      sload\n      swap1\n      0x0100\n      exp\n      swap1\n      div\n      0xffffffffffffffffffffffffffffffffffffffff\n      and\n        /* \"upgrade.sol\":7706:7729  return userOwners[user] */\n      swap1\n      pop\n        /* \"upgrade.sol\":7631:7737  function getOwner(address user) external view returns (address) {... */\n      swap2\n      swap1\n      pop\n      jump\t// out\n        /* \"@openzeppelin/contracts/access/Ownable.sol\":1796:1958  function _checkOwner() internal view virtual {... */\n    tag_156:\n        /* \"@openzeppelin/contracts/access/Ownable.sol\":1866:1878  _msgSender() */\n      tag_271\n        /* \"@openzeppelin/contracts/access/Ownable.sol\":1866:1876  _msgSender */\n      tag_272\n        /* \"@openzeppelin/contracts/access/Ownable.sol\":1866:1878  _msgSender() */\n      jump\t// in\n    tag_271:\n        /* \"@openzeppelin/contracts/access/Ownable.sol\":1855:1878  owner() != _msgSender() */\n      0xffffffffffffffffffffffffffffffffffffffff\n      and\n        /* \"@openzeppelin/contracts/access/Ownable.sol\":1855:1862  owner() */\n      tag_273\n        /* \"@openzeppelin/contracts/access/Ownable.sol\":1855:1860  owner */\n      tag_73\n        /* \"@openzeppelin/contracts/access/Ownable.sol\":1855:1862  owner() */\n      jump\t// in\n    tag_273:\n        /* \"@openzeppelin/contracts/access/Ownable.sol\":1855:1878  owner() != _msgSender() */\n      0xffffffffffffffffffffffffffffffffffffffff\n      and\n      eq\n        /* \"@openzeppelin/contracts/access/Ownable.sol\":1851:1952  if (owner() != _msgSender()) {... */\n      tag_274\n      jumpi\n        /* \"@openzeppelin/contracts/access/Ownable.sol\":1928:1940  _msgSender() */\n      tag_275\n        /* \"@openzeppelin/contracts/access/Ownable.sol\":1928:1938  _msgSender */\n      tag_272\n        /* \"@openzeppelin/contracts/access/Ownable.sol\":1928:1940  _msgSender() */\n      jump\t// in\n    tag_275:\n        /* \"@openzeppelin/contracts/access/Ownable.sol\":1901:1941  OwnableUnauthorizedAccount(_msgSender()) */\n      mload(0x40)\n      0x118cdaa700000000000000000000000000000000000000000000000000000000\n      dup2\n      mstore\n      0x04\n      add\n      tag_276\n      swap2\n      swap1\n      tag_54\n      jump\t// in\n    tag_276:\n      mload(0x40)\n      dup1\n      swap2\n      sub\n      swap1\n      revert\n        /* \"@openzeppelin/contracts/access/Ownable.sol\":1851:1952  if (owner() != _msgSender()) {... */\n    tag_274:\n        /* \"@openzeppelin/contracts/access/Ownable.sol\":1796:1958  function _checkOwner() internal view virtual {... */\n      jump\t// out\n        /* \"@openzeppelin/contracts/access/Ownable.sol\":2912:3099  function _transferOwnership(address newOwner) internal virtual {... */\n    tag_176:\n        /* \"@openzeppelin/contracts/access/Ownable.sol\":2985:3001  address oldOwner */\n      0x00\n        /* \"@openzeppelin/contracts/access/Ownable.sol\":3004:3010  _owner */\n      0x00\n      0x00\n      swap1\n      sload\n      swap1\n      0x0100\n      exp\n      swap1\n      div\n      0xffffffffffffffffffffffffffffffffffffffff\n      and\n        /* \"@openzeppelin/contracts/access/Ownable.sol\":2985:3010  address oldOwner = _owner */\n      swap1\n      pop\n        /* \"@openzeppelin/contracts/access/Ownable.sol\":3029:3037  newOwner */\n      dup2\n        /* \"@openzeppelin/contracts/access/Ownable.sol\":3020:3026  _owner */\n      0x00\n      0x00\n        /* \"@openzeppelin/contracts/access/Ownable.sol\":3020:3037  _owner = newOwner */\n      0x0100\n      exp\n      dup2\n      sload\n      dup2\n      0xffffffffffffffffffffffffffffffffffffffff\n      mul\n      not\n      and\n      swap1\n      dup4\n      0xffffffffffffffffffffffffffffffffffffffff\n      and\n      mul\n      or\n      swap1\n      sstore\n      pop\n        /* \"@openzeppelin/contracts/access/Ownable.sol\":3083:3091  newOwner */\n      dup2\n        /* \"@openzeppelin/contracts/access/Ownable.sol\":3052:3092  OwnershipTransferred(oldOwner, newOwner) */\n      0xffffffffffffffffffffffffffffffffffffffff\n      and\n        /* \"@openzeppelin/contracts/access/Ownable.sol\":3073:3081  oldOwner */\n      dup2\n        /* \"@openzeppelin/contracts/access/Ownable.sol\":3052:3092  OwnershipTransferred(oldOwner, newOwner) */\n      0xffffffffffffffffffffffffffffffffffffffff\n      and\n      0x8be0079c531659141344cd1fd0a4f28419497f9722a3daafe3b4186f6b6457e0\n      mload(0x40)\n      mload(0x40)\n      dup1\n      swap2\n      sub\n      swap1\n      log3\n        /* \"@openzeppelin/contracts/access/Ownable.sol\":2975:3099  {... */\n      pop\n        /* \"@openzeppelin/contracts/access/Ownable.sol\":2912:3099  function _transferOwnership(address newOwner) internal virtual {... */\n      pop\n      jump\t// out\n        /* \"@openzeppelin/contracts/security/ReentrancyGuard.sol\":2336:2623  function _nonReentrantBefore() private {... */\n    tag_211:\n        /* \"@openzeppelin/contracts/security/ReentrancyGuard.sol\":1759:1760  2 */\n      0x02\n        /* \"@openzeppelin/contracts/security/ReentrancyGuard.sol\":2468:2475  _status */\n      sload(0x01)\n        /* \"@openzeppelin/contracts/security/ReentrancyGuard.sol\":2468:2487  _status != _ENTERED */\n      sub\n        /* \"@openzeppelin/contracts/security/ReentrancyGuard.sol\":2460:2523  require(_status != _ENTERED, \"ReentrancyGuard: reentrant call\") */\n      tag_279\n      jumpi\n      mload(0x40)\n      0x08c379a000000000000000000000000000000000000000000000000000000000\n      dup2\n      mstore\n      0x04\n      add\n      tag_280\n      swap1\n      tag_281\n      jump\t// in\n    tag_280:\n      mload(0x40)\n      dup1\n      swap2\n      sub\n      swap1\n      revert\n    tag_279:\n        /* \"@openzeppelin/contracts/security/ReentrancyGuard.sol\":1759:1760  2 */\n      0x02\n        /* \"@openzeppelin/contracts/security/ReentrancyGuard.sol\":2598:2605  _status */\n      0x01\n        /* \"@openzeppelin/contracts/security/ReentrancyGuard.sol\":2598:2616  _status = _ENTERED */\n      dup2\n      swap1\n      sstore\n      pop\n        /* \"@openzeppelin/contracts/security/ReentrancyGuard.sol\":2336:2623  function _nonReentrantBefore() private {... */\n      jump\t// out\n        /* \"@openzeppelin/contracts/security/ReentrancyGuard.sol\":2629:2838  function _nonReentrantAfter() private {... */\n    tag_253:\n        /* \"@openzeppelin/contracts/security/ReentrancyGuard.sol\":1716:1717  1 */\n      0x01\n        /* \"@openzeppelin/contracts/security/ReentrancyGuard.sol\":2809:2816  _status */\n      dup1\n        /* \"@openzeppelin/contracts/security/ReentrancyGuard.sol\":2809:2831  _status = _NOT_ENTERED */\n      dup2\n      swap1\n      sstore\n      pop\n        /* \"@openzeppelin/contracts/security/ReentrancyGuard.sol\":2629:2838  function _nonReentrantAfter() private {... */\n      jump\t// out\n        /* \"@openzeppelin/contracts/utils/Context.sol\":656:752  function _msgSender() internal view virtual returns (address) {... */\n    tag_272:\n        /* \"@openzeppelin/contracts/utils/Context.sol\":709:716  address */\n      0x00\n        /* \"@openzeppelin/contracts/utils/Context.sol\":735:745  msg.sender */\n      caller\n        /* \"@openzeppelin/contracts/utils/Context.sol\":728:745  return msg.sender */\n      swap1\n      pop\n        /* \"@openzeppelin/contracts/utils/Context.sol\":656:752  function _msgSender() internal view virtual returns (address) {... */\n      swap1\n      jump\t// out\n        /* \"#utility.yul\":88:205   */\n    tag_285:\n        /* \"#utility.yul\":197:198   */\n      0x00\n        /* \"#utility.yul\":194:195   */\n      0x00\n        /* \"#utility.yul\":187:199   */\n      revert\n        /* \"#utility.yul\":334:460   */\n    tag_287:\n        /* \"#utility.yul\":371:378   */\n      0x00\n        /* \"#utility.yul\":411:453   */\n      0xffffffffffffffffffffffffffffffffffffffff\n        /* \"#utility.yul\":404:409   */\n      dup3\n        /* \"#utility.yul\":400:454   */\n      and\n        /* \"#utility.yul\":389:454   */\n      swap1\n      pop\n        /* \"#utility.yul\":334:460   */\n      swap2\n      swap1\n      pop\n      jump\t// out\n        /* \"#utility.yul\":466:562   */\n    tag_288:\n        /* \"#utility.yul\":503:510   */\n      0x00\n        /* \"#utility.yul\":532:556   */\n      tag_346\n        /* \"#utility.yul\":550:555   */\n      dup3\n        /* \"#utility.yul\":532:556   */\n      tag_287\n      jump\t// in\n    tag_346:\n        /* \"#utility.yul\":521:556   */\n      swap1\n      pop\n        /* \"#utility.yul\":466:562   */\n      swap2\n      swap1\n      pop\n      jump\t// out\n        /* \"#utility.yul\":568:690   */\n    tag_289:\n        /* \"#utility.yul\":641:665   */\n      tag_348\n        /* \"#utility.yul\":659:664   */\n      dup2\n        /* \"#utility.yul\":641:665   */\n      tag_288\n      jump\t// in\n    tag_348:\n        /* \"#utility.yul\":634:639   */\n      dup2\n        /* \"#utility.yul\":631:666   */\n      eq\n        /* \"#utility.yul\":621:684   */\n      tag_349\n      jumpi\n        /* \"#utility.yul\":680:681   */\n      0x00\n        /* \"#utility.yul\":677:678   */\n      0x00\n        /* \"#utility.yul\":670:682   */\n      revert\n        /* \"#utility.yul\":621:684   */\n    tag_349:\n        /* \"#utility.yul\":568:690   */\n      pop\n      jump\t// out\n        /* \"#utility.yul\":696:835   */\n    tag_290:\n        /* \"#utility.yul\":742:747   */\n      0x00\n        /* \"#utility.yul\":780:786   */\n      dup2\n        /* \"#utility.yul\":767:787   */\n      calldataload\n        /* \"#utility.yul\":758:787   */\n      swap1\n      pop\n        /* \"#utility.yul\":796:829   */\n      tag_351\n        /* \"#utility.yul\":823:828   */\n      dup2\n        /* \"#utility.yul\":796:829   */\n      tag_289\n      jump\t// in\n    tag_351:\n        /* \"#utility.yul\":696:835   */\n      swap3\n      swap2\n      pop\n      pop\n      jump\t// out\n        /* \"#utility.yul\":841:1170   */\n    tag_26:\n        /* \"#utility.yul\":900:906   */\n      0x00\n        /* \"#utility.yul\":949:951   */\n      0x20\n        /* \"#utility.yul\":937:946   */\n      dup3\n        /* \"#utility.yul\":928:935   */\n      dup5\n        /* \"#utility.yul\":924:947   */\n      sub\n        /* \"#utility.yul\":920:952   */\n      slt\n        /* \"#utility.yul\":917:1036   */\n      iszero\n      tag_353\n      jumpi\n        /* \"#utility.yul\":955:1034   */\n      tag_354\n      tag_285\n      jump\t// in\n    tag_354:\n        /* \"#utility.yul\":917:1036   */\n    tag_353:\n        /* \"#utility.yul\":1075:1076   */\n      0x00\n        /* \"#utility.yul\":1100:1153   */\n      tag_355\n        /* \"#utility.yul\":1145:1152   */\n      dup5\n        /* \"#utility.yul\":1136:1142   */\n      dup3\n        /* \"#utility.yul\":1125:1134   */\n      dup6\n        /* \"#utility.yul\":1121:1143   */\n      add\n        /* \"#utility.yul\":1100:1153   */\n      tag_290\n      jump\t// in\n    tag_355:\n        /* \"#utility.yul\":1090:1153   */\n      swap2\n      pop\n        /* \"#utility.yul\":1046:1163   */\n      pop\n        /* \"#utility.yul\":841:1170   */\n      swap3\n      swap2\n      pop\n      pop\n      jump\t// out\n        /* \"#utility.yul\":1176:1356   */\n    tag_98:\n        /* \"#utility.yul\":1224:1301   */\n      0x4e487b7100000000000000000000000000000000000000000000000000000000\n        /* \"#utility.yul\":1221:1222   */\n      0x00\n        /* \"#utility.yul\":1214:1302   */\n      mstore\n        /* \"#utility.yul\":1321:1325   */\n      0x21\n        /* \"#utility.yul\":1318:1319   */\n      0x04\n        /* \"#utility.yul\":1311:1326   */\n      mstore\n        /* \"#utility.yul\":1345:1349   */\n      0x24\n        /* \"#utility.yul\":1342:1343   */\n      0x00\n        /* \"#utility.yul\":1335:1350   */\n      revert\n        /* \"#utility.yul\":1362:1479   */\n    tag_291:\n        /* \"#utility.yul\":1447:1448   */\n      0x03\n        /* \"#utility.yul\":1440:1445   */\n      dup2\n        /* \"#utility.yul\":1437:1449   */\n      lt\n        /* \"#utility.yul\":1427:1473   */\n      tag_358\n      jumpi\n        /* \"#utility.yul\":1453:1471   */\n      tag_359\n      tag_98\n      jump\t// in\n    tag_359:\n        /* \"#utility.yul\":1427:1473   */\n    tag_358:\n        /* \"#utility.yul\":1362:1479   */\n      pop\n      jump\t// out\n        /* \"#utility.yul\":1485:1620   */\n    tag_292:\n        /* \"#utility.yul\":1534:1541   */\n      0x00\n        /* \"#utility.yul\":1563:1568   */\n      dup2\n        /* \"#utility.yul\":1552:1568   */\n      swap1\n      pop\n        /* \"#utility.yul\":1569:1614   */\n      tag_361\n        /* \"#utility.yul\":1608:1613   */\n      dup3\n        /* \"#utility.yul\":1569:1614   */\n      tag_291\n      jump\t// in\n    tag_361:\n        /* \"#utility.yul\":1485:1620   */\n      swap2\n      swap1\n      pop\n      jump\t// out\n        /* \"#utility.yul\":1626:1761   */\n    tag_293:\n        /* \"#utility.yul\":1686:1695   */\n      0x00\n        /* \"#utility.yul\":1719:1755   */\n      tag_363\n        /* \"#utility.yul\":1749:1754   */\n      dup3\n        /* \"#utility.yul\":1719:1755   */\n      tag_292\n      jump\t// in\n    tag_363:\n        /* \"#utility.yul\":1706:1755   */\n      swap1\n      pop\n        /* \"#utility.yul\":1626:1761   */\n      swap2\n      swap1\n      pop\n      jump\t// out\n        /* \"#utility.yul\":1767:1918   */\n    tag_294:\n        /* \"#utility.yul\":1864:1911   */\n      tag_365\n        /* \"#utility.yul\":1905:1910   */\n      dup2\n        /* \"#utility.yul\":1864:1911   */\n      tag_293\n      jump\t// in\n    tag_365:\n        /* \"#utility.yul\":1859:1862   */\n      dup3\n        /* \"#utility.yul\":1852:1912   */\n      mstore\n        /* \"#utility.yul\":1767:1918   */\n      pop\n      pop\n      jump\t// out\n        /* \"#utility.yul\":1924:2001   */\n    tag_295:\n        /* \"#utility.yul\":1961:1968   */\n      0x00\n        /* \"#utility.yul\":1990:1995   */\n      dup2\n        /* \"#utility.yul\":1979:1995   */\n      swap1\n      pop\n        /* \"#utility.yul\":1924:2001   */\n      swap2\n      swap1\n      pop\n      jump\t// out\n        /* \"#utility.yul\":2007:2125   */\n    tag_296:\n        /* \"#utility.yul\":2094:2118   */\n      tag_368\n        /* \"#utility.yul\":2112:2117   */\n      dup2\n        /* \"#utility.yul\":2094:2118   */\n      tag_295\n      jump\t// in\n    tag_368:\n        /* \"#utility.yul\":2089:2092   */\n      dup3\n        /* \"#utility.yul\":2082:2119   */\n      mstore\n        /* \"#utility.yul\":2007:2125   */\n      pop\n      pop\n      jump\t// out\n        /* \"#utility.yul\":2131:2221   */\n    tag_297:\n        /* \"#utility.yul\":2165:2172   */\n      0x00\n        /* \"#utility.yul\":2208:2213   */\n      dup2\n        /* \"#utility.yul\":2201:2214   */\n      iszero\n        /* \"#utility.yul\":2194:2215   */\n      iszero\n        /* \"#utility.yul\":2183:2215   */\n      swap1\n      pop\n        /* \"#utility.yul\":2131:2221   */\n      swap2\n      swap1\n      pop\n      jump\t// out\n        /* \"#utility.yul\":2227:2336   */\n    tag_298:\n        /* \"#utility.yul\":2308:2329   */\n      tag_371\n        /* \"#utility.yul\":2323:2328   */\n      dup2\n        /* \"#utility.yul\":2308:2329   */\n      tag_297\n      jump\t// in\n    tag_371:\n        /* \"#utility.yul\":2303:2306   */\n      dup3\n        /* \"#utility.yul\":2296:2330   */\n      mstore\n        /* \"#utility.yul\":2227:2336   */\n      pop\n      pop\n      jump\t// out\n        /* \"#utility.yul\":2342:2891   */\n    tag_29:\n        /* \"#utility.yul\":2517:2521   */\n      0x00\n        /* \"#utility.yul\":2555:2558   */\n      0x80\n        /* \"#utility.yul\":2544:2553   */\n      dup3\n        /* \"#utility.yul\":2540:2559   */\n      add\n        /* \"#utility.yul\":2532:2559   */\n      swap1\n      pop\n        /* \"#utility.yul\":2569:2650   */\n      tag_373\n        /* \"#utility.yul\":2647:2648   */\n      0x00\n        /* \"#utility.yul\":2636:2645   */\n      dup4\n        /* \"#utility.yul\":2632:2649   */\n      add\n        /* \"#utility.yul\":2623:2629   */\n      dup8\n        /* \"#utility.yul\":2569:2650   */\n      tag_294\n      jump\t// in\n    tag_373:\n        /* \"#utility.yul\":2660:2732   */\n      tag_374\n        /* \"#utility.yul\":2728:2730   */\n      0x20\n        /* \"#utility.yul\":2717:2726   */\n      dup4\n        /* \"#utility.yul\":2713:2731   */\n      add\n        /* \"#utility.yul\":2704:2710   */\n      dup7\n        /* \"#utility.yul\":2660:2732   */\n      tag_296\n      jump\t// in\n    tag_374:\n        /* \"#utility.yul\":2742:2808   */\n      tag_375\n        /* \"#utility.yul\":2804:2806   */\n      0x40\n        /* \"#utility.yul\":2793:2802   */\n      dup4\n        /* \"#utility.yul\":2789:2807   */\n      add\n        /* \"#utility.yul\":2780:2786   */\n      dup6\n        /* \"#utility.yul\":2742:2808   */\n      tag_298\n      jump\t// in\n    tag_375:\n        /* \"#utility.yul\":2818:2884   */\n      tag_376\n        /* \"#utility.yul\":2880:2882   */\n      0x60\n        /* \"#utility.yul\":2869:2878   */\n      dup4\n        /* \"#utility.yul\":2865:2883   */\n      add\n        /* \"#utility.yul\":2856:2862   */\n      dup5\n        /* \"#utility.yul\":2818:2884   */\n      tag_298\n      jump\t// in\n    tag_376:\n        /* \"#utility.yul\":2342:2891   */\n      swap6\n      swap5\n      pop\n      pop\n      pop\n      pop\n      pop\n      jump\t// out\n        /* \"#utility.yul\":2897:2957   */\n    tag_299:\n        /* \"#utility.yul\":2925:2928   */\n      0x00\n        /* \"#utility.yul\":2946:2951   */\n      dup2\n        /* \"#utility.yul\":2939:2951   */\n      swap1\n      pop\n        /* \"#utility.yul\":2897:2957   */\n      swap2\n      swap1\n      pop\n      jump\t// out\n        /* \"#utility.yul\":2963:3105   */\n    tag_300:\n        /* \"#utility.yul\":3013:3022   */\n      0x00\n        /* \"#utility.yul\":3046:3099   */\n      tag_379\n        /* \"#utility.yul\":3064:3098   */\n      tag_380\n        /* \"#utility.yul\":3073:3097   */\n      tag_381\n        /* \"#utility.yul\":3091:3096   */\n      dup5\n        /* \"#utility.yul\":3073:3097   */\n      tag_287\n      jump\t// in\n    tag_381:\n        /* \"#utility.yul\":3064:3098   */\n      tag_299\n      jump\t// in\n    tag_380:\n        /* \"#utility.yul\":3046:3099   */\n      tag_287\n      jump\t// in\n    tag_379:\n        /* \"#utility.yul\":3033:3099   */\n      swap1\n      pop\n        /* \"#utility.yul\":2963:3105   */\n      swap2\n      swap1\n      pop\n      jump\t// out\n        /* \"#utility.yul\":3111:3237   */\n    tag_301:\n        /* \"#utility.yul\":3161:3170   */\n      0x00\n        /* \"#utility.yul\":3194:3231   */\n      tag_383\n        /* \"#utility.yul\":3225:3230   */\n      dup3\n        /* \"#utility.yul\":3194:3231   */\n      tag_300\n      jump\t// in\n    tag_383:\n        /* \"#utility.yul\":3181:3231   */\n      swap1\n      pop\n        /* \"#utility.yul\":3111:3237   */\n      swap2\n      swap1\n      pop\n      jump\t// out\n        /* \"#utility.yul\":3243:3383   */\n    tag_302:\n        /* \"#utility.yul\":3307:3316   */\n      0x00\n        /* \"#utility.yul\":3340:3377   */\n      tag_385\n        /* \"#utility.yul\":3371:3376   */\n      dup3\n        /* \"#utility.yul\":3340:3377   */\n      tag_301\n      jump\t// in\n    tag_385:\n        /* \"#utility.yul\":3327:3377   */\n      swap1\n      pop\n        /* \"#utility.yul\":3243:3383   */\n      swap2\n      swap1\n      pop\n      jump\t// out\n        /* \"#utility.yul\":3389:3548   */\n    tag_303:\n        /* \"#utility.yul\":3490:3541   */\n      tag_387\n        /* \"#utility.yul\":3535:3540   */\n      dup2\n        /* \"#utility.yul\":3490:3541   */\n      tag_302\n      jump\t// in\n    tag_387:\n        /* \"#utility.yul\":3485:3488   */\n      dup3\n        /* \"#utility.yul\":3478:3542   */\n      mstore\n        /* \"#utility.yul\":3389:3548   */\n      pop\n      pop\n      jump\t// out\n        /* \"#utility.yul\":3554:3804   */\n    tag_33:\n        /* \"#utility.yul\":3661:3665   */\n      0x00\n        /* \"#utility.yul\":3699:3701   */\n      0x20\n        /* \"#utility.yul\":3688:3697   */\n      dup3\n        /* \"#utility.yul\":3684:3702   */\n      add\n        /* \"#utility.yul\":3676:3702   */\n      swap1\n      pop\n        /* \"#utility.yul\":3712:3797   */\n      tag_389\n        /* \"#utility.yul\":3794:3795   */\n      0x00\n        /* \"#utility.yul\":3783:3792   */\n      dup4\n        /* \"#utility.yul\":3779:3796   */\n      add\n        /* \"#utility.yul\":3770:3776   */\n      dup5\n        /* \"#utility.yul\":3712:3797   */\n      tag_303\n      jump\t// in\n    tag_389:\n        /* \"#utility.yul\":3554:3804   */\n      swap3\n      swap2\n      pop\n      pop\n      jump\t// out\n        /* \"#utility.yul\":3810:4020   */\n    tag_44:\n        /* \"#utility.yul\":3897:3901   */\n      0x00\n        /* \"#utility.yul\":3935:3937   */\n      0x20\n        /* \"#utility.yul\":3924:3933   */\n      dup3\n        /* \"#utility.yul\":3920:3938   */\n      add\n        /* \"#utility.yul\":3912:3938   */\n      swap1\n      pop\n        /* \"#utility.yul\":3948:4013   */\n      tag_391\n        /* \"#utility.yul\":4010:4011   */\n      0x00\n        /* \"#utility.yul\":3999:4008   */\n      dup4\n        /* \"#utility.yul\":3995:4012   */\n      add\n        /* \"#utility.yul\":3986:3992   */\n      dup5\n        /* \"#utility.yul\":3948:4013   */\n      tag_298\n      jump\t// in\n    tag_391:\n        /* \"#utility.yul\":3810:4020   */\n      swap3\n      swap2\n      pop\n      pop\n      jump\t// out\n        /* \"#utility.yul\":4026:4137   */\n    tag_304:\n        /* \"#utility.yul\":4111:4112   */\n      0x03\n        /* \"#utility.yul\":4104:4109   */\n      dup2\n        /* \"#utility.yul\":4101:4113   */\n      lt\n        /* \"#utility.yul\":4091:4131   */\n      tag_393\n      jumpi\n        /* \"#utility.yul\":4127:4128   */\n      0x00\n        /* \"#utility.yul\":4124:4125   */\n      0x00\n        /* \"#utility.yul\":4117:4129   */\n      revert\n        /* \"#utility.yul\":4091:4131   */\n    tag_393:\n        /* \"#utility.yul\":4026:4137   */\n      pop\n      jump\t// out\n        /* \"#utility.yul\":4143:4306   */\n    tag_305:\n        /* \"#utility.yul\":4201:4206   */\n      0x00\n        /* \"#utility.yul\":4239:4245   */\n      dup2\n        /* \"#utility.yul\":4226:4246   */\n      calldataload\n        /* \"#utility.yul\":4217:4246   */\n      swap1\n      pop\n        /* \"#utility.yul\":4255:4300   */\n      tag_395\n        /* \"#utility.yul\":4294:4299   */\n      dup2\n        /* \"#utility.yul\":4255:4300   */\n      tag_304\n      jump\t// in\n    tag_395:\n        /* \"#utility.yul\":4143:4306   */\n      swap3\n      swap2\n      pop\n      pop\n      jump\t// out\n        /* \"#utility.yul\":4312:4665   */\n    tag_47:\n        /* \"#utility.yul\":4383:4389   */\n      0x00\n        /* \"#utility.yul\":4432:4434   */\n      0x20\n        /* \"#utility.yul\":4420:4429   */\n      dup3\n        /* \"#utility.yul\":4411:4418   */\n      dup5\n        /* \"#utility.yul\":4407:4430   */\n      sub\n        /* \"#utility.yul\":4403:4435   */\n      slt\n        /* \"#utility.yul\":4400:4519   */\n      iszero\n      tag_397\n      jumpi\n        /* \"#utility.yul\":4438:4517   */\n      tag_398\n      tag_285\n      jump\t// in\n    tag_398:\n        /* \"#utility.yul\":4400:4519   */\n    tag_397:\n        /* \"#utility.yul\":4558:4559   */\n      0x00\n        /* \"#utility.yul\":4583:4648   */\n      tag_399\n        /* \"#utility.yul\":4640:4647   */\n      dup5\n        /* \"#utility.yul\":4631:4637   */\n      dup3\n        /* \"#utility.yul\":4620:4629   */\n      dup6\n        /* \"#utility.yul\":4616:4638   */\n      add\n        /* \"#utility.yul\":4583:4648   */\n      tag_305\n      jump\t// in\n    tag_399:\n        /* \"#utility.yul\":4573:4648   */\n      swap2\n      pop\n        /* \"#utility.yul\":4529:4658   */\n      pop\n        /* \"#utility.yul\":4312:4665   */\n      swap3\n      swap2\n      pop\n      pop\n      jump\t// out\n        /* \"#utility.yul\":4671:5232   */\n    tag_50:\n        /* \"#utility.yul\":4852:4856   */\n      0x00\n        /* \"#utility.yul\":4890:4893   */\n      0x80\n        /* \"#utility.yul\":4879:4888   */\n      dup3\n        /* \"#utility.yul\":4875:4894   */\n      add\n        /* \"#utility.yul\":4867:4894   */\n      swap1\n      pop\n        /* \"#utility.yul\":4904:4985   */\n      tag_401\n        /* \"#utility.yul\":4982:4983   */\n      0x00\n        /* \"#utility.yul\":4971:4980   */\n      dup4\n        /* \"#utility.yul\":4967:4984   */\n      add\n        /* \"#utility.yul\":4958:4964   */\n      dup8\n        /* \"#utility.yul\":4904:4985   */\n      tag_294\n      jump\t// in\n    tag_401:\n        /* \"#utility.yul\":4995:5067   */\n      tag_402\n        /* \"#utility.yul\":5063:5065   */\n      0x20\n        /* \"#utility.yul\":5052:5061   */\n      dup4\n        /* \"#utility.yul\":5048:5066   */\n      add\n        /* \"#utility.yul\":5039:5045   */\n      dup7\n        /* \"#utility.yul\":4995:5067   */\n      tag_296\n      jump\t// in\n    tag_402:\n        /* \"#utility.yul\":5077:5149   */\n      tag_403\n        /* \"#utility.yul\":5145:5147   */\n      0x40\n        /* \"#utility.yul\":5134:5143   */\n      dup4\n        /* \"#utility.yul\":5130:5148   */\n      add\n        /* \"#utility.yul\":5121:5127   */\n      dup6\n        /* \"#utility.yul\":5077:5149   */\n      tag_296\n      jump\t// in\n    tag_403:\n        /* \"#utility.yul\":5159:5225   */\n      tag_404\n        /* \"#utility.yul\":5221:5223   */\n      0x60\n        /* \"#utility.yul\":5210:5219   */\n      dup4\n        /* \"#utility.yul\":5206:5224   */\n      add\n        /* \"#utility.yul\":5197:5203   */\n      dup5\n        /* \"#utility.yul\":5159:5225   */\n      tag_298\n      jump\t// in\n    tag_404:\n        /* \"#utility.yul\":4671:5232   */\n      swap6\n      swap5\n      pop\n      pop\n      pop\n      pop\n      pop\n      jump\t// out\n        /* \"#utility.yul\":5238:5356   */\n    tag_306:\n        /* \"#utility.yul\":5325:5349   */\n      tag_406\n        /* \"#utility.yul\":5343:5348   */\n      dup2\n        /* \"#utility.yul\":5325:5349   */\n      tag_288\n      jump\t// in\n    tag_406:\n        /* \"#utility.yul\":5320:5323   */\n      dup3\n        /* \"#utility.yul\":5313:5350   */\n      mstore\n        /* \"#utility.yul\":5238:5356   */\n      pop\n      pop\n      jump\t// out\n        /* \"#utility.yul\":5362:5584   */\n    tag_54:\n        /* \"#utility.yul\":5455:5459   */\n      0x00\n        /* \"#utility.yul\":5493:5495   */\n      0x20\n        /* \"#utility.yul\":5482:5491   */\n      dup3\n        /* \"#utility.yul\":5478:5496   */\n      add\n        /* \"#utility.yul\":5470:5496   */\n      swap1\n      pop\n        /* \"#utility.yul\":5506:5577   */\n      tag_408\n        /* \"#utility.yul\":5574:5575   */\n      0x00\n        /* \"#utility.yul\":5563:5572   */\n      dup4\n        /* \"#utility.yul\":5559:5576   */\n      add\n        /* \"#utility.yul\":5550:5556   */\n      dup5\n        /* \"#utility.yul\":5506:5577   */\n      tag_306\n      jump\t// in\n    tag_408:\n        /* \"#utility.yul\":5362:5584   */\n      swap3\n      swap2\n      pop\n      pop\n      jump\t// out\n        /* \"#utility.yul\":5590:5712   */\n    tag_307:\n        /* \"#utility.yul\":5663:5687   */\n      tag_410\n        /* \"#utility.yul\":5681:5686   */\n      dup2\n        /* \"#utility.yul\":5663:5687   */\n      tag_295\n      jump\t// in\n    tag_410:\n        /* \"#utility.yul\":5656:5661   */\n      dup2\n        /* \"#utility.yul\":5653:5688   */\n      eq\n        /* \"#utility.yul\":5643:5706   */\n      tag_411\n      jumpi\n        /* \"#utility.yul\":5702:5703   */\n      0x00\n        /* \"#utility.yul\":5699:5700   */\n      0x00\n        /* \"#utility.yul\":5692:5704   */\n      revert\n        /* \"#utility.yul\":5643:5706   */\n    tag_411:\n        /* \"#utility.yul\":5590:5712   */\n      pop\n      jump\t// out\n        /* \"#utility.yul\":5718:5857   */\n    tag_308:\n        /* \"#utility.yul\":5764:5769   */\n      0x00\n        /* \"#utility.yul\":5802:5808   */\n      dup2\n        /* \"#utility.yul\":5789:5809   */\n      calldataload\n        /* \"#utility.yul\":5780:5809   */\n      swap1\n      pop\n        /* \"#utility.yul\":5818:5851   */\n      tag_413\n        /* \"#utility.yul\":5845:5850   */\n      dup2\n        /* \"#utility.yul\":5818:5851   */\n      tag_307\n      jump\t// in\n    tag_413:\n        /* \"#utility.yul\":5718:5857   */\n      swap3\n      swap2\n      pop\n      pop\n      jump\t// out\n        /* \"#utility.yul\":5863:6506   */\n    tag_57:\n        /* \"#utility.yul\":5952:5958   */\n      0x00\n        /* \"#utility.yul\":5960:5966   */\n      0x00\n        /* \"#utility.yul\":5968:5974   */\n      0x00\n        /* \"#utility.yul\":6017:6019   */\n      0x60\n        /* \"#utility.yul\":6005:6014   */\n      dup5\n        /* \"#utility.yul\":5996:6003   */\n      dup7\n        /* \"#utility.yul\":5992:6015   */\n      sub\n        /* \"#utility.yul\":5988:6020   */\n      slt\n        /* \"#utility.yul\":5985:6104   */\n      iszero\n      tag_415\n      jumpi\n        /* \"#utility.yul\":6023:6102   */\n      tag_416\n      tag_285\n      jump\t// in\n    tag_416:\n        /* \"#utility.yul\":5985:6104   */\n    tag_415:\n        /* \"#utility.yul\":6143:6144   */\n      0x00\n        /* \"#utility.yul\":6168:6221   */\n      tag_417\n        /* \"#utility.yul\":6213:6220   */\n      dup7\n        /* \"#utility.yul\":6204:6210   */\n      dup3\n        /* \"#utility.yul\":6193:6202   */\n      dup8\n        /* \"#utility.yul\":6189:6211   */\n      add\n        /* \"#utility.yul\":6168:6221   */\n      tag_290\n      jump\t// in\n    tag_417:\n        /* \"#utility.yul\":6158:6221   */\n      swap4\n      pop\n        /* \"#utility.yul\":6114:6231   */\n      pop\n        /* \"#utility.yul\":6270:6272   */\n      0x20\n        /* \"#utility.yul\":6296:6361   */\n      tag_418\n        /* \"#utility.yul\":6353:6360   */\n      dup7\n        /* \"#utility.yul\":6344:6350   */\n      dup3\n        /* \"#utility.yul\":6333:6342   */\n      dup8\n        /* \"#utility.yul\":6329:6351   */\n      add\n        /* \"#utility.yul\":6296:6361   */\n      tag_305\n      jump\t// in\n    tag_418:\n        /* \"#utility.yul\":6286:6361   */\n      swap3\n      pop\n        /* \"#utility.yul\":6241:6371   */\n      pop\n        /* \"#utility.yul\":6410:6412   */\n      0x40\n        /* \"#utility.yul\":6436:6489   */\n      tag_419\n        /* \"#utility.yul\":6481:6488   */\n      dup7\n        /* \"#utility.yul\":6472:6478   */\n      dup3\n        /* \"#utility.yul\":6461:6470   */\n      dup8\n        /* \"#utility.yul\":6457:6479   */\n      add\n        /* \"#utility.yul\":6436:6489   */\n      tag_308\n      jump\t// in\n    tag_419:\n        /* \"#utility.yul\":6426:6489   */\n      swap2\n      pop\n        /* \"#utility.yul\":6381:6499   */\n      pop\n        /* \"#utility.yul\":5863:6506   */\n      swap3\n      pop\n      swap3\n      pop\n      swap3\n      jump\t// out\n        /* \"#utility.yul\":6512:6628   */\n    tag_309:\n        /* \"#utility.yul\":6582:6603   */\n      tag_421\n        /* \"#utility.yul\":6597:6602   */\n      dup2\n        /* \"#utility.yul\":6582:6603   */\n      tag_297\n      jump\t// in\n    tag_421:\n        /* \"#utility.yul\":6575:6580   */\n      dup2\n        /* \"#utility.yul\":6572:6604   */\n      eq\n        /* \"#utility.yul\":6562:6622   */\n      tag_422\n      jumpi\n        /* \"#utility.yul\":6618:6619   */\n      0x00\n        /* \"#utility.yul\":6615:6616   */\n      0x00\n        /* \"#utility.yul\":6608:6620   */\n      revert\n        /* \"#utility.yul\":6562:6622   */\n    tag_422:\n        /* \"#utility.yul\":6512:6628   */\n      pop\n      jump\t// out\n        /* \"#utility.yul\":6634:6767   */\n    tag_310:\n        /* \"#utility.yul\":6677:6682   */\n      0x00\n        /* \"#utility.yul\":6715:6721   */\n      dup2\n        /* \"#utility.yul\":6702:6722   */\n      calldataload\n        /* \"#utility.yul\":6693:6722   */\n      swap1\n      pop\n        /* \"#utility.yul\":6731:6761   */\n      tag_424\n        /* \"#utility.yul\":6755:6760   */\n      dup2\n        /* \"#utility.yul\":6731:6761   */\n      tag_309\n      jump\t// in\n    tag_424:\n        /* \"#utility.yul\":6634:6767   */\n      swap3\n      swap2\n      pop\n      pop\n      jump\t// out\n        /* \"#utility.yul\":6773:7556   */\n    tag_67:\n        /* \"#utility.yul\":6868:6874   */\n      0x00\n        /* \"#utility.yul\":6876:6882   */\n      0x00\n        /* \"#utility.yul\":6884:6890   */\n      0x00\n        /* \"#utility.yul\":6892:6898   */\n      0x00\n        /* \"#utility.yul\":6941:6944   */\n      0x80\n        /* \"#utility.yul\":6929:6938   */\n      dup6\n        /* \"#utility.yul\":6920:6927   */\n      dup8\n        /* \"#utility.yul\":6916:6939   */\n      sub\n        /* \"#utility.yul\":6912:6945   */\n      slt\n        /* \"#utility.yul\":6909:7029   */\n      iszero\n      tag_426\n      jumpi\n        /* \"#utility.yul\":6948:7027   */\n      tag_427\n      tag_285\n      jump\t// in\n    tag_427:\n        /* \"#utility.yul\":6909:7029   */\n    tag_426:\n        /* \"#utility.yul\":7068:7069   */\n      0x00\n        /* \"#utility.yul\":7093:7158   */\n      tag_428\n        /* \"#utility.yul\":7150:7157   */\n      dup8\n        /* \"#utility.yul\":7141:7147   */\n      dup3\n        /* \"#utility.yul\":7130:7139   */\n      dup9\n        /* \"#utility.yul\":7126:7148   */\n      add\n        /* \"#utility.yul\":7093:7158   */\n      tag_305\n      jump\t// in\n    tag_428:\n        /* \"#utility.yul\":7083:7158   */\n      swap5\n      pop\n        /* \"#utility.yul\":7039:7168   */\n      pop\n        /* \"#utility.yul\":7207:7209   */\n      0x20\n        /* \"#utility.yul\":7233:7286   */\n      tag_429\n        /* \"#utility.yul\":7278:7285   */\n      dup8\n        /* \"#utility.yul\":7269:7275   */\n      dup3\n        /* \"#utility.yul\":7258:7267   */\n      dup9\n        /* \"#utility.yul\":7254:7276   */\n      add\n        /* \"#utility.yul\":7233:7286   */\n      tag_308\n      jump\t// in\n    tag_429:\n        /* \"#utility.yul\":7223:7286   */\n      swap4\n      pop\n        /* \"#utility.yul\":7178:7296   */\n      pop\n        /* \"#utility.yul\":7335:7337   */\n      0x40\n        /* \"#utility.yul\":7361:7414   */\n      tag_430\n        /* \"#utility.yul\":7406:7413   */\n      dup8\n        /* \"#utility.yul\":7397:7403   */\n      dup3\n        /* \"#utility.yul\":7386:7395   */\n      dup9\n        /* \"#utility.yul\":7382:7404   */\n      add\n        /* \"#utility.yul\":7361:7414   */\n      tag_308\n      jump\t// in\n    tag_430:\n        /* \"#utility.yul\":7351:7414   */\n      swap3\n      pop\n        /* \"#utility.yul\":7306:7424   */\n      pop\n        /* \"#utility.yul\":7463:7465   */\n      0x60\n        /* \"#utility.yul\":7489:7539   */\n      tag_431\n        /* \"#utility.yul\":7531:7538   */\n      dup8\n        /* \"#utility.yul\":7522:7528   */\n      dup3\n        /* \"#utility.yul\":7511:7520   */\n      dup9\n        /* \"#utility.yul\":7507:7529   */\n      add\n        /* \"#utility.yul\":7489:7539   */\n      tag_310\n      jump\t// in\n    tag_431:\n        /* \"#utility.yul\":7479:7539   */\n      swap2\n      pop\n        /* \"#utility.yul\":7434:7549   */\n      pop\n        /* \"#utility.yul\":6773:7556   */\n      swap3\n      swap6\n      swap2\n      swap5\n      pop\n      swap3\n      pop\n      jump\t// out\n        /* \"#utility.yul\":7562:7992   */\n    tag_82:\n        /* \"#utility.yul\":7705:7709   */\n      0x00\n        /* \"#utility.yul\":7743:7745   */\n      0x60\n        /* \"#utility.yul\":7732:7741   */\n      dup3\n        /* \"#utility.yul\":7728:7746   */\n      add\n        /* \"#utility.yul\":7720:7746   */\n      swap1\n      pop\n        /* \"#utility.yul\":7756:7827   */\n      tag_433\n        /* \"#utility.yul\":7824:7825   */\n      0x00\n        /* \"#utility.yul\":7813:7822   */\n      dup4\n        /* \"#utility.yul\":7809:7826   */\n      add\n        /* \"#utility.yul\":7800:7806   */\n      dup7\n        /* \"#utility.yul\":7756:7827   */\n      tag_296\n      jump\t// in\n    tag_433:\n        /* \"#utility.yul\":7837:7909   */\n      tag_434\n        /* \"#utility.yul\":7905:7907   */\n      0x20\n        /* \"#utility.yul\":7894:7903   */\n      dup4\n        /* \"#utility.yul\":7890:7908   */\n      add\n        /* \"#utility.yul\":7881:7887   */\n      dup6\n        /* \"#utility.yul\":7837:7909   */\n      tag_296\n      jump\t// in\n    tag_434:\n        /* \"#utility.yul\":7919:7985   */\n      tag_435\n        /* \"#utility.yul\":7981:7983   */\n      0x40\n        /* \"#utility.yul\":7970:7979   */\n      dup4\n        /* \"#utility.yul\":7966:7984   */\n      add\n        /* \"#utility.yul\":7957:7963   */\n      dup5\n        /* \"#utility.yul\":7919:7985   */\n      tag_298\n      jump\t// in\n    tag_435:\n        /* \"#utility.yul\":7562:7992   */\n      swap5\n      swap4\n      pop\n      pop\n      pop\n      pop\n      jump\t// out\n        /* \"#utility.yul\":7998:8448   */\n    tag_87:\n        /* \"#utility.yul\":8151:8155   */\n      0x00\n        /* \"#utility.yul\":8189:8191   */\n      0x60\n        /* \"#utility.yul\":8178:8187   */\n      dup3\n        /* \"#utility.yul\":8174:8192   */\n      add\n        /* \"#utility.yul\":8166:8192   */\n      swap1\n      pop\n        /* \"#utility.yul\":8202:8283   */\n      tag_437\n        /* \"#utility.yul\":8280:8281   */\n      0x00\n        /* \"#utility.yul\":8269:8278   */\n      dup4\n        /* \"#utility.yul\":8265:8282   */\n      add\n        /* \"#utility.yul\":8256:8262   */\n      dup7\n        /* \"#utility.yul\":8202:8283   */\n      tag_294\n      jump\t// in\n    tag_437:\n        /* \"#utility.yul\":8293:8365   */\n      tag_438\n        /* \"#utility.yul\":8361:8363   */\n      0x20\n        /* \"#utility.yul\":8350:8359   */\n      dup4\n        /* \"#utility.yul\":8346:8364   */\n      add\n        /* \"#utility.yul\":8337:8343   */\n      dup6\n        /* \"#utility.yul\":8293:8365   */\n      tag_296\n      jump\t// in\n    tag_438:\n        /* \"#utility.yul\":8375:8441   */\n      tag_439\n        /* \"#utility.yul\":8437:8439   */\n      0x40\n        /* \"#utility.yul\":8426:8435   */\n      dup4\n        /* \"#utility.yul\":8422:8440   */\n      add\n        /* \"#utility.yul\":8413:8419   */\n      dup5\n        /* \"#utility.yul\":8375:8441   */\n      tag_298\n      jump\t// in\n    tag_439:\n        /* \"#utility.yul\":7998:8448   */\n      swap5\n      swap4\n      pop\n      pop\n      pop\n      pop\n      jump\t// out\n        /* \"#utility.yul\":8454:8623   */\n    tag_311:\n        /* \"#utility.yul\":8538:8549   */\n      0x00\n        /* \"#utility.yul\":8572:8578   */\n      dup3\n        /* \"#utility.yul\":8567:8570   */\n      dup3\n        /* \"#utility.yul\":8560:8579   */\n      mstore\n        /* \"#utility.yul\":8612:8616   */\n      0x20\n        /* \"#utility.yul\":8607:8610   */\n      dup3\n        /* \"#utility.yul\":8603:8617   */\n      add\n        /* \"#utility.yul\":8588:8617   */\n      swap1\n      pop\n        /* \"#utility.yul\":8454:8623   */\n      swap3\n      swap2\n      pop\n      pop\n      jump\t// out\n        /* \"#utility.yul\":8629:8799   */\n    tag_312:\n        /* \"#utility.yul\":8769:8791   */\n      0x55736572206973206f6e206672656520706c616e000000000000000000000000\n        /* \"#utility.yul\":8765:8766   */\n      0x00\n        /* \"#utility.yul\":8757:8763   */\n      dup3\n        /* \"#utility.yul\":8753:8767   */\n      add\n        /* \"#utility.yul\":8746:8792   */\n      mstore\n        /* \"#utility.yul\":8629:8799   */\n      pop\n      jump\t// out\n        /* \"#utility.yul\":8805:9171   */\n    tag_313:\n        /* \"#utility.yul\":8947:8950   */\n      0x00\n        /* \"#utility.yul\":8968:9035   */\n      tag_443\n        /* \"#utility.yul\":9032:9034   */\n      0x14\n        /* \"#utility.yul\":9027:9030   */\n      dup4\n        /* \"#utility.yul\":8968:9035   */\n      tag_311\n      jump\t// in\n    tag_443:\n        /* \"#utility.yul\":8961:9035   */\n      swap2\n      pop\n        /* \"#utility.yul\":9044:9137   */\n      tag_444\n        /* \"#utility.yul\":9133:9136   */\n      dup3\n        /* \"#utility.yul\":9044:9137   */\n      tag_312\n      jump\t// in\n    tag_444:\n        /* \"#utility.yul\":9162:9164   */\n      0x20\n        /* \"#utility.yul\":9157:9160   */\n      dup3\n        /* \"#utility.yul\":9153:9165   */\n      add\n        /* \"#utility.yul\":9146:9165   */\n      swap1\n      pop\n        /* \"#utility.yul\":8805:9171   */\n      swap2\n      swap1\n      pop\n      jump\t// out\n        /* \"#utility.yul\":9177:9596   */\n    tag_118:\n        /* \"#utility.yul\":9343:9347   */\n      0x00\n        /* \"#utility.yul\":9381:9383   */\n      0x20\n        /* \"#utility.yul\":9370:9379   */\n      dup3\n        /* \"#utility.yul\":9366:9384   */\n      add\n        /* \"#utility.yul\":9358:9384   */\n      swap1\n      pop\n        /* \"#utility.yul\":9430:9439   */\n      dup2\n        /* \"#utility.yul\":9424:9428   */\n      dup2\n        /* \"#utility.yul\":9420:9440   */\n      sub\n        /* \"#utility.yul\":9416:9417   */\n      0x00\n        /* \"#utility.yul\":9405:9414   */\n      dup4\n        /* \"#utility.yul\":9401:9418   */\n      add\n        /* \"#utility.yul\":9394:9441   */\n      mstore\n        /* \"#utility.yul\":9458:9589   */\n      tag_446\n        /* \"#utility.yul\":9584:9588   */\n      dup2\n        /* \"#utility.yul\":9458:9589   */\n      tag_313\n      jump\t// in\n    tag_446:\n        /* \"#utility.yul\":9450:9589   */\n      swap1\n      pop\n        /* \"#utility.yul\":9177:9596   */\n      swap2\n      swap1\n      pop\n      jump\t// out\n        /* \"#utility.yul\":9602:9777   */\n    tag_314:\n        /* \"#utility.yul\":9742:9769   */\n      0x537562736372697074696f6e207374696c6c2061637469766500000000000000\n        /* \"#utility.yul\":9738:9739   */\n      0x00\n        /* \"#utility.yul\":9730:9736   */\n      dup3\n        /* \"#utility.yul\":9726:9740   */\n      add\n        /* \"#utility.yul\":9719:9770   */\n      mstore\n        /* \"#utility.yul\":9602:9777   */\n      pop\n      jump\t// out\n        /* \"#utility.yul\":9783:10149   */\n    tag_315:\n        /* \"#utility.yul\":9925:9928   */\n      0x00\n        /* \"#utility.yul\":9946:10013   */\n      tag_449\n        /* \"#utility.yul\":10010:10012   */\n      0x19\n        /* \"#utility.yul\":10005:10008   */\n      dup4\n        /* \"#utility.yul\":9946:10013   */\n      tag_311\n      jump\t// in\n    tag_449:\n        /* \"#utility.yul\":9939:10013   */\n      swap2\n      pop\n        /* \"#utility.yul\":10022:10115   */\n      tag_450\n        /* \"#utility.yul\":10111:10114   */\n      dup3\n        /* \"#utility.yul\":10022:10115   */\n      tag_314\n      jump\t// in\n    tag_450:\n        /* \"#utility.yul\":10140:10142   */\n      0x20\n        /* \"#utility.yul\":10135:10138   */\n      dup3\n        /* \"#utility.yul\":10131:10143   */\n      add\n        /* \"#utility.yul\":10124:10143   */\n      swap1\n      pop\n        /* \"#utility.yul\":9783:10149   */\n      swap2\n      swap1\n      pop\n      jump\t// out\n        /* \"#utility.yul\":10155:10574   */\n    tag_121:\n        /* \"#utility.yul\":10321:10325   */\n      0x00\n        /* \"#utility.yul\":10359:10361   */\n      0x20\n        /* \"#utility.yul\":10348:10357   */\n      dup3\n        /* \"#utility.yul\":10344:10362   */\n      add\n        /* \"#utility.yul\":10336:10362   */\n      swap1\n      pop\n        /* \"#utility.yul\":10408:10417   */\n      dup2\n        /* \"#utility.yul\":10402:10406   */\n      dup2\n        /* \"#utility.yul\":10398:10418   */\n      sub\n        /* \"#utility.yul\":10394:10395   */\n      0x00\n        /* \"#utility.yul\":10383:10392   */\n      dup4\n        /* \"#utility.yul\":10379:10396   */\n      add\n        /* \"#utility.yul\":10372:10419   */\n      mstore\n        /* \"#utility.yul\":10436:10567   */\n      tag_452\n        /* \"#utility.yul\":10562:10566   */\n      dup2\n        /* \"#utility.yul\":10436:10567   */\n      tag_315\n      jump\t// in\n    tag_452:\n        /* \"#utility.yul\":10428:10567   */\n      swap1\n      pop\n        /* \"#utility.yul\":10155:10574   */\n      swap2\n      swap1\n      pop\n      jump\t// out\n        /* \"#utility.yul\":10580:10752   */\n    tag_316:\n        /* \"#utility.yul\":10720:10744   */\n      0x41636365737320616c7265616479207265766f6b656400000000000000000000\n        /* \"#utility.yul\":10716:10717   */\n      0x00\n        /* \"#utility.yul\":10708:10714   */\n      dup3\n        /* \"#utility.yul\":10704:10718   */\n      add\n        /* \"#utility.yul\":10697:10745   */\n      mstore\n        /* \"#utility.yul\":10580:10752   */\n      pop\n      jump\t// out\n        /* \"#utility.yul\":10758:11124   */\n    tag_317:\n        /* \"#utility.yul\":10900:10903   */\n      0x00\n        /* \"#utility.yul\":10921:10988   */\n      tag_455\n        /* \"#utility.yul\":10985:10987   */\n      0x16\n        /* \"#utility.yul\":10980:10983   */\n      dup4\n        /* \"#utility.yul\":10921:10988   */\n      tag_311\n      jump\t// in\n    tag_455:\n        /* \"#utility.yul\":10914:10988   */\n      swap2\n      pop\n        /* \"#utility.yul\":10997:11090   */\n      tag_456\n        /* \"#utility.yul\":11086:11089   */\n      dup3\n        /* \"#utility.yul\":10997:11090   */\n      tag_316\n      jump\t// in\n    tag_456:\n        /* \"#utility.yul\":11115:11117   */\n      0x20\n        /* \"#utility.yul\":11110:11113   */\n      dup3\n        /* \"#utility.yul\":11106:11118   */\n      add\n        /* \"#utility.yul\":11099:11118   */\n      swap1\n      pop\n        /* \"#utility.yul\":10758:11124   */\n      swap2\n      swap1\n      pop\n      jump\t// out\n        /* \"#utility.yul\":11130:11549   */\n    tag_124:\n        /* \"#utility.yul\":11296:11300   */\n      0x00\n        /* \"#utility.yul\":11334:11336   */\n      0x20\n        /* \"#utility.yul\":11323:11332   */\n      dup3\n        /* \"#utility.yul\":11319:11337   */\n      add\n        /* \"#utility.yul\":11311:11337   */\n      swap1\n      pop\n        /* \"#utility.yul\":11383:11392   */\n      dup2\n        /* \"#utility.yul\":11377:11381   */\n      dup2\n        /* \"#utility.yul\":11373:11393   */\n      sub\n        /* \"#utility.yul\":11369:11370   */\n      0x00\n        /* \"#utility.yul\":11358:11367   */\n      dup4\n        /* \"#utility.yul\":11354:11371   */\n      add\n        /* \"#utility.yul\":11347:11394   */\n      mstore\n        /* \"#utility.yul\":11411:11542   */\n      tag_458\n        /* \"#utility.yul\":11537:11541   */\n      dup2\n        /* \"#utility.yul\":11411:11542   */\n      tag_317\n      jump\t// in\n    tag_458:\n        /* \"#utility.yul\":11403:11542   */\n      swap1\n      pop\n        /* \"#utility.yul\":11130:11549   */\n      swap2\n      swap1\n      pop\n      jump\t// out\n        /* \"#utility.yul\":11555:11797   */\n    tag_128:\n        /* \"#utility.yul\":11658:11662   */\n      0x00\n        /* \"#utility.yul\":11696:11698   */\n      0x20\n        /* \"#utility.yul\":11685:11694   */\n      dup3\n        /* \"#utility.yul\":11681:11699   */\n      add\n        /* \"#utility.yul\":11673:11699   */\n      swap1\n      pop\n        /* \"#utility.yul\":11709:11790   */\n      tag_460\n        /* \"#utility.yul\":11787:11788   */\n      0x00\n        /* \"#utility.yul\":11776:11785   */\n      dup4\n        /* \"#utility.yul\":11772:11789   */\n      add\n        /* \"#utility.yul\":11763:11769   */\n      dup5\n        /* \"#utility.yul\":11709:11790   */\n      tag_294\n      jump\t// in\n    tag_460:\n        /* \"#utility.yul\":11555:11797   */\n      swap3\n      swap2\n      pop\n      pop\n      jump\t// out\n        /* \"#utility.yul\":11803:11974   */\n    tag_318:\n        /* \"#utility.yul\":11943:11966   */\n      0x496e76616c6964206f776e657220616464726573730000000000000000000000\n        /* \"#utility.yul\":11939:11940   */\n      0x00\n        /* \"#utility.yul\":11931:11937   */\n      dup3\n        /* \"#utility.yul\":11927:11941   */\n      add\n        /* \"#utility.yul\":11920:11967   */\n      mstore\n        /* \"#utility.yul\":11803:11974   */\n      pop\n      jump\t// out\n        /* \"#utility.yul\":11980:12346   */\n    tag_319:\n        /* \"#utility.yul\":12122:12125   */\n      0x00\n        /* \"#utility.yul\":12143:12210   */\n      tag_463\n        /* \"#utility.yul\":12207:12209   */\n      0x15\n        /* \"#utility.yul\":12202:12205   */\n      dup4\n        /* \"#utility.yul\":12143:12210   */\n      tag_311\n      jump\t// in\n    tag_463:\n        /* \"#utility.yul\":12136:12210   */\n      swap2\n      pop\n        /* \"#utility.yul\":12219:12312   */\n      tag_464\n        /* \"#utility.yul\":12308:12311   */\n      dup3\n        /* \"#utility.yul\":12219:12312   */\n      tag_318\n      jump\t// in\n    tag_464:\n        /* \"#utility.yul\":12337:12339   */\n      0x20\n        /* \"#utility.yul\":12332:12335   */\n      dup3\n        /* \"#utility.yul\":12328:12340   */\n      add\n        /* \"#utility.yul\":12321:12340   */\n      swap1\n      pop\n        /* \"#utility.yul\":11980:12346   */\n      swap2\n      swap1\n      pop\n      jump\t// out\n        /* \"#utility.yul\":12352:12771   */\n    tag_132:\n        /* \"#utility.yul\":12518:12522   */\n      0x00\n        /* \"#utility.yul\":12556:12558   */\n      0x20\n        /* \"#utility.yul\":12545:12554   */\n      dup3\n        /* \"#utility.yul\":12541:12559   */\n      add\n        /* \"#utility.yul\":12533:12559   */\n      swap1\n      pop\n        /* \"#utility.yul\":12605:12614   */\n      dup2\n        /* \"#utility.yul\":12599:12603   */\n      dup2\n        /* \"#utility.yul\":12595:12615   */\n      sub\n        /* \"#utility.yul\":12591:12592   */\n      0x00\n        /* \"#utility.yul\":12580:12589   */\n      dup4\n        /* \"#utility.yul\":12576:12593   */\n      add\n        /* \"#utility.yul\":12569:12616   */\n      mstore\n        /* \"#utility.yul\":12633:12764   */\n      tag_466\n        /* \"#utility.yul\":12759:12763   */\n      dup2\n        /* \"#utility.yul\":12633:12764   */\n      tag_319\n      jump\t// in\n    tag_466:\n        /* \"#utility.yul\":12625:12764   */\n      swap1\n      pop\n        /* \"#utility.yul\":12352:12771   */\n      swap2\n      swap1\n      pop\n      jump\t// out\n        /* \"#utility.yul\":12777:12956   */\n    tag_320:\n        /* \"#utility.yul\":12917:12948   */\n      0x4f6e6c7920706169642075736572732063616e20736574206f776e6572000000\n        /* \"#utility.yul\":12913:12914   */\n      0x00\n        /* \"#utility.yul\":12905:12911   */\n      dup3\n        /* \"#utility.yul\":12901:12915   */\n      add\n        /* \"#utility.yul\":12894:12949   */\n      mstore\n        /* \"#utility.yul\":12777:12956   */\n      pop\n      jump\t// out\n        /* \"#utility.yul\":12962:13328   */\n    tag_321:\n        /* \"#utility.yul\":13104:13107   */\n      0x00\n        /* \"#utility.yul\":13125:13192   */\n      tag_469\n        /* \"#utility.yul\":13189:13191   */\n      0x1d\n        /* \"#utility.yul\":13184:13187   */\n      dup4\n        /* \"#utility.yul\":13125:13192   */\n      tag_311\n      jump\t// in\n    tag_469:\n        /* \"#utility.yul\":13118:13192   */\n      swap2\n      pop\n        /* \"#utility.yul\":13201:13294   */\n      tag_470\n        /* \"#utility.yul\":13290:13293   */\n      dup3\n        /* \"#utility.yul\":13201:13294   */\n      tag_320\n      jump\t// in\n    tag_470:\n        /* \"#utility.yul\":13319:13321   */\n      0x20\n        /* \"#utility.yul\":13314:13317   */\n      dup3\n        /* \"#utility.yul\":13310:13322   */\n      add\n        /* \"#utility.yul\":13303:13322   */\n      swap1\n      pop\n        /* \"#utility.yul\":12962:13328   */\n      swap2\n      swap1\n      pop\n      jump\t// out\n        /* \"#utility.yul\":13334:13753   */\n    tag_139:\n        /* \"#utility.yul\":13500:13504   */\n      0x00\n        /* \"#utility.yul\":13538:13540   */\n      0x20\n        /* \"#utility.yul\":13527:13536   */\n      dup3\n        /* \"#utility.yul\":13523:13541   */\n      add\n        /* \"#utility.yul\":13515:13541   */\n      swap1\n      pop\n        /* \"#utility.yul\":13587:13596   */\n      dup2\n        /* \"#utility.yul\":13581:13585   */\n      dup2\n        /* \"#utility.yul\":13577:13597   */\n      sub\n        /* \"#utility.yul\":13573:13574   */\n      0x00\n        /* \"#utility.yul\":13562:13571   */\n      dup4\n        /* \"#utility.yul\":13558:13575   */\n      add\n        /* \"#utility.yul\":13551:13598   */\n      mstore\n        /* \"#utility.yul\":13615:13746   */\n      tag_472\n        /* \"#utility.yul\":13741:13745   */\n      dup2\n        /* \"#utility.yul\":13615:13746   */\n      tag_321\n      jump\t// in\n    tag_472:\n        /* \"#utility.yul\":13607:13746   */\n      swap1\n      pop\n        /* \"#utility.yul\":13334:13753   */\n      swap2\n      swap1\n      pop\n      jump\t// out\n        /* \"#utility.yul\":13759:13929   */\n    tag_322:\n        /* \"#utility.yul\":13899:13921   */\n      0x537562736372697074696f6e2065787069726564000000000000000000000000\n        /* \"#utility.yul\":13895:13896   */\n      0x00\n        /* \"#utility.yul\":13887:13893   */\n      dup3\n        /* \"#utility.yul\":13883:13897   */\n      add\n        /* \"#utility.yul\":13876:13922   */\n      mstore\n        /* \"#utility.yul\":13759:13929   */\n      pop\n      jump\t// out\n        /* \"#utility.yul\":13935:14301   */\n    tag_323:\n        /* \"#utility.yul\":14077:14080   */\n      0x00\n        /* \"#utility.yul\":14098:14165   */\n      tag_475\n        /* \"#utility.yul\":14162:14164   */\n      0x14\n        /* \"#utility.yul\":14157:14160   */\n      dup4\n        /* \"#utility.yul\":14098:14165   */\n      tag_311\n      jump\t// in\n    tag_475:\n        /* \"#utility.yul\":14091:14165   */\n      swap2\n      pop\n        /* \"#utility.yul\":14174:14267   */\n      tag_476\n        /* \"#utility.yul\":14263:14266   */\n      dup3\n        /* \"#utility.yul\":14174:14267   */\n      tag_322\n      jump\t// in\n    tag_476:\n        /* \"#utility.yul\":14292:14294   */\n      0x20\n        /* \"#utility.yul\":14287:14290   */\n      dup3\n        /* \"#utility.yul\":14283:14295   */\n      add\n        /* \"#utility.yul\":14276:14295   */\n      swap1\n      pop\n        /* \"#utility.yul\":13935:14301   */\n      swap2\n      swap1\n      pop\n      jump\t// out\n        /* \"#utility.yul\":14307:14726   */\n    tag_142:\n        /* \"#utility.yul\":14473:14477   */\n      0x00\n        /* \"#utility.yul\":14511:14513   */\n      0x20\n        /* \"#utility.yul\":14500:14509   */\n      dup3\n        /* \"#utility.yul\":14496:14514   */\n      add\n        /* \"#utility.yul\":14488:14514   */\n      swap1\n      pop\n        /* \"#utility.yul\":14560:14569   */\n      dup2\n        /* \"#utility.yul\":14554:14558   */\n      dup2\n        /* \"#utility.yul\":14550:14570   */\n      sub\n        /* \"#utility.yul\":14546:14547   */\n      0x00\n        /* \"#utility.yul\":14535:14544   */\n      dup4\n        /* \"#utility.yul\":14531:14548   */\n      add\n        /* \"#utility.yul\":14524:14571   */\n      mstore\n        /* \"#utility.yul\":14588:14719   */\n      tag_478\n        /* \"#utility.yul\":14714:14718   */\n      dup2\n        /* \"#utility.yul\":14588:14719   */\n      tag_323\n      jump\t// in\n    tag_478:\n        /* \"#utility.yul\":14580:14719   */\n      swap1\n      pop\n        /* \"#utility.yul\":14307:14726   */\n      swap2\n      swap1\n      pop\n      jump\t// out\n        /* \"#utility.yul\":14732:14904   */\n    tag_324:\n        /* \"#utility.yul\":14872:14896   */\n      0x43616e6e6f74206772616e74206672656520706c616e00000000000000000000\n        /* \"#utility.yul\":14868:14869   */\n      0x00\n        /* \"#utility.yul\":14860:14866   */\n      dup3\n        /* \"#utility.yul\":14856:14870   */\n      add\n        /* \"#utility.yul\":14849:14897   */\n      mstore\n        /* \"#utility.yul\":14732:14904   */\n      pop\n      jump\t// out\n        /* \"#utility.yul\":14910:15276   */\n    tag_325:\n        /* \"#utility.yul\":15052:15055   */\n      0x00\n        /* \"#utility.yul\":15073:15140   */\n      tag_481\n        /* \"#utility.yul\":15137:15139   */\n      0x16\n        /* \"#utility.yul\":15132:15135   */\n      dup4\n        /* \"#utility.yul\":15073:15140   */\n      tag_311\n      jump\t// in\n    tag_481:\n        /* \"#utility.yul\":15066:15140   */\n      swap2\n      pop\n        /* \"#utility.yul\":15149:15242   */\n      tag_482\n        /* \"#utility.yul\":15238:15241   */\n      dup3\n        /* \"#utility.yul\":15149:15242   */\n      tag_324\n      jump\t// in\n    tag_482:\n        /* \"#utility.yul\":15267:15269   */\n      0x20\n        /* \"#utility.yul\":15262:15265   */\n      dup3\n        /* \"#utility.yul\":15258:15270   */\n      add\n        /* \"#utility.yul\":15251:15270   */\n      swap1\n      pop\n        /* \"#utility.yul\":14910:15276   */\n      swap2\n      swap1\n      pop\n      jump\t// out\n        /* \"#utility.yul\":15282:15701   */\n    tag_164:\n        /* \"#utility.yul\":15448:15452   */\n      0x00\n        /* \"#utility.yul\":15486:15488   */\n      0x20\n        /* \"#utility.yul\":15475:15484   */\n      dup3\n        /* \"#utility.yul\":15471:15489   */\n      add\n        /* \"#utility.yul\":15463:15489   */\n      swap1\n      pop\n        /* \"#utility.yul\":15535:15544   */\n      dup2\n        /* \"#utility.yul\":15529:15533   */\n      dup2\n        /* \"#utility.yul\":15525:15545   */\n      sub\n        /* \"#utility.yul\":15521:15522   */\n      0x00\n        /* \"#utility.yul\":15510:15519   */\n      dup4\n        /* \"#utility.yul\":15506:15523   */\n      add\n        /* \"#utility.yul\":15499:15546   */\n      mstore\n        /* \"#utility.yul\":15563:15694   */\n      tag_484\n        /* \"#utility.yul\":15689:15693   */\n      dup2\n        /* \"#utility.yul\":15563:15694   */\n      tag_325\n      jump\t// in\n    tag_484:\n        /* \"#utility.yul\":15555:15694   */\n      swap1\n      pop\n        /* \"#utility.yul\":15282:15701   */\n      swap2\n      swap1\n      pop\n      jump\t// out\n        /* \"#utility.yul\":15707:15887   */\n    tag_326:\n        /* \"#utility.yul\":15755:15832   */\n      0x4e487b7100000000000000000000000000000000000000000000000000000000\n        /* \"#utility.yul\":15752:15753   */\n      0x00\n        /* \"#utility.yul\":15745:15833   */\n      mstore\n        /* \"#utility.yul\":15852:15856   */\n      0x11\n        /* \"#utility.yul\":15849:15850   */\n      0x04\n        /* \"#utility.yul\":15842:15857   */\n      mstore\n        /* \"#utility.yul\":15876:15880   */\n      0x24\n        /* \"#utility.yul\":15873:15874   */\n      0x00\n        /* \"#utility.yul\":15866:15881   */\n      revert\n        /* \"#utility.yul\":15893:16084   */\n    tag_166:\n        /* \"#utility.yul\":15933:15936   */\n      0x00\n        /* \"#utility.yul\":15952:15972   */\n      tag_487\n        /* \"#utility.yul\":15970:15971   */\n      dup3\n        /* \"#utility.yul\":15952:15972   */\n      tag_295\n      jump\t// in\n    tag_487:\n        /* \"#utility.yul\":15947:15972   */\n      swap2\n      pop\n        /* \"#utility.yul\":15986:16006   */\n      tag_488\n        /* \"#utility.yul\":16004:16005   */\n      dup4\n        /* \"#utility.yul\":15986:16006   */\n      tag_295\n      jump\t// in\n    tag_488:\n        /* \"#utility.yul\":15981:16006   */\n      swap3\n      pop\n        /* \"#utility.yul\":16029:16030   */\n      dup3\n        /* \"#utility.yul\":16026:16027   */\n      dup3\n        /* \"#utility.yul\":16022:16031   */\n      add\n        /* \"#utility.yul\":16015:16031   */\n      swap1\n      pop\n        /* \"#utility.yul\":16050:16053   */\n      dup1\n        /* \"#utility.yul\":16047:16048   */\n      dup3\n        /* \"#utility.yul\":16044:16054   */\n      gt\n        /* \"#utility.yul\":16041:16077   */\n      iszero\n      tag_489\n      jumpi\n        /* \"#utility.yul\":16057:16075   */\n      tag_490\n      tag_326\n      jump\t// in\n    tag_490:\n        /* \"#utility.yul\":16041:16077   */\n    tag_489:\n        /* \"#utility.yul\":15893:16084   */\n      swap3\n      swap2\n      pop\n      pop\n      jump\t// out\n        /* \"#utility.yul\":16090:16442   */\n    tag_171:\n        /* \"#utility.yul\":16221:16225   */\n      0x00\n        /* \"#utility.yul\":16259:16261   */\n      0x40\n        /* \"#utility.yul\":16248:16257   */\n      dup3\n        /* \"#utility.yul\":16244:16262   */\n      add\n        /* \"#utility.yul\":16236:16262   */\n      swap1\n      pop\n        /* \"#utility.yul\":16272:16353   */\n      tag_492\n        /* \"#utility.yul\":16350:16351   */\n      0x00\n        /* \"#utility.yul\":16339:16348   */\n      dup4\n        /* \"#utility.yul\":16335:16352   */\n      add\n        /* \"#utility.yul\":16326:16332   */\n      dup6\n        /* \"#utility.yul\":16272:16353   */\n      tag_294\n      jump\t// in\n    tag_492:\n        /* \"#utility.yul\":16363:16435   */\n      tag_493\n        /* \"#utility.yul\":16431:16433   */\n      0x20\n        /* \"#utility.yul\":16420:16429   */\n      dup4\n        /* \"#utility.yul\":16416:16434   */\n      add\n        /* \"#utility.yul\":16407:16413   */\n      dup5\n        /* \"#utility.yul\":16363:16435   */\n      tag_296\n      jump\t// in\n    tag_493:\n        /* \"#utility.yul\":16090:16442   */\n      swap4\n      swap3\n      pop\n      pop\n      pop\n      jump\t// out\n        /* \"#utility.yul\":16448:16625   */\n    tag_327:\n        /* \"#utility.yul\":16588:16617   */\n      0x4672656520706c616e206d757374206861766520302070726963650000000000\n        /* \"#utility.yul\":16584:16585   */\n      0x00\n        /* \"#utility.yul\":16576:16582   */\n      dup3\n        /* \"#utility.yul\":16572:16586   */\n      add\n        /* \"#utility.yul\":16565:16618   */\n      mstore\n        /* \"#utility.yul\":16448:16625   */\n      pop\n      jump\t// out\n        /* \"#utility.yul\":16631:16997   */\n    tag_328:\n        /* \"#utility.yul\":16773:16776   */\n      0x00\n        /* \"#utility.yul\":16794:16861   */\n      tag_496\n        /* \"#utility.yul\":16858:16860   */\n      0x1b\n        /* \"#utility.yul\":16853:16856   */\n      dup4\n        /* \"#utility.yul\":16794:16861   */\n      tag_311\n      jump\t// in\n    tag_496:\n        /* \"#utility.yul\":16787:16861   */\n      swap2\n      pop\n        /* \"#utility.yul\":16870:16963   */\n      tag_497\n        /* \"#utility.yul\":16959:16962   */\n      dup3\n        /* \"#utility.yul\":16870:16963   */\n      tag_327\n      jump\t// in\n    tag_497:\n        /* \"#utility.yul\":16988:16990   */\n      0x20\n        /* \"#utility.yul\":16983:16986   */\n      dup3\n        /* \"#utility.yul\":16979:16991   */\n      add\n        /* \"#utility.yul\":16972:16991   */\n      swap1\n      pop\n        /* \"#utility.yul\":16631:16997   */\n      swap2\n      swap1\n      pop\n      jump\t// out\n        /* \"#utility.yul\":17003:17422   */\n    tag_187:\n        /* \"#utility.yul\":17169:17173   */\n      0x00\n        /* \"#utility.yul\":17207:17209   */\n      0x20\n        /* \"#utility.yul\":17196:17205   */\n      dup3\n        /* \"#utility.yul\":17192:17210   */\n      add\n        /* \"#utility.yul\":17184:17210   */\n      swap1\n      pop\n        /* \"#utility.yul\":17256:17265   */\n      dup2\n        /* \"#utility.yul\":17250:17254   */\n      dup2\n        /* \"#utility.yul\":17246:17266   */\n      sub\n        /* \"#utility.yul\":17242:17243   */\n      0x00\n        /* \"#utility.yul\":17231:17240   */\n      dup4\n        /* \"#utility.yul\":17227:17244   */\n      add\n        /* \"#utility.yul\":17220:17267   */\n      mstore\n        /* \"#utility.yul\":17284:17415   */\n      tag_499\n        /* \"#utility.yul\":17410:17414   */\n      dup2\n        /* \"#utility.yul\":17284:17415   */\n      tag_328\n      jump\t// in\n    tag_499:\n        /* \"#utility.yul\":17276:17415   */\n      swap1\n      pop\n        /* \"#utility.yul\":17003:17422   */\n      swap2\n      swap1\n      pop\n      jump\t// out\n        /* \"#utility.yul\":17428:17890   */\n    tag_201:\n        /* \"#utility.yul\":17587:17591   */\n      0x00\n        /* \"#utility.yul\":17625:17627   */\n      0x60\n        /* \"#utility.yul\":17614:17623   */\n      dup3\n        /* \"#utility.yul\":17610:17628   */\n      add\n        /* \"#utility.yul\":17602:17628   */\n      swap1\n      pop\n        /* \"#utility.yul\":17638:17719   */\n      tag_501\n        /* \"#utility.yul\":17716:17717   */\n      0x00\n        /* \"#utility.yul\":17705:17714   */\n      dup4\n        /* \"#utility.yul\":17701:17718   */\n      add\n        /* \"#utility.yul\":17692:17698   */\n      dup7\n        /* \"#utility.yul\":17638:17719   */\n      tag_294\n      jump\t// in\n    tag_501:\n        /* \"#utility.yul\":17729:17801   */\n      tag_502\n        /* \"#utility.yul\":17797:17799   */\n      0x20\n        /* \"#utility.yul\":17786:17795   */\n      dup4\n        /* \"#utility.yul\":17782:17800   */\n      add\n        /* \"#utility.yul\":17773:17779   */\n      dup6\n        /* \"#utility.yul\":17729:17801   */\n      tag_296\n      jump\t// in\n    tag_502:\n        /* \"#utility.yul\":17811:17883   */\n      tag_503\n        /* \"#utility.yul\":17879:17881   */\n      0x40\n        /* \"#utility.yul\":17868:17877   */\n      dup4\n        /* \"#utility.yul\":17864:17882   */\n      add\n        /* \"#utility.yul\":17855:17861   */\n      dup5\n        /* \"#utility.yul\":17811:17883   */\n      tag_296\n      jump\t// in\n    tag_503:\n        /* \"#utility.yul\":17428:17890   */\n      swap5\n      swap4\n      pop\n      pop\n      pop\n      pop\n      jump\t// out\n        /* \"#utility.yul\":17896:18070   */\n    tag_329:\n        /* \"#utility.yul\":18036:18062   */\n      0x496e76616c696420747265617375727920616464726573730000000000000000\n        /* \"#utility.yul\":18032:18033   */\n      0x00\n        /* \"#utility.yul\":18024:18030   */\n      dup3\n        /* \"#utility.yul\":18020:18034   */\n      add\n        /* \"#utility.yul\":18013:18063   */\n      mstore\n        /* \"#utility.yul\":17896:18070   */\n      pop\n      jump\t// out\n        /* \"#utility.yul\":18076:18442   */\n    tag_330:\n        /* \"#utility.yul\":18218:18221   */\n      0x00\n        /* \"#utility.yul\":18239:18306   */\n      tag_506\n        /* \"#utility.yul\":18303:18305   */\n      0x18\n        /* \"#utility.yul\":18298:18301   */\n      dup4\n        /* \"#utility.yul\":18239:18306   */\n      tag_311\n      jump\t// in\n    tag_506:\n        /* \"#utility.yul\":18232:18306   */\n      swap2\n      pop\n        /* \"#utility.yul\":18315:18408   */\n      tag_507\n        /* \"#utility.yul\":18404:18407   */\n      dup3\n        /* \"#utility.yul\":18315:18408   */\n      tag_329\n      jump\t// in\n    tag_507:\n        /* \"#utility.yul\":18433:18435   */\n      0x20\n        /* \"#utility.yul\":18428:18431   */\n      dup3\n        /* \"#utility.yul\":18424:18436   */\n      add\n        /* \"#utility.yul\":18417:18436   */\n      swap1\n      pop\n        /* \"#utility.yul\":18076:18442   */\n      swap2\n      swap1\n      pop\n      jump\t// out\n        /* \"#utility.yul\":18448:18867   */\n    tag_207:\n        /* \"#utility.yul\":18614:18618   */\n      0x00\n        /* \"#utility.yul\":18652:18654   */\n      0x20\n        /* \"#utility.yul\":18641:18650   */\n      dup3\n        /* \"#utility.yul\":18637:18655   */\n      add\n        /* \"#utility.yul\":18629:18655   */\n      swap1\n      pop\n        /* \"#utility.yul\":18701:18710   */\n      dup2\n        /* \"#utility.yul\":18695:18699   */\n      dup2\n        /* \"#utility.yul\":18691:18711   */\n      sub\n        /* \"#utility.yul\":18687:18688   */\n      0x00\n        /* \"#utility.yul\":18676:18685   */\n      dup4\n        /* \"#utility.yul\":18672:18689   */\n      add\n        /* \"#utility.yul\":18665:18712   */\n      mstore\n        /* \"#utility.yul\":18729:18860   */\n      tag_509\n        /* \"#utility.yul\":18855:18859   */\n      dup2\n        /* \"#utility.yul\":18729:18860   */\n      tag_330\n      jump\t// in\n    tag_509:\n        /* \"#utility.yul\":18721:18860   */\n      swap1\n      pop\n        /* \"#utility.yul\":18448:18867   */\n      swap2\n      swap1\n      pop\n      jump\t// out\n        /* \"#utility.yul\":18873:19048   */\n    tag_331:\n        /* \"#utility.yul\":19013:19040   */\n      0x43616e6e6f74207075726368617365206672656520706c616e00000000000000\n        /* \"#utility.yul\":19009:19010   */\n      0x00\n        /* \"#utility.yul\":19001:19007   */\n      dup3\n        /* \"#utility.yul\":18997:19011   */\n      add\n        /* \"#utility.yul\":18990:19041   */\n      mstore\n        /* \"#utility.yul\":18873:19048   */\n      pop\n      jump\t// out\n        /* \"#utility.yul\":19054:19420   */\n    tag_332:\n        /* \"#utility.yul\":19196:19199   */\n      0x00\n        /* \"#utility.yul\":19217:19284   */\n      tag_512\n        /* \"#utility.yul\":19281:19283   */\n      0x19\n        /* \"#utility.yul\":19276:19279   */\n      dup4\n        /* \"#utility.yul\":19217:19284   */\n      tag_311\n      jump\t// in\n    tag_512:\n        /* \"#utility.yul\":19210:19284   */\n      swap2\n      pop\n        /* \"#utility.yul\":19293:19386   */\n      tag_513\n        /* \"#utility.yul\":19382:19385   */\n      dup3\n        /* \"#utility.yul\":19293:19386   */\n      tag_331\n      jump\t// in\n    tag_513:\n        /* \"#utility.yul\":19411:19413   */\n      0x20\n        /* \"#utility.yul\":19406:19409   */\n      dup3\n        /* \"#utility.yul\":19402:19414   */\n      add\n        /* \"#utility.yul\":19395:19414   */\n      swap1\n      pop\n        /* \"#utility.yul\":19054:19420   */\n      swap2\n      swap1\n      pop\n      jump\t// out\n        /* \"#utility.yul\":19426:19845   */\n    tag_219:\n        /* \"#utility.yul\":19592:19596   */\n      0x00\n        /* \"#utility.yul\":19630:19632   */\n      0x20\n        /* \"#utility.yul\":19619:19628   */\n      dup3\n        /* \"#utility.yul\":19615:19633   */\n      add\n        /* \"#utility.yul\":19607:19633   */\n      swap1\n      pop\n        /* \"#utility.yul\":19679:19688   */\n      dup2\n        /* \"#utility.yul\":19673:19677   */\n      dup2\n        /* \"#utility.yul\":19669:19689   */\n      sub\n        /* \"#utility.yul\":19665:19666   */\n      0x00\n        /* \"#utility.yul\":19654:19663   */\n      dup4\n        /* \"#utility.yul\":19650:19667   */\n      add\n        /* \"#utility.yul\":19643:19690   */\n      mstore\n        /* \"#utility.yul\":19707:19838   */\n      tag_515\n        /* \"#utility.yul\":19833:19837   */\n      dup2\n        /* \"#utility.yul\":19707:19838   */\n      tag_332\n      jump\t// in\n    tag_515:\n        /* \"#utility.yul\":19699:19838   */\n      swap1\n      pop\n        /* \"#utility.yul\":19426:19845   */\n      swap2\n      swap1\n      pop\n      jump\t// out\n        /* \"#utility.yul\":19851:20016   */\n    tag_333:\n        /* \"#utility.yul\":19991:20008   */\n      0x506c616e206e6f74206163746976650000000000000000000000000000000000\n        /* \"#utility.yul\":19987:19988   */\n      0x00\n        /* \"#utility.yul\":19979:19985   */\n      dup3\n        /* \"#utility.yul\":19975:19989   */\n      add\n        /* \"#utility.yul\":19968:20009   */\n      mstore\n        /* \"#utility.yul\":19851:20016   */\n      pop\n      jump\t// out\n        /* \"#utility.yul\":20022:20388   */\n    tag_334:\n        /* \"#utility.yul\":20164:20167   */\n      0x00\n        /* \"#utility.yul\":20185:20252   */\n      tag_518\n        /* \"#utility.yul\":20249:20251   */\n      0x0f\n        /* \"#utility.yul\":20244:20247   */\n      dup4\n        /* \"#utility.yul\":20185:20252   */\n      tag_311\n      jump\t// in\n    tag_518:\n        /* \"#utility.yul\":20178:20252   */\n      swap2\n      pop\n        /* \"#utility.yul\":20261:20354   */\n      tag_519\n        /* \"#utility.yul\":20350:20353   */\n      dup3\n        /* \"#utility.yul\":20261:20354   */\n      tag_333\n      jump\t// in\n    tag_519:\n        /* \"#utility.yul\":20379:20381   */\n      0x20\n        /* \"#utility.yul\":20374:20377   */\n      dup3\n        /* \"#utility.yul\":20370:20382   */\n      add\n        /* \"#utility.yul\":20363:20382   */\n      swap1\n      pop\n        /* \"#utility.yul\":20022:20388   */\n      swap2\n      swap1\n      pop\n      jump\t// out\n        /* \"#utility.yul\":20394:20813   */\n    tag_226:\n        /* \"#utility.yul\":20560:20564   */\n      0x00\n        /* \"#utility.yul\":20598:20600   */\n      0x20\n        /* \"#utility.yul\":20587:20596   */\n      dup3\n        /* \"#utility.yul\":20583:20601   */\n      add\n        /* \"#utility.yul\":20575:20601   */\n      swap1\n      pop\n        /* \"#utility.yul\":20647:20656   */\n      dup2\n        /* \"#utility.yul\":20641:20645   */\n      dup2\n        /* \"#utility.yul\":20637:20657   */\n      sub\n        /* \"#utility.yul\":20633:20634   */\n      0x00\n        /* \"#utility.yul\":20622:20631   */\n      dup4\n        /* \"#utility.yul\":20618:20635   */\n      add\n        /* \"#utility.yul\":20611:20658   */\n      mstore\n        /* \"#utility.yul\":20675:20806   */\n      tag_521\n        /* \"#utility.yul\":20801:20805   */\n      dup2\n        /* \"#utility.yul\":20675:20806   */\n      tag_334\n      jump\t// in\n    tag_521:\n        /* \"#utility.yul\":20667:20806   */\n      swap1\n      pop\n        /* \"#utility.yul\":20394:20813   */\n      swap2\n      swap1\n      pop\n      jump\t// out\n        /* \"#utility.yul\":20819:21261   */\n    tag_236:\n        /* \"#utility.yul\":20968:20972   */\n      0x00\n        /* \"#utility.yul\":21006:21008   */\n      0x60\n        /* \"#utility.yul\":20995:21004   */\n      dup3\n        /* \"#utility.yul\":20991:21009   */\n      add\n        /* \"#utility.yul\":20983:21009   */\n      swap1\n      pop\n        /* \"#utility.yul\":21019:21090   */\n      tag_523\n        /* \"#utility.yul\":21087:21088   */\n      0x00\n        /* \"#utility.yul\":21076:21085   */\n      dup4\n        /* \"#utility.yul\":21072:21089   */\n      add\n        /* \"#utility.yul\":21063:21069   */\n      dup7\n        /* \"#utility.yul\":21019:21090   */\n      tag_306\n      jump\t// in\n    tag_523:\n        /* \"#utility.yul\":21100:21172   */\n      tag_524\n        /* \"#utility.yul\":21168:21170   */\n      0x20\n        /* \"#utility.yul\":21157:21166   */\n      dup4\n        /* \"#utility.yul\":21153:21171   */\n      add\n        /* \"#utility.yul\":21144:21150   */\n      dup6\n        /* \"#utility.yul\":21100:21172   */\n      tag_306\n      jump\t// in\n    tag_524:\n        /* \"#utility.yul\":21182:21254   */\n      tag_525\n        /* \"#utility.yul\":21250:21252   */\n      0x40\n        /* \"#utility.yul\":21239:21248   */\n      dup4\n        /* \"#utility.yul\":21235:21253   */\n      add\n        /* \"#utility.yul\":21226:21232   */\n      dup5\n        /* \"#utility.yul\":21182:21254   */\n      tag_296\n      jump\t// in\n    tag_525:\n        /* \"#utility.yul\":20819:21261   */\n      swap5\n      swap4\n      pop\n      pop\n      pop\n      pop\n      jump\t// out\n        /* \"#utility.yul\":21267:21404   */\n    tag_335:\n        /* \"#utility.yul\":21321:21326   */\n      0x00\n        /* \"#utility.yul\":21352:21358   */\n      dup2\n        /* \"#utility.yul\":21346:21359   */\n      mload\n        /* \"#utility.yul\":21337:21359   */\n      swap1\n      pop\n        /* \"#utility.yul\":21368:21398   */\n      tag_527\n        /* \"#utility.yul\":21392:21397   */\n      dup2\n        /* \"#utility.yul\":21368:21398   */\n      tag_309\n      jump\t// in\n    tag_527:\n        /* \"#utility.yul\":21267:21404   */\n      swap3\n      swap2\n      pop\n      pop\n      jump\t// out\n        /* \"#utility.yul\":21410:21755   */\n    tag_240:\n        /* \"#utility.yul\":21477:21483   */\n      0x00\n        /* \"#utility.yul\":21526:21528   */\n      0x20\n        /* \"#utility.yul\":21514:21523   */\n      dup3\n        /* \"#utility.yul\":21505:21512   */\n      dup5\n        /* \"#utility.yul\":21501:21524   */\n      sub\n        /* \"#utility.yul\":21497:21529   */\n      slt\n        /* \"#utility.yul\":21494:21613   */\n      iszero\n      tag_529\n      jumpi\n        /* \"#utility.yul\":21532:21611   */\n      tag_530\n      tag_285\n      jump\t// in\n    tag_530:\n        /* \"#utility.yul\":21494:21613   */\n    tag_529:\n        /* \"#utility.yul\":21652:21653   */\n      0x00\n        /* \"#utility.yul\":21677:21738   */\n      tag_531\n        /* \"#utility.yul\":21730:21737   */\n      dup5\n        /* \"#utility.yul\":21721:21727   */\n      dup3\n        /* \"#utility.yul\":21710:21719   */\n      dup6\n        /* \"#utility.yul\":21706:21728   */\n      add\n        /* \"#utility.yul\":21677:21738   */\n      tag_335\n      jump\t// in\n    tag_531:\n        /* \"#utility.yul\":21667:21738   */\n      swap2\n      pop\n        /* \"#utility.yul\":21623:21748   */\n      pop\n        /* \"#utility.yul\":21410:21755   */\n      swap3\n      swap2\n      pop\n      pop\n      jump\t// out\n        /* \"#utility.yul\":21761:21925   */\n    tag_336:\n        /* \"#utility.yul\":21901:21917   */\n      0x5061796d656e74206661696c6564000000000000000000000000000000000000\n        /* \"#utility.yul\":21897:21898   */\n      0x00\n        /* \"#utility.yul\":21889:21895   */\n      dup3\n        /* \"#utility.yul\":21885:21899   */\n      add\n        /* \"#utility.yul\":21878:21918   */\n      mstore\n        /* \"#utility.yul\":21761:21925   */\n      pop\n      jump\t// out\n        /* \"#utility.yul\":21931:22297   */\n    tag_337:\n        /* \"#utility.yul\":22073:22076   */\n      0x00\n        /* \"#utility.yul\":22094:22161   */\n      tag_534\n        /* \"#utility.yul\":22158:22160   */\n      0x0e\n        /* \"#utility.yul\":22153:22156   */\n      dup4\n        /* \"#utility.yul\":22094:22161   */\n      tag_311\n      jump\t// in\n    tag_534:\n        /* \"#utility.yul\":22087:22161   */\n      swap2\n      pop\n        /* \"#utility.yul\":22170:22263   */\n      tag_535\n        /* \"#utility.yul\":22259:22262   */\n      dup3\n        /* \"#utility.yul\":22170:22263   */\n      tag_336\n      jump\t// in\n    tag_535:\n        /* \"#utility.yul\":22288:22290   */\n      0x20\n        /* \"#utility.yul\":22283:22286   */\n      dup3\n        /* \"#utility.yul\":22279:22291   */\n      add\n        /* \"#utility.yul\":22272:22291   */\n      swap1\n      pop\n        /* \"#utility.yul\":21931:22297   */\n      swap2\n      swap1\n      pop\n      jump\t// out\n        /* \"#utility.yul\":22303:22722   */\n    tag_243:\n        /* \"#utility.yul\":22469:22473   */\n      0x00\n        /* \"#utility.yul\":22507:22509   */\n      0x20\n        /* \"#utility.yul\":22496:22505   */\n      dup3\n        /* \"#utility.yul\":22492:22510   */\n      add\n        /* \"#utility.yul\":22484:22510   */\n      swap1\n      pop\n        /* \"#utility.yul\":22556:22565   */\n      dup2\n        /* \"#utility.yul\":22550:22554   */\n      dup2\n        /* \"#utility.yul\":22546:22566   */\n      sub\n        /* \"#utility.yul\":22542:22543   */\n      0x00\n        /* \"#utility.yul\":22531:22540   */\n      dup4\n        /* \"#utility.yul\":22527:22544   */\n      add\n        /* \"#utility.yul\":22520:22567   */\n      mstore\n        /* \"#utility.yul\":22584:22715   */\n      tag_537\n        /* \"#utility.yul\":22710:22714   */\n      dup2\n        /* \"#utility.yul\":22584:22715   */\n      tag_337\n      jump\t// in\n    tag_537:\n        /* \"#utility.yul\":22576:22715   */\n      swap1\n      pop\n        /* \"#utility.yul\":22303:22722   */\n      swap2\n      swap1\n      pop\n      jump\t// out\n        /* \"#utility.yul\":22728:22909   */\n    tag_338:\n        /* \"#utility.yul\":22868:22901   */\n      0x5265656e7472616e637947756172643a207265656e7472616e742063616c6c00\n        /* \"#utility.yul\":22864:22865   */\n      0x00\n        /* \"#utility.yul\":22856:22862   */\n      dup3\n        /* \"#utility.yul\":22852:22866   */\n      add\n        /* \"#utility.yul\":22845:22902   */\n      mstore\n        /* \"#utility.yul\":22728:22909   */\n      pop\n      jump\t// out\n        /* \"#utility.yul\":22915:23281   */\n    tag_339:\n        /* \"#utility.yul\":23057:23060   */\n      0x00\n        /* \"#utility.yul\":23078:23145   */\n      tag_540\n        /* \"#utility.yul\":23142:23144   */\n      0x1f\n        /* \"#utility.yul\":23137:23140   */\n      dup4\n        /* \"#utility.yul\":23078:23145   */\n      tag_311\n      jump\t// in\n    tag_540:\n        /* \"#utility.yul\":23071:23145   */\n      swap2\n      pop\n        /* \"#utility.yul\":23154:23247   */\n      tag_541\n        /* \"#utility.yul\":23243:23246   */\n      dup3\n        /* \"#utility.yul\":23154:23247   */\n      tag_338\n      jump\t// in\n    tag_541:\n        /* \"#utility.yul\":23272:23274   */\n      0x20\n        /* \"#utility.yul\":23267:23270   */\n      dup3\n        /* \"#utility.yul\":23263:23275   */\n      add\n        /* \"#utility.yul\":23256:23275   */\n      swap1\n      pop\n        /* \"#utility.yul\":22915:23281   */\n      swap2\n      swap1\n      pop\n      jump\t// out\n        /* \"#utility.yul\":23287:23706   */\n    tag_281:\n        /* \"#utility.yul\":23453:23457   */\n      0x00\n        /* \"#utility.yul\":23491:23493   */\n      0x20\n        /* \"#utility.yul\":23480:23489   */\n      dup3\n        /* \"#utility.yul\":23476:23494   */\n      add\n        /* \"#utility.yul\":23468:23494   */\n      swap1\n      pop\n        /* \"#utility.yul\":23540:23549   */\n      dup2\n        /* \"#utility.yul\":23534:23538   */\n      dup2\n        /* \"#utility.yul\":23530:23550   */\n      sub\n        /* \"#utility.yul\":23526:23527   */\n      0x00\n        /* \"#utility.yul\":23515:23524   */\n      dup4\n        /* \"#utility.yul\":23511:23528   */\n      add\n        /* \"#utility.yul\":23504:23551   */\n      mstore\n        /* \"#utility.yul\":23568:23699   */\n      tag_543\n        /* \"#utility.yul\":23694:23698   */\n      dup2\n        /* \"#utility.yul\":23568:23699   */\n      tag_339\n      jump\t// in\n    tag_543:\n        /* \"#utility.yul\":23560:23699   */\n      swap1\n      pop\n        /* \"#utility.yul\":23287:23706   */\n      swap2\n      swap1\n      pop\n      jump\t// out\n\n    auxdata: 0xa2646970667358221220b7e05628309fd17ca413144950dfbea31d97dca24adc5c3c0cb3eca352ddea1964736f6c634300081e0033\n}\n",
				"bytecode": {
					"linkReferences": {},
					"object": "608060405234801561000f575f5ffd5b50604051612b0a380380612b0a833981810160405281019061003191906105b5565b335f73ffffffffffffffffffffffffffffffffffffffff168173ffffffffffffffffffffffffffffffffffffffff16036100a2575f6040517f1e4fbdf70000000000000000000000000000000000000000000000000000000081526004016100999190610602565b60405180910390fd5b6100b18161049660201b60201c565b50600180819055505f73ffffffffffffffffffffffffffffffffffffffff168273ffffffffffffffffffffffffffffffffffffffff1603610127576040517f08c379a000000000000000000000000000000000000000000000000000000000815260040161011e90610675565b60405180910390fd5b5f73ffffffffffffffffffffffffffffffffffffffff168173ffffffffffffffffffffffffffffffffffffffff1603610195576040517f08c379a000000000000000000000000000000000000000000000000000000000815260040161018c906106dd565b60405180910390fd5b8160055f6101000a81548173ffffffffffffffffffffffffffffffffffffffff021916908373ffffffffffffffffffffffffffffffffffffffff1602179055508060065f6101000a81548173ffffffffffffffffffffffffffffffffffffffff021916908373ffffffffffffffffffffffffffffffffffffffff16021790555060405180608001604052805f6002811115610233576102326106fb565b5b81526020015f81526020015f81526020016001151581525060025f5f6002811115610261576102606106fb565b5b6002811115610273576102726106fb565b5b81526020019081526020015f205f820151815f015f6101000a81548160ff021916908360028111156102a8576102a76106fb565b5b021790555060208201518160010155604082015181600201556060820151816003015f6101000a81548160ff021916908315150217905550905050604051806080016040528060016002811115610302576103016106fb565b5b8152602001621e8480815260200162278d0081526020016001151581525060025f60016002811115610337576103366106fb565b5b6002811115610349576103486106fb565b5b81526020019081526020015f205f820151815f015f6101000a81548160ff0219169083600281111561037e5761037d6106fb565b5b021790555060208201518160010155604082015181600201556060820151816003015f6101000a81548160ff02191690831515021790555090505060405180608001604052806002808111156103d7576103d66106fb565b5b81526020016301312d0081526020016301e1338081526020016001151581525060025f60028081111561040d5761040c6106fb565b5b600281111561041f5761041e6106fb565b5b81526020019081526020015f205f820151815f015f6101000a81548160ff02191690836002811115610454576104536106fb565b5b021790555060208201518160010155604082015181600201556060820151816003015f6101000a81548160ff0219169083151502179055509050505050610728565b5f5f5f9054906101000a900473ffffffffffffffffffffffffffffffffffffffff169050815f5f6101000a81548173ffffffffffffffffffffffffffffffffffffffff021916908373ffffffffffffffffffffffffffffffffffffffff1602179055508173ffffffffffffffffffffffffffffffffffffffff168173ffffffffffffffffffffffffffffffffffffffff167f8be0079c531659141344cd1fd0a4f28419497f9722a3daafe3b4186f6b6457e060405160405180910390a35050565b5f5ffd5b5f73ffffffffffffffffffffffffffffffffffffffff82169050919050565b5f6105848261055b565b9050919050565b6105948161057a565b811461059e575f5ffd5b50565b5f815190506105af8161058b565b92915050565b5f5f604083850312156105cb576105ca610557565b5b5f6105d8858286016105a1565b92505060206105e9858286016105a1565b9150509250929050565b6105fc8161057a565b82525050565b5f6020820190506106155f8301846105f3565b92915050565b5f82825260208201905092915050565b7f496e76616c6964205553444320616464726573730000000000000000000000005f82015250565b5f61065f60148361061b565b915061066a8261062b565b602082019050919050565b5f6020820190508181035f83015261068c81610653565b9050919050565b7f496e76616c6964207472656173757279206164647265737300000000000000005f82015250565b5f6106c760188361061b565b91506106d282610693565b602082019050919050565b5f6020820190508181035f8301526106f4816106bb565b9050919050565b7f4e487b71000000000000000000000000000000000000000000000000000000005f52602160045260245ffd5b6123d5806107355f395ff3fe608060405234801561000f575f5ffd5b5060043610610114575f3560e01c806377812b7f116100a0578063986930101161006f57806398693010146102ce578063c9563560146102ea578063f046395a1461031c578063f2fde38b1461034e578063fa5441611461036a57610114565b806377812b7f146102485780637ecf2128146102785780637f51bb1f146102945780638da5cb5b146102b057610114565b8063466a0146116100e7578063466a0146146101a157806360a31a88146101d157806361d027b3146102045780636c52df4e14610222578063715018a61461023e57610114565b80630cbebc241461011857806311eac8551461014b578063129debff1461016957806313af403514610185575b5f5ffd5b610132600480360381019061012d9190611933565b61039a565b6040516101429493929190611a03565b60405180910390f35b6101536104d4565b6040516101609190611aa1565b60405180910390f35b610183600480360381019061017e9190611933565b6104f9565b005b61019f600480360381019061019a9190611933565b610733565b005b6101bb60048036038101906101b69190611933565b6109ac565b6040516101c89190611aba565b60405180910390f35b6101eb60048036038101906101e69190611af6565b610aac565b6040516101fb9493929190611b21565b60405180910390f35b61020c610af0565b6040516102199190611b73565b60405180910390f35b61023c60048036038101906102379190611bb6565b610b15565b005b610246610d83565b005b610262600480360381019061025d9190611933565b610d96565b60405161026f9190611b73565b60405180910390f35b610292600480360381019061028d9190611c30565b610dc6565b005b6102ae60048036038101906102a99190611933565b610f49565b005b6102b8611045565b6040516102c59190611b73565b60405180910390f35b6102e860048036038101906102e39190611af6565b61106c565b005b61030460048036038101906102ff9190611af6565b61153d565b60405161031393929190611c94565b60405180910390f35b61033660048036038101906103319190611933565b611607565b60405161034593929190611cc9565b60405180910390f35b61036860048036038101906103639190611933565b611645565b005b610384600480360381019061037f9190611933565b6116c9565b6040516103919190611b73565b60405180910390f35b5f5f5f5f5f60035f8773ffffffffffffffffffffffffffffffffffffffff1673ffffffffffffffffffffffffffffffffffffffff1681526020019081526020015f206040518060600160405290815f82015f9054906101000a900460ff16600281111561040a5761040961195e565b5b600281111561041c5761041b61195e565b5b815260200160018201548152602001600282015f9054906101000a900460ff1615151515815250509050805f01519450806020015193505f5f60028111156104675761046661195e565b5b825f0151600281111561047d5761047c61195e565b5b1415801561048f575042826020015111155b9050801580156104c657505f60028111156104ad576104ac61195e565b5b825f015160028111156104c3576104c261195e565b5b14155b935080925050509193509193565b60055f9054906101000a900473ffffffffffffffffffffffffffffffffffffffff1681565b5f60035f8373ffffffffffffffffffffffffffffffffffffffff1673ffffffffffffffffffffffffffffffffffffffff1681526020019081526020015f2090505f600281111561054c5761054b61195e565b5b815f015f9054906101000a900460ff16600281111561056e5761056d61195e565b5b036105ae576040517f08c379a00000000000000000000000000000000000000000000000000000000081526004016105a590611d58565b60405180910390fd5b42816001015411156105f5576040517f08c379a00000000000000000000000000000000000000000000000000000000081526004016105ec90611dc0565b60405180910390fd5b806002015f9054906101000a900460ff16610645576040517f08c379a000000000000000000000000000000000000000000000000000000000815260040161063c90611e28565b60405180910390fd5b5f815f015f9054906101000a900460ff1690505f825f015f6101000a81548160ff0219169083600281111561067d5761067c61195e565b5b02179055505f826002015f6101000a81548160ff0219169083151502179055508273ffffffffffffffffffffffffffffffffffffffff167f6632ba0aeb36047dbdbbde4159a524bcbf81bb68773f0770c43dc7b8dc2be53d826040516106e39190611e46565b60405180910390a28273ffffffffffffffffffffffffffffffffffffffff167f1b9b72fde9da721e70e6aca3b0cf4cbe73e82765ef1f280157740376531bfdd860405160405180910390a2505050565b5f73ffffffffffffffffffffffffffffffffffffffff168173ffffffffffffffffffffffffffffffffffffffff16036107a1576040517f08c379a000000000000000000000000000000000000000000000000000000000815260040161079890611ea9565b60405180910390fd5b5f60028111156107b4576107b361195e565b5b60035f3373ffffffffffffffffffffffffffffffffffffffff1673ffffffffffffffffffffffffffffffffffffffff1681526020019081526020015f205f015f9054906101000a900460ff1660028111156108125761081161195e565b5b03610852576040517f08c379a000000000000000000000000000000000000000000000000000000000815260040161084990611f11565b60405180910390fd5b4260035f3373ffffffffffffffffffffffffffffffffffffffff1673ffffffffffffffffffffffffffffffffffffffff1681526020019081526020015f2060010154116108d4576040517f08c379a00000000000000000000000000000000000000000000000000000000081526004016108cb90611f79565b60405180910390fd5b8060045f3373ffffffffffffffffffffffffffffffffffffffff1673ffffffffffffffffffffffffffffffffffffffff1681526020019081526020015f205f6101000a81548173ffffffffffffffffffffffffffffffffffffffff021916908373ffffffffffffffffffffffffffffffffffffffff1602179055508073ffffffffffffffffffffffffffffffffffffffff163373ffffffffffffffffffffffffffffffffffffffff167f342827c97908e5e2f71151c08502a66d44b6f758e3ac2f1de95f02eb95f0a73560405160405180910390a350565b5f5f60035f8473ffffffffffffffffffffffffffffffffffffffff1673ffffffffffffffffffffffffffffffffffffffff1681526020019081526020015f206040518060600160405290815f82015f9054906101000a900460ff166002811115610a1957610a1861195e565b5b6002811115610a2b57610a2a61195e565b5b815260200160018201548152602001600282015f9054906101000a900460ff16151515158152505090505f6002811115610a6857610a6761195e565b5b815f01516002811115610a7e57610a7d61195e565b5b03610a8c575f915050610aa7565b4281602001511115610aa2576001915050610aa7565b5f9150505b919050565b6002602052805f5260405f205f91509050805f015f9054906101000a900460ff1690806001015490806002015490806003015f9054906101000a900460ff16905084565b60065f9054906101000a900473ffffffffffffffffffffffffffffffffffffffff1681565b610b1d61172e565b5f6002811115610b3057610b2f61195e565b5b826002811115610b4357610b4261195e565b5b03610b83576040517f08c379a0000000000000000000000000000000000000000000000000000000008152600401610b7a90611fe1565b60405180910390fd5b5f60035f8573ffffffffffffffffffffffffffffffffffffffff1673ffffffffffffffffffffffffffffffffffffffff1681526020019081526020015f2090505f8242610bd0919061202c565b905083825f015f6101000a81548160ff02191690836002811115610bf757610bf661195e565b5b02179055508082600101819055506001826002015f6101000a81548160ff0219169083151502179055505f73ffffffffffffffffffffffffffffffffffffffff1660045f8773ffffffffffffffffffffffffffffffffffffffff1673ffffffffffffffffffffffffffffffffffffffff1681526020019081526020015f205f9054906101000a900473ffffffffffffffffffffffffffffffffffffffff1673ffffffffffffffffffffffffffffffffffffffff1603610d2c578460045f8773ffffffffffffffffffffffffffffffffffffffff1673ffffffffffffffffffffffffffffffffffffffff1681526020019081526020015f205f6101000a81548173ffffffffffffffffffffffffffffffffffffffff021916908373ffffffffffffffffffffffffffffffffffffffff1602179055505b8473ffffffffffffffffffffffffffffffffffffffff167f2fbf8c1dd8d445f8a551e40588711473ae38ac73f4e51934877f7da74e1a509e8583604051610d7492919061205f565b60405180910390a25050505050565b610d8b61172e565b610d945f6117b5565b565b6004602052805f5260405f205f915054906101000a900473ffffffffffffffffffffffffffffffffffffffff1681565b610dce61172e565b5f6002811115610de157610de061195e565b5b846002811115610df457610df361195e565b5b141580610e0057505f83145b610e3f576040517f08c379a0000000000000000000000000000000000000000000000000000000008152600401610e36906120d0565b60405180910390fd5b8260025f866002811115610e5657610e5561195e565b5b6002811115610e6857610e6761195e565b5b81526020019081526020015f20600101819055508160025f866002811115610e9357610e9261195e565b5b6002811115610ea557610ea461195e565b5b81526020019081526020015f20600201819055508060025f866002811115610ed057610ecf61195e565b5b6002811115610ee257610ee161195e565b5b81526020019081526020015f206003015f6101000a81548160ff0219169083151502179055507f7f1d53317eaa3c7ba4a141735afa753a267faa0d47395a12ab844cd10b55d01d848484604051610f3b939291906120ee565b60405180910390a150505050565b610f5161172e565b5f73ffffffffffffffffffffffffffffffffffffffff168173ffffffffffffffffffffffffffffffffffffffff1603610fbf576040517f08c379a0000000000000000000000000000000000000000000000000000000008152600401610fb69061216d565b60405180910390fd5b8060065f6101000a81548173ffffffffffffffffffffffffffffffffffffffff021916908373ffffffffffffffffffffffffffffffffffffffff1602179055508073ffffffffffffffffffffffffffffffffffffffff167f7dae230f18360d76a040c81f050aa14eb9d6dc7901b20fc5d855e2a20fe814d160405160405180910390a250565b5f5f5f9054906101000a900473ffffffffffffffffffffffffffffffffffffffff16905090565b611074611876565b5f60028111156110875761108661195e565b5b81600281111561109a5761109961195e565b5b036110da576040517f08c379a00000000000000000000000000000000000000000000000000000000081526004016110d1906121d5565b60405180910390fd5b60025f8260028111156110f0576110ef61195e565b5b60028111156111025761110161195e565b5b81526020019081526020015f206003015f9054906101000a900460ff1661115e576040517f08c379a00000000000000000000000000000000000000000000000000000000081526004016111559061223d565b60405180910390fd5b5f60025f8360028111156111755761117461195e565b5b60028111156111875761118661195e565b5b81526020019081526020015f206040518060800160405290815f82015f9054906101000a900460ff1660028111156111c2576111c161195e565b5b60028111156111d4576111d361195e565b5b81526020016001820154815260200160028201548152602001600382015f9054906101000a900460ff16151515158152505090505f60035f3373ffffffffffffffffffffffffffffffffffffffff1673ffffffffffffffffffffffffffffffffffffffff1681526020019081526020015f20905060055f9054906101000a900473ffffffffffffffffffffffffffffffffffffffff1673ffffffffffffffffffffffffffffffffffffffff166323b872dd3360065f9054906101000a900473ffffffffffffffffffffffffffffffffffffffff1685602001516040518463ffffffff1660e01b81526004016112cb9392919061225b565b6020604051808303815f875af11580156112e7573d5f5f3e3d5ffd5b505050506040513d601f19601f8201168201806040525081019061130b91906122a4565b61134a576040517f08c379a000000000000000000000000000000000000000000000000000000000815260040161134190612319565b60405180910390fd5b5f4282600101541115611372578260400151826001015461136b919061202c565b9050611385565b826040015142611382919061202c565b90505b83825f015f6101000a81548160ff021916908360028111156113aa576113a961195e565b5b02179055508082600101819055506001826002015f6101000a81548160ff0219169083151502179055505f73ffffffffffffffffffffffffffffffffffffffff1660045f3373ffffffffffffffffffffffffffffffffffffffff1673ffffffffffffffffffffffffffffffffffffffff1681526020019081526020015f205f9054906101000a900473ffffffffffffffffffffffffffffffffffffffff1673ffffffffffffffffffffffffffffffffffffffff16036114df573360045f3373ffffffffffffffffffffffffffffffffffffffff1673ffffffffffffffffffffffffffffffffffffffff1681526020019081526020015f205f6101000a81548173ffffffffffffffffffffffffffffffffffffffff021916908373ffffffffffffffffffffffffffffffffffffffff1602179055505b3373ffffffffffffffffffffffffffffffffffffffff167f2fbf8c1dd8d445f8a551e40588711473ae38ac73f4e51934877f7da74e1a509e858360405161152792919061205f565b60405180910390a250505061153a6118c5565b50565b5f5f5f5f60025f8660028111156115575761155661195e565b5b60028111156115695761156861195e565b5b81526020019081526020015f206040518060800160405290815f82015f9054906101000a900460ff1660028111156115a4576115a361195e565b5b60028111156115b6576115b561195e565b5b81526020016001820154815260200160028201548152602001600382015f9054906101000a900460ff1615151515815250509050806020015181604001518260600151935093509350509193909250565b6003602052805f5260405f205f91509050805f015f9054906101000a900460ff1690806001015490806002015f9054906101000a900460ff16905083565b61164d61172e565b5f73ffffffffffffffffffffffffffffffffffffffff168173ffffffffffffffffffffffffffffffffffffffff16036116bd575f6040517f1e4fbdf70000000000000000000000000000000000000000000000000000000081526004016116b49190611b73565b60405180910390fd5b6116c6816117b5565b50565b5f60045f8373ffffffffffffffffffffffffffffffffffffffff1673ffffffffffffffffffffffffffffffffffffffff1681526020019081526020015f205f9054906101000a900473ffffffffffffffffffffffffffffffffffffffff169050919050565b6117366118ce565b73ffffffffffffffffffffffffffffffffffffffff16611754611045565b73ffffffffffffffffffffffffffffffffffffffff16146117b3576117776118ce565b6040517f118cdaa70000000000000000000000000000000000000000000000000000000081526004016117aa9190611b73565b60405180910390fd5b565b5f5f5f9054906101000a900473ffffffffffffffffffffffffffffffffffffffff169050815f5f6101000a81548173ffffffffffffffffffffffffffffffffffffffff021916908373ffffffffffffffffffffffffffffffffffffffff1602179055508173ffffffffffffffffffffffffffffffffffffffff168173ffffffffffffffffffffffffffffffffffffffff167f8be0079c531659141344cd1fd0a4f28419497f9722a3daafe3b4186f6b6457e060405160405180910390a35050565b6002600154036118bb576040517f08c379a00000000000000000000000000000000000000000000000000000000081526004016118b290612381565b60405180910390fd5b6002600181905550565b60018081905550565b5f33905090565b5f5ffd5b5f73ffffffffffffffffffffffffffffffffffffffff82169050919050565b5f611902826118d9565b9050919050565b611912816118f8565b811461191c575f5ffd5b50565b5f8135905061192d81611909565b92915050565b5f60208284031215611948576119476118d5565b5b5f6119558482850161191f565b91505092915050565b7f4e487b71000000000000000000000000000000000000000000000000000000005f52602160045260245ffd5b6003811061199c5761199b61195e565b5b50565b5f8190506119ac8261198b565b919050565b5f6119bb8261199f565b9050919050565b6119cb816119b1565b82525050565b5f819050919050565b6119e3816119d1565b82525050565b5f8115159050919050565b6119fd816119e9565b82525050565b5f608082019050611a165f8301876119c2565b611a2360208301866119da565b611a3060408301856119f4565b611a3d60608301846119f4565b95945050505050565b5f819050919050565b5f611a69611a64611a5f846118d9565b611a46565b6118d9565b9050919050565b5f611a7a82611a4f565b9050919050565b5f611a8b82611a70565b9050919050565b611a9b81611a81565b82525050565b5f602082019050611ab45f830184611a92565b92915050565b5f602082019050611acd5f8301846119f4565b92915050565b60038110611adf575f5ffd5b50565b5f81359050611af081611ad3565b92915050565b5f60208284031215611b0b57611b0a6118d5565b5b5f611b1884828501611ae2565b91505092915050565b5f608082019050611b345f8301876119c2565b611b4160208301866119da565b611b4e60408301856119da565b611b5b60608301846119f4565b95945050505050565b611b6d816118f8565b82525050565b5f602082019050611b865f830184611b64565b92915050565b611b95816119d1565b8114611b9f575f5ffd5b50565b5f81359050611bb081611b8c565b92915050565b5f5f5f60608486031215611bcd57611bcc6118d5565b5b5f611bda8682870161191f565b9350506020611beb86828701611ae2565b9250506040611bfc86828701611ba2565b9150509250925092565b611c0f816119e9565b8114611c19575f5ffd5b50565b5f81359050611c2a81611c06565b92915050565b5f5f5f5f60808587031215611c4857611c476118d5565b5b5f611c5587828801611ae2565b9450506020611c6687828801611ba2565b9350506040611c7787828801611ba2565b9250506060611c8887828801611c1c565b91505092959194509250565b5f606082019050611ca75f8301866119da565b611cb460208301856119da565b611cc160408301846119f4565b949350505050565b5f606082019050611cdc5f8301866119c2565b611ce960208301856119da565b611cf660408301846119f4565b949350505050565b5f82825260208201905092915050565b7f55736572206973206f6e206672656520706c616e0000000000000000000000005f82015250565b5f611d42601483611cfe565b9150611d4d82611d0e565b602082019050919050565b5f6020820190508181035f830152611d6f81611d36565b9050919050565b7f537562736372697074696f6e207374696c6c20616374697665000000000000005f82015250565b5f611daa601983611cfe565b9150611db582611d76565b602082019050919050565b5f6020820190508181035f830152611dd781611d9e565b9050919050565b7f41636365737320616c7265616479207265766f6b6564000000000000000000005f82015250565b5f611e12601683611cfe565b9150611e1d82611dde565b602082019050919050565b5f6020820190508181035f830152611e3f81611e06565b9050919050565b5f602082019050611e595f8301846119c2565b92915050565b7f496e76616c6964206f776e6572206164647265737300000000000000000000005f82015250565b5f611e93601583611cfe565b9150611e9e82611e5f565b602082019050919050565b5f6020820190508181035f830152611ec081611e87565b9050919050565b7f4f6e6c7920706169642075736572732063616e20736574206f776e65720000005f82015250565b5f611efb601d83611cfe565b9150611f0682611ec7565b602082019050919050565b5f6020820190508181035f830152611f2881611eef565b9050919050565b7f537562736372697074696f6e20657870697265640000000000000000000000005f82015250565b5f611f63601483611cfe565b9150611f6e82611f2f565b602082019050919050565b5f6020820190508181035f830152611f9081611f57565b9050919050565b7f43616e6e6f74206772616e74206672656520706c616e000000000000000000005f82015250565b5f611fcb601683611cfe565b9150611fd682611f97565b602082019050919050565b5f6020820190508181035f830152611ff881611fbf565b9050919050565b7f4e487b71000000000000000000000000000000000000000000000000000000005f52601160045260245ffd5b5f612036826119d1565b9150612041836119d1565b925082820190508082111561205957612058611fff565b5b92915050565b5f6040820190506120725f8301856119c2565b61207f60208301846119da565b9392505050565b7f4672656520706c616e206d7573742068617665203020707269636500000000005f82015250565b5f6120ba601b83611cfe565b91506120c582612086565b602082019050919050565b5f6020820190508181035f8301526120e7816120ae565b9050919050565b5f6060820190506121015f8301866119c2565b61210e60208301856119da565b61211b60408301846119da565b949350505050565b7f496e76616c6964207472656173757279206164647265737300000000000000005f82015250565b5f612157601883611cfe565b915061216282612123565b602082019050919050565b5f6020820190508181035f8301526121848161214b565b9050919050565b7f43616e6e6f74207075726368617365206672656520706c616e000000000000005f82015250565b5f6121bf601983611cfe565b91506121ca8261218b565b602082019050919050565b5f6020820190508181035f8301526121ec816121b3565b9050919050565b7f506c616e206e6f742061637469766500000000000000000000000000000000005f82015250565b5f612227600f83611cfe565b9150612232826121f3565b602082019050919050565b5f6020820190508181035f8301526122548161221b565b9050919050565b5f60608201905061226e5f830186611b64565b61227b6020830185611b64565b61228860408301846119da565b949350505050565b5f8151905061229e81611c06565b92915050565b5f602082840312156122b9576122b86118d5565b5b5f6122c684828501612290565b91505092915050565b7f5061796d656e74206661696c65640000000000000000000000000000000000005f82015250565b5f612303600e83611cfe565b915061230e826122cf565b602082019050919050565b5f6020820190508181035f830152612330816122f7565b9050919050565b7f5265656e7472616e637947756172643a207265656e7472616e742063616c6c005f82015250565b5f61236b601f83611cfe565b915061237682612337565b602082019050919050565b5f6020820190508181035f8301526123988161235f565b905091905056fea2646970667358221220b7e05628309fd17ca413144950dfbea31d97dca24adc5c3c0cb3eca352ddea1964736f6c634300081e0033",
					"opcodes": "PUSH1 0x80 PUSH1 0x40 MSTORE CALLVALUE DUP1 ISZERO PUSH2 0xF JUMPI PUSH0 PUSH0 REVERT JUMPDEST POP PUSH1 0x40 MLOAD PUSH2 0x2B0A CODESIZE SUB DUP1 PUSH2 0x2B0A DUP4 CODECOPY DUP2 DUP2 ADD PUSH1 0x40 MSTORE DUP2 ADD SWAP1 PUSH2 0x31 SWAP2 SWAP1 PUSH2 0x5B5 JUMP JUMPDEST CALLER PUSH0 PUSH20 0xFFFFFFFFFFFFFFFFFFFFFFFFFFFFFFFFFFFFFFFF AND DUP2 PUSH20 0xFFFFFFFFFFFFFFFFFFFFFFFFFFFFFFFFFFFFFFFF AND SUB PUSH2 0xA2 JUMPI PUSH0 PUSH1 0x40 MLOAD PUSH32 0x1E4FBDF700000000000000000000000000000000000000000000000000000000 DUP2 MSTORE PUSH1 0x4 ADD PUSH2 0x99 SWAP2 SWAP1 PUSH2 0x602 JUMP JUMPDEST PUSH1 0x40 MLOAD DUP1 SWAP2 SUB SWAP1 REVERT JUMPDEST PUSH2 0xB1 DUP2 PUSH2 0x496 PUSH1 0x20 SHL PUSH1 0x20 SHR JUMP JUMPDEST POP PUSH1 0x1 DUP1 DUP2 SWAP1 SSTORE POP PUSH0 PUSH20 0xFFFFFFFFFFFFFFFFFFFFFFFFFFFFFFFFFFFFFFFF AND DUP3 PUSH20 0xFFFFFFFFFFFFFFFFFFFFFFFFFFFFFFFFFFFFFFFF AND SUB PUSH2 0x127 JUMPI PUSH1 0x40 MLOAD PUSH32 0x8C379A000000000000000000000000000000000000000000000000000000000 DUP2 MSTORE PUSH1 0x4 ADD PUSH2 0x11E SWAP1 PUSH2 0x675 JUMP JUMPDEST PUSH1 0x40 MLOAD DUP1 SWAP2 SUB SWAP1 REVERT JUMPDEST PUSH0 PUSH20 0xFFFFFFFFFFFFFFFFFFFFFFFFFFFFFFFFFFFFFFFF AND DUP2 PUSH20 0xFFFFFFFFFFFFFFFFFFFFFFFFFFFFFFFFFFFFFFFF AND SUB PUSH2 0x195 JUMPI PUSH1 0x40 MLOAD PUSH32 0x8C379A000000000000000000000000000000000000000000000000000000000 DUP2 MSTORE PUSH1 0x4 ADD PUSH2 0x18C SWAP1 PUSH2 0x6DD JUMP JUMPDEST PUSH1 0x40 MLOAD DUP1 SWAP2 SUB SWAP1 REVERT JUMPDEST DUP2 PUSH1 0x5 PUSH0 PUSH2 0x100 EXP DUP2 SLOAD DUP2 PUSH20 0xFFFFFFFFFFFFFFFFFFFFFFFFFFFFFFFFFFFFFFFF MUL NOT AND SWAP1 DUP4 PUSH20 0xFFFFFFFFFFFFFFFFFFFFFFFFFFFFFFFFFFFFFFFF AND MUL OR SWAP1 SSTORE POP DUP1 PUSH1 0x6 PUSH0 PUSH2 0x100 EXP DUP2 SLOAD DUP2 PUSH20 0xFFFFFFFFFFFFFFFFFFFFFFFFFFFFFFFFFFFFFFFF MUL NOT AND SWAP1 DUP4 PUSH20 0xFFFFFFFFFFFFFFFFFFFFFFFFFFFFFFFFFFFFFFFF AND MUL OR SWAP1 SSTORE POP PUSH1 0x40 MLOAD DUP1 PUSH1 0x80 ADD PUSH1 0x40 MSTORE DUP1 PUSH0 PUSH1 0x2 DUP2 GT ISZERO PUSH2 0x233 JUMPI PUSH2 0x232 PUSH2 0x6FB JUMP JUMPDEST JUMPDEST DUP2 MSTORE PUSH1 0x20 ADD PUSH0 DUP2 MSTORE PUSH1 0x20 ADD PUSH0 DUP2 MSTORE PUSH1 0x20 ADD PUSH1 0x1 ISZERO ISZERO DUP2 MSTORE POP PUSH1 0x2 PUSH0 PUSH0 PUSH1 0x2 DUP2 GT ISZERO PUSH2 0x261 JUMPI PUSH2 0x260 PUSH2 0x6FB JUMP JUMPDEST JUMPDEST PUSH1 0x2 DUP2 GT ISZERO PUSH2 0x273 JUMPI PUSH2 0x272 PUSH2 0x6FB JUMP JUMPDEST JUMPDEST DUP2 MSTORE PUSH1 0x20 ADD SWAP1 DUP2 MSTORE PUSH1 0x20 ADD PUSH0 KECCAK256 PUSH0 DUP3 ADD MLOAD DUP2 PUSH0 ADD PUSH0 PUSH2 0x100 EXP DUP2 SLOAD DUP2 PUSH1 0xFF MUL NOT AND SWAP1 DUP4 PUSH1 0x2 DUP2 GT ISZERO PUSH2 0x2A8 JUMPI PUSH2 0x2A7 PUSH2 0x6FB JUMP JUMPDEST JUMPDEST MUL OR SWAP1 SSTORE POP PUSH1 0x20 DUP3 ADD MLOAD DUP2 PUSH1 0x1 ADD SSTORE PUSH1 0x40 DUP3 ADD MLOAD DUP2 PUSH1 0x2 ADD SSTORE PUSH1 0x60 DUP3 ADD MLOAD DUP2 PUSH1 0x3 ADD PUSH0 PUSH2 0x100 EXP DUP2 SLOAD DUP2 PUSH1 0xFF MUL NOT AND SWAP1 DUP4 ISZERO ISZERO MUL OR SWAP1 SSTORE POP SWAP1 POP POP PUSH1 0x40 MLOAD DUP1 PUSH1 0x80 ADD PUSH1 0x40 MSTORE DUP1 PUSH1 0x1 PUSH1 0x2 DUP2 GT ISZERO PUSH2 0x302 JUMPI PUSH2 0x301 PUSH2 0x6FB JUMP JUMPDEST JUMPDEST DUP2 MSTORE PUSH1 0x20 ADD PUSH3 0x1E8480 DUP2 MSTORE PUSH1 0x20 ADD PUSH3 0x278D00 DUP2 MSTORE PUSH1 0x20 ADD PUSH1 0x1 ISZERO ISZERO DUP2 MSTORE POP PUSH1 0x2 PUSH0 PUSH1 0x1 PUSH1 0x2 DUP2 GT ISZERO PUSH2 0x337 JUMPI PUSH2 0x336 PUSH2 0x6FB JUMP JUMPDEST JUMPDEST PUSH1 0x2 DUP2 GT ISZERO PUSH2 0x349 JUMPI PUSH2 0x348 PUSH2 0x6FB JUMP JUMPDEST JUMPDEST DUP2 MSTORE PUSH1 0x20 ADD SWAP1 DUP2 MSTORE PUSH1 0x20 ADD PUSH0 KECCAK256 PUSH0 DUP3 ADD MLOAD DUP2 PUSH0 ADD PUSH0 PUSH2 0x100 EXP DUP2 SLOAD DUP2 PUSH1 0xFF MUL NOT AND SWAP1 DUP4 PUSH1 0x2 DUP2 GT ISZERO PUSH2 0x37E JUMPI PUSH2 0x37D PUSH2 0x6FB JUMP JUMPDEST JUMPDEST MUL OR SWAP1 SSTORE POP PUSH1 0x20 DUP3 ADD MLOAD DUP2 PUSH1 0x1 ADD SSTORE PUSH1 0x40 DUP3 ADD MLOAD DUP2 PUSH1 0x2 ADD SSTORE PUSH1 0x60 DUP3 ADD MLOAD DUP2 PUSH1 0x3 ADD PUSH0 PUSH2 0x100 EXP DUP2 SLOAD DUP2 PUSH1 0xFF MUL NOT AND SWAP1 DUP4 ISZERO ISZERO MUL OR SWAP1 SSTORE POP SWAP1 POP POP PUSH1 0x40 MLOAD DUP1 PUSH1 0x80 ADD PUSH1 0x40 MSTORE DUP1 PUSH1 0x2 DUP1 DUP2 GT ISZERO PUSH2 0x3D7 JUMPI PUSH2 0x3D6 PUSH2 0x6FB JUMP JUMPDEST JUMPDEST DUP2 MSTORE PUSH1 0x20 ADD PUSH4 0x1312D00 DUP2 MSTORE PUSH1 0x20 ADD PUSH4 0x1E13380 DUP2 MSTORE PUSH1 0x20 ADD PUSH1 0x1 ISZERO ISZERO DUP2 MSTORE POP PUSH1 0x2 PUSH0 PUSH1 0x2 DUP1 DUP2 GT ISZERO PUSH2 0x40D JUMPI PUSH2 0x40C PUSH2 0x6FB JUMP JUMPDEST JUMPDEST PUSH1 0x2 DUP2 GT ISZERO PUSH2 0x41F JUMPI PUSH2 0x41E PUSH2 0x6FB JUMP JUMPDEST JUMPDEST DUP2 MSTORE PUSH1 0x20 ADD SWAP1 DUP2 MSTORE PUSH1 0x20 ADD PUSH0 KECCAK256 PUSH0 DUP3 ADD MLOAD DUP2 PUSH0 ADD PUSH0 PUSH2 0x100 EXP DUP2 SLOAD DUP2 PUSH1 0xFF MUL NOT AND SWAP1 DUP4 PUSH1 0x2 DUP2 GT ISZERO PUSH2 0x454 JUMPI PUSH2 0x453 PUSH2 0x6FB JUMP JUMPDEST JUMPDEST MUL OR SWAP1 SSTORE POP PUSH1 0x20 DUP3 ADD MLOAD DUP2 PUSH1 0x1 ADD SSTORE PUSH1 0x40 DUP3 ADD MLOAD DUP2 PUSH1 0x2 ADD SSTORE PUSH1 0x60 DUP3 ADD MLOAD DUP2 PUSH1 0x3 ADD PUSH0 PUSH2 0x100 EXP DUP2 SLOAD DUP2 PUSH1 0xFF MUL NOT AND SWAP1 DUP4 ISZERO ISZERO MUL OR SWAP1 SSTORE POP SWAP1 POP POP POP POP PUSH2 0x728 JUMP JUMPDEST PUSH0 PUSH0 PUSH0 SWAP1 SLOAD SWAP1 PUSH2 0x100 EXP SWAP1 DIV PUSH20 0xFFFFFFFFFFFFFFFFFFFFFFFFFFFFFFFFFFFFFFFF AND SWAP1 POP DUP2 PUSH0 PUSH0 PUSH2 0x100 EXP DUP2 SLOAD DUP2 PUSH20 0xFFFFFFFFFFFFFFFFFFFFFFFFFFFFFFFFFFFFFFFF MUL NOT AND SWAP1 DUP4 PUSH20 0xFFFFFFFFFFFFFFFFFFFFFFFFFFFFFFFFFFFFFFFF AND MUL OR SWAP1 SSTORE POP DUP2 PUSH20 0xFFFFFFFFFFFFFFFFFFFFFFFFFFFFFFFFFFFFFFFF AND DUP2 PUSH20 0xFFFFFFFFFFFFFFFFFFFFFFFFFFFFFFFFFFFFFFFF AND PUSH32 0x8BE0079C531659141344CD1FD0A4F28419497F9722A3DAAFE3B4186F6B6457E0 PUSH1 0x40 MLOAD PUSH1 0x40 MLOAD DUP1 SWAP2 SUB SWAP1 LOG3 POP POP JUMP JUMPDEST PUSH0 PUSH0 REVERT JUMPDEST PUSH0 PUSH20 0xFFFFFFFFFFFFFFFFFFFFFFFFFFFFFFFFFFFFFFFF DUP3 AND SWAP1 POP SWAP2 SWAP1 POP JUMP JUMPDEST PUSH0 PUSH2 0x584 DUP3 PUSH2 0x55B JUMP JUMPDEST SWAP1 POP SWAP2 SWAP1 POP JUMP JUMPDEST PUSH2 0x594 DUP2 PUSH2 0x57A JUMP JUMPDEST DUP2 EQ PUSH2 0x59E JUMPI PUSH0 PUSH0 REVERT JUMPDEST POP JUMP JUMPDEST PUSH0 DUP2 MLOAD SWAP1 POP PUSH2 0x5AF DUP2 PUSH2 0x58B JUMP JUMPDEST SWAP3 SWAP2 POP POP JUMP JUMPDEST PUSH0 PUSH0 PUSH1 0x40 DUP4 DUP6 SUB SLT ISZERO PUSH2 0x5CB JUMPI PUSH2 0x5CA PUSH2 0x557 JUMP JUMPDEST JUMPDEST PUSH0 PUSH2 0x5D8 DUP6 DUP3 DUP7 ADD PUSH2 0x5A1 JUMP JUMPDEST SWAP3 POP POP PUSH1 0x20 PUSH2 0x5E9 DUP6 DUP3 DUP7 ADD PUSH2 0x5A1 JUMP JUMPDEST SWAP2 POP POP SWAP3 POP SWAP3 SWAP1 POP JUMP JUMPDEST PUSH2 0x5FC DUP2 PUSH2 0x57A JUMP JUMPDEST DUP3 MSTORE POP POP JUMP JUMPDEST PUSH0 PUSH1 0x20 DUP3 ADD SWAP1 POP PUSH2 0x615 PUSH0 DUP4 ADD DUP5 PUSH2 0x5F3 JUMP JUMPDEST SWAP3 SWAP2 POP POP JUMP JUMPDEST PUSH0 DUP3 DUP3 MSTORE PUSH1 0x20 DUP3 ADD SWAP1 POP SWAP3 SWAP2 POP POP JUMP JUMPDEST PUSH32 0x496E76616C696420555344432061646472657373000000000000000000000000 PUSH0 DUP3 ADD MSTORE POP JUMP JUMPDEST PUSH0 PUSH2 0x65F PUSH1 0x14 DUP4 PUSH2 0x61B JUMP JUMPDEST SWAP2 POP PUSH2 0x66A DUP3 PUSH2 0x62B JUMP JUMPDEST PUSH1 0x20 DUP3 ADD SWAP1 POP SWAP2 SWAP1 POP JUMP JUMPDEST PUSH0 PUSH1 0x20 DUP3 ADD SWAP1 POP DUP2 DUP2 SUB PUSH0 DUP4 ADD MSTORE PUSH2 0x68C DUP2 PUSH2 0x653 JUMP JUMPDEST SWAP1 POP SWAP2 SWAP1 POP JUMP JUMPDEST PUSH32 0x496E76616C696420747265617375727920616464726573730000000000000000 PUSH0 DUP3 ADD MSTORE POP JUMP JUMPDEST PUSH0 PUSH2 0x6C7 PUSH1 0x18 DUP4 PUSH2 0x61B JUMP JUMPDEST SWAP2 POP PUSH2 0x6D2 DUP3 PUSH2 0x693 JUMP JUMPDEST PUSH1 0x20 DUP3 ADD SWAP1 POP SWAP2 SWAP1 POP JUMP JUMPDEST PUSH0 PUSH1 0x20 DUP3 ADD SWAP1 POP DUP2 DUP2 SUB PUSH0 DUP4 ADD MSTORE PUSH2 0x6F4 DUP2 PUSH2 0x6BB JUMP JUMPDEST SWAP1 POP SWAP2 SWAP1 POP JUMP JUMPDEST PUSH32 0x4E487B7100000000000000000000000000000000000000000000000000000000 PUSH0 MSTORE PUSH1 0x21 PUSH1 0x4 MSTORE PUSH1 0x24 PUSH0 REVERT JUMPDEST PUSH2 0x23D5 DUP1 PUSH2 0x735 PUSH0 CODECOPY PUSH0 RETURN INVALID PUSH1 0x80 PUSH1 0x40 MSTORE CALLVALUE DUP1 ISZERO PUSH2 0xF JUMPI PUSH0 PUSH0 REVERT JUMPDEST POP PUSH1 0x4 CALLDATASIZE LT PUSH2 0x114 JUMPI PUSH0 CALLDATALOAD PUSH1 0xE0 SHR DUP1 PUSH4 0x77812B7F GT PUSH2 0xA0 JUMPI DUP1 PUSH4 0x98693010 GT PUSH2 0x6F JUMPI DUP1 PUSH4 0x98693010 EQ PUSH2 0x2CE JUMPI DUP1 PUSH4 0xC9563560 EQ PUSH2 0x2EA JUMPI DUP1 PUSH4 0xF046395A EQ PUSH2 0x31C JUMPI DUP1 PUSH4 0xF2FDE38B EQ PUSH2 0x34E JUMPI DUP1 PUSH4 0xFA544161 EQ PUSH2 0x36A JUMPI PUSH2 0x114 JUMP JUMPDEST DUP1 PUSH4 0x77812B7F EQ PUSH2 0x248 JUMPI DUP1 PUSH4 0x7ECF2128 EQ PUSH2 0x278 JUMPI DUP1 PUSH4 0x7F51BB1F EQ PUSH2 0x294 JUMPI DUP1 PUSH4 0x8DA5CB5B EQ PUSH2 0x2B0 JUMPI PUSH2 0x114 JUMP JUMPDEST DUP1 PUSH4 0x466A0146 GT PUSH2 0xE7 JUMPI DUP1 PUSH4 0x466A0146 EQ PUSH2 0x1A1 JUMPI DUP1 PUSH4 0x60A31A88 EQ PUSH2 0x1D1 JUMPI DUP1 PUSH4 0x61D027B3 EQ PUSH2 0x204 JUMPI DUP1 PUSH4 0x6C52DF4E EQ PUSH2 0x222 JUMPI DUP1 PUSH4 0x715018A6 EQ PUSH2 0x23E JUMPI PUSH2 0x114 JUMP JUMPDEST DUP1 PUSH4 0xCBEBC24 EQ PUSH2 0x118 JUMPI DUP1 PUSH4 0x11EAC855 EQ PUSH2 0x14B JUMPI DUP1 PUSH4 0x129DEBFF EQ PUSH2 0x169 JUMPI DUP1 PUSH4 0x13AF4035 EQ PUSH2 0x185 JUMPI JUMPDEST PUSH0 PUSH0 REVERT JUMPDEST PUSH2 0x132 PUSH1 0x4 DUP1 CALLDATASIZE SUB DUP2 ADD SWAP1 PUSH2 0x12D SWAP2 SWAP1 PUSH2 0x1933 JUMP JUMPDEST PUSH2 0x39A JUMP JUMPDEST PUSH1 0x40 MLOAD PUSH2 0x142 SWAP5 SWAP4 SWAP3 SWAP2 SWAP1 PUSH2 0x1A03 JUMP JUMPDEST PUSH1 0x40 MLOAD DUP1 SWAP2 SUB SWAP1 RETURN JUMPDEST PUSH2 0x153 PUSH2 0x4D4 JUMP JUMPDEST PUSH1 0x40 MLOAD PUSH2 0x160 SWAP2 SWAP1 PUSH2 0x1AA1 JUMP JUMPDEST PUSH1 0x40 MLOAD DUP1 SWAP2 SUB SWAP1 RETURN JUMPDEST PUSH2 0x183 PUSH1 0x4 DUP1 CALLDATASIZE SUB DUP2 ADD SWAP1 PUSH2 0x17E SWAP2 SWAP1 PUSH2 0x1933 JUMP JUMPDEST PUSH2 0x4F9 JUMP JUMPDEST STOP JUMPDEST PUSH2 0x19F PUSH1 0x4 DUP1 CALLDATASIZE SUB DUP2 ADD SWAP1 PUSH2 0x19A SWAP2 SWAP1 PUSH2 0x1933 JUMP JUMPDEST PUSH2 0x733 JUMP JUMPDEST STOP JUMPDEST PUSH2 0x1BB PUSH1 0x4 DUP1 CALLDATASIZE SUB DUP2 ADD SWAP1 PUSH2 0x1B6 SWAP2 SWAP1 PUSH2 0x1933 JUMP JUMPDEST PUSH2 0x9AC JUMP JUMPDEST PUSH1 0x40 MLOAD PUSH2 0x1C8 SWAP2 SWAP1 PUSH2 0x1ABA JUMP JUMPDEST PUSH1 0x40 MLOAD DUP1 SWAP2 SUB SWAP1 RETURN JUMPDEST PUSH2 0x1EB PUSH1 0x4 DUP1 CALLDATASIZE SUB DUP2 ADD SWAP1 PUSH2 0x1E6 SWAP2 SWAP1 PUSH2 0x1AF6 JUMP JUMPDEST PUSH2 0xAAC JUMP JUMPDEST PUSH1 0x40 MLOAD PUSH2 0x1FB SWAP5 SWAP4 SWAP3 SWAP2 SWAP1 PUSH2 0x1B21 JUMP JUMPDEST PUSH1 0x40 MLOAD DUP1 SWAP2 SUB SWAP1 RETURN JUMPDEST PUSH2 0x20C PUSH2 0xAF0 JUMP JUMPDEST PUSH1 0x40 MLOAD PUSH2 0x219 SWAP2 SWAP1 PUSH2 0x1B73 JUMP JUMPDEST PUSH1 0x40 MLOAD DUP1 SWAP2 SUB SWAP1 RETURN JUMPDEST PUSH2 0x23C PUSH1 0x4 DUP1 CALLDATASIZE SUB DUP2 ADD SWAP1 PUSH2 0x237 SWAP2 SWAP1 PUSH2 0x1BB6 JUMP JUMPDEST PUSH2 0xB15 JUMP JUMPDEST STOP JUMPDEST PUSH2 0x246 PUSH2 0xD83 JUMP JUMPDEST STOP JUMPDEST PUSH2 0x262 PUSH1 0x4 DUP1 CALLDATASIZE SUB DUP2 ADD SWAP1 PUSH2 0x25D SWAP2 SWAP1 PUSH2 0x1933 JUMP JUMPDEST PUSH2 0xD96 JUMP JUMPDEST PUSH1 0x40 MLOAD PUSH2 0x26F SWAP2 SWAP1 PUSH2 0x1B73 JUMP JUMPDEST PUSH1 0x40 MLOAD DUP1 SWAP2 SUB SWAP1 RETURN JUMPDEST PUSH2 0x292 PUSH1 0x4 DUP1 CALLDATASIZE SUB DUP2 ADD SWAP1 PUSH2 0x28D SWAP2 SWAP1 PUSH2 0x1C30 JUMP JUMPDEST PUSH2 0xDC6 JUMP JUMPDEST STOP JUMPDEST PUSH2 0x2AE PUSH1 0x4 DUP1 CALLDATASIZE SUB DUP2 ADD SWAP1 PUSH2 0x2A9 SWAP2 SWAP1 PUSH2 0x1933 JUMP JUMPDEST PUSH2 0xF49 JUMP JUMPDEST STOP JUMPDEST PUSH2 0x2B8 PUSH2 0x1045 JUMP JUMPDEST PUSH1 0x40 MLOAD PUSH2 0x2C5 SWAP2 SWAP1 PUSH2 0x1B73 JUMP JUMPDEST PUSH1 0x40 MLOAD DUP1 SWAP2 SUB SWAP1 RETURN JUMPDEST PUSH2 0x2E8 PUSH1 0x4 DUP1 CALLDATASIZE SUB DUP2 ADD SWAP1 PUSH2 0x2E3 SWAP2 SWAP1 PUSH2 0x1AF6 JUMP JUMPDEST PUSH2 0x106C JUMP JUMPDEST STOP JUMPDEST PUSH2 0x304 PUSH1 0x4 DUP1 CALLDATASIZE SUB DUP2 ADD SWAP1 PUSH2 0x2FF SWAP2 SWAP1 PUSH2 0x1AF6 JUMP JUMPDEST PUSH2 0x153D JUMP JUMPDEST PUSH1 0x40 MLOAD PUSH2 0x313 SWAP4 SWAP3 SWAP2 SWAP1 PUSH2 0x1C94 JUMP JUMPDEST PUSH1 0x40 MLOAD DUP1 SWAP2 SUB SWAP1 RETURN JUMPDEST PUSH2 0x336 PUSH1 0x4 DUP1 CALLDATASIZE SUB DUP2 ADD SWAP1 PUSH2 0x331 SWAP2 SWAP1 PUSH2 0x1933 JUMP JUMPDEST PUSH2 0x1607 JUMP JUMPDEST PUSH1 0x40 MLOAD PUSH2 0x345 SWAP4 SWAP3 SWAP2 SWAP1 PUSH2 0x1CC9 JUMP JUMPDEST PUSH1 0x40 MLOAD DUP1 SWAP2 SUB SWAP1 RETURN JUMPDEST PUSH2 0x368 PUSH1 0x4 DUP1 CALLDATASIZE SUB DUP2 ADD SWAP1 PUSH2 0x363 SWAP2 SWAP1 PUSH2 0x1933 JUMP JUMPDEST PUSH2 0x1645 JUMP JUMPDEST STOP JUMPDEST PUSH2 0x384 PUSH1 0x4 DUP1 CALLDATASIZE SUB DUP2 ADD SWAP1 PUSH2 0x37F SWAP2 SWAP1 PUSH2 0x1933 JUMP JUMPDEST PUSH2 0x16C9 JUMP JUMPDEST PUSH1 0x40 MLOAD PUSH2 0x391 SWAP2 SWAP1 PUSH2 0x1B73 JUMP JUMPDEST PUSH1 0x40 MLOAD DUP1 SWAP2 SUB SWAP1 RETURN JUMPDEST PUSH0 PUSH0 PUSH0 PUSH0 PUSH0 PUSH1 0x3 PUSH0 DUP8 PUSH20 0xFFFFFFFFFFFFFFFFFFFFFFFFFFFFFFFFFFFFFFFF AND PUSH20 0xFFFFFFFFFFFFFFFFFFFFFFFFFFFFFFFFFFFFFFFF AND DUP2 MSTORE PUSH1 0x20 ADD SWAP1 DUP2 MSTORE PUSH1 0x20 ADD PUSH0 KECCAK256 PUSH1 0x40 MLOAD DUP1 PUSH1 0x60 ADD PUSH1 0x40 MSTORE SWAP1 DUP2 PUSH0 DUP3 ADD PUSH0 SWAP1 SLOAD SWAP1 PUSH2 0x100 EXP SWAP1 DIV PUSH1 0xFF AND PUSH1 0x2 DUP2 GT ISZERO PUSH2 0x40A JUMPI PUSH2 0x409 PUSH2 0x195E JUMP JUMPDEST JUMPDEST PUSH1 0x2 DUP2 GT ISZERO PUSH2 0x41C JUMPI PUSH2 0x41B PUSH2 0x195E JUMP JUMPDEST JUMPDEST DUP2 MSTORE PUSH1 0x20 ADD PUSH1 0x1 DUP3 ADD SLOAD DUP2 MSTORE PUSH1 0x20 ADD PUSH1 0x2 DUP3 ADD PUSH0 SWAP1 SLOAD SWAP1 PUSH2 0x100 EXP SWAP1 DIV PUSH1 0xFF AND ISZERO ISZERO ISZERO ISZERO DUP2 MSTORE POP POP SWAP1 POP DUP1 PUSH0 ADD MLOAD SWAP5 POP DUP1 PUSH1 0x20 ADD MLOAD SWAP4 POP PUSH0 PUSH0 PUSH1 0x2 DUP2 GT ISZERO PUSH2 0x467 JUMPI PUSH2 0x466 PUSH2 0x195E JUMP JUMPDEST JUMPDEST DUP3 PUSH0 ADD MLOAD PUSH1 0x2 DUP2 GT ISZERO PUSH2 0x47D JUMPI PUSH2 0x47C PUSH2 0x195E JUMP JUMPDEST JUMPDEST EQ ISZERO DUP1 ISZERO PUSH2 0x48F JUMPI POP TIMESTAMP DUP3 PUSH1 0x20 ADD MLOAD GT ISZERO JUMPDEST SWAP1 POP DUP1 ISZERO DUP1 ISZERO PUSH2 0x4C6 JUMPI POP PUSH0 PUSH1 0x2 DUP2 GT ISZERO PUSH2 0x4AD JUMPI PUSH2 0x4AC PUSH2 0x195E JUMP JUMPDEST JUMPDEST DUP3 PUSH0 ADD MLOAD PUSH1 0x2 DUP2 GT ISZERO PUSH2 0x4C3 JUMPI PUSH2 0x4C2 PUSH2 0x195E JUMP JUMPDEST JUMPDEST EQ ISZERO JUMPDEST SWAP4 POP DUP1 SWAP3 POP POP POP SWAP2 SWAP4 POP SWAP2 SWAP4 JUMP JUMPDEST PUSH1 0x5 PUSH0 SWAP1 SLOAD SWAP1 PUSH2 0x100 EXP SWAP1 DIV PUSH20 0xFFFFFFFFFFFFFFFFFFFFFFFFFFFFFFFFFFFFFFFF AND DUP2 JUMP JUMPDEST PUSH0 PUSH1 0x3 PUSH0 DUP4 PUSH20 0xFFFFFFFFFFFFFFFFFFFFFFFFFFFFFFFFFFFFFFFF AND PUSH20 0xFFFFFFFFFFFFFFFFFFFFFFFFFFFFFFFFFFFFFFFF AND DUP2 MSTORE PUSH1 0x20 ADD SWAP1 DUP2 MSTORE PUSH1 0x20 ADD PUSH0 KECCAK256 SWAP1 POP PUSH0 PUSH1 0x2 DUP2 GT ISZERO PUSH2 0x54C JUMPI PUSH2 0x54B PUSH2 0x195E JUMP JUMPDEST JUMPDEST DUP2 PUSH0 ADD PUSH0 SWAP1 SLOAD SWAP1 PUSH2 0x100 EXP SWAP1 DIV PUSH1 0xFF AND PUSH1 0x2 DUP2 GT ISZERO PUSH2 0x56E JUMPI PUSH2 0x56D PUSH2 0x195E JUMP JUMPDEST JUMPDEST SUB PUSH2 0x5AE JUMPI PUSH1 0x40 MLOAD PUSH32 0x8C379A000000000000000000000000000000000000000000000000000000000 DUP2 MSTORE PUSH1 0x4 ADD PUSH2 0x5A5 SWAP1 PUSH2 0x1D58 JUMP JUMPDEST PUSH1 0x40 MLOAD DUP1 SWAP2 SUB SWAP1 REVERT JUMPDEST TIMESTAMP DUP2 PUSH1 0x1 ADD SLOAD GT ISZERO PUSH2 0x5F5 JUMPI PUSH1 0x40 MLOAD PUSH32 0x8C379A000000000000000000000000000000000000000000000000000000000 DUP2 MSTORE PUSH1 0x4 ADD PUSH2 0x5EC SWAP1 PUSH2 0x1DC0 JUMP JUMPDEST PUSH1 0x40 MLOAD DUP1 SWAP2 SUB SWAP1 REVERT JUMPDEST DUP1 PUSH1 0x2 ADD PUSH0 SWAP1 SLOAD SWAP1 PUSH2 0x100 EXP SWAP1 DIV PUSH1 0xFF AND PUSH2 0x645 JUMPI PUSH1 0x40 MLOAD PUSH32 0x8C379A000000000000000000000000000000000000000000000000000000000 DUP2 MSTORE PUSH1 0x4 ADD PUSH2 0x63C SWAP1 PUSH2 0x1E28 JUMP JUMPDEST PUSH1 0x40 MLOAD DUP1 SWAP2 SUB SWAP1 REVERT JUMPDEST PUSH0 DUP2 PUSH0 ADD PUSH0 SWAP1 SLOAD SWAP1 PUSH2 0x100 EXP SWAP1 DIV PUSH1 0xFF AND SWAP1 POP PUSH0 DUP3 PUSH0 ADD PUSH0 PUSH2 0x100 EXP DUP2 SLOAD DUP2 PUSH1 0xFF MUL NOT AND SWAP1 DUP4 PUSH1 0x2 DUP2 GT ISZERO PUSH2 0x67D JUMPI PUSH2 0x67C PUSH2 0x195E JUMP JUMPDEST JUMPDEST MUL OR SWAP1 SSTORE POP PUSH0 DUP3 PUSH1 0x2 ADD PUSH0 PUSH2 0x100 EXP DUP2 SLOAD DUP2 PUSH1 0xFF MUL NOT AND SWAP1 DUP4 ISZERO ISZERO MUL OR SWAP1 SSTORE POP DUP3 PUSH20 0xFFFFFFFFFFFFFFFFFFFFFFFFFFFFFFFFFFFFFFFF AND PUSH32 0x6632BA0AEB36047DBDBBDE4159A524BCBF81BB68773F0770C43DC7B8DC2BE53D DUP3 PUSH1 0x40 MLOAD PUSH2 0x6E3 SWAP2 SWAP1 PUSH2 0x1E46 JUMP JUMPDEST PUSH1 0x40 MLOAD DUP1 SWAP2 SUB SWAP1 LOG2 DUP3 PUSH20 0xFFFFFFFFFFFFFFFFFFFFFFFFFFFFFFFFFFFFFFFF AND PUSH32 0x1B9B72FDE9DA721E70E6ACA3B0CF4CBE73E82765EF1F280157740376531BFDD8 PUSH1 0x40 MLOAD PUSH1 0x40 MLOAD DUP1 SWAP2 SUB SWAP1 LOG2 POP POP POP JUMP JUMPDEST PUSH0 PUSH20 0xFFFFFFFFFFFFFFFFFFFFFFFFFFFFFFFFFFFFFFFF AND DUP2 PUSH20 0xFFFFFFFFFFFFFFFFFFFFFFFFFFFFFFFFFFFFFFFF AND SUB PUSH2 0x7A1 JUMPI PUSH1 0x40 MLOAD PUSH32 0x8C379A000000000000000000000000000000000000000000000000000000000 DUP2 MSTORE PUSH1 0x4 ADD PUSH2 0x798 SWAP1 PUSH2 0x1EA9 JUMP JUMPDEST PUSH1 0x40 MLOAD DUP1 SWAP2 SUB SWAP1 REVERT JUMPDEST PUSH0 PUSH1 0x2 DUP2 GT ISZERO PUSH2 0x7B4 JUMPI PUSH2 0x7B3 PUSH2 0x195E JUMP JUMPDEST JUMPDEST PUSH1 0x3 PUSH0 CALLER PUSH20 0xFFFFFFFFFFFFFFFFFFFFFFFFFFFFFFFFFFFFFFFF AND PUSH20 0xFFFFFFFFFFFFFFFFFFFFFFFFFFFFFFFFFFFFFFFF AND DUP2 MSTORE PUSH1 0x20 ADD SWAP1 DUP2 MSTORE PUSH1 0x20 ADD PUSH0 KECCAK256 PUSH0 ADD PUSH0 SWAP1 SLOAD SWAP1 PUSH2 0x100 EXP SWAP1 DIV PUSH1 0xFF AND PUSH1 0x2 DUP2 GT ISZERO PUSH2 0x812 JUMPI PUSH2 0x811 PUSH2 0x195E JUMP JUMPDEST JUMPDEST SUB PUSH2 0x852 JUMPI PUSH1 0x40 MLOAD PUSH32 0x8C379A000000000000000000000000000000000000000000000000000000000 DUP2 MSTORE PUSH1 0x4 ADD PUSH2 0x849 SWAP1 PUSH2 0x1F11 JUMP JUMPDEST PUSH1 0x40 MLOAD DUP1 SWAP2 SUB SWAP1 REVERT JUMPDEST TIMESTAMP PUSH1 0x3 PUSH0 CALLER PUSH20 0xFFFFFFFFFFFFFFFFFFFFFFFFFFFFFFFFFFFFFFFF AND PUSH20 0xFFFFFFFFFFFFFFFFFFFFFFFFFFFFFFFFFFFFFFFF AND DUP2 MSTORE PUSH1 0x20 ADD SWAP1 DUP2 MSTORE PUSH1 0x20 ADD PUSH0 KECCAK256 PUSH1 0x1 ADD SLOAD GT PUSH2 0x8D4 JUMPI PUSH1 0x40 MLOAD PUSH32 0x8C379A000000000000000000000000000000000000000000000000000000000 DUP2 MSTORE PUSH1 0x4 ADD PUSH2 0x8CB SWAP1 PUSH2 0x1F79 JUMP JUMPDEST PUSH1 0x40 MLOAD DUP1 SWAP2 SUB SWAP1 REVERT JUMPDEST DUP1 PUSH1 0x4 PUSH0 CALLER PUSH20 0xFFFFFFFFFFFFFFFFFFFFFFFFFFFFFFFFFFFFFFFF AND PUSH20 0xFFFFFFFFFFFFFFFFFFFFFFFFFFFFFFFFFFFFFFFF AND DUP2 MSTORE PUSH1 0x20 ADD SWAP1 DUP2 MSTORE PUSH1 0x20 ADD PUSH0 KECCAK256 PUSH0 PUSH2 0x100 EXP DUP2 SLOAD DUP2 PUSH20 0xFFFFFFFFFFFFFFFFFFFFFFFFFFFFFFFFFFFFFFFF MUL NOT AND SWAP1 DUP4 PUSH20 0xFFFFFFFFFFFFFFFFFFFFFFFFFFFFFFFFFFFFFFFF AND MUL OR SWAP1 SSTORE POP DUP1 PUSH20 0xFFFFFFFFFFFFFFFFFFFFFFFFFFFFFFFFFFFFFFFF AND CALLER PUSH20 0xFFFFFFFFFFFFFFFFFFFFFFFFFFFFFFFFFFFFFFFF AND PUSH32 0x342827C97908E5E2F71151C08502A66D44B6F758E3AC2F1DE95F02EB95F0A735 PUSH1 0x40 MLOAD PUSH1 0x40 MLOAD DUP1 SWAP2 SUB SWAP1 LOG3 POP JUMP JUMPDEST PUSH0 PUSH0 PUSH1 0x3 PUSH0 DUP5 PUSH20 0xFFFFFFFFFFFFFFFFFFFFFFFFFFFFFFFFFFFFFFFF AND PUSH20 0xFFFFFFFFFFFFFFFFFFFFFFFFFFFFFFFFFFFFFFFF AND DUP2 MSTORE PUSH1 0x20 ADD SWAP1 DUP2 MSTORE PUSH1 0x20 ADD PUSH0 KECCAK256 PUSH1 0x40 MLOAD DUP1 PUSH1 0x60 ADD PUSH1 0x40 MSTORE SWAP1 DUP2 PUSH0 DUP3 ADD PUSH0 SWAP1 SLOAD SWAP1 PUSH2 0x100 EXP SWAP1 DIV PUSH1 0xFF AND PUSH1 0x2 DUP2 GT ISZERO PUSH2 0xA19 JUMPI PUSH2 0xA18 PUSH2 0x195E JUMP JUMPDEST JUMPDEST PUSH1 0x2 DUP2 GT ISZERO PUSH2 0xA2B JUMPI PUSH2 0xA2A PUSH2 0x195E JUMP JUMPDEST JUMPDEST DUP2 MSTORE PUSH1 0x20 ADD PUSH1 0x1 DUP3 ADD SLOAD DUP2 MSTORE PUSH1 0x20 ADD PUSH1 0x2 DUP3 ADD PUSH0 SWAP1 SLOAD SWAP1 PUSH2 0x100 EXP SWAP1 DIV PUSH1 0xFF AND ISZERO ISZERO ISZERO ISZERO DUP2 MSTORE POP POP SWAP1 POP PUSH0 PUSH1 0x2 DUP2 GT ISZERO PUSH2 0xA68 JUMPI PUSH2 0xA67 PUSH2 0x195E JUMP JUMPDEST JUMPDEST DUP2 PUSH0 ADD MLOAD PUSH1 0x2 DUP2 GT ISZERO PUSH2 0xA7E JUMPI PUSH2 0xA7D PUSH2 0x195E JUMP JUMPDEST JUMPDEST SUB PUSH2 0xA8C JUMPI PUSH0 SWAP2 POP POP PUSH2 0xAA7 JUMP JUMPDEST TIMESTAMP DUP2 PUSH1 0x20 ADD MLOAD GT ISZERO PUSH2 0xAA2 JUMPI PUSH1 0x1 SWAP2 POP POP PUSH2 0xAA7 JUMP JUMPDEST PUSH0 SWAP2 POP POP JUMPDEST SWAP2 SWAP1 POP JUMP JUMPDEST PUSH1 0x2 PUSH1 0x20 MSTORE DUP1 PUSH0 MSTORE PUSH1 0x40 PUSH0 KECCAK256 PUSH0 SWAP2 POP SWAP1 POP DUP1 PUSH0 ADD PUSH0 SWAP1 SLOAD SWAP1 PUSH2 0x100 EXP SWAP1 DIV PUSH1 0xFF AND SWAP1 DUP1 PUSH1 0x1 ADD SLOAD SWAP1 DUP1 PUSH1 0x2 ADD SLOAD SWAP1 DUP1 PUSH1 0x3 ADD PUSH0 SWAP1 SLOAD SWAP1 PUSH2 0x100 EXP SWAP1 DIV PUSH1 0xFF AND SWAP1 POP DUP5 JUMP JUMPDEST PUSH1 0x6 PUSH0 SWAP1 SLOAD SWAP1 PUSH2 0x100 EXP SWAP1 DIV PUSH20 0xFFFFFFFFFFFFFFFFFFFFFFFFFFFFFFFFFFFFFFFF AND DUP2 JUMP JUMPDEST PUSH2 0xB1D PUSH2 0x172E JUMP JUMPDEST PUSH0 PUSH1 0x2 DUP2 GT ISZERO PUSH2 0xB30 JUMPI PUSH2 0xB2F PUSH2 0x195E JUMP JUMPDEST JUMPDEST DUP3 PUSH1 0x2 DUP2 GT ISZERO PUSH2 0xB43 JUMPI PUSH2 0xB42 PUSH2 0x195E JUMP JUMPDEST JUMPDEST SUB PUSH2 0xB83 JUMPI PUSH1 0x40 MLOAD PUSH32 0x8C379A000000000000000000000000000000000000000000000000000000000 DUP2 MSTORE PUSH1 0x4 ADD PUSH2 0xB7A SWAP1 PUSH2 0x1FE1 JUMP JUMPDEST PUSH1 0x40 MLOAD DUP1 SWAP2 SUB SWAP1 REVERT JUMPDEST PUSH0 PUSH1 0x3 PUSH0 DUP6 PUSH20 0xFFFFFFFFFFFFFFFFFFFFFFFFFFFFFFFFFFFFFFFF AND PUSH20 0xFFFFFFFFFFFFFFFFFFFFFFFFFFFFFFFFFFFFFFFF AND DUP2 MSTORE PUSH1 0x20 ADD SWAP1 DUP2 MSTORE PUSH1 0x20 ADD PUSH0 KECCAK256 SWAP1 POP PUSH0 DUP3 TIMESTAMP PUSH2 0xBD0 SWAP2 SWAP1 PUSH2 0x202C JUMP JUMPDEST SWAP1 POP DUP4 DUP3 PUSH0 ADD PUSH0 PUSH2 0x100 EXP DUP2 SLOAD DUP2 PUSH1 0xFF MUL NOT AND SWAP1 DUP4 PUSH1 0x2 DUP2 GT ISZERO PUSH2 0xBF7 JUMPI PUSH2 0xBF6 PUSH2 0x195E JUMP JUMPDEST JUMPDEST MUL OR SWAP1 SSTORE POP DUP1 DUP3 PUSH1 0x1 ADD DUP2 SWAP1 SSTORE POP PUSH1 0x1 DUP3 PUSH1 0x2 ADD PUSH0 PUSH2 0x100 EXP DUP2 SLOAD DUP2 PUSH1 0xFF MUL NOT AND SWAP1 DUP4 ISZERO ISZERO MUL OR SWAP1 SSTORE POP PUSH0 PUSH20 0xFFFFFFFFFFFFFFFFFFFFFFFFFFFFFFFFFFFFFFFF AND PUSH1 0x4 PUSH0 DUP8 PUSH20 0xFFFFFFFFFFFFFFFFFFFFFFFFFFFFFFFFFFFFFFFF AND PUSH20 0xFFFFFFFFFFFFFFFFFFFFFFFFFFFFFFFFFFFFFFFF AND DUP2 MSTORE PUSH1 0x20 ADD SWAP1 DUP2 MSTORE PUSH1 0x20 ADD PUSH0 KECCAK256 PUSH0 SWAP1 SLOAD SWAP1 PUSH2 0x100 EXP SWAP1 DIV PUSH20 0xFFFFFFFFFFFFFFFFFFFFFFFFFFFFFFFFFFFFFFFF AND PUSH20 0xFFFFFFFFFFFFFFFFFFFFFFFFFFFFFFFFFFFFFFFF AND SUB PUSH2 0xD2C JUMPI DUP5 PUSH1 0x4 PUSH0 DUP8 PUSH20 0xFFFFFFFFFFFFFFFFFFFFFFFFFFFFFFFFFFFFFFFF AND PUSH20 0xFFFFFFFFFFFFFFFFFFFFFFFFFFFFFFFFFFFFFFFF AND DUP2 MSTORE PUSH1 0x20 ADD SWAP1 DUP2 MSTORE PUSH1 0x20 ADD PUSH0 KECCAK256 PUSH0 PUSH2 0x100 EXP DUP2 SLOAD DUP2 PUSH20 0xFFFFFFFFFFFFFFFFFFFFFFFFFFFFFFFFFFFFFFFF MUL NOT AND SWAP1 DUP4 PUSH20 0xFFFFFFFFFFFFFFFFFFFFFFFFFFFFFFFFFFFFFFFF AND MUL OR SWAP1 SSTORE POP JUMPDEST DUP5 PUSH20 0xFFFFFFFFFFFFFFFFFFFFFFFFFFFFFFFFFFFFFFFF AND PUSH32 0x2FBF8C1DD8D445F8A551E40588711473AE38AC73F4E51934877F7DA74E1A509E DUP6 DUP4 PUSH1 0x40 MLOAD PUSH2 0xD74 SWAP3 SWAP2 SWAP1 PUSH2 0x205F JUMP JUMPDEST PUSH1 0x40 MLOAD DUP1 SWAP2 SUB SWAP1 LOG2 POP POP POP POP POP JUMP JUMPDEST PUSH2 0xD8B PUSH2 0x172E JUMP JUMPDEST PUSH2 0xD94 PUSH0 PUSH2 0x17B5 JUMP JUMPDEST JUMP JUMPDEST PUSH1 0x4 PUSH1 0x20 MSTORE DUP1 PUSH0 MSTORE PUSH1 0x40 PUSH0 KECCAK256 PUSH0 SWAP2 POP SLOAD SWAP1 PUSH2 0x100 EXP SWAP1 DIV PUSH20 0xFFFFFFFFFFFFFFFFFFFFFFFFFFFFFFFFFFFFFFFF AND DUP2 JUMP JUMPDEST PUSH2 0xDCE PUSH2 0x172E JUMP JUMPDEST PUSH0 PUSH1 0x2 DUP2 GT ISZERO PUSH2 0xDE1 JUMPI PUSH2 0xDE0 PUSH2 0x195E JUMP JUMPDEST JUMPDEST DUP5 PUSH1 0x2 DUP2 GT ISZERO PUSH2 0xDF4 JUMPI PUSH2 0xDF3 PUSH2 0x195E JUMP JUMPDEST JUMPDEST EQ ISZERO DUP1 PUSH2 0xE00 JUMPI POP PUSH0 DUP4 EQ JUMPDEST PUSH2 0xE3F JUMPI PUSH1 0x40 MLOAD PUSH32 0x8C379A000000000000000000000000000000000000000000000000000000000 DUP2 MSTORE PUSH1 0x4 ADD PUSH2 0xE36 SWAP1 PUSH2 0x20D0 JUMP JUMPDEST PUSH1 0x40 MLOAD DUP1 SWAP2 SUB SWAP1 REVERT JUMPDEST DUP3 PUSH1 0x2 PUSH0 DUP7 PUSH1 0x2 DUP2 GT ISZERO PUSH2 0xE56 JUMPI PUSH2 0xE55 PUSH2 0x195E JUMP JUMPDEST JUMPDEST PUSH1 0x2 DUP2 GT ISZERO PUSH2 0xE68 JUMPI PUSH2 0xE67 PUSH2 0x195E JUMP JUMPDEST JUMPDEST DUP2 MSTORE PUSH1 0x20 ADD SWAP1 DUP2 MSTORE PUSH1 0x20 ADD PUSH0 KECCAK256 PUSH1 0x1 ADD DUP2 SWAP1 SSTORE POP DUP2 PUSH1 0x2 PUSH0 DUP7 PUSH1 0x2 DUP2 GT ISZERO PUSH2 0xE93 JUMPI PUSH2 0xE92 PUSH2 0x195E JUMP JUMPDEST JUMPDEST PUSH1 0x2 DUP2 GT ISZERO PUSH2 0xEA5 JUMPI PUSH2 0xEA4 PUSH2 0x195E JUMP JUMPDEST JUMPDEST DUP2 MSTORE PUSH1 0x20 ADD SWAP1 DUP2 MSTORE PUSH1 0x20 ADD PUSH0 KECCAK256 PUSH1 0x2 ADD DUP2 SWAP1 SSTORE POP DUP1 PUSH1 0x2 PUSH0 DUP7 PUSH1 0x2 DUP2 GT ISZERO PUSH2 0xED0 JUMPI PUSH2 0xECF PUSH2 0x195E JUMP JUMPDEST JUMPDEST PUSH1 0x2 DUP2 GT ISZERO PUSH2 0xEE2 JUMPI PUSH2 0xEE1 PUSH2 0x195E JUMP JUMPDEST JUMPDEST DUP2 MSTORE PUSH1 0x20 ADD SWAP1 DUP2 MSTORE PUSH1 0x20 ADD PUSH0 KECCAK256 PUSH1 0x3 ADD PUSH0 PUSH2 0x100 EXP DUP2 SLOAD DUP2 PUSH1 0xFF MUL NOT AND SWAP1 DUP4 ISZERO ISZERO MUL OR SWAP1 SSTORE POP PUSH32 0x7F1D53317EAA3C7BA4A141735AFA753A267FAA0D47395A12AB844CD10B55D01D DUP5 DUP5 DUP5 PUSH1 0x40 MLOAD PUSH2 0xF3B SWAP4 SWAP3 SWAP2 SWAP1 PUSH2 0x20EE JUMP JUMPDEST PUSH1 0x40 MLOAD DUP1 SWAP2 SUB SWAP1 LOG1 POP POP POP POP JUMP JUMPDEST PUSH2 0xF51 PUSH2 0x172E JUMP JUMPDEST PUSH0 PUSH20 0xFFFFFFFFFFFFFFFFFFFFFFFFFFFFFFFFFFFFFFFF AND DUP2 PUSH20 0xFFFFFFFFFFFFFFFFFFFFFFFFFFFFFFFFFFFFFFFF AND SUB PUSH2 0xFBF JUMPI PUSH1 0x40 MLOAD PUSH32 0x8C379A000000000000000000000000000000000000000000000000000000000 DUP2 MSTORE PUSH1 0x4 ADD PUSH2 0xFB6 SWAP1 PUSH2 0x216D JUMP JUMPDEST PUSH1 0x40 MLOAD DUP1 SWAP2 SUB SWAP1 REVERT JUMPDEST DUP1 PUSH1 0x6 PUSH0 PUSH2 0x100 EXP DUP2 SLOAD DUP2 PUSH20 0xFFFFFFFFFFFFFFFFFFFFFFFFFFFFFFFFFFFFFFFF MUL NOT AND SWAP1 DUP4 PUSH20 0xFFFFFFFFFFFFFFFFFFFFFFFFFFFFFFFFFFFFFFFF AND MUL OR SWAP1 SSTORE POP DUP1 PUSH20 0xFFFFFFFFFFFFFFFFFFFFFFFFFFFFFFFFFFFFFFFF AND PUSH32 0x7DAE230F18360D76A040C81F050AA14EB9D6DC7901B20FC5D855E2A20FE814D1 PUSH1 0x40 MLOAD PUSH1 0x40 MLOAD DUP1 SWAP2 SUB SWAP1 LOG2 POP JUMP JUMPDEST PUSH0 PUSH0 PUSH0 SWAP1 SLOAD SWAP1 PUSH2 0x100 EXP SWAP1 DIV PUSH20 0xFFFFFFFFFFFFFFFFFFFFFFFFFFFFFFFFFFFFFFFF AND SWAP1 POP SWAP1 JUMP JUMPDEST PUSH2 0x1074 PUSH2 0x1876 JUMP JUMPDEST PUSH0 PUSH1 0x2 DUP2 GT ISZERO PUSH2 0x1087 JUMPI PUSH2 0x1086 PUSH2 0x195E JUMP JUMPDEST JUMPDEST DUP2 PUSH1 0x2 DUP2 GT ISZERO PUSH2 0x109A JUMPI PUSH2 0x1099 PUSH2 0x195E JUMP JUMPDEST JUMPDEST SUB PUSH2 0x10DA JUMPI PUSH1 0x40 MLOAD PUSH32 0x8C379A000000000000000000000000000000000000000000000000000000000 DUP2 MSTORE PUSH1 0x4 ADD PUSH2 0x10D1 SWAP1 PUSH2 0x21D5 JUMP JUMPDEST PUSH1 0x40 MLOAD DUP1 SWAP2 SUB SWAP1 REVERT JUMPDEST PUSH1 0x2 PUSH0 DUP3 PUSH1 0x2 DUP2 GT ISZERO PUSH2 0x10F0 JUMPI PUSH2 0x10EF PUSH2 0x195E JUMP JUMPDEST JUMPDEST PUSH1 0x2 DUP2 GT ISZERO PUSH2 0x1102 JUMPI PUSH2 0x1101 PUSH2 0x195E JUMP JUMPDEST JUMPDEST DUP2 MSTORE PUSH1 0x20 ADD SWAP1 DUP2 MSTORE PUSH1 0x20 ADD PUSH0 KECCAK256 PUSH1 0x3 ADD PUSH0 SWAP1 SLOAD SWAP1 PUSH2 0x100 EXP SWAP1 DIV PUSH1 0xFF AND PUSH2 0x115E JUMPI PUSH1 0x40 MLOAD PUSH32 0x8C379A000000000000000000000000000000000000000000000000000000000 DUP2 MSTORE PUSH1 0x4 ADD PUSH2 0x1155 SWAP1 PUSH2 0x223D JUMP JUMPDEST PUSH1 0x40 MLOAD DUP1 SWAP2 SUB SWAP1 REVERT JUMPDEST PUSH0 PUSH1 0x2 PUSH0 DUP4 PUSH1 0x2 DUP2 GT ISZERO PUSH2 0x1175 JUMPI PUSH2 0x1174 PUSH2 0x195E JUMP JUMPDEST JUMPDEST PUSH1 0x2 DUP2 GT ISZERO PUSH2 0x1187 JUMPI PUSH2 0x1186 PUSH2 0x195E JUMP JUMPDEST JUMPDEST DUP2 MSTORE PUSH1 0x20 ADD SWAP1 DUP2 MSTORE PUSH1 0x20 ADD PUSH0 KECCAK256 PUSH1 0x40 MLOAD DUP1 PUSH1 0x80 ADD PUSH1 0x40 MSTORE SWAP1 DUP2 PUSH0 DUP3 ADD PUSH0 SWAP1 SLOAD SWAP1 PUSH2 0x100 EXP SWAP1 DIV PUSH1 0xFF AND PUSH1 0x2 DUP2 GT ISZERO PUSH2 0x11C2 JUMPI PUSH2 0x11C1 PUSH2 0x195E JUMP JUMPDEST JUMPDEST PUSH1 0x2 DUP2 GT ISZERO PUSH2 0x11D4 JUMPI PUSH2 0x11D3 PUSH2 0x195E JUMP JUMPDEST JUMPDEST DUP2 MSTORE PUSH1 0x20 ADD PUSH1 0x1 DUP3 ADD SLOAD DUP2 MSTORE PUSH1 0x20 ADD PUSH1 0x2 DUP3 ADD SLOAD DUP2 MSTORE PUSH1 0x20 ADD PUSH1 0x3 DUP3 ADD PUSH0 SWAP1 SLOAD SWAP1 PUSH2 0x100 EXP SWAP1 DIV PUSH1 0xFF AND ISZERO ISZERO ISZERO ISZERO DUP2 MSTORE POP POP SWAP1 POP PUSH0 PUSH1 0x3 PUSH0 CALLER PUSH20 0xFFFFFFFFFFFFFFFFFFFFFFFFFFFFFFFFFFFFFFFF AND PUSH20 0xFFFFFFFFFFFFFFFFFFFFFFFFFFFFFFFFFFFFFFFF AND DUP2 MSTORE PUSH1 0x20 ADD SWAP1 DUP2 MSTORE PUSH1 0x20 ADD PUSH0 KECCAK256 SWAP1 POP PUSH1 0x5 PUSH0 SWAP1 SLOAD SWAP1 PUSH2 0x100 EXP SWAP1 DIV PUSH20 0xFFFFFFFFFFFFFFFFFFFFFFFFFFFFFFFFFFFFFFFF AND PUSH20 0xFFFFFFFFFFFFFFFFFFFFFFFFFFFFFFFFFFFFFFFF AND PUSH4 0x23B872DD CALLER PUSH1 0x6 PUSH0 SWAP1 SLOAD SWAP1 PUSH2 0x100 EXP SWAP1 DIV PUSH20 0xFFFFFFFFFFFFFFFFFFFFFFFFFFFFFFFFFFFFFFFF AND DUP6 PUSH1 0x20 ADD MLOAD PUSH1 0x40 MLOAD DUP5 PUSH4 0xFFFFFFFF AND PUSH1 0xE0 SHL DUP2 MSTORE PUSH1 0x4 ADD PUSH2 0x12CB SWAP4 SWAP3 SWAP2 SWAP1 PUSH2 0x225B JUMP JUMPDEST PUSH1 0x20 PUSH1 0x40 MLOAD DUP1 DUP4 SUB DUP2 PUSH0 DUP8 GAS CALL ISZERO DUP1 ISZERO PUSH2 0x12E7 JUMPI RETURNDATASIZE PUSH0 PUSH0 RETURNDATACOPY RETURNDATASIZE PUSH0 REVERT JUMPDEST POP POP POP POP PUSH1 0x40 MLOAD RETURNDATASIZE PUSH1 0x1F NOT PUSH1 0x1F DUP3 ADD AND DUP3 ADD DUP1 PUSH1 0x40 MSTORE POP DUP2 ADD SWAP1 PUSH2 0x130B SWAP2 SWAP1 PUSH2 0x22A4 JUMP JUMPDEST PUSH2 0x134A JUMPI PUSH1 0x40 MLOAD PUSH32 0x8C379A000000000000000000000000000000000000000000000000000000000 DUP2 MSTORE PUSH1 0x4 ADD PUSH2 0x1341 SWAP1 PUSH2 0x2319 JUMP JUMPDEST PUSH1 0x40 MLOAD DUP1 SWAP2 SUB SWAP1 REVERT JUMPDEST PUSH0 TIMESTAMP DUP3 PUSH1 0x1 ADD SLOAD GT ISZERO PUSH2 0x1372 JUMPI DUP3 PUSH1 0x40 ADD MLOAD DUP3 PUSH1 0x1 ADD SLOAD PUSH2 0x136B SWAP2 SWAP1 PUSH2 0x202C JUMP JUMPDEST SWAP1 POP PUSH2 0x1385 JUMP JUMPDEST DUP3 PUSH1 0x40 ADD MLOAD TIMESTAMP PUSH2 0x1382 SWAP2 SWAP1 PUSH2 0x202C JUMP JUMPDEST SWAP1 POP JUMPDEST DUP4 DUP3 PUSH0 ADD PUSH0 PUSH2 0x100 EXP DUP2 SLOAD DUP2 PUSH1 0xFF MUL NOT AND SWAP1 DUP4 PUSH1 0x2 DUP2 GT ISZERO PUSH2 0x13AA JUMPI PUSH2 0x13A9 PUSH2 0x195E JUMP JUMPDEST JUMPDEST MUL OR SWAP1 SSTORE POP DUP1 DUP3 PUSH1 0x1 ADD DUP2 SWAP1 SSTORE POP PUSH1 0x1 DUP3 PUSH1 0x2 ADD PUSH0 PUSH2 0x100 EXP DUP2 SLOAD DUP2 PUSH1 0xFF MUL NOT AND SWAP1 DUP4 ISZERO ISZERO MUL OR SWAP1 SSTORE POP PUSH0 PUSH20 0xFFFFFFFFFFFFFFFFFFFFFFFFFFFFFFFFFFFFFFFF AND PUSH1 0x4 PUSH0 CALLER PUSH20 0xFFFFFFFFFFFFFFFFFFFFFFFFFFFFFFFFFFFFFFFF AND PUSH20 0xFFFFFFFFFFFFFFFFFFFFFFFFFFFFFFFFFFFFFFFF AND DUP2 MSTORE PUSH1 0x20 ADD SWAP1 DUP2 MSTORE PUSH1 0x20 ADD PUSH0 KECCAK256 PUSH0 SWAP1 SLOAD SWAP1 PUSH2 0x100 EXP SWAP1 DIV PUSH20 0xFFFFFFFFFFFFFFFFFFFFFFFFFFFFFFFFFFFFFFFF AND PUSH20 0xFFFFFFFFFFFFFFFFFFFFFFFFFFFFFFFFFFFFFFFF AND SUB PUSH2 0x14DF JUMPI CALLER PUSH1 0x4 PUSH0 CALLER PUSH20 0xFFFFFFFFFFFFFFFFFFFFFFFFFFFFFFFFFFFFFFFF AND PUSH20 0xFFFFFFFFFFFFFFFFFFFFFFFFFFFFFFFFFFFFFFFF AND DUP2 MSTORE PUSH1 0x20 ADD SWAP1 DUP2 MSTORE PUSH1 0x20 ADD PUSH0 KECCAK256 PUSH0 PUSH2 0x100 EXP DUP2 SLOAD DUP2 PUSH20 0xFFFFFFFFFFFFFFFFFFFFFFFFFFFFFFFFFFFFFFFF MUL NOT AND SWAP1 DUP4 PUSH20 0xFFFFFFFFFFFFFFFFFFFFFFFFFFFFFFFFFFFFFFFF AND MUL OR SWAP1 SSTORE POP JUMPDEST CALLER PUSH20 0xFFFFFFFFFFFFFFFFFFFFFFFFFFFFFFFFFFFFFFFF AND PUSH32 0x2FBF8C1DD8D445F8A551E40588711473AE38AC73F4E51934877F7DA74E1A509E DUP6 DUP4 PUSH1 0x40 MLOAD PUSH2 0x1527 SWAP3 SWAP2 SWAP1 PUSH2 0x205F JUMP JUMPDEST PUSH1 0x40 MLOAD DUP1 SWAP2 SUB SWAP1 LOG2 POP POP POP PUSH2 0x153A PUSH2 0x18C5 JUMP JUMPDEST POP JUMP JUMPDEST PUSH0 PUSH0 PUSH0 PUSH0 PUSH1 0x2 PUSH0 DUP7 PUSH1 0x2 DUP2 GT ISZERO PUSH2 0x1557 JUMPI PUSH2 0x1556 PUSH2 0x195E JUMP JUMPDEST JUMPDEST PUSH1 0x2 DUP2 GT ISZERO PUSH2 0x1569 JUMPI PUSH2 0x1568 PUSH2 0x195E JUMP JUMPDEST JUMPDEST DUP2 MSTORE PUSH1 0x20 ADD SWAP1 DUP2 MSTORE PUSH1 0x20 ADD PUSH0 KECCAK256 PUSH1 0x40 MLOAD DUP1 PUSH1 0x80 ADD PUSH1 0x40 MSTORE SWAP1 DUP2 PUSH0 DUP3 ADD PUSH0 SWAP1 SLOAD SWAP1 PUSH2 0x100 EXP SWAP1 DIV PUSH1 0xFF AND PUSH1 0x2 DUP2 GT ISZERO PUSH2 0x15A4 JUMPI PUSH2 0x15A3 PUSH2 0x195E JUMP JUMPDEST JUMPDEST PUSH1 0x2 DUP2 GT ISZERO PUSH2 0x15B6 JUMPI PUSH2 0x15B5 PUSH2 0x195E JUMP JUMPDEST JUMPDEST DUP2 MSTORE PUSH1 0x20 ADD PUSH1 0x1 DUP3 ADD SLOAD DUP2 MSTORE PUSH1 0x20 ADD PUSH1 0x2 DUP3 ADD SLOAD DUP2 MSTORE PUSH1 0x20 ADD PUSH1 0x3 DUP3 ADD PUSH0 SWAP1 SLOAD SWAP1 PUSH2 0x100 EXP SWAP1 DIV PUSH1 0xFF AND ISZERO ISZERO ISZERO ISZERO DUP2 MSTORE POP POP SWAP1 POP DUP1 PUSH1 0x20 ADD MLOAD DUP2 PUSH1 0x40 ADD MLOAD DUP3 PUSH1 0x60 ADD MLOAD SWAP4 POP SWAP4 POP SWAP4 POP POP SWAP2 SWAP4 SWAP1 SWAP3 POP JUMP JUMPDEST PUSH1 0x3 PUSH1 0x20 MSTORE DUP1 PUSH0 MSTORE PUSH1 0x40 PUSH0 KECCAK256 PUSH0 SWAP2 POP SWAP1 POP DUP1 PUSH0 ADD PUSH0 SWAP1 SLOAD SWAP1 PUSH2 0x100 EXP SWAP1 DIV PUSH1 0xFF AND SWAP1 DUP1 PUSH1 0x1 ADD SLOAD SWAP1 DUP1 PUSH1 0x2 ADD PUSH0 SWAP1 SLOAD SWAP1 PUSH2 0x100 EXP SWAP1 DIV PUSH1 0xFF AND SWAP1 POP DUP4 JUMP JUMPDEST PUSH2 0x164D PUSH2 0x172E JUMP JUMPDEST PUSH0 PUSH20 0xFFFFFFFFFFFFFFFFFFFFFFFFFFFFFFFFFFFFFFFF AND DUP2 PUSH20 0xFFFFFFFFFFFFFFFFFFFFFFFFFFFFFFFFFFFFFFFF AND SUB PUSH2 0x16BD JUMPI PUSH0 PUSH1 0x40 MLOAD PUSH32 0x1E4FBDF700000000000000000000000000000000000000000000000000000000 DUP2 MSTORE PUSH1 0x4 ADD PUSH2 0x16B4 SWAP2 SWAP1 PUSH2 0x1B73 JUMP JUMPDEST PUSH1 0x40 MLOAD DUP1 SWAP2 SUB SWAP1 REVERT JUMPDEST PUSH2 0x16C6 DUP2 PUSH2 0x17B5 JUMP JUMPDEST POP JUMP JUMPDEST PUSH0 PUSH1 0x4 PUSH0 DUP4 PUSH20 0xFFFFFFFFFFFFFFFFFFFFFFFFFFFFFFFFFFFFFFFF AND PUSH20 0xFFFFFFFFFFFFFFFFFFFFFFFFFFFFFFFFFFFFFFFF AND DUP2 MSTORE PUSH1 0x20 ADD SWAP1 DUP2 MSTORE PUSH1 0x20 ADD PUSH0 KECCAK256 PUSH0 SWAP1 SLOAD SWAP1 PUSH2 0x100 EXP SWAP1 DIV PUSH20 0xFFFFFFFFFFFFFFFFFFFFFFFFFFFFFFFFFFFFFFFF AND SWAP1 POP SWAP2 SWAP1 POP JUMP JUMPDEST PUSH2 0x1736 PUSH2 0x18CE JUMP JUMPDEST PUSH20 0xFFFFFFFFFFFFFFFFFFFFFFFFFFFFFFFFFFFFFFFF AND PUSH2 0x1754 PUSH2 0x1045 JUMP JUMPDEST PUSH20 0xFFFFFFFFFFFFFFFFFFFFFFFFFFFFFFFFFFFFFFFF AND EQ PUSH2 0x17B3 JUMPI PUSH2 0x1777 PUSH2 0x18CE JUMP JUMPDEST PUSH1 0x40 MLOAD PUSH32 0x118CDAA700000000000000000000000000000000000000000000000000000000 DUP2 MSTORE PUSH1 0x4 ADD PUSH2 0x17AA SWAP2 SWAP1 PUSH2 0x1B73 JUMP JUMPDEST PUSH1 0x40 MLOAD DUP1 SWAP2 SUB SWAP1 REVERT JUMPDEST JUMP JUMPDEST PUSH0 PUSH0 PUSH0 SWAP1 SLOAD SWAP1 PUSH2 0x100 EXP SWAP1 DIV PUSH20 0xFFFFFFFFFFFFFFFFFFFFFFFFFFFFFFFFFFFFFFFF AND SWAP1 POP DUP2 PUSH0 PUSH0 PUSH2 0x100 EXP DUP2 SLOAD DUP2 PUSH20 0xFFFFFFFFFFFFFFFFFFFFFFFFFFFFFFFFFFFFFFFF MUL NOT AND SWAP1 DUP4 PUSH20 0xFFFFFFFFFFFFFFFFFFFFFFFFFFFFFFFFFFFFFFFF AND MUL OR SWAP1 SSTORE POP DUP2 PUSH20 0xFFFFFFFFFFFFFFFFFFFFFFFFFFFFFFFFFFFFFFFF AND DUP2 PUSH20 0xFFFFFFFFFFFFFFFFFFFFFFFFFFFFFFFFFFFFFFFF AND PUSH32 0x8BE0079C531659141344CD1FD0A4F28419497F9722A3DAAFE3B4186F6B6457E0 PUSH1 0x40 MLOAD PUSH1 0x40 MLOAD DUP1 SWAP2 SUB SWAP1 LOG3 POP POP JUMP JUMPDEST PUSH1 0x2 PUSH1 0x1 SLOAD SUB PUSH2 0x18BB JUMPI PUSH1 0x40 MLOAD PUSH32 0x8C379A000000000000000000000000000000000000000000000000000000000 DUP2 MSTORE PUSH1 0x4 ADD PUSH2 0x18B2 SWAP1 PUSH2 0x2381 JUMP JUMPDEST PUSH1 0x40 MLOAD DUP1 SWAP2 SUB SWAP1 REVERT JUMPDEST PUSH1 0x2 PUSH1 0x1 DUP2 SWAP1 SSTORE POP JUMP JUMPDEST PUSH1 0x1 DUP1 DUP2 SWAP1 SSTORE POP JUMP JUMPDEST PUSH0 CALLER SWAP1 POP SWAP1 JUMP JUMPDEST PUSH0 PUSH0 REVERT JUMPDEST PUSH0 PUSH20 0xFFFFFFFFFFFFFFFFFFFFFFFFFFFFFFFFFFFFFFFF DUP3 AND SWAP1 POP SWAP2 SWAP1 POP JUMP JUMPDEST PUSH0 PUSH2 0x1902 DUP3 PUSH2 0x18D9 JUMP JUMPDEST SWAP1 POP SWAP2 SWAP1 POP JUMP JUMPDEST PUSH2 0x1912 DUP2 PUSH2 0x18F8 JUMP JUMPDEST DUP2 EQ PUSH2 0x191C JUMPI PUSH0 PUSH0 REVERT JUMPDEST POP JUMP JUMPDEST PUSH0 DUP2 CALLDATALOAD SWAP1 POP PUSH2 0x192D DUP2 PUSH2 0x1909 JUMP JUMPDEST SWAP3 SWAP2 POP POP JUMP JUMPDEST PUSH0 PUSH1 0x20 DUP3 DUP5 SUB SLT ISZERO PUSH2 0x1948 JUMPI PUSH2 0x1947 PUSH2 0x18D5 JUMP JUMPDEST JUMPDEST PUSH0 PUSH2 0x1955 DUP5 DUP3 DUP6 ADD PUSH2 0x191F JUMP JUMPDEST SWAP2 POP POP SWAP3 SWAP2 POP POP JUMP JUMPDEST PUSH32 0x4E487B7100000000000000000000000000000000000000000000000000000000 PUSH0 MSTORE PUSH1 0x21 PUSH1 0x4 MSTORE PUSH1 0x24 PUSH0 REVERT JUMPDEST PUSH1 0x3 DUP2 LT PUSH2 0x199C JUMPI PUSH2 0x199B PUSH2 0x195E JUMP JUMPDEST JUMPDEST POP JUMP JUMPDEST PUSH0 DUP2 SWAP1 POP PUSH2 0x19AC DUP3 PUSH2 0x198B JUMP JUMPDEST SWAP2 SWAP1 POP JUMP JUMPDEST PUSH0 PUSH2 0x19BB DUP3 PUSH2 0x199F JUMP JUMPDEST SWAP1 POP SWAP2 SWAP1 POP JUMP JUMPDEST PUSH2 0x19CB DUP2 PUSH2 0x19B1 JUMP JUMPDEST DUP3 MSTORE POP POP JUMP JUMPDEST PUSH0 DUP2 SWAP1 POP SWAP2 SWAP1 POP JUMP JUMPDEST PUSH2 0x19E3 DUP2 PUSH2 0x19D1 JUMP JUMPDEST DUP3 MSTORE POP POP JUMP JUMPDEST PUSH0 DUP2 ISZERO ISZERO SWAP1 POP SWAP2 SWAP1 POP JUMP JUMPDEST PUSH2 0x19FD DUP2 PUSH2 0x19E9 JUMP JUMPDEST DUP3 MSTORE POP POP JUMP JUMPDEST PUSH0 PUSH1 0x80 DUP3 ADD SWAP1 POP PUSH2 0x1A16 PUSH0 DUP4 ADD DUP8 PUSH2 0x19C2 JUMP JUMPDEST PUSH2 0x1A23 PUSH1 0x20 DUP4 ADD DUP7 PUSH2 0x19DA JUMP JUMPDEST PUSH2 0x1A30 PUSH1 0x40 DUP4 ADD DUP6 PUSH2 0x19F4 JUMP JUMPDEST PUSH2 0x1A3D PUSH1 0x60 DUP4 ADD DUP5 PUSH2 0x19F4 JUMP JUMPDEST SWAP6 SWAP5 POP POP POP POP POP JUMP JUMPDEST PUSH0 DUP2 SWAP1 POP SWAP2 SWAP1 POP JUMP JUMPDEST PUSH0 PUSH2 0x1A69 PUSH2 0x1A64 PUSH2 0x1A5F DUP5 PUSH2 0x18D9 JUMP JUMPDEST PUSH2 0x1A46 JUMP JUMPDEST PUSH2 0x18D9 JUMP JUMPDEST SWAP1 POP SWAP2 SWAP1 POP JUMP JUMPDEST PUSH0 PUSH2 0x1A7A DUP3 PUSH2 0x1A4F JUMP JUMPDEST SWAP1 POP SWAP2 SWAP1 POP JUMP JUMPDEST PUSH0 PUSH2 0x1A8B DUP3 PUSH2 0x1A70 JUMP JUMPDEST SWAP1 POP SWAP2 SWAP1 POP JUMP JUMPDEST PUSH2 0x1A9B DUP2 PUSH2 0x1A81 JUMP JUMPDEST DUP3 MSTORE POP POP JUMP JUMPDEST PUSH0 PUSH1 0x20 DUP3 ADD SWAP1 POP PUSH2 0x1AB4 PUSH0 DUP4 ADD DUP5 PUSH2 0x1A92 JUMP JUMPDEST SWAP3 SWAP2 POP POP JUMP JUMPDEST PUSH0 PUSH1 0x20 DUP3 ADD SWAP1 POP PUSH2 0x1ACD PUSH0 DUP4 ADD DUP5 PUSH2 0x19F4 JUMP JUMPDEST SWAP3 SWAP2 POP POP JUMP JUMPDEST PUSH1 0x3 DUP2 LT PUSH2 0x1ADF JUMPI PUSH0 PUSH0 REVERT JUMPDEST POP JUMP JUMPDEST PUSH0 DUP2 CALLDATALOAD SWAP1 POP PUSH2 0x1AF0 DUP2 PUSH2 0x1AD3 JUMP JUMPDEST SWAP3 SWAP2 POP POP JUMP JUMPDEST PUSH0 PUSH1 0x20 DUP3 DUP5 SUB SLT ISZERO PUSH2 0x1B0B JUMPI PUSH2 0x1B0A PUSH2 0x18D5 JUMP JUMPDEST JUMPDEST PUSH0 PUSH2 0x1B18 DUP5 DUP3 DUP6 ADD PUSH2 0x1AE2 JUMP JUMPDEST SWAP2 POP POP SWAP3 SWAP2 POP POP JUMP JUMPDEST PUSH0 PUSH1 0x80 DUP3 ADD SWAP1 POP PUSH2 0x1B34 PUSH0 DUP4 ADD DUP8 PUSH2 0x19C2 JUMP JUMPDEST PUSH2 0x1B41 PUSH1 0x20 DUP4 ADD DUP7 PUSH2 0x19DA JUMP JUMPDEST PUSH2 0x1B4E PUSH1 0x40 DUP4 ADD DUP6 PUSH2 0x19DA JUMP JUMPDEST PUSH2 0x1B5B PUSH1 0x60 DUP4 ADD DUP5 PUSH2 0x19F4 JUMP JUMPDEST SWAP6 SWAP5 POP POP POP POP POP JUMP JUMPDEST PUSH2 0x1B6D DUP2 PUSH2 0x18F8 JUMP JUMPDEST DUP3 MSTORE POP POP JUMP JUMPDEST PUSH0 PUSH1 0x20 DUP3 ADD SWAP1 POP PUSH2 0x1B86 PUSH0 DUP4 ADD DUP5 PUSH2 0x1B64 JUMP JUMPDEST SWAP3 SWAP2 POP POP JUMP JUMPDEST PUSH2 0x1B95 DUP2 PUSH2 0x19D1 JUMP JUMPDEST DUP2 EQ PUSH2 0x1B9F JUMPI PUSH0 PUSH0 REVERT JUMPDEST POP JUMP JUMPDEST PUSH0 DUP2 CALLDATALOAD SWAP1 POP PUSH2 0x1BB0 DUP2 PUSH2 0x1B8C JUMP JUMPDEST SWAP3 SWAP2 POP POP JUMP JUMPDEST PUSH0 PUSH0 PUSH0 PUSH1 0x60 DUP5 DUP7 SUB SLT ISZERO PUSH2 0x1BCD JUMPI PUSH2 0x1BCC PUSH2 0x18D5 JUMP JUMPDEST JUMPDEST PUSH0 PUSH2 0x1BDA DUP7 DUP3 DUP8 ADD PUSH2 0x191F JUMP JUMPDEST SWAP4 POP POP PUSH1 0x20 PUSH2 0x1BEB DUP7 DUP3 DUP8 ADD PUSH2 0x1AE2 JUMP JUMPDEST SWAP3 POP POP PUSH1 0x40 PUSH2 0x1BFC DUP7 DUP3 DUP8 ADD PUSH2 0x1BA2 JUMP JUMPDEST SWAP2 POP POP SWAP3 POP SWAP3 POP SWAP3 JUMP JUMPDEST PUSH2 0x1C0F DUP2 PUSH2 0x19E9 JUMP JUMPDEST DUP2 EQ PUSH2 0x1C19 JUMPI PUSH0 PUSH0 REVERT JUMPDEST POP JUMP JUMPDEST PUSH0 DUP2 CALLDATALOAD SWAP1 POP PUSH2 0x1C2A DUP2 PUSH2 0x1C06 JUMP JUMPDEST SWAP3 SWAP2 POP POP JUMP JUMPDEST PUSH0 PUSH0 PUSH0 PUSH0 PUSH1 0x80 DUP6 DUP8 SUB SLT ISZERO PUSH2 0x1C48 JUMPI PUSH2 0x1C47 PUSH2 0x18D5 JUMP JUMPDEST JUMPDEST PUSH0 PUSH2 0x1C55 DUP8 DUP3 DUP9 ADD PUSH2 0x1AE2 JUMP JUMPDEST SWAP5 POP POP PUSH1 0x20 PUSH2 0x1C66 DUP8 DUP3 DUP9 ADD PUSH2 0x1BA2 JUMP JUMPDEST SWAP4 POP POP PUSH1 0x40 PUSH2 0x1C77 DUP8 DUP3 DUP9 ADD PUSH2 0x1BA2 JUMP JUMPDEST SWAP3 POP POP PUSH1 0x60 PUSH2 0x1C88 DUP8 DUP3 DUP9 ADD PUSH2 0x1C1C JUMP JUMPDEST SWAP2 POP POP SWAP3 SWAP6 SWAP2 SWAP5 POP SWAP3 POP JUMP JUMPDEST PUSH0 PUSH1 0x60 DUP3 ADD SWAP1 POP PUSH2 0x1CA7 PUSH0 DUP4 ADD DUP7 PUSH2 0x19DA JUMP JUMPDEST PUSH2 0x1CB4 PUSH1 0x20 DUP4 ADD DUP6 PUSH2 0x19DA JUMP JUMPDEST PUSH2 0x1CC1 PUSH1 0x40 DUP4 ADD DUP5 PUSH2 0x19F4 JUMP JUMPDEST SWAP5 SWAP4 POP POP POP POP JUMP JUMPDEST PUSH0 PUSH1 0x60 DUP3 ADD SWAP1 POP PUSH2 0x1CDC PUSH0 DUP4 ADD DUP7 PUSH2 0x19C2 JUMP JUMPDEST PUSH2 0x1CE9 PUSH1 0x20 DUP4 ADD DUP6 PUSH2 0x19DA JUMP JUMPDEST PUSH2 0x1CF6 PUSH1 0x40 DUP4 ADD DUP5 PUSH2 0x19F4 JUMP JUMPDEST SWAP5 SWAP4 POP POP POP POP JUMP JUMPDEST PUSH0 DUP3 DUP3 MSTORE PUSH1 0x20 DUP3 ADD SWAP1 POP SWAP3 SWAP2 POP POP JUMP JUMPDEST PUSH32 0x55736572206973206F6E206672656520706C616E000000000000000000000000 PUSH0 DUP3 ADD MSTORE POP JUMP JUMPDEST PUSH0 PUSH2 0x1D42 PUSH1 0x14 DUP4 PUSH2 0x1CFE JUMP JUMPDEST SWAP2 POP PUSH2 0x1D4D DUP3 PUSH2 0x1D0E JUMP JUMPDEST PUSH1 0x20 DUP3 ADD SWAP1 POP SWAP2 SWAP1 POP JUMP JUMPDEST PUSH0 PUSH1 0x20 DUP3 ADD SWAP1 POP DUP2 DUP2 SUB PUSH0 DUP4 ADD MSTORE PUSH2 0x1D6F DUP2 PUSH2 0x1D36 JUMP JUMPDEST SWAP1 POP SWAP2 SWAP1 POP JUMP JUMPDEST PUSH32 0x537562736372697074696F6E207374696C6C2061637469766500000000000000 PUSH0 DUP3 ADD MSTORE POP JUMP JUMPDEST PUSH0 PUSH2 0x1DAA PUSH1 0x19 DUP4 PUSH2 0x1CFE JUMP JUMPDEST SWAP2 POP PUSH2 0x1DB5 DUP3 PUSH2 0x1D76 JUMP JUMPDEST PUSH1 0x20 DUP3 ADD SWAP1 POP SWAP2 SWAP1 POP JUMP JUMPDEST PUSH0 PUSH1 0x20 DUP3 ADD SWAP1 POP DUP2 DUP2 SUB PUSH0 DUP4 ADD MSTORE PUSH2 0x1DD7 DUP2 PUSH2 0x1D9E JUMP JUMPDEST SWAP1 POP SWAP2 SWAP1 POP JUMP JUMPDEST PUSH32 0x41636365737320616C7265616479207265766F6B656400000000000000000000 PUSH0 DUP3 ADD MSTORE POP JUMP JUMPDEST PUSH0 PUSH2 0x1E12 PUSH1 0x16 DUP4 PUSH2 0x1CFE JUMP JUMPDEST SWAP2 POP PUSH2 0x1E1D DUP3 PUSH2 0x1DDE JUMP JUMPDEST PUSH1 0x20 DUP3 ADD SWAP1 POP SWAP2 SWAP1 POP JUMP JUMPDEST PUSH0 PUSH1 0x20 DUP3 ADD SWAP1 POP DUP2 DUP2 SUB PUSH0 DUP4 ADD MSTORE PUSH2 0x1E3F DUP2 PUSH2 0x1E06 JUMP JUMPDEST SWAP1 POP SWAP2 SWAP1 POP JUMP JUMPDEST PUSH0 PUSH1 0x20 DUP3 ADD SWAP1 POP PUSH2 0x1E59 PUSH0 DUP4 ADD DUP5 PUSH2 0x19C2 JUMP JUMPDEST SWAP3 SWAP2 POP POP JUMP JUMPDEST PUSH32 0x496E76616C6964206F776E657220616464726573730000000000000000000000 PUSH0 DUP3 ADD MSTORE POP JUMP JUMPDEST PUSH0 PUSH2 0x1E93 PUSH1 0x15 DUP4 PUSH2 0x1CFE JUMP JUMPDEST SWAP2 POP PUSH2 0x1E9E DUP3 PUSH2 0x1E5F JUMP JUMPDEST PUSH1 0x20 DUP3 ADD SWAP1 POP SWAP2 SWAP1 POP JUMP JUMPDEST PUSH0 PUSH1 0x20 DUP3 ADD SWAP1 POP DUP2 DUP2 SUB PUSH0 DUP4 ADD MSTORE PUSH2 0x1EC0 DUP2 PUSH2 0x1E87 JUMP JUMPDEST SWAP1 POP SWAP2 SWAP1 POP JUMP JUMPDEST PUSH32 0x4F6E6C7920706169642075736572732063616E20736574206F776E6572000000 PUSH0 DUP3 ADD MSTORE POP JUMP JUMPDEST PUSH0 PUSH2 0x1EFB PUSH1 0x1D DUP4 PUSH2 0x1CFE JUMP JUMPDEST SWAP2 POP PUSH2 0x1F06 DUP3 PUSH2 0x1EC7 JUMP JUMPDEST PUSH1 0x20 DUP3 ADD SWAP1 POP SWAP2 SWAP1 POP JUMP JUMPDEST PUSH0 PUSH1 0x20 DUP3 ADD SWAP1 POP DUP2 DUP2 SUB PUSH0 DUP4 ADD MSTORE PUSH2 0x1F28 DUP2 PUSH2 0x1EEF JUMP JUMPDEST SWAP1 POP SWAP2 SWAP1 POP JUMP JUMPDEST PUSH32 0x537562736372697074696F6E2065787069726564000000000000000000000000 PUSH0 DUP3 ADD MSTORE POP JUMP JUMPDEST PUSH0 PUSH2 0x1F63 PUSH1 0x14 DUP4 PUSH2 0x1CFE JUMP JUMPDEST SWAP2 POP PUSH2 0x1F6E DUP3 PUSH2 0x1F2F JUMP JUMPDEST PUSH1 0x20 DUP3 ADD SWAP1 POP SWAP2 SWAP1 POP JUMP JUMPDEST PUSH0 PUSH1 0x20 DUP3 ADD SWAP1 POP DUP2 DUP2 SUB PUSH0 DUP4 ADD MSTORE PUSH2 0x1F90 DUP2 PUSH2 0x1F57 JUMP JUMPDEST SWAP1 POP SWAP2 SWAP1 POP JUMP JUMPDEST PUSH32 0x43616E6E6F74206772616E74206672656520706C616E00000000000000000000 PUSH0 DUP3 ADD MSTORE POP JUMP JUMPDEST PUSH0 PUSH2 0x1FCB PUSH1 0x16 DUP4 PUSH2 0x1CFE JUMP JUMPDEST SWAP2 POP PUSH2 0x1FD6 DUP3 PUSH2 0x1F97 JUMP JUMPDEST PUSH1 0x20 DUP3 ADD SWAP1 POP SWAP2 SWAP1 POP JUMP JUMPDEST PUSH0 PUSH1 0x20 DUP3 ADD SWAP1 POP DUP2 DUP2 SUB PUSH0 DUP4 ADD MSTORE PUSH2 0x1FF8 DUP2 PUSH2 0x1FBF JUMP JUMPDEST SWAP1 POP SWAP2 SWAP1 POP JUMP JUMPDEST PUSH32 0x4E487B7100000000000000000000000000000000000000000000000000000000 PUSH0 MSTORE PUSH1 0x11 PUSH1 0x4 MSTORE PUSH1 0x24 PUSH0 REVERT JUMPDEST PUSH0 PUSH2 0x2036 DUP3 PUSH2 0x19D1 JUMP JUMPDEST SWAP2 POP PUSH2 0x2041 DUP4 PUSH2 0x19D1 JUMP JUMPDEST SWAP3 POP DUP3 DUP3 ADD SWAP1 POP DUP1 DUP3 GT ISZERO PUSH2 0x2059 JUMPI PUSH2 0x2058 PUSH2 0x1FFF JUMP JUMPDEST JUMPDEST SWAP3 SWAP2 POP POP JUMP JUMPDEST PUSH0 PUSH1 0x40 DUP3 ADD SWAP1 POP PUSH2 0x2072 PUSH0 DUP4 ADD DUP6 PUSH2 0x19C2 JUMP JUMPDEST PUSH2 0x207F PUSH1 0x20 DUP4 ADD DUP5 PUSH2 0x19DA JUMP JUMPDEST SWAP4 SWAP3 POP POP POP JUMP JUMPDEST PUSH32 0x4672656520706C616E206D757374206861766520302070726963650000000000 PUSH0 DUP3 ADD MSTORE POP JUMP JUMPDEST PUSH0 PUSH2 0x20BA PUSH1 0x1B DUP4 PUSH2 0x1CFE JUMP JUMPDEST SWAP2 POP PUSH2 0x20C5 DUP3 PUSH2 0x2086 JUMP JUMPDEST PUSH1 0x20 DUP3 ADD SWAP1 POP SWAP2 SWAP1 POP JUMP JUMPDEST PUSH0 PUSH1 0x20 DUP3 ADD SWAP1 POP DUP2 DUP2 SUB PUSH0 DUP4 ADD MSTORE PUSH2 0x20E7 DUP2 PUSH2 0x20AE JUMP JUMPDEST SWAP1 POP SWAP2 SWAP1 POP JUMP JUMPDEST PUSH0 PUSH1 0x60 DUP3 ADD SWAP1 POP PUSH2 0x2101 PUSH0 DUP4 ADD DUP7 PUSH2 0x19C2 JUMP JUMPDEST PUSH2 0x210E PUSH1 0x20 DUP4 ADD DUP6 PUSH2 0x19DA JUMP JUMPDEST PUSH2 0x211B PUSH1 0x40 DUP4 ADD DUP5 PUSH2 0x19DA JUMP JUMPDEST SWAP5 SWAP4 POP POP POP POP JUMP JUMPDEST PUSH32 0x496E76616C696420747265617375727920616464726573730000000000000000 PUSH0 DUP3 ADD MSTORE POP JUMP JUMPDEST PUSH0 PUSH2 0x2157 PUSH1 0x18 DUP4 PUSH2 0x1CFE JUMP JUMPDEST SWAP2 POP PUSH2 0x2162 DUP3 PUSH2 0x2123 JUMP JUMPDEST PUSH1 0x20 DUP3 ADD SWAP1 POP SWAP2 SWAP1 POP JUMP JUMPDEST PUSH0 PUSH1 0x20 DUP3 ADD SWAP1 POP DUP2 DUP2 SUB PUSH0 DUP4 ADD MSTORE PUSH2 0x2184 DUP2 PUSH2 0x214B JUMP JUMPDEST SWAP1 POP SWAP2 SWAP1 POP JUMP JUMPDEST PUSH32 0x43616E6E6F74207075726368617365206672656520706C616E00000000000000 PUSH0 DUP3 ADD MSTORE POP JUMP JUMPDEST PUSH0 PUSH2 0x21BF PUSH1 0x19 DUP4 PUSH2 0x1CFE JUMP JUMPDEST SWAP2 POP PUSH2 0x21CA DUP3 PUSH2 0x218B JUMP JUMPDEST PUSH1 0x20 DUP3 ADD SWAP1 POP SWAP2 SWAP1 POP JUMP JUMPDEST PUSH0 PUSH1 0x20 DUP3 ADD SWAP1 POP DUP2 DUP2 SUB PUSH0 DUP4 ADD MSTORE PUSH2 0x21EC DUP2 PUSH2 0x21B3 JUMP JUMPDEST SWAP1 POP SWAP2 SWAP1 POP JUMP JUMPDEST PUSH32 0x506C616E206E6F74206163746976650000000000000000000000000000000000 PUSH0 DUP3 ADD MSTORE POP JUMP JUMPDEST PUSH0 PUSH2 0x2227 PUSH1 0xF DUP4 PUSH2 0x1CFE JUMP JUMPDEST SWAP2 POP PUSH2 0x2232 DUP3 PUSH2 0x21F3 JUMP JUMPDEST PUSH1 0x20 DUP3 ADD SWAP1 POP SWAP2 SWAP1 POP JUMP JUMPDEST PUSH0 PUSH1 0x20 DUP3 ADD SWAP1 POP DUP2 DUP2 SUB PUSH0 DUP4 ADD MSTORE PUSH2 0x2254 DUP2 PUSH2 0x221B JUMP JUMPDEST SWAP1 POP SWAP2 SWAP1 POP JUMP JUMPDEST PUSH0 PUSH1 0x60 DUP3 ADD SWAP1 POP PUSH2 0x226E PUSH0 DUP4 ADD DUP7 PUSH2 0x1B64 JUMP JUMPDEST PUSH2 0x227B PUSH1 0x20 DUP4 ADD DUP6 PUSH2 0x1B64 JUMP JUMPDEST PUSH2 0x2288 PUSH1 0x40 DUP4 ADD DUP5 PUSH2 0x19DA JUMP JUMPDEST SWAP5 SWAP4 POP POP POP POP JUMP JUMPDEST PUSH0 DUP2 MLOAD SWAP1 POP PUSH2 0x229E DUP2 PUSH2 0x1C06 JUMP JUMPDEST SWAP3 SWAP2 POP POP JUMP JUMPDEST PUSH0 PUSH1 0x20 DUP3 DUP5 SUB SLT ISZERO PUSH2 0x22B9 JUMPI PUSH2 0x22B8 PUSH2 0x18D5 JUMP JUMPDEST JUMPDEST PUSH0 PUSH2 0x22C6 DUP5 DUP3 DUP6 ADD PUSH2 0x2290 JUMP JUMPDEST SWAP2 POP POP SWAP3 SWAP2 POP POP JUMP JUMPDEST PUSH32 0x5061796D656E74206661696C6564000000000000000000000000000000000000 PUSH0 DUP3 ADD MSTORE POP JUMP JUMPDEST PUSH0 PUSH2 0x2303 PUSH1 0xE DUP4 PUSH2 0x1CFE JUMP JUMPDEST SWAP2 POP PUSH2 0x230E DUP3 PUSH2 0x22CF JUMP JUMPDEST PUSH1 0x20 DUP3 ADD SWAP1 POP SWAP2 SWAP1 POP JUMP JUMPDEST PUSH0 PUSH1 0x20 DUP3 ADD SWAP1 POP DUP2 DUP2 SUB PUSH0 DUP4 ADD MSTORE PUSH2 0x2330 DUP2 PUSH2 0x22F7 JUMP JUMPDEST SWAP1 POP SWAP2 SWAP1 POP JUMP JUMPDEST PUSH32 0x5265656E7472616E637947756172643A207265656E7472616E742063616C6C00 PUSH0 DUP3 ADD MSTORE POP JUMP JUMPDEST PUSH0 PUSH2 0x236B PUSH1 0x1F DUP4 PUSH2 0x1CFE JUMP JUMPDEST SWAP2 POP PUSH2 0x2376 DUP3 PUSH2 0x2337 JUMP JUMPDEST PUSH1 0x20 DUP3 ADD SWAP1 POP SWAP2 SWAP1 POP JUMP JUMPDEST PUSH0 PUSH1 0x20 DUP3 ADD SWAP1 POP DUP2 DUP2 SUB PUSH0 DUP4 ADD MSTORE PUSH2 0x2398 DUP2 PUSH2 0x235F JUMP JUMPDEST SWAP1 POP SWAP2 SWAP1 POP JUMP INVALID LOG2 PUSH5 0x6970667358 0x22 SLT KECCAK256 0xB7 RJUMP 0x5628 ADDRESS SWAP16 DATALOADN 0x7CA4 SGT EQ BLOBHASH POP 0xDF 0xBE LOG3 SAR SWAP8 0xDC LOG2 BLOBBASEFEE 0xDC TLOAD EXTCODECOPY 0xC 0xB3 EOFCREATE 0xA3 MSTORE 0xDD 0xEA NOT PUSH5 0x736F6C6343 STOP ADDMOD 0x1E STOP CALLER "
				},
				"gasEstimates": {
					"creation": {
						"codeDepositCost": "1834600",
						"executionCost": "infinite",
						"totalCost": "infinite"
					},
					"external": {
						"checkAccess(address)": "7427",
						"getOwner(address)": "infinite",
						"getPlanDetails(uint8)": "infinite",
						"getSubscription(address)": "infinite",
						"grantAccess(address,uint8,uint256)": "infinite",
						"owner()": "2603",
						"plans(uint8)": "infinite",
						"purchasePlan(uint8)": "infinite",
						"renounceOwnership()": "infinite",
						"revokeExpiredAccess(address)": "60660",
						"setOwner(address)": "30986",
						"subscriptions(address)": "7473",
						"transferOwnership(address)": "infinite",
						"treasury()": "2575",
						"updatePlan(uint8,uint256,uint256,bool)": "infinite",
						"updateTreasury(address)": "infinite",
						"usdcToken()": "infinite",
						"userOwners(address)": "infinite"
					}
				},
				"methodIdentifiers": {
					"checkAccess(address)": "466a0146",
					"getOwner(address)": "fa544161",
					"getPlanDetails(uint8)": "c9563560",
					"getSubscription(address)": "0cbebc24",
					"grantAccess(address,uint8,uint256)": "6c52df4e",
					"owner()": "8da5cb5b",
					"plans(uint8)": "60a31a88",
					"purchasePlan(uint8)": "98693010",
					"renounceOwnership()": "715018a6",
					"revokeExpiredAccess(address)": "129debff",
					"setOwner(address)": "13af4035",
					"subscriptions(address)": "f046395a",
					"transferOwnership(address)": "f2fde38b",
					"treasury()": "61d027b3",
					"updatePlan(uint8,uint256,uint256,bool)": "7ecf2128",
					"updateTreasury(address)": "7f51bb1f",
					"usdcToken()": "11eac855",
					"userOwners(address)": "77812b7f"
				}
			},
			"storageLayout": {
				"storage": [
					{
						"astId": 8,
						"contract": "upgrade.sol:SubscriptionPlan",
						"label": "_owner",
						"offset": 0,
						"slot": "0",
						"type": "t_address"
					},
					{
						"astId": 158,
						"contract": "upgrade.sol:SubscriptionPlan",
						"label": "_status",
						"offset": 0,
						"slot": "1",
						"type": "t_uint256"
					},
					{
						"astId": 358,
						"contract": "upgrade.sol:SubscriptionPlan",
						"label": "plans",
						"offset": 0,
						"slot": "2",
						"type": "t_mapping(t_enum(PlanType)334,t_struct(Plan)344_storage)"
					},
					{
						"astId": 363,
						"contract": "upgrade.sol:SubscriptionPlan",
						"label": "subscriptions",
						"offset": 0,
						"slot": "3",
						"type": "t_mapping(t_address,t_struct(Subscription)352_storage)"
					},
					{
						"astId": 367,
						"contract": "upgrade.sol:SubscriptionPlan",
						"label": "userOwners",
						"offset": 0,
						"slot": "4",
						"type": "t_mapping(t_address,t_address)"
					},
					{
						"astId": 370,
						"contract": "upgrade.sol:SubscriptionPlan",
						"label": "usdcToken",
						"offset": 0,
						"slot": "5",
						"type": "t_contract(IERC20)290"
					},
					{
						"astId": 372,
						"contract": "upgrade.sol:SubscriptionPlan",
						"label": "treasury",
						"offset": 0,
						"slot": "6",
						"type": "t_address"
					}
				],
				"types": {
					"t_address": {
						"encoding": "inplace",
						"label": "address",
						"numberOfBytes": "20"
					},
					"t_bool": {
						"encoding": "inplace",
						"label": "bool",
						"numberOfBytes": "1"
					},
					"t_contract(IERC20)290": {
						"encoding": "inplace",
						"label": "contract IERC20",
						"numberOfBytes": "20"
					},
					"t_enum(PlanType)334": {
						"encoding": "inplace",
						"label": "enum SubscriptionPlan.PlanType",
						"numberOfBytes": "1"
					},
					"t_mapping(t_address,t_address)": {
						"encoding": "mapping",
						"key": "t_address",
						"label": "mapping(address => address)",
						"numberOfBytes": "32",
						"value": "t_address"
					},
					"t_mapping(t_address,t_struct(Subscription)352_storage)": {
						"encoding": "mapping",
						"key": "t_address",
						"label": "mapping(address => struct SubscriptionPlan.Subscription)",
						"numberOfBytes": "32",
						"value": "t_struct(Subscription)352_storage"
					},
					"t_mapping(t_enum(PlanType)334,t_struct(Plan)344_storage)": {
						"encoding": "mapping",
						"key": "t_enum(PlanType)334",
						"label": "mapping(enum SubscriptionPlan.PlanType => struct SubscriptionPlan.Plan)",
						"numberOfBytes": "32",
						"value": "t_struct(Plan)344_storage"
					},
					"t_struct(Plan)344_storage": {
						"encoding": "inplace",
						"label": "struct SubscriptionPlan.Plan",
						"members": [
							{
								"astId": 337,
								"contract": "upgrade.sol:SubscriptionPlan",
								"label": "planType",
								"offset": 0,
								"slot": "0",
								"type": "t_enum(PlanType)334"
							},
							{
								"astId": 339,
								"contract": "upgrade.sol:SubscriptionPlan",
								"label": "price",
								"offset": 0,
								"slot": "1",
								"type": "t_uint256"
							},
							{
								"astId": 341,
								"contract": "upgrade.sol:SubscriptionPlan",
								"label": "duration",
								"offset": 0,
								"slot": "2",
								"type": "t_uint256"
							},
							{
								"astId": 343,
								"contract": "upgrade.sol:SubscriptionPlan",
								"label": "isActive",
								"offset": 0,
								"slot": "3",
								"type": "t_bool"
							}
						],
						"numberOfBytes": "128"
					},
					"t_struct(Subscription)352_storage": {
						"encoding": "inplace",
						"label": "struct SubscriptionPlan.Subscription",
						"members": [
							{
								"astId": 347,
								"contract": "upgrade.sol:SubscriptionPlan",
								"label": "planType",
								"offset": 0,
								"slot": "0",
								"type": "t_enum(PlanType)334"
							},
							{
								"astId": 349,
								"contract": "upgrade.sol:SubscriptionPlan",
								"label": "expiryTimestamp",
								"offset": 0,
								"slot": "1",
								"type": "t_uint256"
							},
							{
								"astId": 351,
								"contract": "upgrade.sol:SubscriptionPlan",
								"label": "hasAccess",
								"offset": 0,
								"slot": "2",
								"type": "t_bool"
							}
						],
						"numberOfBytes": "96"
					},
					"t_uint256": {
						"encoding": "inplace",
						"label": "uint256",
						"numberOfBytes": "32"
					}
				}
			},
			"userdoc": {
				"kind": "user",
				"methods": {},
				"notice": "Free users cannot access DCA features, paid subscribers get full access",
				"version": 1
			}
		}
	}
}